
Software_IIC_Example.elf:     file format elf32-littlearm

Sections:
Idx Name          Size      VMA       LMA       File off  Algn
  0 .isr_vector   0000010c  08000000  08000000  00010000  2**0
                  CONTENTS, ALLOC, LOAD, READONLY, DATA
  1 .text         00003164  0800010c  0800010c  0001010c  2**2
                  CONTENTS, ALLOC, LOAD, READONLY, CODE
  2 .rodata       000000cc  08003270  08003270  00013270  2**2
                  CONTENTS, ALLOC, LOAD, READONLY, DATA
  3 .ARM.extab    00000000  0800333c  0800333c  00020070  2**0
                  CONTENTS
  4 .ARM          00000000  0800333c  0800333c  00020070  2**0
                  CONTENTS
  5 .preinit_array 00000000  0800333c  0800333c  00020070  2**0
                  CONTENTS, ALLOC, LOAD, DATA
  6 .init_array   00000004  0800333c  0800333c  0001333c  2**2
                  CONTENTS, ALLOC, LOAD, DATA
  7 .fini_array   00000004  08003340  08003340  00013340  2**2
                  CONTENTS, ALLOC, LOAD, DATA
  8 .data         00000070  20000000  08003344  00020000  2**2
                  CONTENTS, ALLOC, LOAD, DATA
  9 .bss          000000c0  20000070  080033b4  00020070  2**2
                  ALLOC
 10 ._user_heap_stack 00000600  20000130  080033b4  00020130  2**0
                  ALLOC
 11 .ARM.attributes 00000029  00000000  00000000  00020070  2**0
                  CONTENTS, READONLY
 12 .debug_info   0000a3a6  00000000  00000000  00020099  2**0
                  CONTENTS, READONLY, DEBUGGING
 13 .debug_abbrev 00001c35  00000000  00000000  0002a43f  2**0
                  CONTENTS, READONLY, DEBUGGING
 14 .debug_aranges 00000740  00000000  00000000  0002c078  2**3
                  CONTENTS, READONLY, DEBUGGING
 15 .debug_ranges 00000658  00000000  00000000  0002c7b8  2**3
                  CONTENTS, READONLY, DEBUGGING
 16 .debug_macro  00017d8f  00000000  00000000  0002ce10  2**0
                  CONTENTS, READONLY, DEBUGGING
 17 .debug_line   00007e98  00000000  00000000  00044b9f  2**0
                  CONTENTS, READONLY, DEBUGGING
 18 .debug_str    000825cc  00000000  00000000  0004ca37  2**0
                  CONTENTS, READONLY, DEBUGGING
 19 .comment      0000007b  00000000  00000000  000cf003  2**0
                  CONTENTS, READONLY
 20 .debug_frame  00001ed0  00000000  00000000  000cf080  2**2
                  CONTENTS, READONLY, DEBUGGING

Disassembly of section .text:

0800010c <__do_global_dtors_aux>:
 800010c:	b510      	push	{r4, lr}
 800010e:	4c05      	ldr	r4, [pc, #20]	; (8000124 <__do_global_dtors_aux+0x18>)
 8000110:	7823      	ldrb	r3, [r4, #0]
 8000112:	b933      	cbnz	r3, 8000122 <__do_global_dtors_aux+0x16>
 8000114:	4b04      	ldr	r3, [pc, #16]	; (8000128 <__do_global_dtors_aux+0x1c>)
 8000116:	b113      	cbz	r3, 800011e <__do_global_dtors_aux+0x12>
 8000118:	4804      	ldr	r0, [pc, #16]	; (800012c <__do_global_dtors_aux+0x20>)
 800011a:	f3af 8000 	nop.w
 800011e:	2301      	movs	r3, #1
 8000120:	7023      	strb	r3, [r4, #0]
 8000122:	bd10      	pop	{r4, pc}
 8000124:	20000070 	.word	0x20000070
 8000128:	00000000 	.word	0x00000000
 800012c:	08003258 	.word	0x08003258

08000130 <frame_dummy>:
 8000130:	b508      	push	{r3, lr}
 8000132:	4b03      	ldr	r3, [pc, #12]	; (8000140 <frame_dummy+0x10>)
 8000134:	b11b      	cbz	r3, 800013e <frame_dummy+0xe>
 8000136:	4903      	ldr	r1, [pc, #12]	; (8000144 <frame_dummy+0x14>)
 8000138:	4803      	ldr	r0, [pc, #12]	; (8000148 <frame_dummy+0x18>)
 800013a:	f3af 8000 	nop.w
 800013e:	bd08      	pop	{r3, pc}
 8000140:	00000000 	.word	0x00000000
 8000144:	20000074 	.word	0x20000074
 8000148:	08003258 	.word	0x08003258

0800014c <strlen>:
 800014c:	4603      	mov	r3, r0
 800014e:	f813 2b01 	ldrb.w	r2, [r3], #1
 8000152:	2a00      	cmp	r2, #0
 8000154:	d1fb      	bne.n	800014e <strlen+0x2>
 8000156:	1a18      	subs	r0, r3, r0
 8000158:	3801      	subs	r0, #1
 800015a:	4770      	bx	lr

0800015c <GPIO_WritePin>:
 */

#include "gpio.h"

void GPIO_WritePin(GPIO_COMMON *this,GPIO_PinState PinState)
{
 800015c:	b580      	push	{r7, lr}
 800015e:	b082      	sub	sp, #8
 8000160:	af00      	add	r7, sp, #0
 8000162:	6078      	str	r0, [r7, #4]
 8000164:	460b      	mov	r3, r1
 8000166:	70fb      	strb	r3, [r7, #3]
	HAL_GPIO_WritePin(this->GPIO_Port, this->GPIO_InitStruct.Pin, PinState);
 8000168:	687b      	ldr	r3, [r7, #4]
 800016a:	6918      	ldr	r0, [r3, #16]
 800016c:	687b      	ldr	r3, [r7, #4]
 800016e:	681b      	ldr	r3, [r3, #0]
 8000170:	b29b      	uxth	r3, r3
 8000172:	78fa      	ldrb	r2, [r7, #3]
 8000174:	4619      	mov	r1, r3
 8000176:	f001 fa90 	bl	800169a <HAL_GPIO_WritePin>
}
 800017a:	bf00      	nop
 800017c:	3708      	adds	r7, #8
 800017e:	46bd      	mov	sp, r7
 8000180:	bd80      	pop	{r7, pc}

08000182 <GPIO_TogglePin>:

void GPIO_TogglePin(GPIO_COMMON *this)
{
 8000182:	b580      	push	{r7, lr}
 8000184:	b082      	sub	sp, #8
 8000186:	af00      	add	r7, sp, #0
 8000188:	6078      	str	r0, [r7, #4]
	HAL_GPIO_TogglePin(this->GPIO_Port, this->GPIO_InitStruct.Pin);
 800018a:	687b      	ldr	r3, [r7, #4]
 800018c:	691a      	ldr	r2, [r3, #16]
 800018e:	687b      	ldr	r3, [r7, #4]
 8000190:	681b      	ldr	r3, [r3, #0]
 8000192:	b29b      	uxth	r3, r3
 8000194:	4619      	mov	r1, r3
 8000196:	4610      	mov	r0, r2
 8000198:	f001 fa97 	bl	80016ca <HAL_GPIO_TogglePin>
}
 800019c:	bf00      	nop
 800019e:	3708      	adds	r7, #8
 80001a0:	46bd      	mov	sp, r7
 80001a2:	bd80      	pop	{r7, pc}

080001a4 <GPIO_ReadPin>:

GPIO_PinState GPIO_ReadPin(GPIO_COMMON *this)
{
 80001a4:	b580      	push	{r7, lr}
 80001a6:	b082      	sub	sp, #8
 80001a8:	af00      	add	r7, sp, #0
 80001aa:	6078      	str	r0, [r7, #4]
	return HAL_GPIO_ReadPin(this->GPIO_Port, this->GPIO_InitStruct.Pin);
 80001ac:	687b      	ldr	r3, [r7, #4]
 80001ae:	691a      	ldr	r2, [r3, #16]
 80001b0:	687b      	ldr	r3, [r7, #4]
 80001b2:	681b      	ldr	r3, [r3, #0]
 80001b4:	b29b      	uxth	r3, r3
 80001b6:	4619      	mov	r1, r3
 80001b8:	4610      	mov	r0, r2
 80001ba:	f001 fa57 	bl	800166c <HAL_GPIO_ReadPin>
 80001be:	4603      	mov	r3, r0
}
 80001c0:	4618      	mov	r0, r3
 80001c2:	3708      	adds	r7, #8
 80001c4:	46bd      	mov	sp, r7
 80001c6:	bd80      	pop	{r7, pc}

080001c8 <new_Gpio>:

GPIO_COMMON *new_Gpio(struct GPIO_COMMON *this,GPIO_TypeDef *port,uint32_t pin,uint32_t mode,uint32_t pull,uint32_t speed)
{
 80001c8:	b580      	push	{r7, lr}
 80001ca:	b08a      	sub	sp, #40	; 0x28
 80001cc:	af00      	add	r7, sp, #0
 80001ce:	60f8      	str	r0, [r7, #12]
 80001d0:	60b9      	str	r1, [r7, #8]
 80001d2:	607a      	str	r2, [r7, #4]
 80001d4:	603b      	str	r3, [r7, #0]
	this=(struct GPIO_COMMON*)calloc(1,sizeof(struct GPIO_COMMON));
 80001d6:	2120      	movs	r1, #32
 80001d8:	2001      	movs	r0, #1
 80001da:	f002 fbe3 	bl	80029a4 <calloc>
 80001de:	4603      	mov	r3, r0
 80001e0:	60fb      	str	r3, [r7, #12]
	this->GPIO_Port=port;
 80001e2:	68fb      	ldr	r3, [r7, #12]
 80001e4:	68ba      	ldr	r2, [r7, #8]
 80001e6:	611a      	str	r2, [r3, #16]
	if(this->GPIO_Port==GPIOA)
 80001e8:	68fb      	ldr	r3, [r7, #12]
 80001ea:	691b      	ldr	r3, [r3, #16]
 80001ec:	4a3b      	ldr	r2, [pc, #236]	; (80002dc <new_Gpio+0x114>)
 80001ee:	4293      	cmp	r3, r2
 80001f0:	d10c      	bne.n	800020c <new_Gpio+0x44>
		__HAL_RCC_GPIOA_CLK_ENABLE();
 80001f2:	4b3b      	ldr	r3, [pc, #236]	; (80002e0 <new_Gpio+0x118>)
 80001f4:	699b      	ldr	r3, [r3, #24]
 80001f6:	4a3a      	ldr	r2, [pc, #232]	; (80002e0 <new_Gpio+0x118>)
 80001f8:	f043 0304 	orr.w	r3, r3, #4
 80001fc:	6193      	str	r3, [r2, #24]
 80001fe:	4b38      	ldr	r3, [pc, #224]	; (80002e0 <new_Gpio+0x118>)
 8000200:	699b      	ldr	r3, [r3, #24]
 8000202:	f003 0304 	and.w	r3, r3, #4
 8000206:	627b      	str	r3, [r7, #36]	; 0x24
 8000208:	6a7b      	ldr	r3, [r7, #36]	; 0x24
 800020a:	e046      	b.n	800029a <new_Gpio+0xd2>
	else if(this->GPIO_Port==GPIOB)
 800020c:	68fb      	ldr	r3, [r7, #12]
 800020e:	691b      	ldr	r3, [r3, #16]
 8000210:	4a34      	ldr	r2, [pc, #208]	; (80002e4 <new_Gpio+0x11c>)
 8000212:	4293      	cmp	r3, r2
 8000214:	d10c      	bne.n	8000230 <new_Gpio+0x68>
		__HAL_RCC_GPIOB_CLK_ENABLE();
 8000216:	4b32      	ldr	r3, [pc, #200]	; (80002e0 <new_Gpio+0x118>)
 8000218:	699b      	ldr	r3, [r3, #24]
 800021a:	4a31      	ldr	r2, [pc, #196]	; (80002e0 <new_Gpio+0x118>)
 800021c:	f043 0308 	orr.w	r3, r3, #8
 8000220:	6193      	str	r3, [r2, #24]
 8000222:	4b2f      	ldr	r3, [pc, #188]	; (80002e0 <new_Gpio+0x118>)
 8000224:	699b      	ldr	r3, [r3, #24]
 8000226:	f003 0308 	and.w	r3, r3, #8
 800022a:	623b      	str	r3, [r7, #32]
 800022c:	6a3b      	ldr	r3, [r7, #32]
 800022e:	e034      	b.n	800029a <new_Gpio+0xd2>
	else if(this->GPIO_Port==GPIOC)
 8000230:	68fb      	ldr	r3, [r7, #12]
 8000232:	691b      	ldr	r3, [r3, #16]
 8000234:	4a2c      	ldr	r2, [pc, #176]	; (80002e8 <new_Gpio+0x120>)
 8000236:	4293      	cmp	r3, r2
 8000238:	d10c      	bne.n	8000254 <new_Gpio+0x8c>
		__HAL_RCC_GPIOC_CLK_ENABLE();
 800023a:	4b29      	ldr	r3, [pc, #164]	; (80002e0 <new_Gpio+0x118>)
 800023c:	699b      	ldr	r3, [r3, #24]
 800023e:	4a28      	ldr	r2, [pc, #160]	; (80002e0 <new_Gpio+0x118>)
 8000240:	f043 0310 	orr.w	r3, r3, #16
 8000244:	6193      	str	r3, [r2, #24]
 8000246:	4b26      	ldr	r3, [pc, #152]	; (80002e0 <new_Gpio+0x118>)
 8000248:	699b      	ldr	r3, [r3, #24]
 800024a:	f003 0310 	and.w	r3, r3, #16
 800024e:	61fb      	str	r3, [r7, #28]
 8000250:	69fb      	ldr	r3, [r7, #28]
 8000252:	e022      	b.n	800029a <new_Gpio+0xd2>
	else if(this->GPIO_Port==GPIOD)
 8000254:	68fb      	ldr	r3, [r7, #12]
 8000256:	691b      	ldr	r3, [r3, #16]
 8000258:	4a24      	ldr	r2, [pc, #144]	; (80002ec <new_Gpio+0x124>)
 800025a:	4293      	cmp	r3, r2
 800025c:	d10c      	bne.n	8000278 <new_Gpio+0xb0>
		__HAL_RCC_GPIOD_CLK_ENABLE();
 800025e:	4b20      	ldr	r3, [pc, #128]	; (80002e0 <new_Gpio+0x118>)
 8000260:	699b      	ldr	r3, [r3, #24]
 8000262:	4a1f      	ldr	r2, [pc, #124]	; (80002e0 <new_Gpio+0x118>)
 8000264:	f043 0320 	orr.w	r3, r3, #32
 8000268:	6193      	str	r3, [r2, #24]
 800026a:	4b1d      	ldr	r3, [pc, #116]	; (80002e0 <new_Gpio+0x118>)
 800026c:	699b      	ldr	r3, [r3, #24]
 800026e:	f003 0320 	and.w	r3, r3, #32
 8000272:	61bb      	str	r3, [r7, #24]
 8000274:	69bb      	ldr	r3, [r7, #24]
 8000276:	e010      	b.n	800029a <new_Gpio+0xd2>
	else if(this->GPIO_Port==GPIOE)
 8000278:	68fb      	ldr	r3, [r7, #12]
 800027a:	691b      	ldr	r3, [r3, #16]
 800027c:	4a1c      	ldr	r2, [pc, #112]	; (80002f0 <new_Gpio+0x128>)
 800027e:	4293      	cmp	r3, r2
 8000280:	d10b      	bne.n	800029a <new_Gpio+0xd2>
		__HAL_RCC_GPIOE_CLK_ENABLE();
 8000282:	4b17      	ldr	r3, [pc, #92]	; (80002e0 <new_Gpio+0x118>)
 8000284:	699b      	ldr	r3, [r3, #24]
 8000286:	4a16      	ldr	r2, [pc, #88]	; (80002e0 <new_Gpio+0x118>)
 8000288:	f043 0340 	orr.w	r3, r3, #64	; 0x40
 800028c:	6193      	str	r3, [r2, #24]
 800028e:	4b14      	ldr	r3, [pc, #80]	; (80002e0 <new_Gpio+0x118>)
 8000290:	699b      	ldr	r3, [r3, #24]
 8000292:	f003 0340 	and.w	r3, r3, #64	; 0x40
 8000296:	617b      	str	r3, [r7, #20]
 8000298:	697b      	ldr	r3, [r7, #20]
	else if(this->GPIO_Port==GPIOF)
		__HAL_RCC_GPIOF_CLK_ENABLE();
	else if(this->GPIO_Port==GPIOG)
		__HAL_RCC_GPIOG_CLK_ENABLE();
#endif
	this->GPIO_InitStruct.Pin=pin;
 800029a:	68fb      	ldr	r3, [r7, #12]
 800029c:	687a      	ldr	r2, [r7, #4]
 800029e:	601a      	str	r2, [r3, #0]
	this->GPIO_InitStruct.Mode = mode;
 80002a0:	68fb      	ldr	r3, [r7, #12]
 80002a2:	683a      	ldr	r2, [r7, #0]
 80002a4:	605a      	str	r2, [r3, #4]
	this->GPIO_InitStruct.Pull = pull;
 80002a6:	68fb      	ldr	r3, [r7, #12]
 80002a8:	6b3a      	ldr	r2, [r7, #48]	; 0x30
 80002aa:	609a      	str	r2, [r3, #8]
	this->GPIO_InitStruct.Speed = speed;
 80002ac:	68fb      	ldr	r3, [r7, #12]
 80002ae:	6b7a      	ldr	r2, [r7, #52]	; 0x34
 80002b0:	60da      	str	r2, [r3, #12]
	HAL_GPIO_Init(this->GPIO_Port, &this->GPIO_InitStruct);
 80002b2:	68fb      	ldr	r3, [r7, #12]
 80002b4:	691b      	ldr	r3, [r3, #16]
 80002b6:	68fa      	ldr	r2, [r7, #12]
 80002b8:	4611      	mov	r1, r2
 80002ba:	4618      	mov	r0, r3
 80002bc:	f001 f87c 	bl	80013b8 <HAL_GPIO_Init>
	this->ReadPin=GPIO_ReadPin;
 80002c0:	68fb      	ldr	r3, [r7, #12]
 80002c2:	4a0c      	ldr	r2, [pc, #48]	; (80002f4 <new_Gpio+0x12c>)
 80002c4:	61da      	str	r2, [r3, #28]
	this->WritePin=GPIO_WritePin;
 80002c6:	68fb      	ldr	r3, [r7, #12]
 80002c8:	4a0b      	ldr	r2, [pc, #44]	; (80002f8 <new_Gpio+0x130>)
 80002ca:	615a      	str	r2, [r3, #20]
	this->TogglePin=GPIO_TogglePin;
 80002cc:	68fb      	ldr	r3, [r7, #12]
 80002ce:	4a0b      	ldr	r2, [pc, #44]	; (80002fc <new_Gpio+0x134>)
 80002d0:	619a      	str	r2, [r3, #24]
	return this;
 80002d2:	68fb      	ldr	r3, [r7, #12]
}
 80002d4:	4618      	mov	r0, r3
 80002d6:	3728      	adds	r7, #40	; 0x28
 80002d8:	46bd      	mov	sp, r7
 80002da:	bd80      	pop	{r7, pc}
 80002dc:	40010800 	.word	0x40010800
 80002e0:	40021000 	.word	0x40021000
 80002e4:	40010c00 	.word	0x40010c00
 80002e8:	40011000 	.word	0x40011000
 80002ec:	40011400 	.word	0x40011400
 80002f0:	40011800 	.word	0x40011800
 80002f4:	080001a5 	.word	0x080001a5
 80002f8:	0800015d 	.word	0x0800015d
 80002fc:	08000183 	.word	0x08000183

08000300 <delay>:
 */

#include "iic.h"

static void delay(unsigned char us) //大概延时
{
 8000300:	b480      	push	{r7}
 8000302:	b085      	sub	sp, #20
 8000304:	af00      	add	r7, sp, #0
 8000306:	4603      	mov	r3, r0
 8000308:	71fb      	strb	r3, [r7, #7]
	uint8_t i = 10;
 800030a:	230a      	movs	r3, #10
 800030c:	73fb      	strb	r3, [r7, #15]
	while(us--)
 800030e:	e005      	b.n	800031c <delay+0x1c>
	{
	    while(i--);
 8000310:	bf00      	nop
 8000312:	7bfb      	ldrb	r3, [r7, #15]
 8000314:	1e5a      	subs	r2, r3, #1
 8000316:	73fa      	strb	r2, [r7, #15]
 8000318:	2b00      	cmp	r3, #0
 800031a:	d1fa      	bne.n	8000312 <delay+0x12>
	while(us--)
 800031c:	79fb      	ldrb	r3, [r7, #7]
 800031e:	1e5a      	subs	r2, r3, #1
 8000320:	71fa      	strb	r2, [r7, #7]
 8000322:	2b00      	cmp	r3, #0
 8000324:	d1f4      	bne.n	8000310 <delay+0x10>
	}
}
 8000326:	bf00      	nop
 8000328:	3714      	adds	r7, #20
 800032a:	46bd      	mov	sp, r7
 800032c:	bc80      	pop	{r7}
 800032e:	4770      	bx	lr

08000330 <I2C_Stop>:

void I2C_Stop(struct IIC_COMMON *this) //产生起始信号
{
 8000330:	b580      	push	{r7, lr}
 8000332:	b082      	sub	sp, #8
 8000334:	af00      	add	r7, sp, #0
 8000336:	6078      	str	r0, [r7, #4]
	this->sda->WritePin(this->sda,GPIO_PIN_RESET);	//信号线置低
 8000338:	687b      	ldr	r3, [r7, #4]
 800033a:	685b      	ldr	r3, [r3, #4]
 800033c:	695b      	ldr	r3, [r3, #20]
 800033e:	687a      	ldr	r2, [r7, #4]
 8000340:	6852      	ldr	r2, [r2, #4]
 8000342:	2100      	movs	r1, #0
 8000344:	4610      	mov	r0, r2
 8000346:	4798      	blx	r3
	delay(1);
 8000348:	2001      	movs	r0, #1
 800034a:	f7ff ffd9 	bl	8000300 <delay>
	this->scl->WritePin(this->scl,GPIO_PIN_SET);	//时钟线置高
 800034e:	687b      	ldr	r3, [r7, #4]
 8000350:	681b      	ldr	r3, [r3, #0]
 8000352:	695b      	ldr	r3, [r3, #20]
 8000354:	687a      	ldr	r2, [r7, #4]
 8000356:	6812      	ldr	r2, [r2, #0]
 8000358:	2101      	movs	r1, #1
 800035a:	4610      	mov	r0, r2
 800035c:	4798      	blx	r3
	delay(1);
 800035e:	2001      	movs	r0, #1
 8000360:	f7ff ffce 	bl	8000300 <delay>
	this->sda->WritePin(this->sda,GPIO_PIN_SET);	//信号线置高
 8000364:	687b      	ldr	r3, [r7, #4]
 8000366:	685b      	ldr	r3, [r3, #4]
 8000368:	695b      	ldr	r3, [r3, #20]
 800036a:	687a      	ldr	r2, [r7, #4]
 800036c:	6852      	ldr	r2, [r2, #4]
 800036e:	2101      	movs	r1, #1
 8000370:	4610      	mov	r0, r2
 8000372:	4798      	blx	r3
	delay(1);
 8000374:	2001      	movs	r0, #1
 8000376:	f7ff ffc3 	bl	8000300 <delay>
}
 800037a:	bf00      	nop
 800037c:	3708      	adds	r7, #8
 800037e:	46bd      	mov	sp, r7
 8000380:	bd80      	pop	{r7, pc}

08000382 <I2C_Start>:

void I2C_Start(struct IIC_COMMON *this) //产生停止信号
{
 8000382:	b580      	push	{r7, lr}
 8000384:	b082      	sub	sp, #8
 8000386:	af00      	add	r7, sp, #0
 8000388:	6078      	str	r0, [r7, #4]
	this->scl->WritePin(this->scl,GPIO_PIN_SET);	//时钟线置高
 800038a:	687b      	ldr	r3, [r7, #4]
 800038c:	681b      	ldr	r3, [r3, #0]
 800038e:	695b      	ldr	r3, [r3, #20]
 8000390:	687a      	ldr	r2, [r7, #4]
 8000392:	6812      	ldr	r2, [r2, #0]
 8000394:	2101      	movs	r1, #1
 8000396:	4610      	mov	r0, r2
 8000398:	4798      	blx	r3
	this->sda->WritePin(this->sda,GPIO_PIN_SET);	//信号线置高
 800039a:	687b      	ldr	r3, [r7, #4]
 800039c:	685b      	ldr	r3, [r3, #4]
 800039e:	695b      	ldr	r3, [r3, #20]
 80003a0:	687a      	ldr	r2, [r7, #4]
 80003a2:	6852      	ldr	r2, [r2, #4]
 80003a4:	2101      	movs	r1, #1
 80003a6:	4610      	mov	r0, r2
 80003a8:	4798      	blx	r3
	delay(1);
 80003aa:	2001      	movs	r0, #1
 80003ac:	f7ff ffa8 	bl	8000300 <delay>
	this->sda->WritePin(this->sda,GPIO_PIN_RESET);	//信号线置低
 80003b0:	687b      	ldr	r3, [r7, #4]
 80003b2:	685b      	ldr	r3, [r3, #4]
 80003b4:	695b      	ldr	r3, [r3, #20]
 80003b6:	687a      	ldr	r2, [r7, #4]
 80003b8:	6852      	ldr	r2, [r2, #4]
 80003ba:	2100      	movs	r1, #0
 80003bc:	4610      	mov	r0, r2
 80003be:	4798      	blx	r3
	delay(1);
 80003c0:	2001      	movs	r0, #1
 80003c2:	f7ff ff9d 	bl	8000300 <delay>
	this->scl->WritePin(this->scl,GPIO_PIN_RESET);	//时钟线置低
 80003c6:	687b      	ldr	r3, [r7, #4]
 80003c8:	681b      	ldr	r3, [r3, #0]
 80003ca:	695b      	ldr	r3, [r3, #20]
 80003cc:	687a      	ldr	r2, [r7, #4]
 80003ce:	6812      	ldr	r2, [r2, #0]
 80003d0:	2100      	movs	r1, #0
 80003d2:	4610      	mov	r0, r2
 80003d4:	4798      	blx	r3
	delay(1);
 80003d6:	2001      	movs	r0, #1
 80003d8:	f7ff ff92 	bl	8000300 <delay>
}
 80003dc:	bf00      	nop
 80003de:	3708      	adds	r7, #8
 80003e0:	46bd      	mov	sp, r7
 80003e2:	bd80      	pop	{r7, pc}

080003e4 <IIC_Wait_Ack>:

static unsigned char IIC_Wait_Ack(struct IIC_COMMON *this) //阻塞等待从机应答
{
 80003e4:	b580      	push	{r7, lr}
 80003e6:	b084      	sub	sp, #16
 80003e8:	af00      	add	r7, sp, #0
 80003ea:	6078      	str	r0, [r7, #4]
	unsigned char ack=0;
 80003ec:	2300      	movs	r3, #0
 80003ee:	73fb      	strb	r3, [r7, #15]

	this->scl->WritePin(this->scl,GPIO_PIN_RESET);	//时钟线置低
 80003f0:	687b      	ldr	r3, [r7, #4]
 80003f2:	681b      	ldr	r3, [r3, #0]
 80003f4:	695b      	ldr	r3, [r3, #20]
 80003f6:	687a      	ldr	r2, [r7, #4]
 80003f8:	6812      	ldr	r2, [r2, #0]
 80003fa:	2100      	movs	r1, #0
 80003fc:	4610      	mov	r0, r2
 80003fe:	4798      	blx	r3
	delay(1);
 8000400:	2001      	movs	r0, #1
 8000402:	f7ff ff7d 	bl	8000300 <delay>
	this->sda->WritePin(this->sda,GPIO_PIN_SET);	//信号线置高
 8000406:	687b      	ldr	r3, [r7, #4]
 8000408:	685b      	ldr	r3, [r3, #4]
 800040a:	695b      	ldr	r3, [r3, #20]
 800040c:	687a      	ldr	r2, [r7, #4]
 800040e:	6852      	ldr	r2, [r2, #4]
 8000410:	2101      	movs	r1, #1
 8000412:	4610      	mov	r0, r2
 8000414:	4798      	blx	r3
	delay(1);
 8000416:	2001      	movs	r0, #1
 8000418:	f7ff ff72 	bl	8000300 <delay>
	this->scl->WritePin(this->scl,GPIO_PIN_SET);	//时钟线置高
 800041c:	687b      	ldr	r3, [r7, #4]
 800041e:	681b      	ldr	r3, [r3, #0]
 8000420:	695b      	ldr	r3, [r3, #20]
 8000422:	687a      	ldr	r2, [r7, #4]
 8000424:	6812      	ldr	r2, [r2, #0]
 8000426:	2101      	movs	r1, #1
 8000428:	4610      	mov	r0, r2
 800042a:	4798      	blx	r3
	delay(1);
 800042c:	2001      	movs	r0, #1
 800042e:	f7ff ff67 	bl	8000300 <delay>

	if(this->sda->ReadPin(this->sda)){	//读取SDA的电平
 8000432:	687b      	ldr	r3, [r7, #4]
 8000434:	685b      	ldr	r3, [r3, #4]
 8000436:	69db      	ldr	r3, [r3, #28]
 8000438:	687a      	ldr	r2, [r7, #4]
 800043a:	6852      	ldr	r2, [r2, #4]
 800043c:	4610      	mov	r0, r2
 800043e:	4798      	blx	r3
 8000440:	4603      	mov	r3, r0
 8000442:	2b00      	cmp	r3, #0
 8000444:	d002      	beq.n	800044c <IIC_Wait_Ack+0x68>
	    ack = IIC_NO_ACK;	//如果为1，则从机没有应答
 8000446:	2301      	movs	r3, #1
 8000448:	73fb      	strb	r3, [r7, #15]
 800044a:	e001      	b.n	8000450 <IIC_Wait_Ack+0x6c>
	}
	else{
	    ack = IIC_ACK; //如果为0，则从机应答
 800044c:	2300      	movs	r3, #0
 800044e:	73fb      	strb	r3, [r7, #15]
	}
	this->scl->WritePin(this->scl,GPIO_PIN_RESET);//时钟线置低
 8000450:	687b      	ldr	r3, [r7, #4]
 8000452:	681b      	ldr	r3, [r3, #0]
 8000454:	695b      	ldr	r3, [r3, #20]
 8000456:	687a      	ldr	r2, [r7, #4]
 8000458:	6812      	ldr	r2, [r2, #0]
 800045a:	2100      	movs	r1, #0
 800045c:	4610      	mov	r0, r2
 800045e:	4798      	blx	r3
	delay(1);
 8000460:	2001      	movs	r0, #1
 8000462:	f7ff ff4d 	bl	8000300 <delay>

	return ack;	//返回读取到的应答信息
 8000466:	7bfb      	ldrb	r3, [r7, #15]
}
 8000468:	4618      	mov	r0, r3
 800046a:	3710      	adds	r7, #16
 800046c:	46bd      	mov	sp, r7
 800046e:	bd80      	pop	{r7, pc}

08000470 <I2C_Send_Byte>:

void I2C_Send_Byte(struct IIC_COMMON *this,uint8_t IIC_Byte)
{
 8000470:	b580      	push	{r7, lr}
 8000472:	b084      	sub	sp, #16
 8000474:	af00      	add	r7, sp, #0
 8000476:	6078      	str	r0, [r7, #4]
 8000478:	460b      	mov	r3, r1
 800047a:	70fb      	strb	r3, [r7, #3]
	unsigned char i;  //定义变量
	for(i=0;i<8;i++) //for循环8次
 800047c:	2300      	movs	r3, #0
 800047e:	73fb      	strb	r3, [r7, #15]
 8000480:	e033      	b.n	80004ea <I2C_Send_Byte+0x7a>
	{
	    this->scl->WritePin(this->scl,GPIO_PIN_RESET);	//时钟线置低，为传输数据做准备
 8000482:	687b      	ldr	r3, [r7, #4]
 8000484:	681b      	ldr	r3, [r3, #0]
 8000486:	695b      	ldr	r3, [r3, #20]
 8000488:	687a      	ldr	r2, [r7, #4]
 800048a:	6812      	ldr	r2, [r2, #0]
 800048c:	2100      	movs	r1, #0
 800048e:	4610      	mov	r0, r2
 8000490:	4798      	blx	r3
	    delay(1);
 8000492:	2001      	movs	r0, #1
 8000494:	f7ff ff34 	bl	8000300 <delay>
	    if(IIC_Byte & 0x80)	//读取最高位
 8000498:	f997 3003 	ldrsb.w	r3, [r7, #3]
 800049c:	2b00      	cmp	r3, #0
 800049e:	da08      	bge.n	80004b2 <I2C_Send_Byte+0x42>
	      	this->sda->WritePin(this->sda,GPIO_PIN_SET);
 80004a0:	687b      	ldr	r3, [r7, #4]
 80004a2:	685b      	ldr	r3, [r3, #4]
 80004a4:	695b      	ldr	r3, [r3, #20]
 80004a6:	687a      	ldr	r2, [r7, #4]
 80004a8:	6852      	ldr	r2, [r2, #4]
 80004aa:	2101      	movs	r1, #1
 80004ac:	4610      	mov	r0, r2
 80004ae:	4798      	blx	r3
 80004b0:	e007      	b.n	80004c2 <I2C_Send_Byte+0x52>
	    else
	  	    this->sda->WritePin(this->sda,GPIO_PIN_RESET);
 80004b2:	687b      	ldr	r3, [r7, #4]
 80004b4:	685b      	ldr	r3, [r3, #4]
 80004b6:	695b      	ldr	r3, [r3, #20]
 80004b8:	687a      	ldr	r2, [r7, #4]
 80004ba:	6852      	ldr	r2, [r2, #4]
 80004bc:	2100      	movs	r1, #0
 80004be:	4610      	mov	r0, r2
 80004c0:	4798      	blx	r3
	    IIC_Byte <<= 1;  //数据左移1位
 80004c2:	78fb      	ldrb	r3, [r7, #3]
 80004c4:	005b      	lsls	r3, r3, #1
 80004c6:	70fb      	strb	r3, [r7, #3]
	    delay(1);
 80004c8:	2001      	movs	r0, #1
 80004ca:	f7ff ff19 	bl	8000300 <delay>
	    this->scl->WritePin(this->scl,GPIO_PIN_SET); //时钟线置高，产生上升沿，把数据发送出去
 80004ce:	687b      	ldr	r3, [r7, #4]
 80004d0:	681b      	ldr	r3, [r3, #0]
 80004d2:	695b      	ldr	r3, [r3, #20]
 80004d4:	687a      	ldr	r2, [r7, #4]
 80004d6:	6812      	ldr	r2, [r2, #0]
 80004d8:	2101      	movs	r1, #1
 80004da:	4610      	mov	r0, r2
 80004dc:	4798      	blx	r3
	    delay(1);
 80004de:	2001      	movs	r0, #1
 80004e0:	f7ff ff0e 	bl	8000300 <delay>
	for(i=0;i<8;i++) //for循环8次
 80004e4:	7bfb      	ldrb	r3, [r7, #15]
 80004e6:	3301      	adds	r3, #1
 80004e8:	73fb      	strb	r3, [r7, #15]
 80004ea:	7bfb      	ldrb	r3, [r7, #15]
 80004ec:	2b07      	cmp	r3, #7
 80004ee:	d9c8      	bls.n	8000482 <I2C_Send_Byte+0x12>
	}
	this->scl->WritePin(this->scl,GPIO_PIN_RESET);	//时钟线置低
 80004f0:	687b      	ldr	r3, [r7, #4]
 80004f2:	681b      	ldr	r3, [r3, #0]
 80004f4:	695b      	ldr	r3, [r3, #20]
 80004f6:	687a      	ldr	r2, [r7, #4]
 80004f8:	6812      	ldr	r2, [r2, #0]
 80004fa:	2100      	movs	r1, #0
 80004fc:	4610      	mov	r0, r2
 80004fe:	4798      	blx	r3
	delay(1);
 8000500:	2001      	movs	r0, #1
 8000502:	f7ff fefd 	bl	8000300 <delay>

	while(IIC_Wait_Ack(this));	//阻塞从机应答
 8000506:	bf00      	nop
 8000508:	6878      	ldr	r0, [r7, #4]
 800050a:	f7ff ff6b 	bl	80003e4 <IIC_Wait_Ack>
 800050e:	4603      	mov	r3, r0
 8000510:	2b00      	cmp	r3, #0
 8000512:	d1f9      	bne.n	8000508 <I2C_Send_Byte+0x98>
}
 8000514:	bf00      	nop
 8000516:	3710      	adds	r7, #16
 8000518:	46bd      	mov	sp, r7
 800051a:	bd80      	pop	{r7, pc}

0800051c <I2C_Recieve_Byte>:

uint8_t I2C_Recieve_Byte(struct IIC_COMMON *this)
{
 800051c:	b580      	push	{r7, lr}
 800051e:	b084      	sub	sp, #16
 8000520:	af00      	add	r7, sp, #0
 8000522:	6078      	str	r0, [r7, #4]
	uint8_t rebyte=0,i;
 8000524:	2300      	movs	r3, #0
 8000526:	73fb      	strb	r3, [r7, #15]

	this->scl->WritePin(this->scl,GPIO_PIN_RESET);	//时钟线置低
 8000528:	687b      	ldr	r3, [r7, #4]
 800052a:	681b      	ldr	r3, [r3, #0]
 800052c:	695b      	ldr	r3, [r3, #20]
 800052e:	687a      	ldr	r2, [r7, #4]
 8000530:	6812      	ldr	r2, [r2, #0]
 8000532:	2100      	movs	r1, #0
 8000534:	4610      	mov	r0, r2
 8000536:	4798      	blx	r3
	delay(1);
 8000538:	2001      	movs	r0, #1
 800053a:	f7ff fee1 	bl	8000300 <delay>
	for(i=0;i<8;i++){
 800053e:	2300      	movs	r3, #0
 8000540:	73bb      	strb	r3, [r7, #14]
 8000542:	e029      	b.n	8000598 <I2C_Recieve_Byte+0x7c>
	    this->scl->WritePin(this->scl,GPIO_PIN_SET); //时钟线置高
 8000544:	687b      	ldr	r3, [r7, #4]
 8000546:	681b      	ldr	r3, [r3, #0]
 8000548:	695b      	ldr	r3, [r3, #20]
 800054a:	687a      	ldr	r2, [r7, #4]
 800054c:	6812      	ldr	r2, [r2, #0]
 800054e:	2101      	movs	r1, #1
 8000550:	4610      	mov	r0, r2
 8000552:	4798      	blx	r3
	    delay(1);
 8000554:	2001      	movs	r0, #1
 8000556:	f7ff fed3 	bl	8000300 <delay>
	    rebyte=rebyte<<1;
 800055a:	7bfb      	ldrb	r3, [r7, #15]
 800055c:	005b      	lsls	r3, r3, #1
 800055e:	73fb      	strb	r3, [r7, #15]
	    if(this->sda->ReadPin(this->sda)){
 8000560:	687b      	ldr	r3, [r7, #4]
 8000562:	685b      	ldr	r3, [r3, #4]
 8000564:	69db      	ldr	r3, [r3, #28]
 8000566:	687a      	ldr	r2, [r7, #4]
 8000568:	6852      	ldr	r2, [r2, #4]
 800056a:	4610      	mov	r0, r2
 800056c:	4798      	blx	r3
 800056e:	4603      	mov	r3, r0
 8000570:	2b00      	cmp	r3, #0
 8000572:	d003      	beq.n	800057c <I2C_Recieve_Byte+0x60>
	    	rebyte |= 0x01;
 8000574:	7bfb      	ldrb	r3, [r7, #15]
 8000576:	f043 0301 	orr.w	r3, r3, #1
 800057a:	73fb      	strb	r3, [r7, #15]
	    }
	    this->scl->WritePin(this->scl,GPIO_PIN_RESET);	//时钟线置低
 800057c:	687b      	ldr	r3, [r7, #4]
 800057e:	681b      	ldr	r3, [r3, #0]
 8000580:	695b      	ldr	r3, [r3, #20]
 8000582:	687a      	ldr	r2, [r7, #4]
 8000584:	6812      	ldr	r2, [r2, #0]
 8000586:	2100      	movs	r1, #0
 8000588:	4610      	mov	r0, r2
 800058a:	4798      	blx	r3
	    delay(2);
 800058c:	2002      	movs	r0, #2
 800058e:	f7ff feb7 	bl	8000300 <delay>
	for(i=0;i<8;i++){
 8000592:	7bbb      	ldrb	r3, [r7, #14]
 8000594:	3301      	adds	r3, #1
 8000596:	73bb      	strb	r3, [r7, #14]
 8000598:	7bbb      	ldrb	r3, [r7, #14]
 800059a:	2b07      	cmp	r3, #7
 800059c:	d9d2      	bls.n	8000544 <I2C_Recieve_Byte+0x28>
	}
	this->sda->WritePin(this->sda,GPIO_PIN_SET);
 800059e:	687b      	ldr	r3, [r7, #4]
 80005a0:	685b      	ldr	r3, [r3, #4]
 80005a2:	695b      	ldr	r3, [r3, #20]
 80005a4:	687a      	ldr	r2, [r7, #4]
 80005a6:	6852      	ldr	r2, [r2, #4]
 80005a8:	2101      	movs	r1, #1
 80005aa:	4610      	mov	r0, r2
 80005ac:	4798      	blx	r3
	delay(1);
 80005ae:	2001      	movs	r0, #1
 80005b0:	f7ff fea6 	bl	8000300 <delay>
	this->scl->WritePin(this->scl,GPIO_PIN_SET);    //给从机应答
 80005b4:	687b      	ldr	r3, [r7, #4]
 80005b6:	681b      	ldr	r3, [r3, #0]
 80005b8:	695b      	ldr	r3, [r3, #20]
 80005ba:	687a      	ldr	r2, [r7, #4]
 80005bc:	6812      	ldr	r2, [r2, #0]
 80005be:	2101      	movs	r1, #1
 80005c0:	4610      	mov	r0, r2
 80005c2:	4798      	blx	r3
	delay(2);
 80005c4:	2002      	movs	r0, #2
 80005c6:	f7ff fe9b 	bl	8000300 <delay>
	this->scl->WritePin(this->scl,GPIO_PIN_RESET);    //时钟线置低
 80005ca:	687b      	ldr	r3, [r7, #4]
 80005cc:	681b      	ldr	r3, [r3, #0]
 80005ce:	695b      	ldr	r3, [r3, #20]
 80005d0:	687a      	ldr	r2, [r7, #4]
 80005d2:	6812      	ldr	r2, [r2, #0]
 80005d4:	2100      	movs	r1, #0
 80005d6:	4610      	mov	r0, r2
 80005d8:	4798      	blx	r3
	return rebyte;
 80005da:	7bfb      	ldrb	r3, [r7, #15]
}
 80005dc:	4618      	mov	r0, r3
 80005de:	3710      	adds	r7, #16
 80005e0:	46bd      	mov	sp, r7
 80005e2:	bd80      	pop	{r7, pc}

080005e4 <WriteOneByte>:

void WriteOneByte(struct IIC_COMMON *this,uint8_t WriteAddr, uint8_t DataToWrite)//向AT24C02指定的地址写入一个字节
{
 80005e4:	b580      	push	{r7, lr}
 80005e6:	b082      	sub	sp, #8
 80005e8:	af00      	add	r7, sp, #0
 80005ea:	6078      	str	r0, [r7, #4]
 80005ec:	460b      	mov	r3, r1
 80005ee:	70fb      	strb	r3, [r7, #3]
 80005f0:	4613      	mov	r3, r2
 80005f2:	70bb      	strb	r3, [r7, #2]
    I2C_Start(this); //发送起始信号
 80005f4:	6878      	ldr	r0, [r7, #4]
 80005f6:	f7ff fec4 	bl	8000382 <I2C_Start>
    I2C_Send_Byte(this,this->addr|0x00);  //设备地址且传输方向位设置为0
 80005fa:	687b      	ldr	r3, [r7, #4]
 80005fc:	7a1b      	ldrb	r3, [r3, #8]
 80005fe:	4619      	mov	r1, r3
 8000600:	6878      	ldr	r0, [r7, #4]
 8000602:	f7ff ff35 	bl	8000470 <I2C_Send_Byte>
    delay(1);
 8000606:	2001      	movs	r0, #1
 8000608:	f7ff fe7a 	bl	8000300 <delay>
    I2C_Send_Byte(this,WriteAddr);//发送地址
 800060c:	78fb      	ldrb	r3, [r7, #3]
 800060e:	4619      	mov	r1, r3
 8000610:	6878      	ldr	r0, [r7, #4]
 8000612:	f7ff ff2d 	bl	8000470 <I2C_Send_Byte>
    I2C_Send_Byte(this,DataToWrite);     //发送字节
 8000616:	78bb      	ldrb	r3, [r7, #2]
 8000618:	4619      	mov	r1, r3
 800061a:	6878      	ldr	r0, [r7, #4]
 800061c:	f7ff ff28 	bl	8000470 <I2C_Send_Byte>
    I2C_Stop(this);//产生一个停止条件
 8000620:	6878      	ldr	r0, [r7, #4]
 8000622:	f7ff fe85 	bl	8000330 <I2C_Stop>
    delay(100);// 这个延时绝对不能去掉
 8000626:	2064      	movs	r0, #100	; 0x64
 8000628:	f7ff fe6a 	bl	8000300 <delay>
}
 800062c:	bf00      	nop
 800062e:	3708      	adds	r7, #8
 8000630:	46bd      	mov	sp, r7
 8000632:	bd80      	pop	{r7, pc}

08000634 <ReadOneByte>:
uint8_t ReadOneByte(struct IIC_COMMON *this,uint8_t ReadAddr) //从AT24C02指定的地址读取一个字节
{
 8000634:	b580      	push	{r7, lr}
 8000636:	b084      	sub	sp, #16
 8000638:	af00      	add	r7, sp, #0
 800063a:	6078      	str	r0, [r7, #4]
 800063c:	460b      	mov	r3, r1
 800063e:	70fb      	strb	r3, [r7, #3]
    uint8_t temp=0;
 8000640:	2300      	movs	r3, #0
 8000642:	73fb      	strb	r3, [r7, #15]

    I2C_Start(this);//发送起始信号
 8000644:	6878      	ldr	r0, [r7, #4]
 8000646:	f7ff fe9c 	bl	8000382 <I2C_Start>
    I2C_Send_Byte(this,this->addr);  //设备地址 且传输方向位设置为0
 800064a:	687b      	ldr	r3, [r7, #4]
 800064c:	7a1b      	ldrb	r3, [r3, #8]
 800064e:	4619      	mov	r1, r3
 8000650:	6878      	ldr	r0, [r7, #4]
 8000652:	f7ff ff0d 	bl	8000470 <I2C_Send_Byte>
    delay(1);
 8000656:	2001      	movs	r0, #1
 8000658:	f7ff fe52 	bl	8000300 <delay>
    I2C_Send_Byte(this,ReadAddr);   //发送地址
 800065c:	78fb      	ldrb	r3, [r7, #3]
 800065e:	4619      	mov	r1, r3
 8000660:	6878      	ldr	r0, [r7, #4]
 8000662:	f7ff ff05 	bl	8000470 <I2C_Send_Byte>
    I2C_Start(this);
 8000666:	6878      	ldr	r0, [r7, #4]
 8000668:	f7ff fe8b 	bl	8000382 <I2C_Start>
    I2C_Send_Byte(this,this->addr|0x01);  //设备地址 且传输方向位设置为1
 800066c:	687b      	ldr	r3, [r7, #4]
 800066e:	7a1b      	ldrb	r3, [r3, #8]
 8000670:	f043 0301 	orr.w	r3, r3, #1
 8000674:	b2db      	uxtb	r3, r3
 8000676:	4619      	mov	r1, r3
 8000678:	6878      	ldr	r0, [r7, #4]
 800067a:	f7ff fef9 	bl	8000470 <I2C_Send_Byte>
    delay(1);
 800067e:	2001      	movs	r0, #1
 8000680:	f7ff fe3e 	bl	8000300 <delay>
    temp=I2C_Recieve_Byte(this);   //接受一个字节
 8000684:	6878      	ldr	r0, [r7, #4]
 8000686:	f7ff ff49 	bl	800051c <I2C_Recieve_Byte>
 800068a:	4603      	mov	r3, r0
 800068c:	73fb      	strb	r3, [r7, #15]
    I2C_Stop(this);//产生一个停止条件
 800068e:	6878      	ldr	r0, [r7, #4]
 8000690:	f7ff fe4e 	bl	8000330 <I2C_Stop>

    return temp;
 8000694:	7bfb      	ldrb	r3, [r7, #15]
}
 8000696:	4618      	mov	r0, r3
 8000698:	3710      	adds	r7, #16
 800069a:	46bd      	mov	sp, r7
 800069c:	bd80      	pop	{r7, pc}

0800069e <ReadBytes>:

void ReadBytes(struct IIC_COMMON *this,uint8_t ReadAddr,uint8_t *Buffer,uint16_t Num)//从指定地址连续读取多个字节
{
 800069e:	b590      	push	{r4, r7, lr}
 80006a0:	b085      	sub	sp, #20
 80006a2:	af00      	add	r7, sp, #0
 80006a4:	60f8      	str	r0, [r7, #12]
 80006a6:	607a      	str	r2, [r7, #4]
 80006a8:	461a      	mov	r2, r3
 80006aa:	460b      	mov	r3, r1
 80006ac:	72fb      	strb	r3, [r7, #11]
 80006ae:	4613      	mov	r3, r2
 80006b0:	813b      	strh	r3, [r7, #8]
	while(Num)
 80006b2:	e00e      	b.n	80006d2 <ReadBytes+0x34>
	{
	    *Buffer++=ReadOneByte(this,ReadAddr++);
 80006b4:	7afb      	ldrb	r3, [r7, #11]
 80006b6:	1c5a      	adds	r2, r3, #1
 80006b8:	72fa      	strb	r2, [r7, #11]
 80006ba:	687c      	ldr	r4, [r7, #4]
 80006bc:	1c62      	adds	r2, r4, #1
 80006be:	607a      	str	r2, [r7, #4]
 80006c0:	4619      	mov	r1, r3
 80006c2:	68f8      	ldr	r0, [r7, #12]
 80006c4:	f7ff ffb6 	bl	8000634 <ReadOneByte>
 80006c8:	4603      	mov	r3, r0
 80006ca:	7023      	strb	r3, [r4, #0]
	    Num--;
 80006cc:	893b      	ldrh	r3, [r7, #8]
 80006ce:	3b01      	subs	r3, #1
 80006d0:	813b      	strh	r3, [r7, #8]
	while(Num)
 80006d2:	893b      	ldrh	r3, [r7, #8]
 80006d4:	2b00      	cmp	r3, #0
 80006d6:	d1ed      	bne.n	80006b4 <ReadBytes+0x16>
	}
	Num=5;
 80006d8:	2305      	movs	r3, #5
 80006da:	813b      	strh	r3, [r7, #8]
}
 80006dc:	bf00      	nop
 80006de:	3714      	adds	r7, #20
 80006e0:	46bd      	mov	sp, r7
 80006e2:	bd90      	pop	{r4, r7, pc}

080006e4 <WriteBytes>:

void WriteBytes(struct IIC_COMMON *this,uint8_t WriteAddr,uint8_t *Buffer,uint16_t Num)//向指定地址连续写入过个字节
{
 80006e4:	b580      	push	{r7, lr}
 80006e6:	b084      	sub	sp, #16
 80006e8:	af00      	add	r7, sp, #0
 80006ea:	60f8      	str	r0, [r7, #12]
 80006ec:	607a      	str	r2, [r7, #4]
 80006ee:	461a      	mov	r2, r3
 80006f0:	460b      	mov	r3, r1
 80006f2:	72fb      	strb	r3, [r7, #11]
 80006f4:	4613      	mov	r3, r2
 80006f6:	813b      	strh	r3, [r7, #8]
	while(Num--)
 80006f8:	e00c      	b.n	8000714 <WriteBytes+0x30>
	{
	    WriteOneByte(this,WriteAddr,*Buffer);
 80006fa:	687b      	ldr	r3, [r7, #4]
 80006fc:	781a      	ldrb	r2, [r3, #0]
 80006fe:	7afb      	ldrb	r3, [r7, #11]
 8000700:	4619      	mov	r1, r3
 8000702:	68f8      	ldr	r0, [r7, #12]
 8000704:	f7ff ff6e 	bl	80005e4 <WriteOneByte>
	    WriteAddr++;
 8000708:	7afb      	ldrb	r3, [r7, #11]
 800070a:	3301      	adds	r3, #1
 800070c:	72fb      	strb	r3, [r7, #11]
	    Buffer++;
 800070e:	687b      	ldr	r3, [r7, #4]
 8000710:	3301      	adds	r3, #1
 8000712:	607b      	str	r3, [r7, #4]
	while(Num--)
 8000714:	893b      	ldrh	r3, [r7, #8]
 8000716:	1e5a      	subs	r2, r3, #1
 8000718:	813a      	strh	r2, [r7, #8]
 800071a:	2b00      	cmp	r3, #0
 800071c:	d1ed      	bne.n	80006fa <WriteBytes+0x16>
	}
}
 800071e:	bf00      	nop
 8000720:	3710      	adds	r7, #16
 8000722:	46bd      	mov	sp, r7
 8000724:	bd80      	pop	{r7, pc}
	...

08000728 <new_IIC>:

//PB6 SCL    PB7 SDA
IIC_COMMON* new_IIC(struct IIC_COMMON *this ,GPIO_TypeDef  *sda_port,uint32_t sda_pin,GPIO_TypeDef  *scl_port,uint32_t scl_pin,uint8_t s_addr)
{
 8000728:	b580      	push	{r7, lr}
 800072a:	b086      	sub	sp, #24
 800072c:	af02      	add	r7, sp, #8
 800072e:	60f8      	str	r0, [r7, #12]
 8000730:	60b9      	str	r1, [r7, #8]
 8000732:	607a      	str	r2, [r7, #4]
 8000734:	603b      	str	r3, [r7, #0]
	this = (struct IIC_COMMON*) calloc(1, sizeof(struct IIC_COMMON));
 8000736:	212c      	movs	r1, #44	; 0x2c
 8000738:	2001      	movs	r0, #1
 800073a:	f002 f933 	bl	80029a4 <calloc>
 800073e:	4603      	mov	r3, r0
 8000740:	60fb      	str	r3, [r7, #12]
	this->scl = new_Gpio(this->scl, scl_port, scl_pin, GPIO_MODE_OUTPUT_OD,
 8000742:	68fb      	ldr	r3, [r7, #12]
 8000744:	6818      	ldr	r0, [r3, #0]
 8000746:	2303      	movs	r3, #3
 8000748:	9301      	str	r3, [sp, #4]
 800074a:	2300      	movs	r3, #0
 800074c:	9300      	str	r3, [sp, #0]
 800074e:	2311      	movs	r3, #17
 8000750:	69ba      	ldr	r2, [r7, #24]
 8000752:	6839      	ldr	r1, [r7, #0]
 8000754:	f7ff fd38 	bl	80001c8 <new_Gpio>
 8000758:	4602      	mov	r2, r0
 800075a:	68fb      	ldr	r3, [r7, #12]
 800075c:	601a      	str	r2, [r3, #0]
	GPIO_NOPULL, GPIO_SPEED_FREQ_HIGH);
	this->sda = new_Gpio(this->sda, sda_port, sda_pin, GPIO_MODE_OUTPUT_OD,
 800075e:	68fb      	ldr	r3, [r7, #12]
 8000760:	6858      	ldr	r0, [r3, #4]
 8000762:	2303      	movs	r3, #3
 8000764:	9301      	str	r3, [sp, #4]
 8000766:	2300      	movs	r3, #0
 8000768:	9300      	str	r3, [sp, #0]
 800076a:	2311      	movs	r3, #17
 800076c:	687a      	ldr	r2, [r7, #4]
 800076e:	68b9      	ldr	r1, [r7, #8]
 8000770:	f7ff fd2a 	bl	80001c8 <new_Gpio>
 8000774:	4602      	mov	r2, r0
 8000776:	68fb      	ldr	r3, [r7, #12]
 8000778:	605a      	str	r2, [r3, #4]
			GPIO_NOPULL, GPIO_SPEED_FREQ_HIGH);
	this->addr = s_addr;
 800077a:	68fb      	ldr	r3, [r7, #12]
 800077c:	7f3a      	ldrb	r2, [r7, #28]
 800077e:	721a      	strb	r2, [r3, #8]
	this->I2C_Start=I2C_Start;
 8000780:	68fb      	ldr	r3, [r7, #12]
 8000782:	4a0e      	ldr	r2, [pc, #56]	; (80007bc <new_IIC+0x94>)
 8000784:	611a      	str	r2, [r3, #16]
	this->I2C_Stop=I2C_Stop;
 8000786:	68fb      	ldr	r3, [r7, #12]
 8000788:	4a0d      	ldr	r2, [pc, #52]	; (80007c0 <new_IIC+0x98>)
 800078a:	60da      	str	r2, [r3, #12]
	this->I2C_Send_Byte=I2C_Send_Byte;
 800078c:	68fb      	ldr	r3, [r7, #12]
 800078e:	4a0d      	ldr	r2, [pc, #52]	; (80007c4 <new_IIC+0x9c>)
 8000790:	615a      	str	r2, [r3, #20]
	this->I2C_Recieve_Byte=I2C_Recieve_Byte;
 8000792:	68fb      	ldr	r3, [r7, #12]
 8000794:	4a0c      	ldr	r2, [pc, #48]	; (80007c8 <new_IIC+0xa0>)
 8000796:	619a      	str	r2, [r3, #24]
	this->ReadOneByte=ReadOneByte;
 8000798:	68fb      	ldr	r3, [r7, #12]
 800079a:	4a0c      	ldr	r2, [pc, #48]	; (80007cc <new_IIC+0xa4>)
 800079c:	621a      	str	r2, [r3, #32]
	this->WriteOneByte=WriteOneByte;
 800079e:	68fb      	ldr	r3, [r7, #12]
 80007a0:	4a0b      	ldr	r2, [pc, #44]	; (80007d0 <new_IIC+0xa8>)
 80007a2:	61da      	str	r2, [r3, #28]
	this->ReadBytes=ReadBytes;
 80007a4:	68fb      	ldr	r3, [r7, #12]
 80007a6:	4a0b      	ldr	r2, [pc, #44]	; (80007d4 <new_IIC+0xac>)
 80007a8:	625a      	str	r2, [r3, #36]	; 0x24
	this->WriteBytes=WriteBytes;
 80007aa:	68fb      	ldr	r3, [r7, #12]
 80007ac:	4a0a      	ldr	r2, [pc, #40]	; (80007d8 <new_IIC+0xb0>)
 80007ae:	629a      	str	r2, [r3, #40]	; 0x28
	return this;
 80007b0:	68fb      	ldr	r3, [r7, #12]
}
 80007b2:	4618      	mov	r0, r3
 80007b4:	3710      	adds	r7, #16
 80007b6:	46bd      	mov	sp, r7
 80007b8:	bd80      	pop	{r7, pc}
 80007ba:	bf00      	nop
 80007bc:	08000383 	.word	0x08000383
 80007c0:	08000331 	.word	0x08000331
 80007c4:	08000471 	.word	0x08000471
 80007c8:	0800051d 	.word	0x0800051d
 80007cc:	08000635 	.word	0x08000635
 80007d0:	080005e5 	.word	0x080005e5
 80007d4:	0800069f 	.word	0x0800069f
 80007d8:	080006e5 	.word	0x080006e5

080007dc <main>:

/* Private function prototypes -----------------------------------------------*/
void SystemClock_Config(void);
extern struct UART_COMMON *uart1_common;

int main(void) {
 80007dc:	b590      	push	{r4, r7, lr}
 80007de:	b091      	sub	sp, #68	; 0x44
 80007e0:	af02      	add	r7, sp, #8
	HAL_Init();
 80007e2:	f000 fae1 	bl	8000da8 <HAL_Init>
	/* Configure the system clock */
	SystemClock_Config();
 80007e6:	f000 f84f 	bl	8000888 <SystemClock_Config>
	IIC_COMMON *at24c32 = new_IIC(at24c32, GPIOB, GPIO_PIN_7, GPIOB,
 80007ea:	23a0      	movs	r3, #160	; 0xa0
 80007ec:	9301      	str	r3, [sp, #4]
 80007ee:	2340      	movs	r3, #64	; 0x40
 80007f0:	9300      	str	r3, [sp, #0]
 80007f2:	4b1e      	ldr	r3, [pc, #120]	; (800086c <main+0x90>)
 80007f4:	2280      	movs	r2, #128	; 0x80
 80007f6:	491d      	ldr	r1, [pc, #116]	; (800086c <main+0x90>)
 80007f8:	6b78      	ldr	r0, [r7, #52]	; 0x34
 80007fa:	f7ff ff95 	bl	8000728 <new_IIC>
 80007fe:	6378      	str	r0, [r7, #52]	; 0x34
			GPIO_PIN_6,0xA0);
	uart1_common = new_Uart(uart1_common, USART1, 115200);	//初始化串口一 注册相关成员函数
 8000800:	4b1b      	ldr	r3, [pc, #108]	; (8000870 <main+0x94>)
 8000802:	681b      	ldr	r3, [r3, #0]
 8000804:	f44f 32e1 	mov.w	r2, #115200	; 0x1c200
 8000808:	491a      	ldr	r1, [pc, #104]	; (8000874 <main+0x98>)
 800080a:	4618      	mov	r0, r3
 800080c:	f000 fa46 	bl	8000c9c <new_Uart>
 8000810:	4602      	mov	r2, r0
 8000812:	4b17      	ldr	r3, [pc, #92]	; (8000870 <main+0x94>)
 8000814:	601a      	str	r2, [r3, #0]
	u8 value[50];
	uart1_common->UPrintf(uart1_common,
 8000816:	4b16      	ldr	r3, [pc, #88]	; (8000870 <main+0x94>)
 8000818:	681b      	ldr	r3, [r3, #0]
 800081a:	f8d3 3148 	ldr.w	r3, [r3, #328]	; 0x148
 800081e:	4a14      	ldr	r2, [pc, #80]	; (8000870 <main+0x94>)
 8000820:	6810      	ldr	r0, [r2, #0]
 8000822:	463a      	mov	r2, r7
 8000824:	4914      	ldr	r1, [pc, #80]	; (8000878 <main+0x9c>)
 8000826:	4798      	blx	r3
			"Write Data \"Hello World\" to 33 ...... \r\n", value);
	at24c32->WriteBytes(at24c32, 33, "Hello World", 12);
 8000828:	6b7b      	ldr	r3, [r7, #52]	; 0x34
 800082a:	6a9c      	ldr	r4, [r3, #40]	; 0x28
 800082c:	230c      	movs	r3, #12
 800082e:	4a13      	ldr	r2, [pc, #76]	; (800087c <main+0xa0>)
 8000830:	2121      	movs	r1, #33	; 0x21
 8000832:	6b78      	ldr	r0, [r7, #52]	; 0x34
 8000834:	47a0      	blx	r4
	at24c32->ReadBytes(at24c32, 33, value, 12);
 8000836:	6b7b      	ldr	r3, [r7, #52]	; 0x34
 8000838:	6a5c      	ldr	r4, [r3, #36]	; 0x24
 800083a:	463a      	mov	r2, r7
 800083c:	230c      	movs	r3, #12
 800083e:	2121      	movs	r1, #33	; 0x21
 8000840:	6b78      	ldr	r0, [r7, #52]	; 0x34
 8000842:	47a0      	blx	r4
	uart1_common->UPrintf(uart1_common, "IIC EX_RAM WR EXAMPLE!\r\n");
 8000844:	4b0a      	ldr	r3, [pc, #40]	; (8000870 <main+0x94>)
 8000846:	681b      	ldr	r3, [r3, #0]
 8000848:	f8d3 3148 	ldr.w	r3, [r3, #328]	; 0x148
 800084c:	4a08      	ldr	r2, [pc, #32]	; (8000870 <main+0x94>)
 800084e:	6812      	ldr	r2, [r2, #0]
 8000850:	490b      	ldr	r1, [pc, #44]	; (8000880 <main+0xa4>)
 8000852:	4610      	mov	r0, r2
 8000854:	4798      	blx	r3
	uart1_common->UPrintf(uart1_common, "Get Data in 33:\t%s\r\n", value);
 8000856:	4b06      	ldr	r3, [pc, #24]	; (8000870 <main+0x94>)
 8000858:	681b      	ldr	r3, [r3, #0]
 800085a:	f8d3 3148 	ldr.w	r3, [r3, #328]	; 0x148
 800085e:	4a04      	ldr	r2, [pc, #16]	; (8000870 <main+0x94>)
 8000860:	6810      	ldr	r0, [r2, #0]
 8000862:	463a      	mov	r2, r7
 8000864:	4907      	ldr	r1, [pc, #28]	; (8000884 <main+0xa8>)
 8000866:	4798      	blx	r3
	while (1) ;
 8000868:	e7fe      	b.n	8000868 <main+0x8c>
 800086a:	bf00      	nop
 800086c:	40010c00 	.word	0x40010c00
 8000870:	20000124 	.word	0x20000124
 8000874:	40013800 	.word	0x40013800
 8000878:	08003270 	.word	0x08003270
 800087c:	0800329c 	.word	0x0800329c
 8000880:	080032a8 	.word	0x080032a8
 8000884:	080032c4 	.word	0x080032c4

08000888 <SystemClock_Config>:

/**
 * @brief System Clock Configuration
 * @retval None
 */
void SystemClock_Config(void) {
 8000888:	b580      	push	{r7, lr}
 800088a:	b090      	sub	sp, #64	; 0x40
 800088c:	af00      	add	r7, sp, #0
	RCC_OscInitTypeDef RCC_OscInitStruct = { 0 };
 800088e:	f107 0318 	add.w	r3, r7, #24
 8000892:	2228      	movs	r2, #40	; 0x28
 8000894:	2100      	movs	r1, #0
 8000896:	4618      	mov	r0, r3
 8000898:	f002 f8b6 	bl	8002a08 <memset>
	RCC_ClkInitTypeDef RCC_ClkInitStruct = { 0 };
 800089c:	1d3b      	adds	r3, r7, #4
 800089e:	2200      	movs	r2, #0
 80008a0:	601a      	str	r2, [r3, #0]
 80008a2:	605a      	str	r2, [r3, #4]
 80008a4:	609a      	str	r2, [r3, #8]
 80008a6:	60da      	str	r2, [r3, #12]
 80008a8:	611a      	str	r2, [r3, #16]

	/** Initializes the CPU, AHB and APB busses clocks
	 */
	RCC_OscInitStruct.OscillatorType = RCC_OSCILLATORTYPE_HSE;
 80008aa:	2301      	movs	r3, #1
 80008ac:	61bb      	str	r3, [r7, #24]
	RCC_OscInitStruct.HSEState = RCC_HSE_ON;
 80008ae:	f44f 3380 	mov.w	r3, #65536	; 0x10000
 80008b2:	61fb      	str	r3, [r7, #28]
	RCC_OscInitStruct.HSEPredivValue = RCC_HSE_PREDIV_DIV1;
 80008b4:	2300      	movs	r3, #0
 80008b6:	623b      	str	r3, [r7, #32]
	RCC_OscInitStruct.HSIState = RCC_HSI_ON;
 80008b8:	2301      	movs	r3, #1
 80008ba:	62bb      	str	r3, [r7, #40]	; 0x28
	RCC_OscInitStruct.PLL.PLLState = RCC_PLL_ON;
 80008bc:	2302      	movs	r3, #2
 80008be:	637b      	str	r3, [r7, #52]	; 0x34
	RCC_OscInitStruct.PLL.PLLSource = RCC_PLLSOURCE_HSE;
 80008c0:	f44f 3380 	mov.w	r3, #65536	; 0x10000
 80008c4:	63bb      	str	r3, [r7, #56]	; 0x38
	RCC_OscInitStruct.PLL.PLLMUL = RCC_PLL_MUL9;
 80008c6:	f44f 13e0 	mov.w	r3, #1835008	; 0x1c0000
 80008ca:	63fb      	str	r3, [r7, #60]	; 0x3c
	if (HAL_RCC_OscConfig(&RCC_OscInitStruct) != HAL_OK) {
 80008cc:	f107 0318 	add.w	r3, r7, #24
 80008d0:	4618      	mov	r0, r3
 80008d2:	f000 ff13 	bl	80016fc <HAL_RCC_OscConfig>
 80008d6:	4603      	mov	r3, r0
 80008d8:	2b00      	cmp	r3, #0
 80008da:	d001      	beq.n	80008e0 <SystemClock_Config+0x58>
		Error_Handler();
 80008dc:	f000 f819 	bl	8000912 <Error_Handler>
	}
	/** Initializes the CPU, AHB and APB busses clocks
	 */
	RCC_ClkInitStruct.ClockType = RCC_CLOCKTYPE_HCLK | RCC_CLOCKTYPE_SYSCLK
 80008e0:	230f      	movs	r3, #15
 80008e2:	607b      	str	r3, [r7, #4]
			| RCC_CLOCKTYPE_PCLK1 | RCC_CLOCKTYPE_PCLK2;
	RCC_ClkInitStruct.SYSCLKSource = RCC_SYSCLKSOURCE_PLLCLK;
 80008e4:	2302      	movs	r3, #2
 80008e6:	60bb      	str	r3, [r7, #8]
	RCC_ClkInitStruct.AHBCLKDivider = RCC_SYSCLK_DIV1;
 80008e8:	2300      	movs	r3, #0
 80008ea:	60fb      	str	r3, [r7, #12]
	RCC_ClkInitStruct.APB1CLKDivider = RCC_HCLK_DIV2;
 80008ec:	f44f 6380 	mov.w	r3, #1024	; 0x400
 80008f0:	613b      	str	r3, [r7, #16]
	RCC_ClkInitStruct.APB2CLKDivider = RCC_HCLK_DIV1;
 80008f2:	2300      	movs	r3, #0
 80008f4:	617b      	str	r3, [r7, #20]

	if (HAL_RCC_ClockConfig(&RCC_ClkInitStruct, FLASH_LATENCY_2) != HAL_OK) {
 80008f6:	1d3b      	adds	r3, r7, #4
 80008f8:	2102      	movs	r1, #2
 80008fa:	4618      	mov	r0, r3
 80008fc:	f001 f97e 	bl	8001bfc <HAL_RCC_ClockConfig>
 8000900:	4603      	mov	r3, r0
 8000902:	2b00      	cmp	r3, #0
 8000904:	d001      	beq.n	800090a <SystemClock_Config+0x82>
		Error_Handler();
 8000906:	f000 f804 	bl	8000912 <Error_Handler>
	}
}
 800090a:	bf00      	nop
 800090c:	3740      	adds	r7, #64	; 0x40
 800090e:	46bd      	mov	sp, r7
 8000910:	bd80      	pop	{r7, pc}

08000912 <Error_Handler>:

void Error_Handler(void) {
 8000912:	b480      	push	{r7}
 8000914:	af00      	add	r7, sp, #0

}
 8000916:	bf00      	nop
 8000918:	46bd      	mov	sp, r7
 800091a:	bc80      	pop	{r7}
 800091c:	4770      	bx	lr
	...

08000920 <HAL_MspInit>:
/* USER CODE END 0 */
/**
  * Initializes the Global MSP.
  */
void HAL_MspInit(void)
{
 8000920:	b480      	push	{r7}
 8000922:	b085      	sub	sp, #20
 8000924:	af00      	add	r7, sp, #0
  /* USER CODE BEGIN MspInit 0 */

  /* USER CODE END MspInit 0 */

  __HAL_RCC_AFIO_CLK_ENABLE();
 8000926:	4b15      	ldr	r3, [pc, #84]	; (800097c <HAL_MspInit+0x5c>)
 8000928:	699b      	ldr	r3, [r3, #24]
 800092a:	4a14      	ldr	r2, [pc, #80]	; (800097c <HAL_MspInit+0x5c>)
 800092c:	f043 0301 	orr.w	r3, r3, #1
 8000930:	6193      	str	r3, [r2, #24]
 8000932:	4b12      	ldr	r3, [pc, #72]	; (800097c <HAL_MspInit+0x5c>)
 8000934:	699b      	ldr	r3, [r3, #24]
 8000936:	f003 0301 	and.w	r3, r3, #1
 800093a:	60bb      	str	r3, [r7, #8]
 800093c:	68bb      	ldr	r3, [r7, #8]
  __HAL_RCC_PWR_CLK_ENABLE();
 800093e:	4b0f      	ldr	r3, [pc, #60]	; (800097c <HAL_MspInit+0x5c>)
 8000940:	69db      	ldr	r3, [r3, #28]
 8000942:	4a0e      	ldr	r2, [pc, #56]	; (800097c <HAL_MspInit+0x5c>)
 8000944:	f043 5380 	orr.w	r3, r3, #268435456	; 0x10000000
 8000948:	61d3      	str	r3, [r2, #28]
 800094a:	4b0c      	ldr	r3, [pc, #48]	; (800097c <HAL_MspInit+0x5c>)
 800094c:	69db      	ldr	r3, [r3, #28]
 800094e:	f003 5380 	and.w	r3, r3, #268435456	; 0x10000000
 8000952:	607b      	str	r3, [r7, #4]
 8000954:	687b      	ldr	r3, [r7, #4]

  /* System interrupt init*/

  /** NOJTAG: JTAG-DP Disabled and SW-DP Enabled 
  */
  __HAL_AFIO_REMAP_SWJ_NOJTAG();
 8000956:	4b0a      	ldr	r3, [pc, #40]	; (8000980 <HAL_MspInit+0x60>)
 8000958:	685b      	ldr	r3, [r3, #4]
 800095a:	60fb      	str	r3, [r7, #12]
 800095c:	68fb      	ldr	r3, [r7, #12]
 800095e:	f023 63e0 	bic.w	r3, r3, #117440512	; 0x7000000
 8000962:	60fb      	str	r3, [r7, #12]
 8000964:	68fb      	ldr	r3, [r7, #12]
 8000966:	f043 7300 	orr.w	r3, r3, #33554432	; 0x2000000
 800096a:	60fb      	str	r3, [r7, #12]
 800096c:	4a04      	ldr	r2, [pc, #16]	; (8000980 <HAL_MspInit+0x60>)
 800096e:	68fb      	ldr	r3, [r7, #12]
 8000970:	6053      	str	r3, [r2, #4]

  /* USER CODE BEGIN MspInit 1 */

  /* USER CODE END MspInit 1 */
}
 8000972:	bf00      	nop
 8000974:	3714      	adds	r7, #20
 8000976:	46bd      	mov	sp, r7
 8000978:	bc80      	pop	{r7}
 800097a:	4770      	bx	lr
 800097c:	40021000 	.word	0x40021000
 8000980:	40010000 	.word	0x40010000

08000984 <NMI_Handler>:
/******************************************************************************/
/**
  * @brief This function handles Non maskable interrupt.
  */
void NMI_Handler(void)
{
 8000984:	b480      	push	{r7}
 8000986:	af00      	add	r7, sp, #0

  /* USER CODE END NonMaskableInt_IRQn 0 */
  /* USER CODE BEGIN NonMaskableInt_IRQn 1 */

  /* USER CODE END NonMaskableInt_IRQn 1 */
}
 8000988:	bf00      	nop
 800098a:	46bd      	mov	sp, r7
 800098c:	bc80      	pop	{r7}
 800098e:	4770      	bx	lr

08000990 <HardFault_Handler>:

/**
  * @brief This function handles Hard fault interrupt.
  */
void HardFault_Handler(void)
{
 8000990:	b480      	push	{r7}
 8000992:	af00      	add	r7, sp, #0
  /* USER CODE BEGIN HardFault_IRQn 0 */

  /* USER CODE END HardFault_IRQn 0 */
  while (1)
 8000994:	e7fe      	b.n	8000994 <HardFault_Handler+0x4>

08000996 <MemManage_Handler>:

/**
  * @brief This function handles Memory management fault.
  */
void MemManage_Handler(void)
{
 8000996:	b480      	push	{r7}
 8000998:	af00      	add	r7, sp, #0
  /* USER CODE BEGIN MemoryManagement_IRQn 0 */

  /* USER CODE END MemoryManagement_IRQn 0 */
  while (1)
 800099a:	e7fe      	b.n	800099a <MemManage_Handler+0x4>

0800099c <BusFault_Handler>:

/**
  * @brief This function handles Prefetch fault, memory access fault.
  */
void BusFault_Handler(void)
{
 800099c:	b480      	push	{r7}
 800099e:	af00      	add	r7, sp, #0
  /* USER CODE BEGIN BusFault_IRQn 0 */

  /* USER CODE END BusFault_IRQn 0 */
  while (1)
 80009a0:	e7fe      	b.n	80009a0 <BusFault_Handler+0x4>

080009a2 <UsageFault_Handler>:

/**
  * @brief This function handles Undefined instruction or illegal state.
  */
void UsageFault_Handler(void)
{
 80009a2:	b480      	push	{r7}
 80009a4:	af00      	add	r7, sp, #0
  /* USER CODE BEGIN UsageFault_IRQn 0 */

  /* USER CODE END UsageFault_IRQn 0 */
  while (1)
 80009a6:	e7fe      	b.n	80009a6 <UsageFault_Handler+0x4>

080009a8 <SVC_Handler>:

/**
  * @brief This function handles System service call via SWI instruction.
  */
void SVC_Handler(void)
{
 80009a8:	b480      	push	{r7}
 80009aa:	af00      	add	r7, sp, #0

  /* USER CODE END SVCall_IRQn 0 */
  /* USER CODE BEGIN SVCall_IRQn 1 */

  /* USER CODE END SVCall_IRQn 1 */
}
 80009ac:	bf00      	nop
 80009ae:	46bd      	mov	sp, r7
 80009b0:	bc80      	pop	{r7}
 80009b2:	4770      	bx	lr

080009b4 <DebugMon_Handler>:

/**
  * @brief This function handles Debug monitor.
  */
void DebugMon_Handler(void)
{
 80009b4:	b480      	push	{r7}
 80009b6:	af00      	add	r7, sp, #0

  /* USER CODE END DebugMonitor_IRQn 0 */
  /* USER CODE BEGIN DebugMonitor_IRQn 1 */

  /* USER CODE END DebugMonitor_IRQn 1 */
}
 80009b8:	bf00      	nop
 80009ba:	46bd      	mov	sp, r7
 80009bc:	bc80      	pop	{r7}
 80009be:	4770      	bx	lr

080009c0 <PendSV_Handler>:

/**
  * @brief This function handles Pendable request for system service.
  */
void PendSV_Handler(void)
{
 80009c0:	b480      	push	{r7}
 80009c2:	af00      	add	r7, sp, #0

  /* USER CODE END PendSV_IRQn 0 */
  /* USER CODE BEGIN PendSV_IRQn 1 */

  /* USER CODE END PendSV_IRQn 1 */
}
 80009c4:	bf00      	nop
 80009c6:	46bd      	mov	sp, r7
 80009c8:	bc80      	pop	{r7}
 80009ca:	4770      	bx	lr

080009cc <SysTick_Handler>:

/**
  * @brief This function handles System tick timer.
  */
void SysTick_Handler(void)
{
 80009cc:	b580      	push	{r7, lr}
 80009ce:	af00      	add	r7, sp, #0
  /* USER CODE BEGIN SysTick_IRQn 0 */

  /* USER CODE END SysTick_IRQn 0 */
  HAL_IncTick();
 80009d0:	f000 fa30 	bl	8000e34 <HAL_IncTick>
  /* USER CODE BEGIN SysTick_IRQn 1 */

  /* USER CODE END SysTick_IRQn 1 */
}
 80009d4:	bf00      	nop
 80009d6:	bd80      	pop	{r7, pc}

080009d8 <_sbrk>:
/**
 _sbrk
 Increase program data space. Malloc and related functions depend on this
**/
caddr_t _sbrk(int incr)
{
 80009d8:	b580      	push	{r7, lr}
 80009da:	b084      	sub	sp, #16
 80009dc:	af00      	add	r7, sp, #0
 80009de:	6078      	str	r0, [r7, #4]
	extern char end asm("end");
	static char *heap_end;
	char *prev_heap_end;

	if (heap_end == 0)
 80009e0:	4b11      	ldr	r3, [pc, #68]	; (8000a28 <_sbrk+0x50>)
 80009e2:	681b      	ldr	r3, [r3, #0]
 80009e4:	2b00      	cmp	r3, #0
 80009e6:	d102      	bne.n	80009ee <_sbrk+0x16>
		heap_end = &end;
 80009e8:	4b0f      	ldr	r3, [pc, #60]	; (8000a28 <_sbrk+0x50>)
 80009ea:	4a10      	ldr	r2, [pc, #64]	; (8000a2c <_sbrk+0x54>)
 80009ec:	601a      	str	r2, [r3, #0]

	prev_heap_end = heap_end;
 80009ee:	4b0e      	ldr	r3, [pc, #56]	; (8000a28 <_sbrk+0x50>)
 80009f0:	681b      	ldr	r3, [r3, #0]
 80009f2:	60fb      	str	r3, [r7, #12]
	if (heap_end + incr > stack_ptr)
 80009f4:	4b0c      	ldr	r3, [pc, #48]	; (8000a28 <_sbrk+0x50>)
 80009f6:	681a      	ldr	r2, [r3, #0]
 80009f8:	687b      	ldr	r3, [r7, #4]
 80009fa:	4413      	add	r3, r2
 80009fc:	466a      	mov	r2, sp
 80009fe:	4293      	cmp	r3, r2
 8000a00:	d907      	bls.n	8000a12 <_sbrk+0x3a>
	{
		errno = ENOMEM;
 8000a02:	f001 ffd7 	bl	80029b4 <__errno>
 8000a06:	4602      	mov	r2, r0
 8000a08:	230c      	movs	r3, #12
 8000a0a:	6013      	str	r3, [r2, #0]
		return (caddr_t) -1;
 8000a0c:	f04f 33ff 	mov.w	r3, #4294967295
 8000a10:	e006      	b.n	8000a20 <_sbrk+0x48>
	}

	heap_end += incr;
 8000a12:	4b05      	ldr	r3, [pc, #20]	; (8000a28 <_sbrk+0x50>)
 8000a14:	681a      	ldr	r2, [r3, #0]
 8000a16:	687b      	ldr	r3, [r7, #4]
 8000a18:	4413      	add	r3, r2
 8000a1a:	4a03      	ldr	r2, [pc, #12]	; (8000a28 <_sbrk+0x50>)
 8000a1c:	6013      	str	r3, [r2, #0]

	return (caddr_t) prev_heap_end;
 8000a1e:	68fb      	ldr	r3, [r7, #12]
}
 8000a20:	4618      	mov	r0, r3
 8000a22:	3710      	adds	r7, #16
 8000a24:	46bd      	mov	sp, r7
 8000a26:	bd80      	pop	{r7, pc}
 8000a28:	2000008c 	.word	0x2000008c
 8000a2c:	20000130 	.word	0x20000130

08000a30 <SystemInit>:
  * @note   This function should be used only after reset.
  * @param  None
  * @retval None
  */
void SystemInit (void)
{
 8000a30:	b480      	push	{r7}
 8000a32:	af00      	add	r7, sp, #0

  /* Configure the Vector Table location -------------------------------------*/
#if defined(USER_VECT_TAB_ADDRESS)
  SCB->VTOR = VECT_TAB_BASE_ADDRESS | VECT_TAB_OFFSET; /* Vector Table Relocation in Internal SRAM. */
#endif /* USER_VECT_TAB_ADDRESS */
}
 8000a34:	bf00      	nop
 8000a36:	46bd      	mov	sp, r7
 8000a38:	bc80      	pop	{r7}
 8000a3a:	4770      	bx	lr

08000a3c <HAL_UART_MspInit>:
{
	HAL_UART_Receive_DMA(&uart1_common->uart_handle, Data, len); //重新打开DMA接收
}
#endif

void HAL_UART_MspInit(UART_HandleTypeDef *uartHandle) {
 8000a3c:	b580      	push	{r7, lr}
 8000a3e:	b088      	sub	sp, #32
 8000a40:	af02      	add	r7, sp, #8
 8000a42:	6078      	str	r0, [r7, #4]
	GPIO_COMMON *u1_txd = NULL, *u1_rxd = NULL;
 8000a44:	2300      	movs	r3, #0
 8000a46:	617b      	str	r3, [r7, #20]
 8000a48:	2300      	movs	r3, #0
 8000a4a:	613b      	str	r3, [r7, #16]

	if (uartHandle->Instance == USART1) {
 8000a4c:	687b      	ldr	r3, [r7, #4]
 8000a4e:	681b      	ldr	r3, [r3, #0]
 8000a50:	4a4e      	ldr	r2, [pc, #312]	; (8000b8c <HAL_UART_MspInit+0x150>)
 8000a52:	4293      	cmp	r3, r2
 8000a54:	f040 8096 	bne.w	8000b84 <HAL_UART_MspInit+0x148>
		/* USART1 clock enable */
		__HAL_RCC_USART1_CLK_ENABLE();
 8000a58:	4b4d      	ldr	r3, [pc, #308]	; (8000b90 <HAL_UART_MspInit+0x154>)
 8000a5a:	699b      	ldr	r3, [r3, #24]
 8000a5c:	4a4c      	ldr	r2, [pc, #304]	; (8000b90 <HAL_UART_MspInit+0x154>)
 8000a5e:	f443 4380 	orr.w	r3, r3, #16384	; 0x4000
 8000a62:	6193      	str	r3, [r2, #24]
 8000a64:	4b4a      	ldr	r3, [pc, #296]	; (8000b90 <HAL_UART_MspInit+0x154>)
 8000a66:	699b      	ldr	r3, [r3, #24]
 8000a68:	f403 4380 	and.w	r3, r3, #16384	; 0x4000
 8000a6c:	60fb      	str	r3, [r7, #12]
 8000a6e:	68fb      	ldr	r3, [r7, #12]

		//    /**USART1 GPIO Configuration
		//    PA9     ------> USART1_TX
		//    PA10     ------> USART1_RX
		//    */
		u1_txd = new_Gpio(u1_txd, GPIOA, GPIO_PIN_9, GPIO_MODE_AF_PP,
 8000a70:	2303      	movs	r3, #3
 8000a72:	9301      	str	r3, [sp, #4]
 8000a74:	2300      	movs	r3, #0
 8000a76:	9300      	str	r3, [sp, #0]
 8000a78:	2302      	movs	r3, #2
 8000a7a:	f44f 7200 	mov.w	r2, #512	; 0x200
 8000a7e:	4945      	ldr	r1, [pc, #276]	; (8000b94 <HAL_UART_MspInit+0x158>)
 8000a80:	6978      	ldr	r0, [r7, #20]
 8000a82:	f7ff fba1 	bl	80001c8 <new_Gpio>
 8000a86:	6178      	str	r0, [r7, #20]
		GPIO_NOPULL, GPIO_SPEED_FREQ_HIGH);
		u1_rxd = new_Gpio(u1_rxd, GPIOA, GPIO_PIN_10, GPIO_MODE_INPUT,
 8000a88:	2303      	movs	r3, #3
 8000a8a:	9301      	str	r3, [sp, #4]
 8000a8c:	2300      	movs	r3, #0
 8000a8e:	9300      	str	r3, [sp, #0]
 8000a90:	2300      	movs	r3, #0
 8000a92:	f44f 6280 	mov.w	r2, #1024	; 0x400
 8000a96:	493f      	ldr	r1, [pc, #252]	; (8000b94 <HAL_UART_MspInit+0x158>)
 8000a98:	6938      	ldr	r0, [r7, #16]
 8000a9a:	f7ff fb95 	bl	80001c8 <new_Gpio>
 8000a9e:	6138      	str	r0, [r7, #16]
		GPIO_NOPULL, GPIO_SPEED_FREQ_HIGH);
#ifdef UART_USE_DMA
		/* USART1 DMA Init */
		/* USART1_RX Init */
		__HAL_RCC_DMA1_CLK_ENABLE();
 8000aa0:	4b3b      	ldr	r3, [pc, #236]	; (8000b90 <HAL_UART_MspInit+0x154>)
 8000aa2:	695b      	ldr	r3, [r3, #20]
 8000aa4:	4a3a      	ldr	r2, [pc, #232]	; (8000b90 <HAL_UART_MspInit+0x154>)
 8000aa6:	f043 0301 	orr.w	r3, r3, #1
 8000aaa:	6153      	str	r3, [r2, #20]
 8000aac:	4b38      	ldr	r3, [pc, #224]	; (8000b90 <HAL_UART_MspInit+0x154>)
 8000aae:	695b      	ldr	r3, [r3, #20]
 8000ab0:	f003 0301 	and.w	r3, r3, #1
 8000ab4:	60bb      	str	r3, [r7, #8]
 8000ab6:	68bb      	ldr	r3, [r7, #8]
		/* DMA interrupt init */
		/* DMA1_Channel4_IRQn interrupt configuration */
		HAL_NVIC_SetPriority(DMA1_Channel4_IRQn, 0, 0);
 8000ab8:	2200      	movs	r2, #0
 8000aba:	2100      	movs	r1, #0
 8000abc:	200e      	movs	r0, #14
 8000abe:	f000 faac 	bl	800101a <HAL_NVIC_SetPriority>
		HAL_NVIC_EnableIRQ(DMA1_Channel4_IRQn);
 8000ac2:	200e      	movs	r0, #14
 8000ac4:	f000 fac5 	bl	8001052 <HAL_NVIC_EnableIRQ>
		/* DMA1_Channel5_IRQn interrupt configuration */
		HAL_NVIC_SetPriority(DMA1_Channel5_IRQn, 0, 0);
 8000ac8:	2200      	movs	r2, #0
 8000aca:	2100      	movs	r1, #0
 8000acc:	200f      	movs	r0, #15
 8000ace:	f000 faa4 	bl	800101a <HAL_NVIC_SetPriority>
		HAL_NVIC_EnableIRQ(DMA1_Channel5_IRQn);
 8000ad2:	200f      	movs	r0, #15
 8000ad4:	f000 fabd 	bl	8001052 <HAL_NVIC_EnableIRQ>

		hdma_usart1_rx.Instance = DMA1_Channel5;
 8000ad8:	4b2f      	ldr	r3, [pc, #188]	; (8000b98 <HAL_UART_MspInit+0x15c>)
 8000ada:	4a30      	ldr	r2, [pc, #192]	; (8000b9c <HAL_UART_MspInit+0x160>)
 8000adc:	601a      	str	r2, [r3, #0]
		hdma_usart1_rx.Init.Direction = DMA_PERIPH_TO_MEMORY;
 8000ade:	4b2e      	ldr	r3, [pc, #184]	; (8000b98 <HAL_UART_MspInit+0x15c>)
 8000ae0:	2200      	movs	r2, #0
 8000ae2:	605a      	str	r2, [r3, #4]
		hdma_usart1_rx.Init.PeriphInc = DMA_PINC_DISABLE;
 8000ae4:	4b2c      	ldr	r3, [pc, #176]	; (8000b98 <HAL_UART_MspInit+0x15c>)
 8000ae6:	2200      	movs	r2, #0
 8000ae8:	609a      	str	r2, [r3, #8]
		hdma_usart1_rx.Init.MemInc = DMA_MINC_ENABLE;
 8000aea:	4b2b      	ldr	r3, [pc, #172]	; (8000b98 <HAL_UART_MspInit+0x15c>)
 8000aec:	2280      	movs	r2, #128	; 0x80
 8000aee:	60da      	str	r2, [r3, #12]
		hdma_usart1_rx.Init.PeriphDataAlignment = DMA_PDATAALIGN_BYTE;
 8000af0:	4b29      	ldr	r3, [pc, #164]	; (8000b98 <HAL_UART_MspInit+0x15c>)
 8000af2:	2200      	movs	r2, #0
 8000af4:	611a      	str	r2, [r3, #16]
		hdma_usart1_rx.Init.MemDataAlignment = DMA_MDATAALIGN_BYTE;
 8000af6:	4b28      	ldr	r3, [pc, #160]	; (8000b98 <HAL_UART_MspInit+0x15c>)
 8000af8:	2200      	movs	r2, #0
 8000afa:	615a      	str	r2, [r3, #20]
		hdma_usart1_rx.Init.Mode = DMA_NORMAL;
 8000afc:	4b26      	ldr	r3, [pc, #152]	; (8000b98 <HAL_UART_MspInit+0x15c>)
 8000afe:	2200      	movs	r2, #0
 8000b00:	619a      	str	r2, [r3, #24]
		hdma_usart1_rx.Init.Priority = DMA_PRIORITY_MEDIUM;
 8000b02:	4b25      	ldr	r3, [pc, #148]	; (8000b98 <HAL_UART_MspInit+0x15c>)
 8000b04:	f44f 5280 	mov.w	r2, #4096	; 0x1000
 8000b08:	61da      	str	r2, [r3, #28]
		if (HAL_DMA_Init(&hdma_usart1_rx) != HAL_OK) {
 8000b0a:	4823      	ldr	r0, [pc, #140]	; (8000b98 <HAL_UART_MspInit+0x15c>)
 8000b0c:	f000 fabc 	bl	8001088 <HAL_DMA_Init>
 8000b10:	4603      	mov	r3, r0
 8000b12:	2b00      	cmp	r3, #0
 8000b14:	d001      	beq.n	8000b1a <HAL_UART_MspInit+0xde>
			Error_Handler();
 8000b16:	f7ff fefc 	bl	8000912 <Error_Handler>
		}

		__HAL_LINKDMA(uartHandle, hdmarx, hdma_usart1_rx);
 8000b1a:	687b      	ldr	r3, [r7, #4]
 8000b1c:	4a1e      	ldr	r2, [pc, #120]	; (8000b98 <HAL_UART_MspInit+0x15c>)
 8000b1e:	635a      	str	r2, [r3, #52]	; 0x34
 8000b20:	4a1d      	ldr	r2, [pc, #116]	; (8000b98 <HAL_UART_MspInit+0x15c>)
 8000b22:	687b      	ldr	r3, [r7, #4]
 8000b24:	6253      	str	r3, [r2, #36]	; 0x24

		/* USART1_TX Init */
		hdma_usart1_tx.Instance = DMA1_Channel4;
 8000b26:	4b1e      	ldr	r3, [pc, #120]	; (8000ba0 <HAL_UART_MspInit+0x164>)
 8000b28:	4a1e      	ldr	r2, [pc, #120]	; (8000ba4 <HAL_UART_MspInit+0x168>)
 8000b2a:	601a      	str	r2, [r3, #0]
		hdma_usart1_tx.Init.Direction = DMA_MEMORY_TO_PERIPH;
 8000b2c:	4b1c      	ldr	r3, [pc, #112]	; (8000ba0 <HAL_UART_MspInit+0x164>)
 8000b2e:	2210      	movs	r2, #16
 8000b30:	605a      	str	r2, [r3, #4]
		hdma_usart1_tx.Init.PeriphInc = DMA_PINC_DISABLE;
 8000b32:	4b1b      	ldr	r3, [pc, #108]	; (8000ba0 <HAL_UART_MspInit+0x164>)
 8000b34:	2200      	movs	r2, #0
 8000b36:	609a      	str	r2, [r3, #8]
		hdma_usart1_tx.Init.MemInc = DMA_MINC_ENABLE;
 8000b38:	4b19      	ldr	r3, [pc, #100]	; (8000ba0 <HAL_UART_MspInit+0x164>)
 8000b3a:	2280      	movs	r2, #128	; 0x80
 8000b3c:	60da      	str	r2, [r3, #12]
		hdma_usart1_tx.Init.PeriphDataAlignment = DMA_PDATAALIGN_BYTE;
 8000b3e:	4b18      	ldr	r3, [pc, #96]	; (8000ba0 <HAL_UART_MspInit+0x164>)
 8000b40:	2200      	movs	r2, #0
 8000b42:	611a      	str	r2, [r3, #16]
		hdma_usart1_tx.Init.MemDataAlignment = DMA_MDATAALIGN_BYTE;
 8000b44:	4b16      	ldr	r3, [pc, #88]	; (8000ba0 <HAL_UART_MspInit+0x164>)
 8000b46:	2200      	movs	r2, #0
 8000b48:	615a      	str	r2, [r3, #20]
		hdma_usart1_tx.Init.Mode = DMA_NORMAL;
 8000b4a:	4b15      	ldr	r3, [pc, #84]	; (8000ba0 <HAL_UART_MspInit+0x164>)
 8000b4c:	2200      	movs	r2, #0
 8000b4e:	619a      	str	r2, [r3, #24]
		hdma_usart1_tx.Init.Priority = DMA_PRIORITY_MEDIUM;
 8000b50:	4b13      	ldr	r3, [pc, #76]	; (8000ba0 <HAL_UART_MspInit+0x164>)
 8000b52:	f44f 5280 	mov.w	r2, #4096	; 0x1000
 8000b56:	61da      	str	r2, [r3, #28]
		if (HAL_DMA_Init(&hdma_usart1_tx) != HAL_OK) {
 8000b58:	4811      	ldr	r0, [pc, #68]	; (8000ba0 <HAL_UART_MspInit+0x164>)
 8000b5a:	f000 fa95 	bl	8001088 <HAL_DMA_Init>
 8000b5e:	4603      	mov	r3, r0
 8000b60:	2b00      	cmp	r3, #0
 8000b62:	d001      	beq.n	8000b68 <HAL_UART_MspInit+0x12c>
			Error_Handler();
 8000b64:	f7ff fed5 	bl	8000912 <Error_Handler>
		}

		__HAL_LINKDMA(uartHandle, hdmatx, hdma_usart1_tx);
 8000b68:	687b      	ldr	r3, [r7, #4]
 8000b6a:	4a0d      	ldr	r2, [pc, #52]	; (8000ba0 <HAL_UART_MspInit+0x164>)
 8000b6c:	631a      	str	r2, [r3, #48]	; 0x30
 8000b6e:	4a0c      	ldr	r2, [pc, #48]	; (8000ba0 <HAL_UART_MspInit+0x164>)
 8000b70:	687b      	ldr	r3, [r7, #4]
 8000b72:	6253      	str	r3, [r2, #36]	; 0x24

#endif
		HAL_NVIC_SetPriority(USART1_IRQn, 0, 0);
 8000b74:	2200      	movs	r2, #0
 8000b76:	2100      	movs	r1, #0
 8000b78:	2025      	movs	r0, #37	; 0x25
 8000b7a:	f000 fa4e 	bl	800101a <HAL_NVIC_SetPriority>
		HAL_NVIC_EnableIRQ(USART1_IRQn);
 8000b7e:	2025      	movs	r0, #37	; 0x25
 8000b80:	f000 fa67 	bl	8001052 <HAL_NVIC_EnableIRQ>
	}
}
 8000b84:	bf00      	nop
 8000b86:	3718      	adds	r7, #24
 8000b88:	46bd      	mov	sp, r7
 8000b8a:	bd80      	pop	{r7, pc}
 8000b8c:	40013800 	.word	0x40013800
 8000b90:	40021000 	.word	0x40021000
 8000b94:	40010800 	.word	0x40010800
 8000b98:	200000dc 	.word	0x200000dc
 8000b9c:	40020058 	.word	0x40020058
 8000ba0:	20000098 	.word	0x20000098
 8000ba4:	40020044 	.word	0x40020044

08000ba8 <USART1_IRQHandler>:
#endif
		HAL_NVIC_DisableIRQ(USART1_IRQn);
	}
}

void USART1_IRQHandler(void) {
 8000ba8:	b580      	push	{r7, lr}
 8000baa:	b082      	sub	sp, #8
 8000bac:	af00      	add	r7, sp, #0
#ifdef UART_USE_DMA
	uint32_t temp;
	if (__HAL_UART_GET_FLAG(&uart1_common->uart_handle,UART_FLAG_IDLE) != RESET)    //如果接受到了一帧数据
 8000bae:	4b1a      	ldr	r3, [pc, #104]	; (8000c18 <USART1_IRQHandler+0x70>)
 8000bb0:	681b      	ldr	r3, [r3, #0]
 8000bb2:	681b      	ldr	r3, [r3, #0]
 8000bb4:	681b      	ldr	r3, [r3, #0]
 8000bb6:	f003 0310 	and.w	r3, r3, #16
 8000bba:	2b10      	cmp	r3, #16
 8000bbc:	d123      	bne.n	8000c06 <USART1_IRQHandler+0x5e>
			{
		__HAL_UART_CLEAR_IDLEFLAG(&uart1_common->uart_handle);    //清除标志位
 8000bbe:	2300      	movs	r3, #0
 8000bc0:	603b      	str	r3, [r7, #0]
 8000bc2:	4b15      	ldr	r3, [pc, #84]	; (8000c18 <USART1_IRQHandler+0x70>)
 8000bc4:	681b      	ldr	r3, [r3, #0]
 8000bc6:	681b      	ldr	r3, [r3, #0]
 8000bc8:	681b      	ldr	r3, [r3, #0]
 8000bca:	603b      	str	r3, [r7, #0]
 8000bcc:	4b12      	ldr	r3, [pc, #72]	; (8000c18 <USART1_IRQHandler+0x70>)
 8000bce:	681b      	ldr	r3, [r3, #0]
 8000bd0:	681b      	ldr	r3, [r3, #0]
 8000bd2:	685b      	ldr	r3, [r3, #4]
 8000bd4:	603b      	str	r3, [r7, #0]
 8000bd6:	683b      	ldr	r3, [r7, #0]
		HAL_UART_DMAStop(&uart1_common->uart_handle); //
 8000bd8:	4b0f      	ldr	r3, [pc, #60]	; (8000c18 <USART1_IRQHandler+0x70>)
 8000bda:	681b      	ldr	r3, [r3, #0]
 8000bdc:	4618      	mov	r0, r3
 8000bde:	f001 fae3 	bl	80021a8 <HAL_UART_DMAStop>
		temp = __HAL_DMA_GET_COUNTER(&hdma_usart1_rx); // 获取DMA中未传输的数据个数
 8000be2:	4b0e      	ldr	r3, [pc, #56]	; (8000c1c <USART1_IRQHandler+0x74>)
 8000be4:	681b      	ldr	r3, [r3, #0]
 8000be6:	685b      	ldr	r3, [r3, #4]
 8000be8:	607b      	str	r3, [r7, #4]
		uart1_common->rx_len = MAX_RX_LENGTH - temp; //总计数减去未传输的数据个数，得到已经接收的数据个数
 8000bea:	687b      	ldr	r3, [r7, #4]
 8000bec:	b29a      	uxth	r2, r3
 8000bee:	4b0a      	ldr	r3, [pc, #40]	; (8000c18 <USART1_IRQHandler+0x70>)
 8000bf0:	681b      	ldr	r3, [r3, #0]
 8000bf2:	f1c2 0280 	rsb	r2, r2, #128	; 0x80
 8000bf6:	b292      	uxth	r2, r2
 8000bf8:	f8a3 2042 	strh.w	r2, [r3, #66]	; 0x42
		uart1_common->rx_flag = 1;	// 接受完成标志位置1
 8000bfc:	4b06      	ldr	r3, [pc, #24]	; (8000c18 <USART1_IRQHandler+0x70>)
 8000bfe:	681b      	ldr	r3, [r3, #0]
 8000c00:	2201      	movs	r2, #1
 8000c02:	f883 2040 	strb.w	r2, [r3, #64]	; 0x40
	}
	HAL_UART_IRQHandler(&uart1_common->uart_handle);
 8000c06:	4b04      	ldr	r3, [pc, #16]	; (8000c18 <USART1_IRQHandler+0x70>)
 8000c08:	681b      	ldr	r3, [r3, #0]
 8000c0a:	4618      	mov	r0, r3
 8000c0c:	f001 fb28 	bl	8002260 <HAL_UART_IRQHandler>
		timeout++; //超时处理
		if (timeout > maxDelay)
			break;
	}
#endif
}
 8000c10:	bf00      	nop
 8000c12:	3708      	adds	r7, #8
 8000c14:	46bd      	mov	sp, r7
 8000c16:	bd80      	pop	{r7, pc}
 8000c18:	20000124 	.word	0x20000124
 8000c1c:	200000dc 	.word	0x200000dc

08000c20 <uart_clear_rec>:

void uart_clear_rec(struct UART_COMMON *this) {
 8000c20:	b580      	push	{r7, lr}
 8000c22:	b082      	sub	sp, #8
 8000c24:	af00      	add	r7, sp, #0
 8000c26:	6078      	str	r0, [r7, #4]
	memset(this->rx_buf, 0, this->rx_len);
 8000c28:	687b      	ldr	r3, [r7, #4]
 8000c2a:	f103 0044 	add.w	r0, r3, #68	; 0x44
 8000c2e:	687b      	ldr	r3, [r7, #4]
 8000c30:	f8b3 3042 	ldrh.w	r3, [r3, #66]	; 0x42
 8000c34:	461a      	mov	r2, r3
 8000c36:	2100      	movs	r1, #0
 8000c38:	f001 fee6 	bl	8002a08 <memset>
	this->rx_flag = 0;
 8000c3c:	687b      	ldr	r3, [r7, #4]
 8000c3e:	2200      	movs	r2, #0
 8000c40:	f883 2040 	strb.w	r2, [r3, #64]	; 0x40
	this->rx_len = 0;
 8000c44:	687b      	ldr	r3, [r7, #4]
 8000c46:	2200      	movs	r2, #0
 8000c48:	f8a3 2042 	strh.w	r2, [r3, #66]	; 0x42
}
 8000c4c:	bf00      	nop
 8000c4e:	3708      	adds	r7, #8
 8000c50:	46bd      	mov	sp, r7
 8000c52:	bd80      	pop	{r7, pc}

08000c54 <uart_printf>:

void uart_printf(struct UART_COMMON *this, char *fmt, ...) {	//通过任意串口发送字符串
 8000c54:	b40e      	push	{r1, r2, r3}
 8000c56:	b580      	push	{r7, lr}
 8000c58:	b085      	sub	sp, #20
 8000c5a:	af00      	add	r7, sp, #0
 8000c5c:	6078      	str	r0, [r7, #4]
	u16 i;
	va_list ap;
	va_start(ap, fmt);
 8000c5e:	f107 0320 	add.w	r3, r7, #32
 8000c62:	60bb      	str	r3, [r7, #8]
	vsprintf((char*) this->tx_buf, fmt, ap);
 8000c64:	687b      	ldr	r3, [r7, #4]
 8000c66:	33c4      	adds	r3, #196	; 0xc4
 8000c68:	68ba      	ldr	r2, [r7, #8]
 8000c6a:	69f9      	ldr	r1, [r7, #28]
 8000c6c:	4618      	mov	r0, r3
 8000c6e:	f001 ff61 	bl	8002b34 <vsiprintf>
	va_end(ap);
	i = strlen((const char*) this->tx_buf);		//此次发送数据的长度
 8000c72:	687b      	ldr	r3, [r7, #4]
 8000c74:	33c4      	adds	r3, #196	; 0xc4
 8000c76:	4618      	mov	r0, r3
 8000c78:	f7ff fa68 	bl	800014c <strlen>
 8000c7c:	4603      	mov	r3, r0
 8000c7e:	81fb      	strh	r3, [r7, #14]
#ifdef UART_USE_DMA
	HAL_UART_Transmit_DMA(&this->uart_handle, (uint8_t*) this->tx_buf, i);
 8000c80:	6878      	ldr	r0, [r7, #4]
 8000c82:	687b      	ldr	r3, [r7, #4]
 8000c84:	33c4      	adds	r3, #196	; 0xc4
 8000c86:	89fa      	ldrh	r2, [r7, #14]
 8000c88:	4619      	mov	r1, r3
 8000c8a:	f001 f9a1 	bl	8001fd0 <HAL_UART_Transmit_DMA>
#else
	HAL_UART_Transmit(&this->uart_handle, (uint8_t*) this->tx_buf, i, 0xffff);
#endif
}
 8000c8e:	bf00      	nop
 8000c90:	3714      	adds	r7, #20
 8000c92:	46bd      	mov	sp, r7
 8000c94:	e8bd 4080 	ldmia.w	sp!, {r7, lr}
 8000c98:	b003      	add	sp, #12
 8000c9a:	4770      	bx	lr

08000c9c <new_Uart>:

UART_COMMON* new_Uart(struct UART_COMMON *this, USART_TypeDef *port, u32 baud)//串口的初始化与相关函数注册
{
 8000c9c:	b580      	push	{r7, lr}
 8000c9e:	b084      	sub	sp, #16
 8000ca0:	af00      	add	r7, sp, #0
 8000ca2:	60f8      	str	r0, [r7, #12]
 8000ca4:	60b9      	str	r1, [r7, #8]
 8000ca6:	607a      	str	r2, [r7, #4]
	this = (struct UART_COMMON*) calloc(1, sizeof(struct UART_COMMON));
 8000ca8:	f44f 71a6 	mov.w	r1, #332	; 0x14c
 8000cac:	2001      	movs	r0, #1
 8000cae:	f001 fe79 	bl	80029a4 <calloc>
 8000cb2:	4603      	mov	r3, r0
 8000cb4:	60fb      	str	r3, [r7, #12]
	this->uart_handle.Instance = port;
 8000cb6:	68fb      	ldr	r3, [r7, #12]
 8000cb8:	68ba      	ldr	r2, [r7, #8]
 8000cba:	601a      	str	r2, [r3, #0]
	this->uart_handle.Init.BaudRate = baud;
 8000cbc:	68fb      	ldr	r3, [r7, #12]
 8000cbe:	687a      	ldr	r2, [r7, #4]
 8000cc0:	605a      	str	r2, [r3, #4]
	this->uart_handle.Init.WordLength = UART_WORDLENGTH_8B;
 8000cc2:	68fb      	ldr	r3, [r7, #12]
 8000cc4:	2200      	movs	r2, #0
 8000cc6:	609a      	str	r2, [r3, #8]
	this->uart_handle.Init.StopBits = UART_STOPBITS_1;
 8000cc8:	68fb      	ldr	r3, [r7, #12]
 8000cca:	2200      	movs	r2, #0
 8000ccc:	60da      	str	r2, [r3, #12]
	this->uart_handle.Init.Parity = UART_PARITY_NONE;
 8000cce:	68fb      	ldr	r3, [r7, #12]
 8000cd0:	2200      	movs	r2, #0
 8000cd2:	611a      	str	r2, [r3, #16]
	this->uart_handle.Init.Mode = UART_MODE_TX_RX;
 8000cd4:	68fb      	ldr	r3, [r7, #12]
 8000cd6:	220c      	movs	r2, #12
 8000cd8:	615a      	str	r2, [r3, #20]
	this->uart_handle.Init.HwFlowCtl = UART_HWCONTROL_NONE;
 8000cda:	68fb      	ldr	r3, [r7, #12]
 8000cdc:	2200      	movs	r2, #0
 8000cde:	619a      	str	r2, [r3, #24]
	this->uart_handle.Init.OverSampling = UART_OVERSAMPLING_16;
 8000ce0:	68fb      	ldr	r3, [r7, #12]
 8000ce2:	2200      	movs	r2, #0
 8000ce4:	61da      	str	r2, [r3, #28]
	if (HAL_UART_Init(&this->uart_handle) != HAL_OK) {
 8000ce6:	68fb      	ldr	r3, [r7, #12]
 8000ce8:	4618      	mov	r0, r3
 8000cea:	f001 f923 	bl	8001f34 <HAL_UART_Init>
 8000cee:	4603      	mov	r3, r0
 8000cf0:	2b00      	cmp	r3, #0
 8000cf2:	d001      	beq.n	8000cf8 <new_Uart+0x5c>
		Error_Handler();
 8000cf4:	f7ff fe0d 	bl	8000912 <Error_Handler>
	}

#ifdef UART_USE_DMA
	__HAL_UART_ENABLE_IT(&this->uart_handle, UART_IT_RXNE); //使能RXNE中断
 8000cf8:	68fb      	ldr	r3, [r7, #12]
 8000cfa:	681b      	ldr	r3, [r3, #0]
 8000cfc:	68da      	ldr	r2, [r3, #12]
 8000cfe:	68fb      	ldr	r3, [r7, #12]
 8000d00:	681b      	ldr	r3, [r3, #0]
 8000d02:	f042 0220 	orr.w	r2, r2, #32
 8000d06:	60da      	str	r2, [r3, #12]
	__HAL_UART_ENABLE_IT(&this->uart_handle, UART_IT_IDLE); //使能IDLE中断
 8000d08:	68fb      	ldr	r3, [r7, #12]
 8000d0a:	681b      	ldr	r3, [r3, #0]
 8000d0c:	68da      	ldr	r2, [r3, #12]
 8000d0e:	68fb      	ldr	r3, [r7, #12]
 8000d10:	681b      	ldr	r3, [r3, #0]
 8000d12:	f042 0210 	orr.w	r2, r2, #16
 8000d16:	60da      	str	r2, [r3, #12]

	//DMA接收函数，此句一定要加，不加接收不到第一次传进来的实数据，是空的，且此时接收到的数据长度为缓存器的数据长度
	HAL_UART_Receive_DMA(&this->uart_handle, this->rx_buf,MAX_RX_LENGTH);
 8000d18:	68f8      	ldr	r0, [r7, #12]
 8000d1a:	68fb      	ldr	r3, [r7, #12]
 8000d1c:	3344      	adds	r3, #68	; 0x44
 8000d1e:	2280      	movs	r2, #128	; 0x80
 8000d20:	4619      	mov	r1, r3
 8000d22:	f001 f9c1 	bl	80020a8 <HAL_UART_Receive_DMA>
#else
	HAL_UART_Receive_IT(&this->uart_handle, (u8*) aRxBuffer, 1);
#endif
	this->UClearRec = uart_clear_rec;
 8000d26:	68fb      	ldr	r3, [r7, #12]
 8000d28:	4a05      	ldr	r2, [pc, #20]	; (8000d40 <new_Uart+0xa4>)
 8000d2a:	f8c3 2144 	str.w	r2, [r3, #324]	; 0x144
	this->UPrintf = uart_printf;
 8000d2e:	68fb      	ldr	r3, [r7, #12]
 8000d30:	4a04      	ldr	r2, [pc, #16]	; (8000d44 <new_Uart+0xa8>)
 8000d32:	f8c3 2148 	str.w	r2, [r3, #328]	; 0x148
	return this;
 8000d36:	68fb      	ldr	r3, [r7, #12]
}
 8000d38:	4618      	mov	r0, r3
 8000d3a:	3710      	adds	r7, #16
 8000d3c:	46bd      	mov	sp, r7
 8000d3e:	bd80      	pop	{r7, pc}
 8000d40:	08000c21 	.word	0x08000c21
 8000d44:	08000c55 	.word	0x08000c55

08000d48 <HAL_UART_RxCpltCallback>:

void HAL_UART_RxCpltCallback(UART_HandleTypeDef *huart) {
 8000d48:	b480      	push	{r7}
 8000d4a:	b083      	sub	sp, #12
 8000d4c:	af00      	add	r7, sp, #0
 8000d4e:	6078      	str	r0, [r7, #4]
				}
			}
		}
	}
#endif
}
 8000d50:	bf00      	nop
 8000d52:	370c      	adds	r7, #12
 8000d54:	46bd      	mov	sp, r7
 8000d56:	bc80      	pop	{r7}
 8000d58:	4770      	bx	lr
	...

08000d5c <Reset_Handler>:
  .weak Reset_Handler
  .type Reset_Handler, %function
Reset_Handler:

/* Copy the data segment initializers from flash to SRAM */
  movs r1, #0
 8000d5c:	2100      	movs	r1, #0
  b LoopCopyDataInit
 8000d5e:	e003      	b.n	8000d68 <LoopCopyDataInit>

08000d60 <CopyDataInit>:

CopyDataInit:
  ldr r3, =_sidata
 8000d60:	4b0b      	ldr	r3, [pc, #44]	; (8000d90 <LoopFillZerobss+0x14>)
  ldr r3, [r3, r1]
 8000d62:	585b      	ldr	r3, [r3, r1]
  str r3, [r0, r1]
 8000d64:	5043      	str	r3, [r0, r1]
  adds r1, r1, #4
 8000d66:	3104      	adds	r1, #4

08000d68 <LoopCopyDataInit>:

LoopCopyDataInit:
  ldr r0, =_sdata
 8000d68:	480a      	ldr	r0, [pc, #40]	; (8000d94 <LoopFillZerobss+0x18>)
  ldr r3, =_edata
 8000d6a:	4b0b      	ldr	r3, [pc, #44]	; (8000d98 <LoopFillZerobss+0x1c>)
  adds r2, r0, r1
 8000d6c:	1842      	adds	r2, r0, r1
  cmp r2, r3
 8000d6e:	429a      	cmp	r2, r3
  bcc CopyDataInit
 8000d70:	d3f6      	bcc.n	8000d60 <CopyDataInit>
  ldr r2, =_sbss
 8000d72:	4a0a      	ldr	r2, [pc, #40]	; (8000d9c <LoopFillZerobss+0x20>)
  b LoopFillZerobss
 8000d74:	e002      	b.n	8000d7c <LoopFillZerobss>

08000d76 <FillZerobss>:
/* Zero fill the bss segment. */
FillZerobss:
  movs r3, #0
 8000d76:	2300      	movs	r3, #0
  str r3, [r2], #4
 8000d78:	f842 3b04 	str.w	r3, [r2], #4

08000d7c <LoopFillZerobss>:

LoopFillZerobss:
  ldr r3, = _ebss
 8000d7c:	4b08      	ldr	r3, [pc, #32]	; (8000da0 <LoopFillZerobss+0x24>)
  cmp r2, r3
 8000d7e:	429a      	cmp	r2, r3
  bcc FillZerobss
 8000d80:	d3f9      	bcc.n	8000d76 <FillZerobss>

/* Call the clock system intitialization function.*/
    bl  SystemInit
 8000d82:	f7ff fe55 	bl	8000a30 <SystemInit>
/* Call static constructors */
    bl __libc_init_array
 8000d86:	f001 fe1b 	bl	80029c0 <__libc_init_array>
/* Call the application's entry point.*/
  bl main
 8000d8a:	f7ff fd27 	bl	80007dc <main>
  bx lr
 8000d8e:	4770      	bx	lr
  ldr r3, =_sidata
 8000d90:	08003344 	.word	0x08003344
  ldr r0, =_sdata
 8000d94:	20000000 	.word	0x20000000
  ldr r3, =_edata
 8000d98:	20000070 	.word	0x20000070
  ldr r2, =_sbss
 8000d9c:	20000070 	.word	0x20000070
  ldr r3, = _ebss
 8000da0:	20000130 	.word	0x20000130

08000da4 <ADC1_2_IRQHandler>:
 * @retval : None
*/
    .section .text.Default_Handler,"ax",%progbits
Default_Handler:
Infinite_Loop:
  b Infinite_Loop
 8000da4:	e7fe      	b.n	8000da4 <ADC1_2_IRQHandler>
	...

08000da8 <HAL_Init>:
  *         need to ensure that the SysTick time base is always set to 1 millisecond
  *         to have correct HAL operation.
  * @retval HAL status
  */
HAL_StatusTypeDef HAL_Init(void)
{
 8000da8:	b580      	push	{r7, lr}
 8000daa:	af00      	add	r7, sp, #0
    defined(STM32F102x6) || defined(STM32F102xB) || \
    defined(STM32F103x6) || defined(STM32F103xB) || defined(STM32F103xE) || defined(STM32F103xG) || \
    defined(STM32F105xC) || defined(STM32F107xC)

  /* Prefetch buffer is not available on value line devices */
  __HAL_FLASH_PREFETCH_BUFFER_ENABLE();
 8000dac:	4b08      	ldr	r3, [pc, #32]	; (8000dd0 <HAL_Init+0x28>)
 8000dae:	681b      	ldr	r3, [r3, #0]
 8000db0:	4a07      	ldr	r2, [pc, #28]	; (8000dd0 <HAL_Init+0x28>)
 8000db2:	f043 0310 	orr.w	r3, r3, #16
 8000db6:	6013      	str	r3, [r2, #0]
#endif
#endif /* PREFETCH_ENABLE */

  /* Set Interrupt Group Priority */
  HAL_NVIC_SetPriorityGrouping(NVIC_PRIORITYGROUP_4);
 8000db8:	2003      	movs	r0, #3
 8000dba:	f000 f923 	bl	8001004 <HAL_NVIC_SetPriorityGrouping>

  /* Use systick as time base source and configure 1ms tick (default clock after Reset is HSI) */
  HAL_InitTick(TICK_INT_PRIORITY);
 8000dbe:	2000      	movs	r0, #0
 8000dc0:	f000 f808 	bl	8000dd4 <HAL_InitTick>

  /* Init the low level hardware */
  HAL_MspInit();
 8000dc4:	f7ff fdac 	bl	8000920 <HAL_MspInit>

  /* Return function status */
  return HAL_OK;
 8000dc8:	2300      	movs	r3, #0
}
 8000dca:	4618      	mov	r0, r3
 8000dcc:	bd80      	pop	{r7, pc}
 8000dce:	bf00      	nop
 8000dd0:	40022000 	.word	0x40022000

08000dd4 <HAL_InitTick>:
  *       implementation  in user file.
  * @param TickPriority Tick interrupt priority.
  * @retval HAL status
  */
__weak HAL_StatusTypeDef HAL_InitTick(uint32_t TickPriority)
{
 8000dd4:	b580      	push	{r7, lr}
 8000dd6:	b082      	sub	sp, #8
 8000dd8:	af00      	add	r7, sp, #0
 8000dda:	6078      	str	r0, [r7, #4]
  /* Configure the SysTick to have interrupt in 1ms time basis*/
  if (HAL_SYSTICK_Config(SystemCoreClock / (1000U / uwTickFreq)) > 0U)
 8000ddc:	4b12      	ldr	r3, [pc, #72]	; (8000e28 <HAL_InitTick+0x54>)
 8000dde:	681a      	ldr	r2, [r3, #0]
 8000de0:	4b12      	ldr	r3, [pc, #72]	; (8000e2c <HAL_InitTick+0x58>)
 8000de2:	781b      	ldrb	r3, [r3, #0]
 8000de4:	4619      	mov	r1, r3
 8000de6:	f44f 737a 	mov.w	r3, #1000	; 0x3e8
 8000dea:	fbb3 f3f1 	udiv	r3, r3, r1
 8000dee:	fbb2 f3f3 	udiv	r3, r2, r3
 8000df2:	4618      	mov	r0, r3
 8000df4:	f000 f93b 	bl	800106e <HAL_SYSTICK_Config>
 8000df8:	4603      	mov	r3, r0
 8000dfa:	2b00      	cmp	r3, #0
 8000dfc:	d001      	beq.n	8000e02 <HAL_InitTick+0x2e>
  {
    return HAL_ERROR;
 8000dfe:	2301      	movs	r3, #1
 8000e00:	e00e      	b.n	8000e20 <HAL_InitTick+0x4c>
  }

  /* Configure the SysTick IRQ priority */
  if (TickPriority < (1UL << __NVIC_PRIO_BITS))
 8000e02:	687b      	ldr	r3, [r7, #4]
 8000e04:	2b0f      	cmp	r3, #15
 8000e06:	d80a      	bhi.n	8000e1e <HAL_InitTick+0x4a>
  {
    HAL_NVIC_SetPriority(SysTick_IRQn, TickPriority, 0U);
 8000e08:	2200      	movs	r2, #0
 8000e0a:	6879      	ldr	r1, [r7, #4]
 8000e0c:	f04f 30ff 	mov.w	r0, #4294967295
 8000e10:	f000 f903 	bl	800101a <HAL_NVIC_SetPriority>
    uwTickPrio = TickPriority;
 8000e14:	4a06      	ldr	r2, [pc, #24]	; (8000e30 <HAL_InitTick+0x5c>)
 8000e16:	687b      	ldr	r3, [r7, #4]
 8000e18:	6013      	str	r3, [r2, #0]
  {
    return HAL_ERROR;
  }

  /* Return function status */
  return HAL_OK;
 8000e1a:	2300      	movs	r3, #0
 8000e1c:	e000      	b.n	8000e20 <HAL_InitTick+0x4c>
    return HAL_ERROR;
 8000e1e:	2301      	movs	r3, #1
}
 8000e20:	4618      	mov	r0, r3
 8000e22:	3708      	adds	r7, #8
 8000e24:	46bd      	mov	sp, r7
 8000e26:	bd80      	pop	{r7, pc}
 8000e28:	20000000 	.word	0x20000000
 8000e2c:	20000008 	.word	0x20000008
 8000e30:	20000004 	.word	0x20000004

08000e34 <HAL_IncTick>:
  * @note This function is declared as __weak to be overwritten in case of other
  *      implementations in user file.
  * @retval None
  */
__weak void HAL_IncTick(void)
{
 8000e34:	b480      	push	{r7}
 8000e36:	af00      	add	r7, sp, #0
  uwTick += uwTickFreq;
 8000e38:	4b05      	ldr	r3, [pc, #20]	; (8000e50 <HAL_IncTick+0x1c>)
 8000e3a:	781b      	ldrb	r3, [r3, #0]
 8000e3c:	461a      	mov	r2, r3
 8000e3e:	4b05      	ldr	r3, [pc, #20]	; (8000e54 <HAL_IncTick+0x20>)
 8000e40:	681b      	ldr	r3, [r3, #0]
 8000e42:	4413      	add	r3, r2
 8000e44:	4a03      	ldr	r2, [pc, #12]	; (8000e54 <HAL_IncTick+0x20>)
 8000e46:	6013      	str	r3, [r2, #0]
}
 8000e48:	bf00      	nop
 8000e4a:	46bd      	mov	sp, r7
 8000e4c:	bc80      	pop	{r7}
 8000e4e:	4770      	bx	lr
 8000e50:	20000008 	.word	0x20000008
 8000e54:	20000128 	.word	0x20000128

08000e58 <HAL_GetTick>:
  * @note  This function is declared as __weak to be overwritten in case of other
  *       implementations in user file.
  * @retval tick value
  */
__weak uint32_t HAL_GetTick(void)
{
 8000e58:	b480      	push	{r7}
 8000e5a:	af00      	add	r7, sp, #0
  return uwTick;
 8000e5c:	4b02      	ldr	r3, [pc, #8]	; (8000e68 <HAL_GetTick+0x10>)
 8000e5e:	681b      	ldr	r3, [r3, #0]
}
 8000e60:	4618      	mov	r0, r3
 8000e62:	46bd      	mov	sp, r7
 8000e64:	bc80      	pop	{r7}
 8000e66:	4770      	bx	lr
 8000e68:	20000128 	.word	0x20000128

08000e6c <__NVIC_SetPriorityGrouping>:
           In case of a conflict between priority grouping and available
           priority bits (__NVIC_PRIO_BITS), the smallest possible priority group is set.
  \param [in]      PriorityGroup  Priority grouping field.
 */
__STATIC_INLINE void __NVIC_SetPriorityGrouping(uint32_t PriorityGroup)
{
 8000e6c:	b480      	push	{r7}
 8000e6e:	b085      	sub	sp, #20
 8000e70:	af00      	add	r7, sp, #0
 8000e72:	6078      	str	r0, [r7, #4]
  uint32_t reg_value;
  uint32_t PriorityGroupTmp = (PriorityGroup & (uint32_t)0x07UL);             /* only values 0..7 are used          */
 8000e74:	687b      	ldr	r3, [r7, #4]
 8000e76:	f003 0307 	and.w	r3, r3, #7
 8000e7a:	60fb      	str	r3, [r7, #12]

  reg_value  =  SCB->AIRCR;                                                   /* read old register configuration    */
 8000e7c:	4b0c      	ldr	r3, [pc, #48]	; (8000eb0 <__NVIC_SetPriorityGrouping+0x44>)
 8000e7e:	68db      	ldr	r3, [r3, #12]
 8000e80:	60bb      	str	r3, [r7, #8]
  reg_value &= ~((uint32_t)(SCB_AIRCR_VECTKEY_Msk | SCB_AIRCR_PRIGROUP_Msk)); /* clear bits to change               */
 8000e82:	68ba      	ldr	r2, [r7, #8]
 8000e84:	f64f 03ff 	movw	r3, #63743	; 0xf8ff
 8000e88:	4013      	ands	r3, r2
 8000e8a:	60bb      	str	r3, [r7, #8]
  reg_value  =  (reg_value                                   |
                ((uint32_t)0x5FAUL << SCB_AIRCR_VECTKEY_Pos) |
                (PriorityGroupTmp << SCB_AIRCR_PRIGROUP_Pos) );               /* Insert write key and priority group */
 8000e8c:	68fb      	ldr	r3, [r7, #12]
 8000e8e:	021a      	lsls	r2, r3, #8
                ((uint32_t)0x5FAUL << SCB_AIRCR_VECTKEY_Pos) |
 8000e90:	68bb      	ldr	r3, [r7, #8]
 8000e92:	4313      	orrs	r3, r2
  reg_value  =  (reg_value                                   |
 8000e94:	f043 63bf 	orr.w	r3, r3, #100139008	; 0x5f80000
 8000e98:	f443 3300 	orr.w	r3, r3, #131072	; 0x20000
 8000e9c:	60bb      	str	r3, [r7, #8]
  SCB->AIRCR =  reg_value;
 8000e9e:	4a04      	ldr	r2, [pc, #16]	; (8000eb0 <__NVIC_SetPriorityGrouping+0x44>)
 8000ea0:	68bb      	ldr	r3, [r7, #8]
 8000ea2:	60d3      	str	r3, [r2, #12]
}
 8000ea4:	bf00      	nop
 8000ea6:	3714      	adds	r7, #20
 8000ea8:	46bd      	mov	sp, r7
 8000eaa:	bc80      	pop	{r7}
 8000eac:	4770      	bx	lr
 8000eae:	bf00      	nop
 8000eb0:	e000ed00 	.word	0xe000ed00

08000eb4 <__NVIC_GetPriorityGrouping>:
  \brief   Get Priority Grouping
  \details Reads the priority grouping field from the NVIC Interrupt Controller.
  \return                Priority grouping field (SCB->AIRCR [10:8] PRIGROUP field).
 */
__STATIC_INLINE uint32_t __NVIC_GetPriorityGrouping(void)
{
 8000eb4:	b480      	push	{r7}
 8000eb6:	af00      	add	r7, sp, #0
  return ((uint32_t)((SCB->AIRCR & SCB_AIRCR_PRIGROUP_Msk) >> SCB_AIRCR_PRIGROUP_Pos));
 8000eb8:	4b04      	ldr	r3, [pc, #16]	; (8000ecc <__NVIC_GetPriorityGrouping+0x18>)
 8000eba:	68db      	ldr	r3, [r3, #12]
 8000ebc:	0a1b      	lsrs	r3, r3, #8
 8000ebe:	f003 0307 	and.w	r3, r3, #7
}
 8000ec2:	4618      	mov	r0, r3
 8000ec4:	46bd      	mov	sp, r7
 8000ec6:	bc80      	pop	{r7}
 8000ec8:	4770      	bx	lr
 8000eca:	bf00      	nop
 8000ecc:	e000ed00 	.word	0xe000ed00

08000ed0 <__NVIC_EnableIRQ>:
  \details Enables a device specific interrupt in the NVIC interrupt controller.
  \param [in]      IRQn  Device specific interrupt number.
  \note    IRQn must not be negative.
 */
__STATIC_INLINE void __NVIC_EnableIRQ(IRQn_Type IRQn)
{
 8000ed0:	b480      	push	{r7}
 8000ed2:	b083      	sub	sp, #12
 8000ed4:	af00      	add	r7, sp, #0
 8000ed6:	4603      	mov	r3, r0
 8000ed8:	71fb      	strb	r3, [r7, #7]
  if ((int32_t)(IRQn) >= 0)
 8000eda:	f997 3007 	ldrsb.w	r3, [r7, #7]
 8000ede:	2b00      	cmp	r3, #0
 8000ee0:	db0b      	blt.n	8000efa <__NVIC_EnableIRQ+0x2a>
  {
    NVIC->ISER[(((uint32_t)IRQn) >> 5UL)] = (uint32_t)(1UL << (((uint32_t)IRQn) & 0x1FUL));
 8000ee2:	79fb      	ldrb	r3, [r7, #7]
 8000ee4:	f003 021f 	and.w	r2, r3, #31
 8000ee8:	4906      	ldr	r1, [pc, #24]	; (8000f04 <__NVIC_EnableIRQ+0x34>)
 8000eea:	f997 3007 	ldrsb.w	r3, [r7, #7]
 8000eee:	095b      	lsrs	r3, r3, #5
 8000ef0:	2001      	movs	r0, #1
 8000ef2:	fa00 f202 	lsl.w	r2, r0, r2
 8000ef6:	f841 2023 	str.w	r2, [r1, r3, lsl #2]
  }
}
 8000efa:	bf00      	nop
 8000efc:	370c      	adds	r7, #12
 8000efe:	46bd      	mov	sp, r7
 8000f00:	bc80      	pop	{r7}
 8000f02:	4770      	bx	lr
 8000f04:	e000e100 	.word	0xe000e100

08000f08 <__NVIC_SetPriority>:
  \param [in]      IRQn  Interrupt number.
  \param [in]  priority  Priority to set.
  \note    The priority cannot be set for every processor exception.
 */
__STATIC_INLINE void __NVIC_SetPriority(IRQn_Type IRQn, uint32_t priority)
{
 8000f08:	b480      	push	{r7}
 8000f0a:	b083      	sub	sp, #12
 8000f0c:	af00      	add	r7, sp, #0
 8000f0e:	4603      	mov	r3, r0
 8000f10:	6039      	str	r1, [r7, #0]
 8000f12:	71fb      	strb	r3, [r7, #7]
  if ((int32_t)(IRQn) >= 0)
 8000f14:	f997 3007 	ldrsb.w	r3, [r7, #7]
 8000f18:	2b00      	cmp	r3, #0
 8000f1a:	db0a      	blt.n	8000f32 <__NVIC_SetPriority+0x2a>
  {
    NVIC->IP[((uint32_t)IRQn)]               = (uint8_t)((priority << (8U - __NVIC_PRIO_BITS)) & (uint32_t)0xFFUL);
 8000f1c:	683b      	ldr	r3, [r7, #0]
 8000f1e:	b2da      	uxtb	r2, r3
 8000f20:	490c      	ldr	r1, [pc, #48]	; (8000f54 <__NVIC_SetPriority+0x4c>)
 8000f22:	f997 3007 	ldrsb.w	r3, [r7, #7]
 8000f26:	0112      	lsls	r2, r2, #4
 8000f28:	b2d2      	uxtb	r2, r2
 8000f2a:	440b      	add	r3, r1
 8000f2c:	f883 2300 	strb.w	r2, [r3, #768]	; 0x300
  }
  else
  {
    SCB->SHP[(((uint32_t)IRQn) & 0xFUL)-4UL] = (uint8_t)((priority << (8U - __NVIC_PRIO_BITS)) & (uint32_t)0xFFUL);
  }
}
 8000f30:	e00a      	b.n	8000f48 <__NVIC_SetPriority+0x40>
    SCB->SHP[(((uint32_t)IRQn) & 0xFUL)-4UL] = (uint8_t)((priority << (8U - __NVIC_PRIO_BITS)) & (uint32_t)0xFFUL);
 8000f32:	683b      	ldr	r3, [r7, #0]
 8000f34:	b2da      	uxtb	r2, r3
 8000f36:	4908      	ldr	r1, [pc, #32]	; (8000f58 <__NVIC_SetPriority+0x50>)
 8000f38:	79fb      	ldrb	r3, [r7, #7]
 8000f3a:	f003 030f 	and.w	r3, r3, #15
 8000f3e:	3b04      	subs	r3, #4
 8000f40:	0112      	lsls	r2, r2, #4
 8000f42:	b2d2      	uxtb	r2, r2
 8000f44:	440b      	add	r3, r1
 8000f46:	761a      	strb	r2, [r3, #24]
}
 8000f48:	bf00      	nop
 8000f4a:	370c      	adds	r7, #12
 8000f4c:	46bd      	mov	sp, r7
 8000f4e:	bc80      	pop	{r7}
 8000f50:	4770      	bx	lr
 8000f52:	bf00      	nop
 8000f54:	e000e100 	.word	0xe000e100
 8000f58:	e000ed00 	.word	0xe000ed00

08000f5c <NVIC_EncodePriority>:
  \param [in]   PreemptPriority  Preemptive priority value (starting from 0).
  \param [in]       SubPriority  Subpriority value (starting from 0).
  \return                        Encoded priority. Value can be used in the function \ref NVIC_SetPriority().
 */
__STATIC_INLINE uint32_t NVIC_EncodePriority (uint32_t PriorityGroup, uint32_t PreemptPriority, uint32_t SubPriority)
{
 8000f5c:	b480      	push	{r7}
 8000f5e:	b089      	sub	sp, #36	; 0x24
 8000f60:	af00      	add	r7, sp, #0
 8000f62:	60f8      	str	r0, [r7, #12]
 8000f64:	60b9      	str	r1, [r7, #8]
 8000f66:	607a      	str	r2, [r7, #4]
  uint32_t PriorityGroupTmp = (PriorityGroup & (uint32_t)0x07UL);   /* only values 0..7 are used          */
 8000f68:	68fb      	ldr	r3, [r7, #12]
 8000f6a:	f003 0307 	and.w	r3, r3, #7
 8000f6e:	61fb      	str	r3, [r7, #28]
  uint32_t PreemptPriorityBits;
  uint32_t SubPriorityBits;

  PreemptPriorityBits = ((7UL - PriorityGroupTmp) > (uint32_t)(__NVIC_PRIO_BITS)) ? (uint32_t)(__NVIC_PRIO_BITS) : (uint32_t)(7UL - PriorityGroupTmp);
 8000f70:	69fb      	ldr	r3, [r7, #28]
 8000f72:	f1c3 0307 	rsb	r3, r3, #7
 8000f76:	2b04      	cmp	r3, #4
 8000f78:	bf28      	it	cs
 8000f7a:	2304      	movcs	r3, #4
 8000f7c:	61bb      	str	r3, [r7, #24]
  SubPriorityBits     = ((PriorityGroupTmp + (uint32_t)(__NVIC_PRIO_BITS)) < (uint32_t)7UL) ? (uint32_t)0UL : (uint32_t)((PriorityGroupTmp - 7UL) + (uint32_t)(__NVIC_PRIO_BITS));
 8000f7e:	69fb      	ldr	r3, [r7, #28]
 8000f80:	3304      	adds	r3, #4
 8000f82:	2b06      	cmp	r3, #6
 8000f84:	d902      	bls.n	8000f8c <NVIC_EncodePriority+0x30>
 8000f86:	69fb      	ldr	r3, [r7, #28]
 8000f88:	3b03      	subs	r3, #3
 8000f8a:	e000      	b.n	8000f8e <NVIC_EncodePriority+0x32>
 8000f8c:	2300      	movs	r3, #0
 8000f8e:	617b      	str	r3, [r7, #20]

  return (
           ((PreemptPriority & (uint32_t)((1UL << (PreemptPriorityBits)) - 1UL)) << SubPriorityBits) |
 8000f90:	f04f 32ff 	mov.w	r2, #4294967295
 8000f94:	69bb      	ldr	r3, [r7, #24]
 8000f96:	fa02 f303 	lsl.w	r3, r2, r3
 8000f9a:	43da      	mvns	r2, r3
 8000f9c:	68bb      	ldr	r3, [r7, #8]
 8000f9e:	401a      	ands	r2, r3
 8000fa0:	697b      	ldr	r3, [r7, #20]
 8000fa2:	409a      	lsls	r2, r3
           ((SubPriority     & (uint32_t)((1UL << (SubPriorityBits    )) - 1UL)))
 8000fa4:	f04f 31ff 	mov.w	r1, #4294967295
 8000fa8:	697b      	ldr	r3, [r7, #20]
 8000faa:	fa01 f303 	lsl.w	r3, r1, r3
 8000fae:	43d9      	mvns	r1, r3
 8000fb0:	687b      	ldr	r3, [r7, #4]
 8000fb2:	400b      	ands	r3, r1
           ((PreemptPriority & (uint32_t)((1UL << (PreemptPriorityBits)) - 1UL)) << SubPriorityBits) |
 8000fb4:	4313      	orrs	r3, r2
         );
}
 8000fb6:	4618      	mov	r0, r3
 8000fb8:	3724      	adds	r7, #36	; 0x24
 8000fba:	46bd      	mov	sp, r7
 8000fbc:	bc80      	pop	{r7}
 8000fbe:	4770      	bx	lr

08000fc0 <SysTick_Config>:
  \note    When the variable <b>__Vendor_SysTickConfig</b> is set to 1, then the
           function <b>SysTick_Config</b> is not included. In this case, the file <b><i>device</i>.h</b>
           must contain a vendor-specific implementation of this function.
 */
__STATIC_INLINE uint32_t SysTick_Config(uint32_t ticks)
{
 8000fc0:	b580      	push	{r7, lr}
 8000fc2:	b082      	sub	sp, #8
 8000fc4:	af00      	add	r7, sp, #0
 8000fc6:	6078      	str	r0, [r7, #4]
  if ((ticks - 1UL) > SysTick_LOAD_RELOAD_Msk)
 8000fc8:	687b      	ldr	r3, [r7, #4]
 8000fca:	3b01      	subs	r3, #1
 8000fcc:	f1b3 7f80 	cmp.w	r3, #16777216	; 0x1000000
 8000fd0:	d301      	bcc.n	8000fd6 <SysTick_Config+0x16>
  {
    return (1UL);                                                   /* Reload value impossible */
 8000fd2:	2301      	movs	r3, #1
 8000fd4:	e00f      	b.n	8000ff6 <SysTick_Config+0x36>
  }

  SysTick->LOAD  = (uint32_t)(ticks - 1UL);                         /* set reload register */
 8000fd6:	4a0a      	ldr	r2, [pc, #40]	; (8001000 <SysTick_Config+0x40>)
 8000fd8:	687b      	ldr	r3, [r7, #4]
 8000fda:	3b01      	subs	r3, #1
 8000fdc:	6053      	str	r3, [r2, #4]
  NVIC_SetPriority (SysTick_IRQn, (1UL << __NVIC_PRIO_BITS) - 1UL); /* set Priority for Systick Interrupt */
 8000fde:	210f      	movs	r1, #15
 8000fe0:	f04f 30ff 	mov.w	r0, #4294967295
 8000fe4:	f7ff ff90 	bl	8000f08 <__NVIC_SetPriority>
  SysTick->VAL   = 0UL;                                             /* Load the SysTick Counter Value */
 8000fe8:	4b05      	ldr	r3, [pc, #20]	; (8001000 <SysTick_Config+0x40>)
 8000fea:	2200      	movs	r2, #0
 8000fec:	609a      	str	r2, [r3, #8]
  SysTick->CTRL  = SysTick_CTRL_CLKSOURCE_Msk |
 8000fee:	4b04      	ldr	r3, [pc, #16]	; (8001000 <SysTick_Config+0x40>)
 8000ff0:	2207      	movs	r2, #7
 8000ff2:	601a      	str	r2, [r3, #0]
                   SysTick_CTRL_TICKINT_Msk   |
                   SysTick_CTRL_ENABLE_Msk;                         /* Enable SysTick IRQ and SysTick Timer */
  return (0UL);                                                     /* Function successful */
 8000ff4:	2300      	movs	r3, #0
}
 8000ff6:	4618      	mov	r0, r3
 8000ff8:	3708      	adds	r7, #8
 8000ffa:	46bd      	mov	sp, r7
 8000ffc:	bd80      	pop	{r7, pc}
 8000ffe:	bf00      	nop
 8001000:	e000e010 	.word	0xe000e010

08001004 <HAL_NVIC_SetPriorityGrouping>:
  * @note   When the NVIC_PriorityGroup_0 is selected, IRQ preemption is no more possible. 
  *         The pending IRQ priority will be managed only by the subpriority. 
  * @retval None
  */
void HAL_NVIC_SetPriorityGrouping(uint32_t PriorityGroup)
{
 8001004:	b580      	push	{r7, lr}
 8001006:	b082      	sub	sp, #8
 8001008:	af00      	add	r7, sp, #0
 800100a:	6078      	str	r0, [r7, #4]
  /* Check the parameters */
  assert_param(IS_NVIC_PRIORITY_GROUP(PriorityGroup));
  
  /* Set the PRIGROUP[10:8] bits according to the PriorityGroup parameter value */
  NVIC_SetPriorityGrouping(PriorityGroup);
 800100c:	6878      	ldr	r0, [r7, #4]
 800100e:	f7ff ff2d 	bl	8000e6c <__NVIC_SetPriorityGrouping>
}
 8001012:	bf00      	nop
 8001014:	3708      	adds	r7, #8
 8001016:	46bd      	mov	sp, r7
 8001018:	bd80      	pop	{r7, pc}

0800101a <HAL_NVIC_SetPriority>:
  *         This parameter can be a value between 0 and 15
  *         A lower priority value indicates a higher priority.          
  * @retval None
  */
void HAL_NVIC_SetPriority(IRQn_Type IRQn, uint32_t PreemptPriority, uint32_t SubPriority)
{ 
 800101a:	b580      	push	{r7, lr}
 800101c:	b086      	sub	sp, #24
 800101e:	af00      	add	r7, sp, #0
 8001020:	4603      	mov	r3, r0
 8001022:	60b9      	str	r1, [r7, #8]
 8001024:	607a      	str	r2, [r7, #4]
 8001026:	73fb      	strb	r3, [r7, #15]
  uint32_t prioritygroup = 0x00U;
 8001028:	2300      	movs	r3, #0
 800102a:	617b      	str	r3, [r7, #20]
  
  /* Check the parameters */
  assert_param(IS_NVIC_SUB_PRIORITY(SubPriority));
  assert_param(IS_NVIC_PREEMPTION_PRIORITY(PreemptPriority));
  
  prioritygroup = NVIC_GetPriorityGrouping();
 800102c:	f7ff ff42 	bl	8000eb4 <__NVIC_GetPriorityGrouping>
 8001030:	6178      	str	r0, [r7, #20]
  
  NVIC_SetPriority(IRQn, NVIC_EncodePriority(prioritygroup, PreemptPriority, SubPriority));
 8001032:	687a      	ldr	r2, [r7, #4]
 8001034:	68b9      	ldr	r1, [r7, #8]
 8001036:	6978      	ldr	r0, [r7, #20]
 8001038:	f7ff ff90 	bl	8000f5c <NVIC_EncodePriority>
 800103c:	4602      	mov	r2, r0
 800103e:	f997 300f 	ldrsb.w	r3, [r7, #15]
 8001042:	4611      	mov	r1, r2
 8001044:	4618      	mov	r0, r3
 8001046:	f7ff ff5f 	bl	8000f08 <__NVIC_SetPriority>
}
 800104a:	bf00      	nop
 800104c:	3718      	adds	r7, #24
 800104e:	46bd      	mov	sp, r7
 8001050:	bd80      	pop	{r7, pc}

08001052 <HAL_NVIC_EnableIRQ>:
  *         This parameter can be an enumerator of IRQn_Type enumeration
  *         (For the complete STM32 Devices IRQ Channels list, please refer to the appropriate CMSIS device file (stm32f10xxx.h))
  * @retval None
  */
void HAL_NVIC_EnableIRQ(IRQn_Type IRQn)
{
 8001052:	b580      	push	{r7, lr}
 8001054:	b082      	sub	sp, #8
 8001056:	af00      	add	r7, sp, #0
 8001058:	4603      	mov	r3, r0
 800105a:	71fb      	strb	r3, [r7, #7]
  /* Check the parameters */
  assert_param(IS_NVIC_DEVICE_IRQ(IRQn));

  /* Enable interrupt */
  NVIC_EnableIRQ(IRQn);
 800105c:	f997 3007 	ldrsb.w	r3, [r7, #7]
 8001060:	4618      	mov	r0, r3
 8001062:	f7ff ff35 	bl	8000ed0 <__NVIC_EnableIRQ>
}
 8001066:	bf00      	nop
 8001068:	3708      	adds	r7, #8
 800106a:	46bd      	mov	sp, r7
 800106c:	bd80      	pop	{r7, pc}

0800106e <HAL_SYSTICK_Config>:
  * @param  TicksNumb: Specifies the ticks Number of ticks between two interrupts.
  * @retval status:  - 0  Function succeeded.
  *                  - 1  Function failed.
  */
uint32_t HAL_SYSTICK_Config(uint32_t TicksNumb)
{
 800106e:	b580      	push	{r7, lr}
 8001070:	b082      	sub	sp, #8
 8001072:	af00      	add	r7, sp, #0
 8001074:	6078      	str	r0, [r7, #4]
   return SysTick_Config(TicksNumb);
 8001076:	6878      	ldr	r0, [r7, #4]
 8001078:	f7ff ffa2 	bl	8000fc0 <SysTick_Config>
 800107c:	4603      	mov	r3, r0
}
 800107e:	4618      	mov	r0, r3
 8001080:	3708      	adds	r7, #8
 8001082:	46bd      	mov	sp, r7
 8001084:	bd80      	pop	{r7, pc}
	...

08001088 <HAL_DMA_Init>:
  * @param  hdma: Pointer to a DMA_HandleTypeDef structure that contains
  *               the configuration information for the specified DMA Channel.
  * @retval HAL status
  */
HAL_StatusTypeDef HAL_DMA_Init(DMA_HandleTypeDef *hdma)
{
 8001088:	b480      	push	{r7}
 800108a:	b085      	sub	sp, #20
 800108c:	af00      	add	r7, sp, #0
 800108e:	6078      	str	r0, [r7, #4]
  uint32_t tmp = 0U;
 8001090:	2300      	movs	r3, #0
 8001092:	60fb      	str	r3, [r7, #12]

  /* Check the DMA handle allocation */
  if(hdma == NULL)
 8001094:	687b      	ldr	r3, [r7, #4]
 8001096:	2b00      	cmp	r3, #0
 8001098:	d101      	bne.n	800109e <HAL_DMA_Init+0x16>
  {
    return HAL_ERROR;
 800109a:	2301      	movs	r3, #1
 800109c:	e043      	b.n	8001126 <HAL_DMA_Init+0x9e>
    hdma->ChannelIndex = (((uint32_t)hdma->Instance - (uint32_t)DMA2_Channel1) / ((uint32_t)DMA2_Channel2 - (uint32_t)DMA2_Channel1)) << 2;
    hdma->DmaBaseAddress = DMA2;
  }
#else
  /* DMA1 */
  hdma->ChannelIndex = (((uint32_t)hdma->Instance - (uint32_t)DMA1_Channel1) / ((uint32_t)DMA1_Channel2 - (uint32_t)DMA1_Channel1)) << 2;
 800109e:	687b      	ldr	r3, [r7, #4]
 80010a0:	681b      	ldr	r3, [r3, #0]
 80010a2:	461a      	mov	r2, r3
 80010a4:	4b22      	ldr	r3, [pc, #136]	; (8001130 <HAL_DMA_Init+0xa8>)
 80010a6:	4413      	add	r3, r2
 80010a8:	4a22      	ldr	r2, [pc, #136]	; (8001134 <HAL_DMA_Init+0xac>)
 80010aa:	fba2 2303 	umull	r2, r3, r2, r3
 80010ae:	091b      	lsrs	r3, r3, #4
 80010b0:	009a      	lsls	r2, r3, #2
 80010b2:	687b      	ldr	r3, [r7, #4]
 80010b4:	641a      	str	r2, [r3, #64]	; 0x40
  hdma->DmaBaseAddress = DMA1;
 80010b6:	687b      	ldr	r3, [r7, #4]
 80010b8:	4a1f      	ldr	r2, [pc, #124]	; (8001138 <HAL_DMA_Init+0xb0>)
 80010ba:	63da      	str	r2, [r3, #60]	; 0x3c
#endif /* DMA2 */

  /* Change DMA peripheral state */
  hdma->State = HAL_DMA_STATE_BUSY;
 80010bc:	687b      	ldr	r3, [r7, #4]
 80010be:	2202      	movs	r2, #2
 80010c0:	f883 2021 	strb.w	r2, [r3, #33]	; 0x21

  /* Get the CR register value */
  tmp = hdma->Instance->CCR;
 80010c4:	687b      	ldr	r3, [r7, #4]
 80010c6:	681b      	ldr	r3, [r3, #0]
 80010c8:	681b      	ldr	r3, [r3, #0]
 80010ca:	60fb      	str	r3, [r7, #12]

  /* Clear PL, MSIZE, PSIZE, MINC, PINC, CIRC and DIR bits */
  tmp &= ((uint32_t)~(DMA_CCR_PL    | DMA_CCR_MSIZE  | DMA_CCR_PSIZE  | \
 80010cc:	68fb      	ldr	r3, [r7, #12]
 80010ce:	f423 537f 	bic.w	r3, r3, #16320	; 0x3fc0
 80010d2:	f023 0330 	bic.w	r3, r3, #48	; 0x30
 80010d6:	60fb      	str	r3, [r7, #12]
                      DMA_CCR_MINC  | DMA_CCR_PINC   | DMA_CCR_CIRC   | \
                      DMA_CCR_DIR));

  /* Prepare the DMA Channel configuration */
  tmp |=  hdma->Init.Direction        |
 80010d8:	687b      	ldr	r3, [r7, #4]
 80010da:	685a      	ldr	r2, [r3, #4]
          hdma->Init.PeriphInc           | hdma->Init.MemInc           |
 80010dc:	687b      	ldr	r3, [r7, #4]
 80010de:	689b      	ldr	r3, [r3, #8]
  tmp |=  hdma->Init.Direction        |
 80010e0:	431a      	orrs	r2, r3
          hdma->Init.PeriphInc           | hdma->Init.MemInc           |
 80010e2:	687b      	ldr	r3, [r7, #4]
 80010e4:	68db      	ldr	r3, [r3, #12]
 80010e6:	431a      	orrs	r2, r3
          hdma->Init.PeriphDataAlignment | hdma->Init.MemDataAlignment |
 80010e8:	687b      	ldr	r3, [r7, #4]
 80010ea:	691b      	ldr	r3, [r3, #16]
          hdma->Init.PeriphInc           | hdma->Init.MemInc           |
 80010ec:	431a      	orrs	r2, r3
          hdma->Init.PeriphDataAlignment | hdma->Init.MemDataAlignment |
 80010ee:	687b      	ldr	r3, [r7, #4]
 80010f0:	695b      	ldr	r3, [r3, #20]
 80010f2:	431a      	orrs	r2, r3
          hdma->Init.Mode                | hdma->Init.Priority;
 80010f4:	687b      	ldr	r3, [r7, #4]
 80010f6:	699b      	ldr	r3, [r3, #24]
          hdma->Init.PeriphDataAlignment | hdma->Init.MemDataAlignment |
 80010f8:	431a      	orrs	r2, r3
          hdma->Init.Mode                | hdma->Init.Priority;
 80010fa:	687b      	ldr	r3, [r7, #4]
 80010fc:	69db      	ldr	r3, [r3, #28]
 80010fe:	4313      	orrs	r3, r2
  tmp |=  hdma->Init.Direction        |
 8001100:	68fa      	ldr	r2, [r7, #12]
 8001102:	4313      	orrs	r3, r2
 8001104:	60fb      	str	r3, [r7, #12]

  /* Write to DMA Channel CR register */
  hdma->Instance->CCR = tmp;
 8001106:	687b      	ldr	r3, [r7, #4]
 8001108:	681b      	ldr	r3, [r3, #0]
 800110a:	68fa      	ldr	r2, [r7, #12]
 800110c:	601a      	str	r2, [r3, #0]

  /* Initialise the error code */
  hdma->ErrorCode = HAL_DMA_ERROR_NONE;
 800110e:	687b      	ldr	r3, [r7, #4]
 8001110:	2200      	movs	r2, #0
 8001112:	639a      	str	r2, [r3, #56]	; 0x38

  /* Initialize the DMA state*/
  hdma->State = HAL_DMA_STATE_READY;
 8001114:	687b      	ldr	r3, [r7, #4]
 8001116:	2201      	movs	r2, #1
 8001118:	f883 2021 	strb.w	r2, [r3, #33]	; 0x21
  /* Allocate lock resource and initialize it */
  hdma->Lock = HAL_UNLOCKED;
 800111c:	687b      	ldr	r3, [r7, #4]
 800111e:	2200      	movs	r2, #0
 8001120:	f883 2020 	strb.w	r2, [r3, #32]

  return HAL_OK;
 8001124:	2300      	movs	r3, #0
}
 8001126:	4618      	mov	r0, r3
 8001128:	3714      	adds	r7, #20
 800112a:	46bd      	mov	sp, r7
 800112c:	bc80      	pop	{r7}
 800112e:	4770      	bx	lr
 8001130:	bffdfff8 	.word	0xbffdfff8
 8001134:	cccccccd 	.word	0xcccccccd
 8001138:	40020000 	.word	0x40020000

0800113c <HAL_DMA_Start_IT>:
  * @param  DstAddress: The destination memory Buffer address
  * @param  DataLength: The length of data to be transferred from source to destination
  * @retval HAL status
  */
HAL_StatusTypeDef HAL_DMA_Start_IT(DMA_HandleTypeDef *hdma, uint32_t SrcAddress, uint32_t DstAddress, uint32_t DataLength)
{
 800113c:	b580      	push	{r7, lr}
 800113e:	b086      	sub	sp, #24
 8001140:	af00      	add	r7, sp, #0
 8001142:	60f8      	str	r0, [r7, #12]
 8001144:	60b9      	str	r1, [r7, #8]
 8001146:	607a      	str	r2, [r7, #4]
 8001148:	603b      	str	r3, [r7, #0]
  HAL_StatusTypeDef status = HAL_OK;
 800114a:	2300      	movs	r3, #0
 800114c:	75fb      	strb	r3, [r7, #23]

  /* Check the parameters */
  assert_param(IS_DMA_BUFFER_SIZE(DataLength));

  /* Process locked */
  __HAL_LOCK(hdma);
 800114e:	68fb      	ldr	r3, [r7, #12]
 8001150:	f893 3020 	ldrb.w	r3, [r3, #32]
 8001154:	2b01      	cmp	r3, #1
 8001156:	d101      	bne.n	800115c <HAL_DMA_Start_IT+0x20>
 8001158:	2302      	movs	r3, #2
 800115a:	e04a      	b.n	80011f2 <HAL_DMA_Start_IT+0xb6>
 800115c:	68fb      	ldr	r3, [r7, #12]
 800115e:	2201      	movs	r2, #1
 8001160:	f883 2020 	strb.w	r2, [r3, #32]
  
  if(HAL_DMA_STATE_READY == hdma->State)
 8001164:	68fb      	ldr	r3, [r7, #12]
 8001166:	f893 3021 	ldrb.w	r3, [r3, #33]	; 0x21
 800116a:	2b01      	cmp	r3, #1
 800116c:	d13a      	bne.n	80011e4 <HAL_DMA_Start_IT+0xa8>
  {
    /* Change DMA peripheral state */
    hdma->State = HAL_DMA_STATE_BUSY;
 800116e:	68fb      	ldr	r3, [r7, #12]
 8001170:	2202      	movs	r2, #2
 8001172:	f883 2021 	strb.w	r2, [r3, #33]	; 0x21
    hdma->ErrorCode = HAL_DMA_ERROR_NONE;
 8001176:	68fb      	ldr	r3, [r7, #12]
 8001178:	2200      	movs	r2, #0
 800117a:	639a      	str	r2, [r3, #56]	; 0x38
    
    /* Disable the peripheral */
    __HAL_DMA_DISABLE(hdma);
 800117c:	68fb      	ldr	r3, [r7, #12]
 800117e:	681b      	ldr	r3, [r3, #0]
 8001180:	681a      	ldr	r2, [r3, #0]
 8001182:	68fb      	ldr	r3, [r7, #12]
 8001184:	681b      	ldr	r3, [r3, #0]
 8001186:	f022 0201 	bic.w	r2, r2, #1
 800118a:	601a      	str	r2, [r3, #0]
    
    /* Configure the source, destination address and the data length & clear flags*/
    DMA_SetConfig(hdma, SrcAddress, DstAddress, DataLength);
 800118c:	683b      	ldr	r3, [r7, #0]
 800118e:	687a      	ldr	r2, [r7, #4]
 8001190:	68b9      	ldr	r1, [r7, #8]
 8001192:	68f8      	ldr	r0, [r7, #12]
 8001194:	f000 f8e2 	bl	800135c <DMA_SetConfig>
    
    /* Enable the transfer complete interrupt */
    /* Enable the transfer Error interrupt */
    if(NULL != hdma->XferHalfCpltCallback)
 8001198:	68fb      	ldr	r3, [r7, #12]
 800119a:	6adb      	ldr	r3, [r3, #44]	; 0x2c
 800119c:	2b00      	cmp	r3, #0
 800119e:	d008      	beq.n	80011b2 <HAL_DMA_Start_IT+0x76>
    {
      /* Enable the Half transfer complete interrupt as well */
      __HAL_DMA_ENABLE_IT(hdma, (DMA_IT_TC | DMA_IT_HT | DMA_IT_TE));
 80011a0:	68fb      	ldr	r3, [r7, #12]
 80011a2:	681b      	ldr	r3, [r3, #0]
 80011a4:	681a      	ldr	r2, [r3, #0]
 80011a6:	68fb      	ldr	r3, [r7, #12]
 80011a8:	681b      	ldr	r3, [r3, #0]
 80011aa:	f042 020e 	orr.w	r2, r2, #14
 80011ae:	601a      	str	r2, [r3, #0]
 80011b0:	e00f      	b.n	80011d2 <HAL_DMA_Start_IT+0x96>
    }
    else
    {
      __HAL_DMA_DISABLE_IT(hdma, DMA_IT_HT);
 80011b2:	68fb      	ldr	r3, [r7, #12]
 80011b4:	681b      	ldr	r3, [r3, #0]
 80011b6:	681a      	ldr	r2, [r3, #0]
 80011b8:	68fb      	ldr	r3, [r7, #12]
 80011ba:	681b      	ldr	r3, [r3, #0]
 80011bc:	f022 0204 	bic.w	r2, r2, #4
 80011c0:	601a      	str	r2, [r3, #0]
      __HAL_DMA_ENABLE_IT(hdma, (DMA_IT_TC | DMA_IT_TE));
 80011c2:	68fb      	ldr	r3, [r7, #12]
 80011c4:	681b      	ldr	r3, [r3, #0]
 80011c6:	681a      	ldr	r2, [r3, #0]
 80011c8:	68fb      	ldr	r3, [r7, #12]
 80011ca:	681b      	ldr	r3, [r3, #0]
 80011cc:	f042 020a 	orr.w	r2, r2, #10
 80011d0:	601a      	str	r2, [r3, #0]
    }
    /* Enable the Peripheral */
    __HAL_DMA_ENABLE(hdma);
 80011d2:	68fb      	ldr	r3, [r7, #12]
 80011d4:	681b      	ldr	r3, [r3, #0]
 80011d6:	681a      	ldr	r2, [r3, #0]
 80011d8:	68fb      	ldr	r3, [r7, #12]
 80011da:	681b      	ldr	r3, [r3, #0]
 80011dc:	f042 0201 	orr.w	r2, r2, #1
 80011e0:	601a      	str	r2, [r3, #0]
 80011e2:	e005      	b.n	80011f0 <HAL_DMA_Start_IT+0xb4>
  }
  else
  {      
    /* Process Unlocked */
    __HAL_UNLOCK(hdma); 
 80011e4:	68fb      	ldr	r3, [r7, #12]
 80011e6:	2200      	movs	r2, #0
 80011e8:	f883 2020 	strb.w	r2, [r3, #32]

    /* Remain BUSY */
    status = HAL_BUSY;
 80011ec:	2302      	movs	r3, #2
 80011ee:	75fb      	strb	r3, [r7, #23]
  }    
  return status;
 80011f0:	7dfb      	ldrb	r3, [r7, #23]
}
 80011f2:	4618      	mov	r0, r3
 80011f4:	3718      	adds	r7, #24
 80011f6:	46bd      	mov	sp, r7
 80011f8:	bd80      	pop	{r7, pc}

080011fa <HAL_DMA_Abort>:
  * @param  hdma: pointer to a DMA_HandleTypeDef structure that contains
  *               the configuration information for the specified DMA Channel.
  * @retval HAL status
  */
HAL_StatusTypeDef HAL_DMA_Abort(DMA_HandleTypeDef *hdma)
{
 80011fa:	b480      	push	{r7}
 80011fc:	b085      	sub	sp, #20
 80011fe:	af00      	add	r7, sp, #0
 8001200:	6078      	str	r0, [r7, #4]
  HAL_StatusTypeDef status = HAL_OK;
 8001202:	2300      	movs	r3, #0
 8001204:	73fb      	strb	r3, [r7, #15]
  
  if(hdma->State != HAL_DMA_STATE_BUSY)
 8001206:	687b      	ldr	r3, [r7, #4]
 8001208:	f893 3021 	ldrb.w	r3, [r3, #33]	; 0x21
 800120c:	2b02      	cmp	r3, #2
 800120e:	d008      	beq.n	8001222 <HAL_DMA_Abort+0x28>
  {
    /* no transfer ongoing */
    hdma->ErrorCode = HAL_DMA_ERROR_NO_XFER;
 8001210:	687b      	ldr	r3, [r7, #4]
 8001212:	2204      	movs	r2, #4
 8001214:	639a      	str	r2, [r3, #56]	; 0x38
    
    /* Process Unlocked */
    __HAL_UNLOCK(hdma);
 8001216:	687b      	ldr	r3, [r7, #4]
 8001218:	2200      	movs	r2, #0
 800121a:	f883 2020 	strb.w	r2, [r3, #32]
    
    return HAL_ERROR;
 800121e:	2301      	movs	r3, #1
 8001220:	e020      	b.n	8001264 <HAL_DMA_Abort+0x6a>
  }
  else

  {
    /* Disable DMA IT */
    __HAL_DMA_DISABLE_IT(hdma, (DMA_IT_TC | DMA_IT_HT | DMA_IT_TE));
 8001222:	687b      	ldr	r3, [r7, #4]
 8001224:	681b      	ldr	r3, [r3, #0]
 8001226:	681a      	ldr	r2, [r3, #0]
 8001228:	687b      	ldr	r3, [r7, #4]
 800122a:	681b      	ldr	r3, [r3, #0]
 800122c:	f022 020e 	bic.w	r2, r2, #14
 8001230:	601a      	str	r2, [r3, #0]
      
    /* Disable the channel */
    __HAL_DMA_DISABLE(hdma);
 8001232:	687b      	ldr	r3, [r7, #4]
 8001234:	681b      	ldr	r3, [r3, #0]
 8001236:	681a      	ldr	r2, [r3, #0]
 8001238:	687b      	ldr	r3, [r7, #4]
 800123a:	681b      	ldr	r3, [r3, #0]
 800123c:	f022 0201 	bic.w	r2, r2, #1
 8001240:	601a      	str	r2, [r3, #0]
      
    /* Clear all flags */
    hdma->DmaBaseAddress->IFCR = (DMA_ISR_GIF1 << hdma->ChannelIndex);
 8001242:	687b      	ldr	r3, [r7, #4]
 8001244:	6c1a      	ldr	r2, [r3, #64]	; 0x40
 8001246:	687b      	ldr	r3, [r7, #4]
 8001248:	6bdb      	ldr	r3, [r3, #60]	; 0x3c
 800124a:	2101      	movs	r1, #1
 800124c:	fa01 f202 	lsl.w	r2, r1, r2
 8001250:	605a      	str	r2, [r3, #4]
  }
  /* Change the DMA state */
  hdma->State = HAL_DMA_STATE_READY;
 8001252:	687b      	ldr	r3, [r7, #4]
 8001254:	2201      	movs	r2, #1
 8001256:	f883 2021 	strb.w	r2, [r3, #33]	; 0x21

  /* Process Unlocked */
  __HAL_UNLOCK(hdma);      
 800125a:	687b      	ldr	r3, [r7, #4]
 800125c:	2200      	movs	r2, #0
 800125e:	f883 2020 	strb.w	r2, [r3, #32]
  
  return status; 
 8001262:	7bfb      	ldrb	r3, [r7, #15]
}
 8001264:	4618      	mov	r0, r3
 8001266:	3714      	adds	r7, #20
 8001268:	46bd      	mov	sp, r7
 800126a:	bc80      	pop	{r7}
 800126c:	4770      	bx	lr
	...

08001270 <HAL_DMA_Abort_IT>:
  * @param  hdma  : pointer to a DMA_HandleTypeDef structure that contains
  *                 the configuration information for the specified DMA Channel.
  * @retval HAL status
  */
HAL_StatusTypeDef HAL_DMA_Abort_IT(DMA_HandleTypeDef *hdma)
{  
 8001270:	b580      	push	{r7, lr}
 8001272:	b084      	sub	sp, #16
 8001274:	af00      	add	r7, sp, #0
 8001276:	6078      	str	r0, [r7, #4]
  HAL_StatusTypeDef status = HAL_OK;
 8001278:	2300      	movs	r3, #0
 800127a:	73fb      	strb	r3, [r7, #15]
  
  if(HAL_DMA_STATE_BUSY != hdma->State)
 800127c:	687b      	ldr	r3, [r7, #4]
 800127e:	f893 3021 	ldrb.w	r3, [r3, #33]	; 0x21
 8001282:	2b02      	cmp	r3, #2
 8001284:	d005      	beq.n	8001292 <HAL_DMA_Abort_IT+0x22>
  {
    /* no transfer ongoing */
    hdma->ErrorCode = HAL_DMA_ERROR_NO_XFER;
 8001286:	687b      	ldr	r3, [r7, #4]
 8001288:	2204      	movs	r2, #4
 800128a:	639a      	str	r2, [r3, #56]	; 0x38
        
    status = HAL_ERROR;
 800128c:	2301      	movs	r3, #1
 800128e:	73fb      	strb	r3, [r7, #15]
 8001290:	e051      	b.n	8001336 <HAL_DMA_Abort_IT+0xc6>
  }
  else
  { 
    /* Disable DMA IT */
    __HAL_DMA_DISABLE_IT(hdma, (DMA_IT_TC | DMA_IT_HT | DMA_IT_TE));
 8001292:	687b      	ldr	r3, [r7, #4]
 8001294:	681b      	ldr	r3, [r3, #0]
 8001296:	681a      	ldr	r2, [r3, #0]
 8001298:	687b      	ldr	r3, [r7, #4]
 800129a:	681b      	ldr	r3, [r3, #0]
 800129c:	f022 020e 	bic.w	r2, r2, #14
 80012a0:	601a      	str	r2, [r3, #0]

    /* Disable the channel */
    __HAL_DMA_DISABLE(hdma);
 80012a2:	687b      	ldr	r3, [r7, #4]
 80012a4:	681b      	ldr	r3, [r3, #0]
 80012a6:	681a      	ldr	r2, [r3, #0]
 80012a8:	687b      	ldr	r3, [r7, #4]
 80012aa:	681b      	ldr	r3, [r3, #0]
 80012ac:	f022 0201 	bic.w	r2, r2, #1
 80012b0:	601a      	str	r2, [r3, #0]

    /* Clear all flags */
    __HAL_DMA_CLEAR_FLAG(hdma, __HAL_DMA_GET_GI_FLAG_INDEX(hdma));
 80012b2:	687b      	ldr	r3, [r7, #4]
 80012b4:	681b      	ldr	r3, [r3, #0]
 80012b6:	4a22      	ldr	r2, [pc, #136]	; (8001340 <HAL_DMA_Abort_IT+0xd0>)
 80012b8:	4293      	cmp	r3, r2
 80012ba:	d029      	beq.n	8001310 <HAL_DMA_Abort_IT+0xa0>
 80012bc:	687b      	ldr	r3, [r7, #4]
 80012be:	681b      	ldr	r3, [r3, #0]
 80012c0:	4a20      	ldr	r2, [pc, #128]	; (8001344 <HAL_DMA_Abort_IT+0xd4>)
 80012c2:	4293      	cmp	r3, r2
 80012c4:	d022      	beq.n	800130c <HAL_DMA_Abort_IT+0x9c>
 80012c6:	687b      	ldr	r3, [r7, #4]
 80012c8:	681b      	ldr	r3, [r3, #0]
 80012ca:	4a1f      	ldr	r2, [pc, #124]	; (8001348 <HAL_DMA_Abort_IT+0xd8>)
 80012cc:	4293      	cmp	r3, r2
 80012ce:	d01a      	beq.n	8001306 <HAL_DMA_Abort_IT+0x96>
 80012d0:	687b      	ldr	r3, [r7, #4]
 80012d2:	681b      	ldr	r3, [r3, #0]
 80012d4:	4a1d      	ldr	r2, [pc, #116]	; (800134c <HAL_DMA_Abort_IT+0xdc>)
 80012d6:	4293      	cmp	r3, r2
 80012d8:	d012      	beq.n	8001300 <HAL_DMA_Abort_IT+0x90>
 80012da:	687b      	ldr	r3, [r7, #4]
 80012dc:	681b      	ldr	r3, [r3, #0]
 80012de:	4a1c      	ldr	r2, [pc, #112]	; (8001350 <HAL_DMA_Abort_IT+0xe0>)
 80012e0:	4293      	cmp	r3, r2
 80012e2:	d00a      	beq.n	80012fa <HAL_DMA_Abort_IT+0x8a>
 80012e4:	687b      	ldr	r3, [r7, #4]
 80012e6:	681b      	ldr	r3, [r3, #0]
 80012e8:	4a1a      	ldr	r2, [pc, #104]	; (8001354 <HAL_DMA_Abort_IT+0xe4>)
 80012ea:	4293      	cmp	r3, r2
 80012ec:	d102      	bne.n	80012f4 <HAL_DMA_Abort_IT+0x84>
 80012ee:	f44f 1380 	mov.w	r3, #1048576	; 0x100000
 80012f2:	e00e      	b.n	8001312 <HAL_DMA_Abort_IT+0xa2>
 80012f4:	f04f 7380 	mov.w	r3, #16777216	; 0x1000000
 80012f8:	e00b      	b.n	8001312 <HAL_DMA_Abort_IT+0xa2>
 80012fa:	f44f 3380 	mov.w	r3, #65536	; 0x10000
 80012fe:	e008      	b.n	8001312 <HAL_DMA_Abort_IT+0xa2>
 8001300:	f44f 5380 	mov.w	r3, #4096	; 0x1000
 8001304:	e005      	b.n	8001312 <HAL_DMA_Abort_IT+0xa2>
 8001306:	f44f 7380 	mov.w	r3, #256	; 0x100
 800130a:	e002      	b.n	8001312 <HAL_DMA_Abort_IT+0xa2>
 800130c:	2310      	movs	r3, #16
 800130e:	e000      	b.n	8001312 <HAL_DMA_Abort_IT+0xa2>
 8001310:	2301      	movs	r3, #1
 8001312:	4a11      	ldr	r2, [pc, #68]	; (8001358 <HAL_DMA_Abort_IT+0xe8>)
 8001314:	6053      	str	r3, [r2, #4]

    /* Change the DMA state */
    hdma->State = HAL_DMA_STATE_READY;
 8001316:	687b      	ldr	r3, [r7, #4]
 8001318:	2201      	movs	r2, #1
 800131a:	f883 2021 	strb.w	r2, [r3, #33]	; 0x21

    /* Process Unlocked */
    __HAL_UNLOCK(hdma);
 800131e:	687b      	ldr	r3, [r7, #4]
 8001320:	2200      	movs	r2, #0
 8001322:	f883 2020 	strb.w	r2, [r3, #32]

    /* Call User Abort callback */
    if(hdma->XferAbortCallback != NULL)
 8001326:	687b      	ldr	r3, [r7, #4]
 8001328:	6b5b      	ldr	r3, [r3, #52]	; 0x34
 800132a:	2b00      	cmp	r3, #0
 800132c:	d003      	beq.n	8001336 <HAL_DMA_Abort_IT+0xc6>
    {
      hdma->XferAbortCallback(hdma);
 800132e:	687b      	ldr	r3, [r7, #4]
 8001330:	6b5b      	ldr	r3, [r3, #52]	; 0x34
 8001332:	6878      	ldr	r0, [r7, #4]
 8001334:	4798      	blx	r3
    } 
  }
  return status;
 8001336:	7bfb      	ldrb	r3, [r7, #15]
}
 8001338:	4618      	mov	r0, r3
 800133a:	3710      	adds	r7, #16
 800133c:	46bd      	mov	sp, r7
 800133e:	bd80      	pop	{r7, pc}
 8001340:	40020008 	.word	0x40020008
 8001344:	4002001c 	.word	0x4002001c
 8001348:	40020030 	.word	0x40020030
 800134c:	40020044 	.word	0x40020044
 8001350:	40020058 	.word	0x40020058
 8001354:	4002006c 	.word	0x4002006c
 8001358:	40020000 	.word	0x40020000

0800135c <DMA_SetConfig>:
  * @param  DstAddress: The destination memory Buffer address
  * @param  DataLength: The length of data to be transferred from source to destination
  * @retval HAL status
  */
static void DMA_SetConfig(DMA_HandleTypeDef *hdma, uint32_t SrcAddress, uint32_t DstAddress, uint32_t DataLength)
{
 800135c:	b480      	push	{r7}
 800135e:	b085      	sub	sp, #20
 8001360:	af00      	add	r7, sp, #0
 8001362:	60f8      	str	r0, [r7, #12]
 8001364:	60b9      	str	r1, [r7, #8]
 8001366:	607a      	str	r2, [r7, #4]
 8001368:	603b      	str	r3, [r7, #0]
  /* Clear all flags */
  hdma->DmaBaseAddress->IFCR = (DMA_ISR_GIF1 << hdma->ChannelIndex);
 800136a:	68fb      	ldr	r3, [r7, #12]
 800136c:	6c1a      	ldr	r2, [r3, #64]	; 0x40
 800136e:	68fb      	ldr	r3, [r7, #12]
 8001370:	6bdb      	ldr	r3, [r3, #60]	; 0x3c
 8001372:	2101      	movs	r1, #1
 8001374:	fa01 f202 	lsl.w	r2, r1, r2
 8001378:	605a      	str	r2, [r3, #4]

  /* Configure DMA Channel data length */
  hdma->Instance->CNDTR = DataLength;
 800137a:	68fb      	ldr	r3, [r7, #12]
 800137c:	681b      	ldr	r3, [r3, #0]
 800137e:	683a      	ldr	r2, [r7, #0]
 8001380:	605a      	str	r2, [r3, #4]

  /* Memory to Peripheral */
  if((hdma->Init.Direction) == DMA_MEMORY_TO_PERIPH)
 8001382:	68fb      	ldr	r3, [r7, #12]
 8001384:	685b      	ldr	r3, [r3, #4]
 8001386:	2b10      	cmp	r3, #16
 8001388:	d108      	bne.n	800139c <DMA_SetConfig+0x40>
  {
    /* Configure DMA Channel destination address */
    hdma->Instance->CPAR = DstAddress;
 800138a:	68fb      	ldr	r3, [r7, #12]
 800138c:	681b      	ldr	r3, [r3, #0]
 800138e:	687a      	ldr	r2, [r7, #4]
 8001390:	609a      	str	r2, [r3, #8]

    /* Configure DMA Channel source address */
    hdma->Instance->CMAR = SrcAddress;
 8001392:	68fb      	ldr	r3, [r7, #12]
 8001394:	681b      	ldr	r3, [r3, #0]
 8001396:	68ba      	ldr	r2, [r7, #8]
 8001398:	60da      	str	r2, [r3, #12]
    hdma->Instance->CPAR = SrcAddress;

    /* Configure DMA Channel destination address */
    hdma->Instance->CMAR = DstAddress;
  }
}
 800139a:	e007      	b.n	80013ac <DMA_SetConfig+0x50>
    hdma->Instance->CPAR = SrcAddress;
 800139c:	68fb      	ldr	r3, [r7, #12]
 800139e:	681b      	ldr	r3, [r3, #0]
 80013a0:	68ba      	ldr	r2, [r7, #8]
 80013a2:	609a      	str	r2, [r3, #8]
    hdma->Instance->CMAR = DstAddress;
 80013a4:	68fb      	ldr	r3, [r7, #12]
 80013a6:	681b      	ldr	r3, [r3, #0]
 80013a8:	687a      	ldr	r2, [r7, #4]
 80013aa:	60da      	str	r2, [r3, #12]
}
 80013ac:	bf00      	nop
 80013ae:	3714      	adds	r7, #20
 80013b0:	46bd      	mov	sp, r7
 80013b2:	bc80      	pop	{r7}
 80013b4:	4770      	bx	lr
	...

080013b8 <HAL_GPIO_Init>:
  * @param  GPIO_Init: pointer to a GPIO_InitTypeDef structure that contains
  *         the configuration information for the specified GPIO peripheral.
  * @retval None
  */
void HAL_GPIO_Init(GPIO_TypeDef  *GPIOx, GPIO_InitTypeDef *GPIO_Init)
{
 80013b8:	b480      	push	{r7}
 80013ba:	b08b      	sub	sp, #44	; 0x2c
 80013bc:	af00      	add	r7, sp, #0
 80013be:	6078      	str	r0, [r7, #4]
 80013c0:	6039      	str	r1, [r7, #0]
  uint32_t position = 0x00u;
 80013c2:	2300      	movs	r3, #0
 80013c4:	627b      	str	r3, [r7, #36]	; 0x24
  uint32_t ioposition;
  uint32_t iocurrent;
  uint32_t temp;
  uint32_t config = 0x00u;
 80013c6:	2300      	movs	r3, #0
 80013c8:	623b      	str	r3, [r7, #32]
  assert_param(IS_GPIO_ALL_INSTANCE(GPIOx));
  assert_param(IS_GPIO_PIN(GPIO_Init->Pin));
  assert_param(IS_GPIO_MODE(GPIO_Init->Mode));

  /* Configure the port pins */
  while (((GPIO_Init->Pin) >> position) != 0x00u)
 80013ca:	e127      	b.n	800161c <HAL_GPIO_Init+0x264>
  {
    /* Get the IO position */
    ioposition = (0x01uL << position);
 80013cc:	2201      	movs	r2, #1
 80013ce:	6a7b      	ldr	r3, [r7, #36]	; 0x24
 80013d0:	fa02 f303 	lsl.w	r3, r2, r3
 80013d4:	61fb      	str	r3, [r7, #28]

    /* Get the current IO position */
    iocurrent = (uint32_t)(GPIO_Init->Pin) & ioposition;
 80013d6:	683b      	ldr	r3, [r7, #0]
 80013d8:	681b      	ldr	r3, [r3, #0]
 80013da:	69fa      	ldr	r2, [r7, #28]
 80013dc:	4013      	ands	r3, r2
 80013de:	61bb      	str	r3, [r7, #24]

    if (iocurrent == ioposition)
 80013e0:	69ba      	ldr	r2, [r7, #24]
 80013e2:	69fb      	ldr	r3, [r7, #28]
 80013e4:	429a      	cmp	r2, r3
 80013e6:	f040 8116 	bne.w	8001616 <HAL_GPIO_Init+0x25e>
    {
      /* Check the Alternate function parameters */
      assert_param(IS_GPIO_AF_INSTANCE(GPIOx));

      /* Based on the required mode, filling config variable with MODEy[1:0] and CNFy[3:2] corresponding bits */
      switch (GPIO_Init->Mode)
 80013ea:	683b      	ldr	r3, [r7, #0]
 80013ec:	685b      	ldr	r3, [r3, #4]
 80013ee:	2b12      	cmp	r3, #18
 80013f0:	d034      	beq.n	800145c <HAL_GPIO_Init+0xa4>
 80013f2:	2b12      	cmp	r3, #18
 80013f4:	d80d      	bhi.n	8001412 <HAL_GPIO_Init+0x5a>
 80013f6:	2b02      	cmp	r3, #2
 80013f8:	d02b      	beq.n	8001452 <HAL_GPIO_Init+0x9a>
 80013fa:	2b02      	cmp	r3, #2
 80013fc:	d804      	bhi.n	8001408 <HAL_GPIO_Init+0x50>
 80013fe:	2b00      	cmp	r3, #0
 8001400:	d031      	beq.n	8001466 <HAL_GPIO_Init+0xae>
 8001402:	2b01      	cmp	r3, #1
 8001404:	d01c      	beq.n	8001440 <HAL_GPIO_Init+0x88>
          config = GPIO_CR_MODE_INPUT + GPIO_CR_CNF_ANALOG;
          break;

        /* Parameters are checked with assert_param */
        default:
          break;
 8001406:	e048      	b.n	800149a <HAL_GPIO_Init+0xe2>
      switch (GPIO_Init->Mode)
 8001408:	2b03      	cmp	r3, #3
 800140a:	d043      	beq.n	8001494 <HAL_GPIO_Init+0xdc>
 800140c:	2b11      	cmp	r3, #17
 800140e:	d01b      	beq.n	8001448 <HAL_GPIO_Init+0x90>
          break;
 8001410:	e043      	b.n	800149a <HAL_GPIO_Init+0xe2>
      switch (GPIO_Init->Mode)
 8001412:	4a89      	ldr	r2, [pc, #548]	; (8001638 <HAL_GPIO_Init+0x280>)
 8001414:	4293      	cmp	r3, r2
 8001416:	d026      	beq.n	8001466 <HAL_GPIO_Init+0xae>
 8001418:	4a87      	ldr	r2, [pc, #540]	; (8001638 <HAL_GPIO_Init+0x280>)
 800141a:	4293      	cmp	r3, r2
 800141c:	d806      	bhi.n	800142c <HAL_GPIO_Init+0x74>
 800141e:	4a87      	ldr	r2, [pc, #540]	; (800163c <HAL_GPIO_Init+0x284>)
 8001420:	4293      	cmp	r3, r2
 8001422:	d020      	beq.n	8001466 <HAL_GPIO_Init+0xae>
 8001424:	4a86      	ldr	r2, [pc, #536]	; (8001640 <HAL_GPIO_Init+0x288>)
 8001426:	4293      	cmp	r3, r2
 8001428:	d01d      	beq.n	8001466 <HAL_GPIO_Init+0xae>
          break;
 800142a:	e036      	b.n	800149a <HAL_GPIO_Init+0xe2>
      switch (GPIO_Init->Mode)
 800142c:	4a85      	ldr	r2, [pc, #532]	; (8001644 <HAL_GPIO_Init+0x28c>)
 800142e:	4293      	cmp	r3, r2
 8001430:	d019      	beq.n	8001466 <HAL_GPIO_Init+0xae>
 8001432:	4a85      	ldr	r2, [pc, #532]	; (8001648 <HAL_GPIO_Init+0x290>)
 8001434:	4293      	cmp	r3, r2
 8001436:	d016      	beq.n	8001466 <HAL_GPIO_Init+0xae>
 8001438:	4a84      	ldr	r2, [pc, #528]	; (800164c <HAL_GPIO_Init+0x294>)
 800143a:	4293      	cmp	r3, r2
 800143c:	d013      	beq.n	8001466 <HAL_GPIO_Init+0xae>
          break;
 800143e:	e02c      	b.n	800149a <HAL_GPIO_Init+0xe2>
          config = GPIO_Init->Speed + GPIO_CR_CNF_GP_OUTPUT_PP;
 8001440:	683b      	ldr	r3, [r7, #0]
 8001442:	68db      	ldr	r3, [r3, #12]
 8001444:	623b      	str	r3, [r7, #32]
          break;
 8001446:	e028      	b.n	800149a <HAL_GPIO_Init+0xe2>
          config = GPIO_Init->Speed + GPIO_CR_CNF_GP_OUTPUT_OD;
 8001448:	683b      	ldr	r3, [r7, #0]
 800144a:	68db      	ldr	r3, [r3, #12]
 800144c:	3304      	adds	r3, #4
 800144e:	623b      	str	r3, [r7, #32]
          break;
 8001450:	e023      	b.n	800149a <HAL_GPIO_Init+0xe2>
          config = GPIO_Init->Speed + GPIO_CR_CNF_AF_OUTPUT_PP;
 8001452:	683b      	ldr	r3, [r7, #0]
 8001454:	68db      	ldr	r3, [r3, #12]
 8001456:	3308      	adds	r3, #8
 8001458:	623b      	str	r3, [r7, #32]
          break;
 800145a:	e01e      	b.n	800149a <HAL_GPIO_Init+0xe2>
          config = GPIO_Init->Speed + GPIO_CR_CNF_AF_OUTPUT_OD;
 800145c:	683b      	ldr	r3, [r7, #0]
 800145e:	68db      	ldr	r3, [r3, #12]
 8001460:	330c      	adds	r3, #12
 8001462:	623b      	str	r3, [r7, #32]
          break;
 8001464:	e019      	b.n	800149a <HAL_GPIO_Init+0xe2>
          if (GPIO_Init->Pull == GPIO_NOPULL)
 8001466:	683b      	ldr	r3, [r7, #0]
 8001468:	689b      	ldr	r3, [r3, #8]
 800146a:	2b00      	cmp	r3, #0
 800146c:	d102      	bne.n	8001474 <HAL_GPIO_Init+0xbc>
            config = GPIO_CR_MODE_INPUT + GPIO_CR_CNF_INPUT_FLOATING;
 800146e:	2304      	movs	r3, #4
 8001470:	623b      	str	r3, [r7, #32]
          break;
 8001472:	e012      	b.n	800149a <HAL_GPIO_Init+0xe2>
          else if (GPIO_Init->Pull == GPIO_PULLUP)
 8001474:	683b      	ldr	r3, [r7, #0]
 8001476:	689b      	ldr	r3, [r3, #8]
 8001478:	2b01      	cmp	r3, #1
 800147a:	d105      	bne.n	8001488 <HAL_GPIO_Init+0xd0>
            config = GPIO_CR_MODE_INPUT + GPIO_CR_CNF_INPUT_PU_PD;
 800147c:	2308      	movs	r3, #8
 800147e:	623b      	str	r3, [r7, #32]
            GPIOx->BSRR = ioposition;
 8001480:	687b      	ldr	r3, [r7, #4]
 8001482:	69fa      	ldr	r2, [r7, #28]
 8001484:	611a      	str	r2, [r3, #16]
          break;
 8001486:	e008      	b.n	800149a <HAL_GPIO_Init+0xe2>
            config = GPIO_CR_MODE_INPUT + GPIO_CR_CNF_INPUT_PU_PD;
 8001488:	2308      	movs	r3, #8
 800148a:	623b      	str	r3, [r7, #32]
            GPIOx->BRR = ioposition;
 800148c:	687b      	ldr	r3, [r7, #4]
 800148e:	69fa      	ldr	r2, [r7, #28]
 8001490:	615a      	str	r2, [r3, #20]
          break;
 8001492:	e002      	b.n	800149a <HAL_GPIO_Init+0xe2>
          config = GPIO_CR_MODE_INPUT + GPIO_CR_CNF_ANALOG;
 8001494:	2300      	movs	r3, #0
 8001496:	623b      	str	r3, [r7, #32]
          break;
 8001498:	bf00      	nop
      }

      /* Check if the current bit belongs to first half or last half of the pin count number
       in order to address CRH or CRL register*/
      configregister = (iocurrent < GPIO_PIN_8) ? &GPIOx->CRL     : &GPIOx->CRH;
 800149a:	69bb      	ldr	r3, [r7, #24]
 800149c:	2bff      	cmp	r3, #255	; 0xff
 800149e:	d801      	bhi.n	80014a4 <HAL_GPIO_Init+0xec>
 80014a0:	687b      	ldr	r3, [r7, #4]
 80014a2:	e001      	b.n	80014a8 <HAL_GPIO_Init+0xf0>
 80014a4:	687b      	ldr	r3, [r7, #4]
 80014a6:	3304      	adds	r3, #4
 80014a8:	617b      	str	r3, [r7, #20]
      registeroffset = (iocurrent < GPIO_PIN_8) ? (position << 2u) : ((position - 8u) << 2u);
 80014aa:	69bb      	ldr	r3, [r7, #24]
 80014ac:	2bff      	cmp	r3, #255	; 0xff
 80014ae:	d802      	bhi.n	80014b6 <HAL_GPIO_Init+0xfe>
 80014b0:	6a7b      	ldr	r3, [r7, #36]	; 0x24
 80014b2:	009b      	lsls	r3, r3, #2
 80014b4:	e002      	b.n	80014bc <HAL_GPIO_Init+0x104>
 80014b6:	6a7b      	ldr	r3, [r7, #36]	; 0x24
 80014b8:	3b08      	subs	r3, #8
 80014ba:	009b      	lsls	r3, r3, #2
 80014bc:	613b      	str	r3, [r7, #16]

      /* Apply the new configuration of the pin to the register */
      MODIFY_REG((*configregister), ((GPIO_CRL_MODE0 | GPIO_CRL_CNF0) << registeroffset), (config << registeroffset));
 80014be:	697b      	ldr	r3, [r7, #20]
 80014c0:	681a      	ldr	r2, [r3, #0]
 80014c2:	210f      	movs	r1, #15
 80014c4:	693b      	ldr	r3, [r7, #16]
 80014c6:	fa01 f303 	lsl.w	r3, r1, r3
 80014ca:	43db      	mvns	r3, r3
 80014cc:	401a      	ands	r2, r3
 80014ce:	6a39      	ldr	r1, [r7, #32]
 80014d0:	693b      	ldr	r3, [r7, #16]
 80014d2:	fa01 f303 	lsl.w	r3, r1, r3
 80014d6:	431a      	orrs	r2, r3
 80014d8:	697b      	ldr	r3, [r7, #20]
 80014da:	601a      	str	r2, [r3, #0]

      /*--------------------- EXTI Mode Configuration ------------------------*/
      /* Configure the External Interrupt or event for the current IO */
      if ((GPIO_Init->Mode & EXTI_MODE) == EXTI_MODE)
 80014dc:	683b      	ldr	r3, [r7, #0]
 80014de:	685b      	ldr	r3, [r3, #4]
 80014e0:	f003 5380 	and.w	r3, r3, #268435456	; 0x10000000
 80014e4:	2b00      	cmp	r3, #0
 80014e6:	f000 8096 	beq.w	8001616 <HAL_GPIO_Init+0x25e>
      {
        /* Enable AFIO Clock */
        __HAL_RCC_AFIO_CLK_ENABLE();
 80014ea:	4b59      	ldr	r3, [pc, #356]	; (8001650 <HAL_GPIO_Init+0x298>)
 80014ec:	699b      	ldr	r3, [r3, #24]
 80014ee:	4a58      	ldr	r2, [pc, #352]	; (8001650 <HAL_GPIO_Init+0x298>)
 80014f0:	f043 0301 	orr.w	r3, r3, #1
 80014f4:	6193      	str	r3, [r2, #24]
 80014f6:	4b56      	ldr	r3, [pc, #344]	; (8001650 <HAL_GPIO_Init+0x298>)
 80014f8:	699b      	ldr	r3, [r3, #24]
 80014fa:	f003 0301 	and.w	r3, r3, #1
 80014fe:	60bb      	str	r3, [r7, #8]
 8001500:	68bb      	ldr	r3, [r7, #8]
        temp = AFIO->EXTICR[position >> 2u];
 8001502:	4a54      	ldr	r2, [pc, #336]	; (8001654 <HAL_GPIO_Init+0x29c>)
 8001504:	6a7b      	ldr	r3, [r7, #36]	; 0x24
 8001506:	089b      	lsrs	r3, r3, #2
 8001508:	3302      	adds	r3, #2
 800150a:	f852 3023 	ldr.w	r3, [r2, r3, lsl #2]
 800150e:	60fb      	str	r3, [r7, #12]
        CLEAR_BIT(temp, (0x0Fu) << (4u * (position & 0x03u)));
 8001510:	6a7b      	ldr	r3, [r7, #36]	; 0x24
 8001512:	f003 0303 	and.w	r3, r3, #3
 8001516:	009b      	lsls	r3, r3, #2
 8001518:	220f      	movs	r2, #15
 800151a:	fa02 f303 	lsl.w	r3, r2, r3
 800151e:	43db      	mvns	r3, r3
 8001520:	68fa      	ldr	r2, [r7, #12]
 8001522:	4013      	ands	r3, r2
 8001524:	60fb      	str	r3, [r7, #12]
        SET_BIT(temp, (GPIO_GET_INDEX(GPIOx)) << (4u * (position & 0x03u)));
 8001526:	687b      	ldr	r3, [r7, #4]
 8001528:	4a4b      	ldr	r2, [pc, #300]	; (8001658 <HAL_GPIO_Init+0x2a0>)
 800152a:	4293      	cmp	r3, r2
 800152c:	d013      	beq.n	8001556 <HAL_GPIO_Init+0x19e>
 800152e:	687b      	ldr	r3, [r7, #4]
 8001530:	4a4a      	ldr	r2, [pc, #296]	; (800165c <HAL_GPIO_Init+0x2a4>)
 8001532:	4293      	cmp	r3, r2
 8001534:	d00d      	beq.n	8001552 <HAL_GPIO_Init+0x19a>
 8001536:	687b      	ldr	r3, [r7, #4]
 8001538:	4a49      	ldr	r2, [pc, #292]	; (8001660 <HAL_GPIO_Init+0x2a8>)
 800153a:	4293      	cmp	r3, r2
 800153c:	d007      	beq.n	800154e <HAL_GPIO_Init+0x196>
 800153e:	687b      	ldr	r3, [r7, #4]
 8001540:	4a48      	ldr	r2, [pc, #288]	; (8001664 <HAL_GPIO_Init+0x2ac>)
 8001542:	4293      	cmp	r3, r2
 8001544:	d101      	bne.n	800154a <HAL_GPIO_Init+0x192>
 8001546:	2303      	movs	r3, #3
 8001548:	e006      	b.n	8001558 <HAL_GPIO_Init+0x1a0>
 800154a:	2304      	movs	r3, #4
 800154c:	e004      	b.n	8001558 <HAL_GPIO_Init+0x1a0>
 800154e:	2302      	movs	r3, #2
 8001550:	e002      	b.n	8001558 <HAL_GPIO_Init+0x1a0>
 8001552:	2301      	movs	r3, #1
 8001554:	e000      	b.n	8001558 <HAL_GPIO_Init+0x1a0>
 8001556:	2300      	movs	r3, #0
 8001558:	6a7a      	ldr	r2, [r7, #36]	; 0x24
 800155a:	f002 0203 	and.w	r2, r2, #3
 800155e:	0092      	lsls	r2, r2, #2
 8001560:	4093      	lsls	r3, r2
 8001562:	68fa      	ldr	r2, [r7, #12]
 8001564:	4313      	orrs	r3, r2
 8001566:	60fb      	str	r3, [r7, #12]
        AFIO->EXTICR[position >> 2u] = temp;
 8001568:	493a      	ldr	r1, [pc, #232]	; (8001654 <HAL_GPIO_Init+0x29c>)
 800156a:	6a7b      	ldr	r3, [r7, #36]	; 0x24
 800156c:	089b      	lsrs	r3, r3, #2
 800156e:	3302      	adds	r3, #2
 8001570:	68fa      	ldr	r2, [r7, #12]
 8001572:	f841 2023 	str.w	r2, [r1, r3, lsl #2]


        /* Configure the interrupt mask */
        if ((GPIO_Init->Mode & GPIO_MODE_IT) == GPIO_MODE_IT)
 8001576:	683b      	ldr	r3, [r7, #0]
 8001578:	685b      	ldr	r3, [r3, #4]
 800157a:	f403 3380 	and.w	r3, r3, #65536	; 0x10000
 800157e:	2b00      	cmp	r3, #0
 8001580:	d006      	beq.n	8001590 <HAL_GPIO_Init+0x1d8>
        {
          SET_BIT(EXTI->IMR, iocurrent);
 8001582:	4b39      	ldr	r3, [pc, #228]	; (8001668 <HAL_GPIO_Init+0x2b0>)
 8001584:	681a      	ldr	r2, [r3, #0]
 8001586:	4938      	ldr	r1, [pc, #224]	; (8001668 <HAL_GPIO_Init+0x2b0>)
 8001588:	69bb      	ldr	r3, [r7, #24]
 800158a:	4313      	orrs	r3, r2
 800158c:	600b      	str	r3, [r1, #0]
 800158e:	e006      	b.n	800159e <HAL_GPIO_Init+0x1e6>
        }
        else
        {
          CLEAR_BIT(EXTI->IMR, iocurrent);
 8001590:	4b35      	ldr	r3, [pc, #212]	; (8001668 <HAL_GPIO_Init+0x2b0>)
 8001592:	681a      	ldr	r2, [r3, #0]
 8001594:	69bb      	ldr	r3, [r7, #24]
 8001596:	43db      	mvns	r3, r3
 8001598:	4933      	ldr	r1, [pc, #204]	; (8001668 <HAL_GPIO_Init+0x2b0>)
 800159a:	4013      	ands	r3, r2
 800159c:	600b      	str	r3, [r1, #0]
        }

        /* Configure the event mask */
        if ((GPIO_Init->Mode & GPIO_MODE_EVT) == GPIO_MODE_EVT)
 800159e:	683b      	ldr	r3, [r7, #0]
 80015a0:	685b      	ldr	r3, [r3, #4]
 80015a2:	f403 3300 	and.w	r3, r3, #131072	; 0x20000
 80015a6:	2b00      	cmp	r3, #0
 80015a8:	d006      	beq.n	80015b8 <HAL_GPIO_Init+0x200>
        {
          SET_BIT(EXTI->EMR, iocurrent);
 80015aa:	4b2f      	ldr	r3, [pc, #188]	; (8001668 <HAL_GPIO_Init+0x2b0>)
 80015ac:	685a      	ldr	r2, [r3, #4]
 80015ae:	492e      	ldr	r1, [pc, #184]	; (8001668 <HAL_GPIO_Init+0x2b0>)
 80015b0:	69bb      	ldr	r3, [r7, #24]
 80015b2:	4313      	orrs	r3, r2
 80015b4:	604b      	str	r3, [r1, #4]
 80015b6:	e006      	b.n	80015c6 <HAL_GPIO_Init+0x20e>
        }
        else
        {
          CLEAR_BIT(EXTI->EMR, iocurrent);
 80015b8:	4b2b      	ldr	r3, [pc, #172]	; (8001668 <HAL_GPIO_Init+0x2b0>)
 80015ba:	685a      	ldr	r2, [r3, #4]
 80015bc:	69bb      	ldr	r3, [r7, #24]
 80015be:	43db      	mvns	r3, r3
 80015c0:	4929      	ldr	r1, [pc, #164]	; (8001668 <HAL_GPIO_Init+0x2b0>)
 80015c2:	4013      	ands	r3, r2
 80015c4:	604b      	str	r3, [r1, #4]
        }

        /* Enable or disable the rising trigger */
        if ((GPIO_Init->Mode & RISING_EDGE) == RISING_EDGE)
 80015c6:	683b      	ldr	r3, [r7, #0]
 80015c8:	685b      	ldr	r3, [r3, #4]
 80015ca:	f403 1380 	and.w	r3, r3, #1048576	; 0x100000
 80015ce:	2b00      	cmp	r3, #0
 80015d0:	d006      	beq.n	80015e0 <HAL_GPIO_Init+0x228>
        {
          SET_BIT(EXTI->RTSR, iocurrent);
 80015d2:	4b25      	ldr	r3, [pc, #148]	; (8001668 <HAL_GPIO_Init+0x2b0>)
 80015d4:	689a      	ldr	r2, [r3, #8]
 80015d6:	4924      	ldr	r1, [pc, #144]	; (8001668 <HAL_GPIO_Init+0x2b0>)
 80015d8:	69bb      	ldr	r3, [r7, #24]
 80015da:	4313      	orrs	r3, r2
 80015dc:	608b      	str	r3, [r1, #8]
 80015de:	e006      	b.n	80015ee <HAL_GPIO_Init+0x236>
        }
        else
        {
          CLEAR_BIT(EXTI->RTSR, iocurrent);
 80015e0:	4b21      	ldr	r3, [pc, #132]	; (8001668 <HAL_GPIO_Init+0x2b0>)
 80015e2:	689a      	ldr	r2, [r3, #8]
 80015e4:	69bb      	ldr	r3, [r7, #24]
 80015e6:	43db      	mvns	r3, r3
 80015e8:	491f      	ldr	r1, [pc, #124]	; (8001668 <HAL_GPIO_Init+0x2b0>)
 80015ea:	4013      	ands	r3, r2
 80015ec:	608b      	str	r3, [r1, #8]
        }

        /* Enable or disable the falling trigger */
        if ((GPIO_Init->Mode & FALLING_EDGE) == FALLING_EDGE)
 80015ee:	683b      	ldr	r3, [r7, #0]
 80015f0:	685b      	ldr	r3, [r3, #4]
 80015f2:	f403 1300 	and.w	r3, r3, #2097152	; 0x200000
 80015f6:	2b00      	cmp	r3, #0
 80015f8:	d006      	beq.n	8001608 <HAL_GPIO_Init+0x250>
        {
          SET_BIT(EXTI->FTSR, iocurrent);
 80015fa:	4b1b      	ldr	r3, [pc, #108]	; (8001668 <HAL_GPIO_Init+0x2b0>)
 80015fc:	68da      	ldr	r2, [r3, #12]
 80015fe:	491a      	ldr	r1, [pc, #104]	; (8001668 <HAL_GPIO_Init+0x2b0>)
 8001600:	69bb      	ldr	r3, [r7, #24]
 8001602:	4313      	orrs	r3, r2
 8001604:	60cb      	str	r3, [r1, #12]
 8001606:	e006      	b.n	8001616 <HAL_GPIO_Init+0x25e>
        }
        else
        {
          CLEAR_BIT(EXTI->FTSR, iocurrent);
 8001608:	4b17      	ldr	r3, [pc, #92]	; (8001668 <HAL_GPIO_Init+0x2b0>)
 800160a:	68da      	ldr	r2, [r3, #12]
 800160c:	69bb      	ldr	r3, [r7, #24]
 800160e:	43db      	mvns	r3, r3
 8001610:	4915      	ldr	r1, [pc, #84]	; (8001668 <HAL_GPIO_Init+0x2b0>)
 8001612:	4013      	ands	r3, r2
 8001614:	60cb      	str	r3, [r1, #12]
        }
      }
    }

	position++;
 8001616:	6a7b      	ldr	r3, [r7, #36]	; 0x24
 8001618:	3301      	adds	r3, #1
 800161a:	627b      	str	r3, [r7, #36]	; 0x24
  while (((GPIO_Init->Pin) >> position) != 0x00u)
 800161c:	683b      	ldr	r3, [r7, #0]
 800161e:	681a      	ldr	r2, [r3, #0]
 8001620:	6a7b      	ldr	r3, [r7, #36]	; 0x24
 8001622:	fa22 f303 	lsr.w	r3, r2, r3
 8001626:	2b00      	cmp	r3, #0
 8001628:	f47f aed0 	bne.w	80013cc <HAL_GPIO_Init+0x14>
  }
}
 800162c:	bf00      	nop
 800162e:	372c      	adds	r7, #44	; 0x2c
 8001630:	46bd      	mov	sp, r7
 8001632:	bc80      	pop	{r7}
 8001634:	4770      	bx	lr
 8001636:	bf00      	nop
 8001638:	10210000 	.word	0x10210000
 800163c:	10110000 	.word	0x10110000
 8001640:	10120000 	.word	0x10120000
 8001644:	10310000 	.word	0x10310000
 8001648:	10320000 	.word	0x10320000
 800164c:	10220000 	.word	0x10220000
 8001650:	40021000 	.word	0x40021000
 8001654:	40010000 	.word	0x40010000
 8001658:	40010800 	.word	0x40010800
 800165c:	40010c00 	.word	0x40010c00
 8001660:	40011000 	.word	0x40011000
 8001664:	40011400 	.word	0x40011400
 8001668:	40010400 	.word	0x40010400

0800166c <HAL_GPIO_ReadPin>:
  * @param  GPIO_Pin: specifies the port bit to read.
  *         This parameter can be GPIO_PIN_x where x can be (0..15).
  * @retval The input port pin value.
  */
GPIO_PinState HAL_GPIO_ReadPin(GPIO_TypeDef *GPIOx, uint16_t GPIO_Pin)
{
 800166c:	b480      	push	{r7}
 800166e:	b085      	sub	sp, #20
 8001670:	af00      	add	r7, sp, #0
 8001672:	6078      	str	r0, [r7, #4]
 8001674:	460b      	mov	r3, r1
 8001676:	807b      	strh	r3, [r7, #2]
  GPIO_PinState bitstatus;

  /* Check the parameters */
  assert_param(IS_GPIO_PIN(GPIO_Pin));

  if ((GPIOx->IDR & GPIO_Pin) != (uint32_t)GPIO_PIN_RESET)
 8001678:	687b      	ldr	r3, [r7, #4]
 800167a:	689a      	ldr	r2, [r3, #8]
 800167c:	887b      	ldrh	r3, [r7, #2]
 800167e:	4013      	ands	r3, r2
 8001680:	2b00      	cmp	r3, #0
 8001682:	d002      	beq.n	800168a <HAL_GPIO_ReadPin+0x1e>
  {
    bitstatus = GPIO_PIN_SET;
 8001684:	2301      	movs	r3, #1
 8001686:	73fb      	strb	r3, [r7, #15]
 8001688:	e001      	b.n	800168e <HAL_GPIO_ReadPin+0x22>
  }
  else
  {
    bitstatus = GPIO_PIN_RESET;
 800168a:	2300      	movs	r3, #0
 800168c:	73fb      	strb	r3, [r7, #15]
  }
  return bitstatus;
 800168e:	7bfb      	ldrb	r3, [r7, #15]
}
 8001690:	4618      	mov	r0, r3
 8001692:	3714      	adds	r7, #20
 8001694:	46bd      	mov	sp, r7
 8001696:	bc80      	pop	{r7}
 8001698:	4770      	bx	lr

0800169a <HAL_GPIO_WritePin>:
  *            @arg GPIO_PIN_RESET: to clear the port pin
  *            @arg GPIO_PIN_SET: to set the port pin
  * @retval None
  */
void HAL_GPIO_WritePin(GPIO_TypeDef *GPIOx, uint16_t GPIO_Pin, GPIO_PinState PinState)
{
 800169a:	b480      	push	{r7}
 800169c:	b083      	sub	sp, #12
 800169e:	af00      	add	r7, sp, #0
 80016a0:	6078      	str	r0, [r7, #4]
 80016a2:	460b      	mov	r3, r1
 80016a4:	807b      	strh	r3, [r7, #2]
 80016a6:	4613      	mov	r3, r2
 80016a8:	707b      	strb	r3, [r7, #1]
  /* Check the parameters */
  assert_param(IS_GPIO_PIN(GPIO_Pin));
  assert_param(IS_GPIO_PIN_ACTION(PinState));

  if (PinState != GPIO_PIN_RESET)
 80016aa:	787b      	ldrb	r3, [r7, #1]
 80016ac:	2b00      	cmp	r3, #0
 80016ae:	d003      	beq.n	80016b8 <HAL_GPIO_WritePin+0x1e>
  {
    GPIOx->BSRR = GPIO_Pin;
 80016b0:	887a      	ldrh	r2, [r7, #2]
 80016b2:	687b      	ldr	r3, [r7, #4]
 80016b4:	611a      	str	r2, [r3, #16]
  }
  else
  {
    GPIOx->BSRR = (uint32_t)GPIO_Pin << 16u;
  }
}
 80016b6:	e003      	b.n	80016c0 <HAL_GPIO_WritePin+0x26>
    GPIOx->BSRR = (uint32_t)GPIO_Pin << 16u;
 80016b8:	887b      	ldrh	r3, [r7, #2]
 80016ba:	041a      	lsls	r2, r3, #16
 80016bc:	687b      	ldr	r3, [r7, #4]
 80016be:	611a      	str	r2, [r3, #16]
}
 80016c0:	bf00      	nop
 80016c2:	370c      	adds	r7, #12
 80016c4:	46bd      	mov	sp, r7
 80016c6:	bc80      	pop	{r7}
 80016c8:	4770      	bx	lr

080016ca <HAL_GPIO_TogglePin>:
  * @param  GPIOx: where x can be (A..G depending on device used) to select the GPIO peripheral
  * @param  GPIO_Pin: Specifies the pins to be toggled.
  * @retval None
  */
void HAL_GPIO_TogglePin(GPIO_TypeDef *GPIOx, uint16_t GPIO_Pin)
{
 80016ca:	b480      	push	{r7}
 80016cc:	b085      	sub	sp, #20
 80016ce:	af00      	add	r7, sp, #0
 80016d0:	6078      	str	r0, [r7, #4]
 80016d2:	460b      	mov	r3, r1
 80016d4:	807b      	strh	r3, [r7, #2]

  /* Check the parameters */
  assert_param(IS_GPIO_PIN(GPIO_Pin));

  /* get current Ouput Data Register value */
  odr = GPIOx->ODR;
 80016d6:	687b      	ldr	r3, [r7, #4]
 80016d8:	68db      	ldr	r3, [r3, #12]
 80016da:	60fb      	str	r3, [r7, #12]

  /* Set selected pins that were at low level, and reset ones that were high */
  GPIOx->BSRR = ((odr & GPIO_Pin) << GPIO_NUMBER) | (~odr & GPIO_Pin);
 80016dc:	887a      	ldrh	r2, [r7, #2]
 80016de:	68fb      	ldr	r3, [r7, #12]
 80016e0:	4013      	ands	r3, r2
 80016e2:	041a      	lsls	r2, r3, #16
 80016e4:	68fb      	ldr	r3, [r7, #12]
 80016e6:	43d9      	mvns	r1, r3
 80016e8:	887b      	ldrh	r3, [r7, #2]
 80016ea:	400b      	ands	r3, r1
 80016ec:	431a      	orrs	r2, r3
 80016ee:	687b      	ldr	r3, [r7, #4]
 80016f0:	611a      	str	r2, [r3, #16]
}
 80016f2:	bf00      	nop
 80016f4:	3714      	adds	r7, #20
 80016f6:	46bd      	mov	sp, r7
 80016f8:	bc80      	pop	{r7}
 80016fa:	4770      	bx	lr

080016fc <HAL_RCC_OscConfig>:
  *         supported by this macro. User should request a transition to HSE Off
  *         first and then HSE On or HSE Bypass.
  * @retval HAL status
  */
HAL_StatusTypeDef HAL_RCC_OscConfig(RCC_OscInitTypeDef  *RCC_OscInitStruct)
{
 80016fc:	b580      	push	{r7, lr}
 80016fe:	b086      	sub	sp, #24
 8001700:	af00      	add	r7, sp, #0
 8001702:	6078      	str	r0, [r7, #4]
  uint32_t tickstart;
  uint32_t pll_config;

  /* Check Null pointer */
  if (RCC_OscInitStruct == NULL)
 8001704:	687b      	ldr	r3, [r7, #4]
 8001706:	2b00      	cmp	r3, #0
 8001708:	d101      	bne.n	800170e <HAL_RCC_OscConfig+0x12>
  {
    return HAL_ERROR;
 800170a:	2301      	movs	r3, #1
 800170c:	e26c      	b.n	8001be8 <HAL_RCC_OscConfig+0x4ec>

  /* Check the parameters */
  assert_param(IS_RCC_OSCILLATORTYPE(RCC_OscInitStruct->OscillatorType));

  /*------------------------------- HSE Configuration ------------------------*/
  if (((RCC_OscInitStruct->OscillatorType) & RCC_OSCILLATORTYPE_HSE) == RCC_OSCILLATORTYPE_HSE)
 800170e:	687b      	ldr	r3, [r7, #4]
 8001710:	681b      	ldr	r3, [r3, #0]
 8001712:	f003 0301 	and.w	r3, r3, #1
 8001716:	2b00      	cmp	r3, #0
 8001718:	f000 8087 	beq.w	800182a <HAL_RCC_OscConfig+0x12e>
  {
    /* Check the parameters */
    assert_param(IS_RCC_HSE(RCC_OscInitStruct->HSEState));

    /* When the HSE is used as system clock or clock source for PLL in these cases it is not allowed to be disabled */
    if ((__HAL_RCC_GET_SYSCLK_SOURCE() == RCC_SYSCLKSOURCE_STATUS_HSE)
 800171c:	4b92      	ldr	r3, [pc, #584]	; (8001968 <HAL_RCC_OscConfig+0x26c>)
 800171e:	685b      	ldr	r3, [r3, #4]
 8001720:	f003 030c 	and.w	r3, r3, #12
 8001724:	2b04      	cmp	r3, #4
 8001726:	d00c      	beq.n	8001742 <HAL_RCC_OscConfig+0x46>
        || ((__HAL_RCC_GET_SYSCLK_SOURCE() == RCC_SYSCLKSOURCE_STATUS_PLLCLK) && (__HAL_RCC_GET_PLL_OSCSOURCE() == RCC_PLLSOURCE_HSE)))
 8001728:	4b8f      	ldr	r3, [pc, #572]	; (8001968 <HAL_RCC_OscConfig+0x26c>)
 800172a:	685b      	ldr	r3, [r3, #4]
 800172c:	f003 030c 	and.w	r3, r3, #12
 8001730:	2b08      	cmp	r3, #8
 8001732:	d112      	bne.n	800175a <HAL_RCC_OscConfig+0x5e>
 8001734:	4b8c      	ldr	r3, [pc, #560]	; (8001968 <HAL_RCC_OscConfig+0x26c>)
 8001736:	685b      	ldr	r3, [r3, #4]
 8001738:	f403 3380 	and.w	r3, r3, #65536	; 0x10000
 800173c:	f5b3 3f80 	cmp.w	r3, #65536	; 0x10000
 8001740:	d10b      	bne.n	800175a <HAL_RCC_OscConfig+0x5e>
    {
      if ((__HAL_RCC_GET_FLAG(RCC_FLAG_HSERDY) != RESET) && (RCC_OscInitStruct->HSEState == RCC_HSE_OFF))
 8001742:	4b89      	ldr	r3, [pc, #548]	; (8001968 <HAL_RCC_OscConfig+0x26c>)
 8001744:	681b      	ldr	r3, [r3, #0]
 8001746:	f403 3300 	and.w	r3, r3, #131072	; 0x20000
 800174a:	2b00      	cmp	r3, #0
 800174c:	d06c      	beq.n	8001828 <HAL_RCC_OscConfig+0x12c>
 800174e:	687b      	ldr	r3, [r7, #4]
 8001750:	685b      	ldr	r3, [r3, #4]
 8001752:	2b00      	cmp	r3, #0
 8001754:	d168      	bne.n	8001828 <HAL_RCC_OscConfig+0x12c>
      {
        return HAL_ERROR;
 8001756:	2301      	movs	r3, #1
 8001758:	e246      	b.n	8001be8 <HAL_RCC_OscConfig+0x4ec>
      }
    }
    else
    {
      /* Set the new HSE configuration ---------------------------------------*/
      __HAL_RCC_HSE_CONFIG(RCC_OscInitStruct->HSEState);
 800175a:	687b      	ldr	r3, [r7, #4]
 800175c:	685b      	ldr	r3, [r3, #4]
 800175e:	f5b3 3f80 	cmp.w	r3, #65536	; 0x10000
 8001762:	d106      	bne.n	8001772 <HAL_RCC_OscConfig+0x76>
 8001764:	4b80      	ldr	r3, [pc, #512]	; (8001968 <HAL_RCC_OscConfig+0x26c>)
 8001766:	681b      	ldr	r3, [r3, #0]
 8001768:	4a7f      	ldr	r2, [pc, #508]	; (8001968 <HAL_RCC_OscConfig+0x26c>)
 800176a:	f443 3380 	orr.w	r3, r3, #65536	; 0x10000
 800176e:	6013      	str	r3, [r2, #0]
 8001770:	e02e      	b.n	80017d0 <HAL_RCC_OscConfig+0xd4>
 8001772:	687b      	ldr	r3, [r7, #4]
 8001774:	685b      	ldr	r3, [r3, #4]
 8001776:	2b00      	cmp	r3, #0
 8001778:	d10c      	bne.n	8001794 <HAL_RCC_OscConfig+0x98>
 800177a:	4b7b      	ldr	r3, [pc, #492]	; (8001968 <HAL_RCC_OscConfig+0x26c>)
 800177c:	681b      	ldr	r3, [r3, #0]
 800177e:	4a7a      	ldr	r2, [pc, #488]	; (8001968 <HAL_RCC_OscConfig+0x26c>)
 8001780:	f423 3380 	bic.w	r3, r3, #65536	; 0x10000
 8001784:	6013      	str	r3, [r2, #0]
 8001786:	4b78      	ldr	r3, [pc, #480]	; (8001968 <HAL_RCC_OscConfig+0x26c>)
 8001788:	681b      	ldr	r3, [r3, #0]
 800178a:	4a77      	ldr	r2, [pc, #476]	; (8001968 <HAL_RCC_OscConfig+0x26c>)
 800178c:	f423 2380 	bic.w	r3, r3, #262144	; 0x40000
 8001790:	6013      	str	r3, [r2, #0]
 8001792:	e01d      	b.n	80017d0 <HAL_RCC_OscConfig+0xd4>
 8001794:	687b      	ldr	r3, [r7, #4]
 8001796:	685b      	ldr	r3, [r3, #4]
 8001798:	f5b3 2fa0 	cmp.w	r3, #327680	; 0x50000
 800179c:	d10c      	bne.n	80017b8 <HAL_RCC_OscConfig+0xbc>
 800179e:	4b72      	ldr	r3, [pc, #456]	; (8001968 <HAL_RCC_OscConfig+0x26c>)
 80017a0:	681b      	ldr	r3, [r3, #0]
 80017a2:	4a71      	ldr	r2, [pc, #452]	; (8001968 <HAL_RCC_OscConfig+0x26c>)
 80017a4:	f443 2380 	orr.w	r3, r3, #262144	; 0x40000
 80017a8:	6013      	str	r3, [r2, #0]
 80017aa:	4b6f      	ldr	r3, [pc, #444]	; (8001968 <HAL_RCC_OscConfig+0x26c>)
 80017ac:	681b      	ldr	r3, [r3, #0]
 80017ae:	4a6e      	ldr	r2, [pc, #440]	; (8001968 <HAL_RCC_OscConfig+0x26c>)
 80017b0:	f443 3380 	orr.w	r3, r3, #65536	; 0x10000
 80017b4:	6013      	str	r3, [r2, #0]
 80017b6:	e00b      	b.n	80017d0 <HAL_RCC_OscConfig+0xd4>
 80017b8:	4b6b      	ldr	r3, [pc, #428]	; (8001968 <HAL_RCC_OscConfig+0x26c>)
 80017ba:	681b      	ldr	r3, [r3, #0]
 80017bc:	4a6a      	ldr	r2, [pc, #424]	; (8001968 <HAL_RCC_OscConfig+0x26c>)
 80017be:	f423 3380 	bic.w	r3, r3, #65536	; 0x10000
 80017c2:	6013      	str	r3, [r2, #0]
 80017c4:	4b68      	ldr	r3, [pc, #416]	; (8001968 <HAL_RCC_OscConfig+0x26c>)
 80017c6:	681b      	ldr	r3, [r3, #0]
 80017c8:	4a67      	ldr	r2, [pc, #412]	; (8001968 <HAL_RCC_OscConfig+0x26c>)
 80017ca:	f423 2380 	bic.w	r3, r3, #262144	; 0x40000
 80017ce:	6013      	str	r3, [r2, #0]


      /* Check the HSE State */
      if (RCC_OscInitStruct->HSEState != RCC_HSE_OFF)
 80017d0:	687b      	ldr	r3, [r7, #4]
 80017d2:	685b      	ldr	r3, [r3, #4]
 80017d4:	2b00      	cmp	r3, #0
 80017d6:	d013      	beq.n	8001800 <HAL_RCC_OscConfig+0x104>
      {
        /* Get Start Tick */
        tickstart = HAL_GetTick();
 80017d8:	f7ff fb3e 	bl	8000e58 <HAL_GetTick>
 80017dc:	6138      	str	r0, [r7, #16]

        /* Wait till HSE is ready */
        while (__HAL_RCC_GET_FLAG(RCC_FLAG_HSERDY) == RESET)
 80017de:	e008      	b.n	80017f2 <HAL_RCC_OscConfig+0xf6>
        {
          if ((HAL_GetTick() - tickstart) > HSE_TIMEOUT_VALUE)
 80017e0:	f7ff fb3a 	bl	8000e58 <HAL_GetTick>
 80017e4:	4602      	mov	r2, r0
 80017e6:	693b      	ldr	r3, [r7, #16]
 80017e8:	1ad3      	subs	r3, r2, r3
 80017ea:	2b64      	cmp	r3, #100	; 0x64
 80017ec:	d901      	bls.n	80017f2 <HAL_RCC_OscConfig+0xf6>
          {
            return HAL_TIMEOUT;
 80017ee:	2303      	movs	r3, #3
 80017f0:	e1fa      	b.n	8001be8 <HAL_RCC_OscConfig+0x4ec>
        while (__HAL_RCC_GET_FLAG(RCC_FLAG_HSERDY) == RESET)
 80017f2:	4b5d      	ldr	r3, [pc, #372]	; (8001968 <HAL_RCC_OscConfig+0x26c>)
 80017f4:	681b      	ldr	r3, [r3, #0]
 80017f6:	f403 3300 	and.w	r3, r3, #131072	; 0x20000
 80017fa:	2b00      	cmp	r3, #0
 80017fc:	d0f0      	beq.n	80017e0 <HAL_RCC_OscConfig+0xe4>
 80017fe:	e014      	b.n	800182a <HAL_RCC_OscConfig+0x12e>
        }
      }
      else
      {
        /* Get Start Tick */
        tickstart = HAL_GetTick();
 8001800:	f7ff fb2a 	bl	8000e58 <HAL_GetTick>
 8001804:	6138      	str	r0, [r7, #16]

        /* Wait till HSE is disabled */
        while (__HAL_RCC_GET_FLAG(RCC_FLAG_HSERDY) != RESET)
 8001806:	e008      	b.n	800181a <HAL_RCC_OscConfig+0x11e>
        {
          if ((HAL_GetTick() - tickstart) > HSE_TIMEOUT_VALUE)
 8001808:	f7ff fb26 	bl	8000e58 <HAL_GetTick>
 800180c:	4602      	mov	r2, r0
 800180e:	693b      	ldr	r3, [r7, #16]
 8001810:	1ad3      	subs	r3, r2, r3
 8001812:	2b64      	cmp	r3, #100	; 0x64
 8001814:	d901      	bls.n	800181a <HAL_RCC_OscConfig+0x11e>
          {
            return HAL_TIMEOUT;
 8001816:	2303      	movs	r3, #3
 8001818:	e1e6      	b.n	8001be8 <HAL_RCC_OscConfig+0x4ec>
        while (__HAL_RCC_GET_FLAG(RCC_FLAG_HSERDY) != RESET)
 800181a:	4b53      	ldr	r3, [pc, #332]	; (8001968 <HAL_RCC_OscConfig+0x26c>)
 800181c:	681b      	ldr	r3, [r3, #0]
 800181e:	f403 3300 	and.w	r3, r3, #131072	; 0x20000
 8001822:	2b00      	cmp	r3, #0
 8001824:	d1f0      	bne.n	8001808 <HAL_RCC_OscConfig+0x10c>
 8001826:	e000      	b.n	800182a <HAL_RCC_OscConfig+0x12e>
      if ((__HAL_RCC_GET_FLAG(RCC_FLAG_HSERDY) != RESET) && (RCC_OscInitStruct->HSEState == RCC_HSE_OFF))
 8001828:	bf00      	nop
        }
      }
    }
  }
  /*----------------------------- HSI Configuration --------------------------*/
  if (((RCC_OscInitStruct->OscillatorType) & RCC_OSCILLATORTYPE_HSI) == RCC_OSCILLATORTYPE_HSI)
 800182a:	687b      	ldr	r3, [r7, #4]
 800182c:	681b      	ldr	r3, [r3, #0]
 800182e:	f003 0302 	and.w	r3, r3, #2
 8001832:	2b00      	cmp	r3, #0
 8001834:	d063      	beq.n	80018fe <HAL_RCC_OscConfig+0x202>
    /* Check the parameters */
    assert_param(IS_RCC_HSI(RCC_OscInitStruct->HSIState));
    assert_param(IS_RCC_CALIBRATION_VALUE(RCC_OscInitStruct->HSICalibrationValue));

    /* Check if HSI is used as system clock or as PLL source when PLL is selected as system clock */
    if ((__HAL_RCC_GET_SYSCLK_SOURCE() == RCC_SYSCLKSOURCE_STATUS_HSI)
 8001836:	4b4c      	ldr	r3, [pc, #304]	; (8001968 <HAL_RCC_OscConfig+0x26c>)
 8001838:	685b      	ldr	r3, [r3, #4]
 800183a:	f003 030c 	and.w	r3, r3, #12
 800183e:	2b00      	cmp	r3, #0
 8001840:	d00b      	beq.n	800185a <HAL_RCC_OscConfig+0x15e>
        || ((__HAL_RCC_GET_SYSCLK_SOURCE() == RCC_SYSCLKSOURCE_STATUS_PLLCLK) && (__HAL_RCC_GET_PLL_OSCSOURCE() == RCC_PLLSOURCE_HSI_DIV2)))
 8001842:	4b49      	ldr	r3, [pc, #292]	; (8001968 <HAL_RCC_OscConfig+0x26c>)
 8001844:	685b      	ldr	r3, [r3, #4]
 8001846:	f003 030c 	and.w	r3, r3, #12
 800184a:	2b08      	cmp	r3, #8
 800184c:	d11c      	bne.n	8001888 <HAL_RCC_OscConfig+0x18c>
 800184e:	4b46      	ldr	r3, [pc, #280]	; (8001968 <HAL_RCC_OscConfig+0x26c>)
 8001850:	685b      	ldr	r3, [r3, #4]
 8001852:	f403 3380 	and.w	r3, r3, #65536	; 0x10000
 8001856:	2b00      	cmp	r3, #0
 8001858:	d116      	bne.n	8001888 <HAL_RCC_OscConfig+0x18c>
    {
      /* When HSI is used as system clock it will not disabled */
      if ((__HAL_RCC_GET_FLAG(RCC_FLAG_HSIRDY) != RESET) && (RCC_OscInitStruct->HSIState != RCC_HSI_ON))
 800185a:	4b43      	ldr	r3, [pc, #268]	; (8001968 <HAL_RCC_OscConfig+0x26c>)
 800185c:	681b      	ldr	r3, [r3, #0]
 800185e:	f003 0302 	and.w	r3, r3, #2
 8001862:	2b00      	cmp	r3, #0
 8001864:	d005      	beq.n	8001872 <HAL_RCC_OscConfig+0x176>
 8001866:	687b      	ldr	r3, [r7, #4]
 8001868:	691b      	ldr	r3, [r3, #16]
 800186a:	2b01      	cmp	r3, #1
 800186c:	d001      	beq.n	8001872 <HAL_RCC_OscConfig+0x176>
      {
        return HAL_ERROR;
 800186e:	2301      	movs	r3, #1
 8001870:	e1ba      	b.n	8001be8 <HAL_RCC_OscConfig+0x4ec>
      }
      /* Otherwise, just the calibration is allowed */
      else
      {
        /* Adjusts the Internal High Speed oscillator (HSI) calibration value.*/
        __HAL_RCC_HSI_CALIBRATIONVALUE_ADJUST(RCC_OscInitStruct->HSICalibrationValue);
 8001872:	4b3d      	ldr	r3, [pc, #244]	; (8001968 <HAL_RCC_OscConfig+0x26c>)
 8001874:	681b      	ldr	r3, [r3, #0]
 8001876:	f023 02f8 	bic.w	r2, r3, #248	; 0xf8
 800187a:	687b      	ldr	r3, [r7, #4]
 800187c:	695b      	ldr	r3, [r3, #20]
 800187e:	00db      	lsls	r3, r3, #3
 8001880:	4939      	ldr	r1, [pc, #228]	; (8001968 <HAL_RCC_OscConfig+0x26c>)
 8001882:	4313      	orrs	r3, r2
 8001884:	600b      	str	r3, [r1, #0]
      if ((__HAL_RCC_GET_FLAG(RCC_FLAG_HSIRDY) != RESET) && (RCC_OscInitStruct->HSIState != RCC_HSI_ON))
 8001886:	e03a      	b.n	80018fe <HAL_RCC_OscConfig+0x202>
      }
    }
    else
    {
      /* Check the HSI State */
      if (RCC_OscInitStruct->HSIState != RCC_HSI_OFF)
 8001888:	687b      	ldr	r3, [r7, #4]
 800188a:	691b      	ldr	r3, [r3, #16]
 800188c:	2b00      	cmp	r3, #0
 800188e:	d020      	beq.n	80018d2 <HAL_RCC_OscConfig+0x1d6>
      {
        /* Enable the Internal High Speed oscillator (HSI). */
        __HAL_RCC_HSI_ENABLE();
 8001890:	4b36      	ldr	r3, [pc, #216]	; (800196c <HAL_RCC_OscConfig+0x270>)
 8001892:	2201      	movs	r2, #1
 8001894:	601a      	str	r2, [r3, #0]

        /* Get Start Tick */
        tickstart = HAL_GetTick();
 8001896:	f7ff fadf 	bl	8000e58 <HAL_GetTick>
 800189a:	6138      	str	r0, [r7, #16]

        /* Wait till HSI is ready */
        while (__HAL_RCC_GET_FLAG(RCC_FLAG_HSIRDY) == RESET)
 800189c:	e008      	b.n	80018b0 <HAL_RCC_OscConfig+0x1b4>
        {
          if ((HAL_GetTick() - tickstart) > HSI_TIMEOUT_VALUE)
 800189e:	f7ff fadb 	bl	8000e58 <HAL_GetTick>
 80018a2:	4602      	mov	r2, r0
 80018a4:	693b      	ldr	r3, [r7, #16]
 80018a6:	1ad3      	subs	r3, r2, r3
 80018a8:	2b02      	cmp	r3, #2
 80018aa:	d901      	bls.n	80018b0 <HAL_RCC_OscConfig+0x1b4>
          {
            return HAL_TIMEOUT;
 80018ac:	2303      	movs	r3, #3
 80018ae:	e19b      	b.n	8001be8 <HAL_RCC_OscConfig+0x4ec>
        while (__HAL_RCC_GET_FLAG(RCC_FLAG_HSIRDY) == RESET)
 80018b0:	4b2d      	ldr	r3, [pc, #180]	; (8001968 <HAL_RCC_OscConfig+0x26c>)
 80018b2:	681b      	ldr	r3, [r3, #0]
 80018b4:	f003 0302 	and.w	r3, r3, #2
 80018b8:	2b00      	cmp	r3, #0
 80018ba:	d0f0      	beq.n	800189e <HAL_RCC_OscConfig+0x1a2>
          }
        }

        /* Adjusts the Internal High Speed oscillator (HSI) calibration value.*/
        __HAL_RCC_HSI_CALIBRATIONVALUE_ADJUST(RCC_OscInitStruct->HSICalibrationValue);
 80018bc:	4b2a      	ldr	r3, [pc, #168]	; (8001968 <HAL_RCC_OscConfig+0x26c>)
 80018be:	681b      	ldr	r3, [r3, #0]
 80018c0:	f023 02f8 	bic.w	r2, r3, #248	; 0xf8
 80018c4:	687b      	ldr	r3, [r7, #4]
 80018c6:	695b      	ldr	r3, [r3, #20]
 80018c8:	00db      	lsls	r3, r3, #3
 80018ca:	4927      	ldr	r1, [pc, #156]	; (8001968 <HAL_RCC_OscConfig+0x26c>)
 80018cc:	4313      	orrs	r3, r2
 80018ce:	600b      	str	r3, [r1, #0]
 80018d0:	e015      	b.n	80018fe <HAL_RCC_OscConfig+0x202>
      }
      else
      {
        /* Disable the Internal High Speed oscillator (HSI). */
        __HAL_RCC_HSI_DISABLE();
 80018d2:	4b26      	ldr	r3, [pc, #152]	; (800196c <HAL_RCC_OscConfig+0x270>)
 80018d4:	2200      	movs	r2, #0
 80018d6:	601a      	str	r2, [r3, #0]

        /* Get Start Tick */
        tickstart = HAL_GetTick();
 80018d8:	f7ff fabe 	bl	8000e58 <HAL_GetTick>
 80018dc:	6138      	str	r0, [r7, #16]

        /* Wait till HSI is disabled */
        while (__HAL_RCC_GET_FLAG(RCC_FLAG_HSIRDY) != RESET)
 80018de:	e008      	b.n	80018f2 <HAL_RCC_OscConfig+0x1f6>
        {
          if ((HAL_GetTick() - tickstart) > HSI_TIMEOUT_VALUE)
 80018e0:	f7ff faba 	bl	8000e58 <HAL_GetTick>
 80018e4:	4602      	mov	r2, r0
 80018e6:	693b      	ldr	r3, [r7, #16]
 80018e8:	1ad3      	subs	r3, r2, r3
 80018ea:	2b02      	cmp	r3, #2
 80018ec:	d901      	bls.n	80018f2 <HAL_RCC_OscConfig+0x1f6>
          {
            return HAL_TIMEOUT;
 80018ee:	2303      	movs	r3, #3
 80018f0:	e17a      	b.n	8001be8 <HAL_RCC_OscConfig+0x4ec>
        while (__HAL_RCC_GET_FLAG(RCC_FLAG_HSIRDY) != RESET)
 80018f2:	4b1d      	ldr	r3, [pc, #116]	; (8001968 <HAL_RCC_OscConfig+0x26c>)
 80018f4:	681b      	ldr	r3, [r3, #0]
 80018f6:	f003 0302 	and.w	r3, r3, #2
 80018fa:	2b00      	cmp	r3, #0
 80018fc:	d1f0      	bne.n	80018e0 <HAL_RCC_OscConfig+0x1e4>
        }
      }
    }
  }
  /*------------------------------ LSI Configuration -------------------------*/
  if (((RCC_OscInitStruct->OscillatorType) & RCC_OSCILLATORTYPE_LSI) == RCC_OSCILLATORTYPE_LSI)
 80018fe:	687b      	ldr	r3, [r7, #4]
 8001900:	681b      	ldr	r3, [r3, #0]
 8001902:	f003 0308 	and.w	r3, r3, #8
 8001906:	2b00      	cmp	r3, #0
 8001908:	d03a      	beq.n	8001980 <HAL_RCC_OscConfig+0x284>
  {
    /* Check the parameters */
    assert_param(IS_RCC_LSI(RCC_OscInitStruct->LSIState));

    /* Check the LSI State */
    if (RCC_OscInitStruct->LSIState != RCC_LSI_OFF)
 800190a:	687b      	ldr	r3, [r7, #4]
 800190c:	699b      	ldr	r3, [r3, #24]
 800190e:	2b00      	cmp	r3, #0
 8001910:	d019      	beq.n	8001946 <HAL_RCC_OscConfig+0x24a>
    {
      /* Enable the Internal Low Speed oscillator (LSI). */
      __HAL_RCC_LSI_ENABLE();
 8001912:	4b17      	ldr	r3, [pc, #92]	; (8001970 <HAL_RCC_OscConfig+0x274>)
 8001914:	2201      	movs	r2, #1
 8001916:	601a      	str	r2, [r3, #0]

      /* Get Start Tick */
      tickstart = HAL_GetTick();
 8001918:	f7ff fa9e 	bl	8000e58 <HAL_GetTick>
 800191c:	6138      	str	r0, [r7, #16]

      /* Wait till LSI is ready */
      while (__HAL_RCC_GET_FLAG(RCC_FLAG_LSIRDY) == RESET)
 800191e:	e008      	b.n	8001932 <HAL_RCC_OscConfig+0x236>
      {
        if ((HAL_GetTick() - tickstart) > LSI_TIMEOUT_VALUE)
 8001920:	f7ff fa9a 	bl	8000e58 <HAL_GetTick>
 8001924:	4602      	mov	r2, r0
 8001926:	693b      	ldr	r3, [r7, #16]
 8001928:	1ad3      	subs	r3, r2, r3
 800192a:	2b02      	cmp	r3, #2
 800192c:	d901      	bls.n	8001932 <HAL_RCC_OscConfig+0x236>
        {
          return HAL_TIMEOUT;
 800192e:	2303      	movs	r3, #3
 8001930:	e15a      	b.n	8001be8 <HAL_RCC_OscConfig+0x4ec>
      while (__HAL_RCC_GET_FLAG(RCC_FLAG_LSIRDY) == RESET)
 8001932:	4b0d      	ldr	r3, [pc, #52]	; (8001968 <HAL_RCC_OscConfig+0x26c>)
 8001934:	6a5b      	ldr	r3, [r3, #36]	; 0x24
 8001936:	f003 0302 	and.w	r3, r3, #2
 800193a:	2b00      	cmp	r3, #0
 800193c:	d0f0      	beq.n	8001920 <HAL_RCC_OscConfig+0x224>
        }
      }
      /*  To have a fully stabilized clock in the specified range, a software delay of 1ms
          should be added.*/
      RCC_Delay(1);
 800193e:	2001      	movs	r0, #1
 8001940:	f000 fada 	bl	8001ef8 <RCC_Delay>
 8001944:	e01c      	b.n	8001980 <HAL_RCC_OscConfig+0x284>
    }
    else
    {
      /* Disable the Internal Low Speed oscillator (LSI). */
      __HAL_RCC_LSI_DISABLE();
 8001946:	4b0a      	ldr	r3, [pc, #40]	; (8001970 <HAL_RCC_OscConfig+0x274>)
 8001948:	2200      	movs	r2, #0
 800194a:	601a      	str	r2, [r3, #0]

      /* Get Start Tick */
      tickstart = HAL_GetTick();
 800194c:	f7ff fa84 	bl	8000e58 <HAL_GetTick>
 8001950:	6138      	str	r0, [r7, #16]

      /* Wait till LSI is disabled */
      while (__HAL_RCC_GET_FLAG(RCC_FLAG_LSIRDY) != RESET)
 8001952:	e00f      	b.n	8001974 <HAL_RCC_OscConfig+0x278>
      {
        if ((HAL_GetTick() - tickstart) > LSI_TIMEOUT_VALUE)
 8001954:	f7ff fa80 	bl	8000e58 <HAL_GetTick>
 8001958:	4602      	mov	r2, r0
 800195a:	693b      	ldr	r3, [r7, #16]
 800195c:	1ad3      	subs	r3, r2, r3
 800195e:	2b02      	cmp	r3, #2
 8001960:	d908      	bls.n	8001974 <HAL_RCC_OscConfig+0x278>
        {
          return HAL_TIMEOUT;
 8001962:	2303      	movs	r3, #3
 8001964:	e140      	b.n	8001be8 <HAL_RCC_OscConfig+0x4ec>
 8001966:	bf00      	nop
 8001968:	40021000 	.word	0x40021000
 800196c:	42420000 	.word	0x42420000
 8001970:	42420480 	.word	0x42420480
      while (__HAL_RCC_GET_FLAG(RCC_FLAG_LSIRDY) != RESET)
 8001974:	4b9e      	ldr	r3, [pc, #632]	; (8001bf0 <HAL_RCC_OscConfig+0x4f4>)
 8001976:	6a5b      	ldr	r3, [r3, #36]	; 0x24
 8001978:	f003 0302 	and.w	r3, r3, #2
 800197c:	2b00      	cmp	r3, #0
 800197e:	d1e9      	bne.n	8001954 <HAL_RCC_OscConfig+0x258>
        }
      }
    }
  }
  /*------------------------------ LSE Configuration -------------------------*/
  if (((RCC_OscInitStruct->OscillatorType) & RCC_OSCILLATORTYPE_LSE) == RCC_OSCILLATORTYPE_LSE)
 8001980:	687b      	ldr	r3, [r7, #4]
 8001982:	681b      	ldr	r3, [r3, #0]
 8001984:	f003 0304 	and.w	r3, r3, #4
 8001988:	2b00      	cmp	r3, #0
 800198a:	f000 80a6 	beq.w	8001ada <HAL_RCC_OscConfig+0x3de>
  {
    FlagStatus       pwrclkchanged = RESET;
 800198e:	2300      	movs	r3, #0
 8001990:	75fb      	strb	r3, [r7, #23]
    /* Check the parameters */
    assert_param(IS_RCC_LSE(RCC_OscInitStruct->LSEState));

    /* Update LSE configuration in Backup Domain control register    */
    /* Requires to enable write access to Backup Domain of necessary */
    if (__HAL_RCC_PWR_IS_CLK_DISABLED())
 8001992:	4b97      	ldr	r3, [pc, #604]	; (8001bf0 <HAL_RCC_OscConfig+0x4f4>)
 8001994:	69db      	ldr	r3, [r3, #28]
 8001996:	f003 5380 	and.w	r3, r3, #268435456	; 0x10000000
 800199a:	2b00      	cmp	r3, #0
 800199c:	d10d      	bne.n	80019ba <HAL_RCC_OscConfig+0x2be>
    {
      __HAL_RCC_PWR_CLK_ENABLE();
 800199e:	4b94      	ldr	r3, [pc, #592]	; (8001bf0 <HAL_RCC_OscConfig+0x4f4>)
 80019a0:	69db      	ldr	r3, [r3, #28]
 80019a2:	4a93      	ldr	r2, [pc, #588]	; (8001bf0 <HAL_RCC_OscConfig+0x4f4>)
 80019a4:	f043 5380 	orr.w	r3, r3, #268435456	; 0x10000000
 80019a8:	61d3      	str	r3, [r2, #28]
 80019aa:	4b91      	ldr	r3, [pc, #580]	; (8001bf0 <HAL_RCC_OscConfig+0x4f4>)
 80019ac:	69db      	ldr	r3, [r3, #28]
 80019ae:	f003 5380 	and.w	r3, r3, #268435456	; 0x10000000
 80019b2:	60bb      	str	r3, [r7, #8]
 80019b4:	68bb      	ldr	r3, [r7, #8]
      pwrclkchanged = SET;
 80019b6:	2301      	movs	r3, #1
 80019b8:	75fb      	strb	r3, [r7, #23]
    }

    if (HAL_IS_BIT_CLR(PWR->CR, PWR_CR_DBP))
 80019ba:	4b8e      	ldr	r3, [pc, #568]	; (8001bf4 <HAL_RCC_OscConfig+0x4f8>)
 80019bc:	681b      	ldr	r3, [r3, #0]
 80019be:	f403 7380 	and.w	r3, r3, #256	; 0x100
 80019c2:	2b00      	cmp	r3, #0
 80019c4:	d118      	bne.n	80019f8 <HAL_RCC_OscConfig+0x2fc>
    {
      /* Enable write access to Backup domain */
      SET_BIT(PWR->CR, PWR_CR_DBP);
 80019c6:	4b8b      	ldr	r3, [pc, #556]	; (8001bf4 <HAL_RCC_OscConfig+0x4f8>)
 80019c8:	681b      	ldr	r3, [r3, #0]
 80019ca:	4a8a      	ldr	r2, [pc, #552]	; (8001bf4 <HAL_RCC_OscConfig+0x4f8>)
 80019cc:	f443 7380 	orr.w	r3, r3, #256	; 0x100
 80019d0:	6013      	str	r3, [r2, #0]

      /* Wait for Backup domain Write protection disable */
      tickstart = HAL_GetTick();
 80019d2:	f7ff fa41 	bl	8000e58 <HAL_GetTick>
 80019d6:	6138      	str	r0, [r7, #16]

      while (HAL_IS_BIT_CLR(PWR->CR, PWR_CR_DBP))
 80019d8:	e008      	b.n	80019ec <HAL_RCC_OscConfig+0x2f0>
      {
        if ((HAL_GetTick() - tickstart) > RCC_DBP_TIMEOUT_VALUE)
 80019da:	f7ff fa3d 	bl	8000e58 <HAL_GetTick>
 80019de:	4602      	mov	r2, r0
 80019e0:	693b      	ldr	r3, [r7, #16]
 80019e2:	1ad3      	subs	r3, r2, r3
 80019e4:	2b64      	cmp	r3, #100	; 0x64
 80019e6:	d901      	bls.n	80019ec <HAL_RCC_OscConfig+0x2f0>
        {
          return HAL_TIMEOUT;
 80019e8:	2303      	movs	r3, #3
 80019ea:	e0fd      	b.n	8001be8 <HAL_RCC_OscConfig+0x4ec>
      while (HAL_IS_BIT_CLR(PWR->CR, PWR_CR_DBP))
 80019ec:	4b81      	ldr	r3, [pc, #516]	; (8001bf4 <HAL_RCC_OscConfig+0x4f8>)
 80019ee:	681b      	ldr	r3, [r3, #0]
 80019f0:	f403 7380 	and.w	r3, r3, #256	; 0x100
 80019f4:	2b00      	cmp	r3, #0
 80019f6:	d0f0      	beq.n	80019da <HAL_RCC_OscConfig+0x2de>
        }
      }
    }

    /* Set the new LSE configuration -----------------------------------------*/
    __HAL_RCC_LSE_CONFIG(RCC_OscInitStruct->LSEState);
 80019f8:	687b      	ldr	r3, [r7, #4]
 80019fa:	68db      	ldr	r3, [r3, #12]
 80019fc:	2b01      	cmp	r3, #1
 80019fe:	d106      	bne.n	8001a0e <HAL_RCC_OscConfig+0x312>
 8001a00:	4b7b      	ldr	r3, [pc, #492]	; (8001bf0 <HAL_RCC_OscConfig+0x4f4>)
 8001a02:	6a1b      	ldr	r3, [r3, #32]
 8001a04:	4a7a      	ldr	r2, [pc, #488]	; (8001bf0 <HAL_RCC_OscConfig+0x4f4>)
 8001a06:	f043 0301 	orr.w	r3, r3, #1
 8001a0a:	6213      	str	r3, [r2, #32]
 8001a0c:	e02d      	b.n	8001a6a <HAL_RCC_OscConfig+0x36e>
 8001a0e:	687b      	ldr	r3, [r7, #4]
 8001a10:	68db      	ldr	r3, [r3, #12]
 8001a12:	2b00      	cmp	r3, #0
 8001a14:	d10c      	bne.n	8001a30 <HAL_RCC_OscConfig+0x334>
 8001a16:	4b76      	ldr	r3, [pc, #472]	; (8001bf0 <HAL_RCC_OscConfig+0x4f4>)
 8001a18:	6a1b      	ldr	r3, [r3, #32]
 8001a1a:	4a75      	ldr	r2, [pc, #468]	; (8001bf0 <HAL_RCC_OscConfig+0x4f4>)
 8001a1c:	f023 0301 	bic.w	r3, r3, #1
 8001a20:	6213      	str	r3, [r2, #32]
 8001a22:	4b73      	ldr	r3, [pc, #460]	; (8001bf0 <HAL_RCC_OscConfig+0x4f4>)
 8001a24:	6a1b      	ldr	r3, [r3, #32]
 8001a26:	4a72      	ldr	r2, [pc, #456]	; (8001bf0 <HAL_RCC_OscConfig+0x4f4>)
 8001a28:	f023 0304 	bic.w	r3, r3, #4
 8001a2c:	6213      	str	r3, [r2, #32]
 8001a2e:	e01c      	b.n	8001a6a <HAL_RCC_OscConfig+0x36e>
 8001a30:	687b      	ldr	r3, [r7, #4]
 8001a32:	68db      	ldr	r3, [r3, #12]
 8001a34:	2b05      	cmp	r3, #5
 8001a36:	d10c      	bne.n	8001a52 <HAL_RCC_OscConfig+0x356>
 8001a38:	4b6d      	ldr	r3, [pc, #436]	; (8001bf0 <HAL_RCC_OscConfig+0x4f4>)
 8001a3a:	6a1b      	ldr	r3, [r3, #32]
 8001a3c:	4a6c      	ldr	r2, [pc, #432]	; (8001bf0 <HAL_RCC_OscConfig+0x4f4>)
 8001a3e:	f043 0304 	orr.w	r3, r3, #4
 8001a42:	6213      	str	r3, [r2, #32]
 8001a44:	4b6a      	ldr	r3, [pc, #424]	; (8001bf0 <HAL_RCC_OscConfig+0x4f4>)
 8001a46:	6a1b      	ldr	r3, [r3, #32]
 8001a48:	4a69      	ldr	r2, [pc, #420]	; (8001bf0 <HAL_RCC_OscConfig+0x4f4>)
 8001a4a:	f043 0301 	orr.w	r3, r3, #1
 8001a4e:	6213      	str	r3, [r2, #32]
 8001a50:	e00b      	b.n	8001a6a <HAL_RCC_OscConfig+0x36e>
 8001a52:	4b67      	ldr	r3, [pc, #412]	; (8001bf0 <HAL_RCC_OscConfig+0x4f4>)
 8001a54:	6a1b      	ldr	r3, [r3, #32]
 8001a56:	4a66      	ldr	r2, [pc, #408]	; (8001bf0 <HAL_RCC_OscConfig+0x4f4>)
 8001a58:	f023 0301 	bic.w	r3, r3, #1
 8001a5c:	6213      	str	r3, [r2, #32]
 8001a5e:	4b64      	ldr	r3, [pc, #400]	; (8001bf0 <HAL_RCC_OscConfig+0x4f4>)
 8001a60:	6a1b      	ldr	r3, [r3, #32]
 8001a62:	4a63      	ldr	r2, [pc, #396]	; (8001bf0 <HAL_RCC_OscConfig+0x4f4>)
 8001a64:	f023 0304 	bic.w	r3, r3, #4
 8001a68:	6213      	str	r3, [r2, #32]
    /* Check the LSE State */
    if (RCC_OscInitStruct->LSEState != RCC_LSE_OFF)
 8001a6a:	687b      	ldr	r3, [r7, #4]
 8001a6c:	68db      	ldr	r3, [r3, #12]
 8001a6e:	2b00      	cmp	r3, #0
 8001a70:	d015      	beq.n	8001a9e <HAL_RCC_OscConfig+0x3a2>
    {
      /* Get Start Tick */
      tickstart = HAL_GetTick();
 8001a72:	f7ff f9f1 	bl	8000e58 <HAL_GetTick>
 8001a76:	6138      	str	r0, [r7, #16]

      /* Wait till LSE is ready */
      while (__HAL_RCC_GET_FLAG(RCC_FLAG_LSERDY) == RESET)
 8001a78:	e00a      	b.n	8001a90 <HAL_RCC_OscConfig+0x394>
      {
        if ((HAL_GetTick() - tickstart) > RCC_LSE_TIMEOUT_VALUE)
 8001a7a:	f7ff f9ed 	bl	8000e58 <HAL_GetTick>
 8001a7e:	4602      	mov	r2, r0
 8001a80:	693b      	ldr	r3, [r7, #16]
 8001a82:	1ad3      	subs	r3, r2, r3
 8001a84:	f241 3288 	movw	r2, #5000	; 0x1388
 8001a88:	4293      	cmp	r3, r2
 8001a8a:	d901      	bls.n	8001a90 <HAL_RCC_OscConfig+0x394>
        {
          return HAL_TIMEOUT;
 8001a8c:	2303      	movs	r3, #3
 8001a8e:	e0ab      	b.n	8001be8 <HAL_RCC_OscConfig+0x4ec>
      while (__HAL_RCC_GET_FLAG(RCC_FLAG_LSERDY) == RESET)
 8001a90:	4b57      	ldr	r3, [pc, #348]	; (8001bf0 <HAL_RCC_OscConfig+0x4f4>)
 8001a92:	6a1b      	ldr	r3, [r3, #32]
 8001a94:	f003 0302 	and.w	r3, r3, #2
 8001a98:	2b00      	cmp	r3, #0
 8001a9a:	d0ee      	beq.n	8001a7a <HAL_RCC_OscConfig+0x37e>
 8001a9c:	e014      	b.n	8001ac8 <HAL_RCC_OscConfig+0x3cc>
      }
    }
    else
    {
      /* Get Start Tick */
      tickstart = HAL_GetTick();
 8001a9e:	f7ff f9db 	bl	8000e58 <HAL_GetTick>
 8001aa2:	6138      	str	r0, [r7, #16]

      /* Wait till LSE is disabled */
      while (__HAL_RCC_GET_FLAG(RCC_FLAG_LSERDY) != RESET)
 8001aa4:	e00a      	b.n	8001abc <HAL_RCC_OscConfig+0x3c0>
      {
        if ((HAL_GetTick() - tickstart) > RCC_LSE_TIMEOUT_VALUE)
 8001aa6:	f7ff f9d7 	bl	8000e58 <HAL_GetTick>
 8001aaa:	4602      	mov	r2, r0
 8001aac:	693b      	ldr	r3, [r7, #16]
 8001aae:	1ad3      	subs	r3, r2, r3
 8001ab0:	f241 3288 	movw	r2, #5000	; 0x1388
 8001ab4:	4293      	cmp	r3, r2
 8001ab6:	d901      	bls.n	8001abc <HAL_RCC_OscConfig+0x3c0>
        {
          return HAL_TIMEOUT;
 8001ab8:	2303      	movs	r3, #3
 8001aba:	e095      	b.n	8001be8 <HAL_RCC_OscConfig+0x4ec>
      while (__HAL_RCC_GET_FLAG(RCC_FLAG_LSERDY) != RESET)
 8001abc:	4b4c      	ldr	r3, [pc, #304]	; (8001bf0 <HAL_RCC_OscConfig+0x4f4>)
 8001abe:	6a1b      	ldr	r3, [r3, #32]
 8001ac0:	f003 0302 	and.w	r3, r3, #2
 8001ac4:	2b00      	cmp	r3, #0
 8001ac6:	d1ee      	bne.n	8001aa6 <HAL_RCC_OscConfig+0x3aa>
        }
      }
    }

    /* Require to disable power clock if necessary */
    if (pwrclkchanged == SET)
 8001ac8:	7dfb      	ldrb	r3, [r7, #23]
 8001aca:	2b01      	cmp	r3, #1
 8001acc:	d105      	bne.n	8001ada <HAL_RCC_OscConfig+0x3de>
    {
      __HAL_RCC_PWR_CLK_DISABLE();
 8001ace:	4b48      	ldr	r3, [pc, #288]	; (8001bf0 <HAL_RCC_OscConfig+0x4f4>)
 8001ad0:	69db      	ldr	r3, [r3, #28]
 8001ad2:	4a47      	ldr	r2, [pc, #284]	; (8001bf0 <HAL_RCC_OscConfig+0x4f4>)
 8001ad4:	f023 5380 	bic.w	r3, r3, #268435456	; 0x10000000
 8001ad8:	61d3      	str	r3, [r2, #28]

#endif /* RCC_CR_PLL2ON */
  /*-------------------------------- PLL Configuration -----------------------*/
  /* Check the parameters */
  assert_param(IS_RCC_PLL(RCC_OscInitStruct->PLL.PLLState));
  if ((RCC_OscInitStruct->PLL.PLLState) != RCC_PLL_NONE)
 8001ada:	687b      	ldr	r3, [r7, #4]
 8001adc:	69db      	ldr	r3, [r3, #28]
 8001ade:	2b00      	cmp	r3, #0
 8001ae0:	f000 8081 	beq.w	8001be6 <HAL_RCC_OscConfig+0x4ea>
  {
    /* Check if the PLL is used as system clock or not */
    if (__HAL_RCC_GET_SYSCLK_SOURCE() != RCC_SYSCLKSOURCE_STATUS_PLLCLK)
 8001ae4:	4b42      	ldr	r3, [pc, #264]	; (8001bf0 <HAL_RCC_OscConfig+0x4f4>)
 8001ae6:	685b      	ldr	r3, [r3, #4]
 8001ae8:	f003 030c 	and.w	r3, r3, #12
 8001aec:	2b08      	cmp	r3, #8
 8001aee:	d061      	beq.n	8001bb4 <HAL_RCC_OscConfig+0x4b8>
    {
      if ((RCC_OscInitStruct->PLL.PLLState) == RCC_PLL_ON)
 8001af0:	687b      	ldr	r3, [r7, #4]
 8001af2:	69db      	ldr	r3, [r3, #28]
 8001af4:	2b02      	cmp	r3, #2
 8001af6:	d146      	bne.n	8001b86 <HAL_RCC_OscConfig+0x48a>
        /* Check the parameters */
        assert_param(IS_RCC_PLLSOURCE(RCC_OscInitStruct->PLL.PLLSource));
        assert_param(IS_RCC_PLL_MUL(RCC_OscInitStruct->PLL.PLLMUL));

        /* Disable the main PLL. */
        __HAL_RCC_PLL_DISABLE();
 8001af8:	4b3f      	ldr	r3, [pc, #252]	; (8001bf8 <HAL_RCC_OscConfig+0x4fc>)
 8001afa:	2200      	movs	r2, #0
 8001afc:	601a      	str	r2, [r3, #0]

        /* Get Start Tick */
        tickstart = HAL_GetTick();
 8001afe:	f7ff f9ab 	bl	8000e58 <HAL_GetTick>
 8001b02:	6138      	str	r0, [r7, #16]

        /* Wait till PLL is disabled */
        while (__HAL_RCC_GET_FLAG(RCC_FLAG_PLLRDY)  != RESET)
 8001b04:	e008      	b.n	8001b18 <HAL_RCC_OscConfig+0x41c>
        {
          if ((HAL_GetTick() - tickstart) > PLL_TIMEOUT_VALUE)
 8001b06:	f7ff f9a7 	bl	8000e58 <HAL_GetTick>
 8001b0a:	4602      	mov	r2, r0
 8001b0c:	693b      	ldr	r3, [r7, #16]
 8001b0e:	1ad3      	subs	r3, r2, r3
 8001b10:	2b02      	cmp	r3, #2
 8001b12:	d901      	bls.n	8001b18 <HAL_RCC_OscConfig+0x41c>
          {
            return HAL_TIMEOUT;
 8001b14:	2303      	movs	r3, #3
 8001b16:	e067      	b.n	8001be8 <HAL_RCC_OscConfig+0x4ec>
        while (__HAL_RCC_GET_FLAG(RCC_FLAG_PLLRDY)  != RESET)
 8001b18:	4b35      	ldr	r3, [pc, #212]	; (8001bf0 <HAL_RCC_OscConfig+0x4f4>)
 8001b1a:	681b      	ldr	r3, [r3, #0]
 8001b1c:	f003 7300 	and.w	r3, r3, #33554432	; 0x2000000
 8001b20:	2b00      	cmp	r3, #0
 8001b22:	d1f0      	bne.n	8001b06 <HAL_RCC_OscConfig+0x40a>
          }
        }

        /* Configure the HSE prediv factor --------------------------------*/
        /* It can be written only when the PLL is disabled. Not used in PLL source is different than HSE */
        if (RCC_OscInitStruct->PLL.PLLSource == RCC_PLLSOURCE_HSE)
 8001b24:	687b      	ldr	r3, [r7, #4]
 8001b26:	6a1b      	ldr	r3, [r3, #32]
 8001b28:	f5b3 3f80 	cmp.w	r3, #65536	; 0x10000
 8001b2c:	d108      	bne.n	8001b40 <HAL_RCC_OscConfig+0x444>
          /* Set PREDIV1 source */
          SET_BIT(RCC->CFGR2, RCC_OscInitStruct->Prediv1Source);
#endif /* RCC_CFGR2_PREDIV1SRC */

          /* Set PREDIV1 Value */
          __HAL_RCC_HSE_PREDIV_CONFIG(RCC_OscInitStruct->HSEPredivValue);
 8001b2e:	4b30      	ldr	r3, [pc, #192]	; (8001bf0 <HAL_RCC_OscConfig+0x4f4>)
 8001b30:	685b      	ldr	r3, [r3, #4]
 8001b32:	f423 3200 	bic.w	r2, r3, #131072	; 0x20000
 8001b36:	687b      	ldr	r3, [r7, #4]
 8001b38:	689b      	ldr	r3, [r3, #8]
 8001b3a:	492d      	ldr	r1, [pc, #180]	; (8001bf0 <HAL_RCC_OscConfig+0x4f4>)
 8001b3c:	4313      	orrs	r3, r2
 8001b3e:	604b      	str	r3, [r1, #4]
        }

        /* Configure the main PLL clock source and multiplication factors. */
        __HAL_RCC_PLL_CONFIG(RCC_OscInitStruct->PLL.PLLSource,
 8001b40:	4b2b      	ldr	r3, [pc, #172]	; (8001bf0 <HAL_RCC_OscConfig+0x4f4>)
 8001b42:	685b      	ldr	r3, [r3, #4]
 8001b44:	f423 1274 	bic.w	r2, r3, #3997696	; 0x3d0000
 8001b48:	687b      	ldr	r3, [r7, #4]
 8001b4a:	6a19      	ldr	r1, [r3, #32]
 8001b4c:	687b      	ldr	r3, [r7, #4]
 8001b4e:	6a5b      	ldr	r3, [r3, #36]	; 0x24
 8001b50:	430b      	orrs	r3, r1
 8001b52:	4927      	ldr	r1, [pc, #156]	; (8001bf0 <HAL_RCC_OscConfig+0x4f4>)
 8001b54:	4313      	orrs	r3, r2
 8001b56:	604b      	str	r3, [r1, #4]
                             RCC_OscInitStruct->PLL.PLLMUL);
        /* Enable the main PLL. */
        __HAL_RCC_PLL_ENABLE();
 8001b58:	4b27      	ldr	r3, [pc, #156]	; (8001bf8 <HAL_RCC_OscConfig+0x4fc>)
 8001b5a:	2201      	movs	r2, #1
 8001b5c:	601a      	str	r2, [r3, #0]

        /* Get Start Tick */
        tickstart = HAL_GetTick();
 8001b5e:	f7ff f97b 	bl	8000e58 <HAL_GetTick>
 8001b62:	6138      	str	r0, [r7, #16]

        /* Wait till PLL is ready */
        while (__HAL_RCC_GET_FLAG(RCC_FLAG_PLLRDY)  == RESET)
 8001b64:	e008      	b.n	8001b78 <HAL_RCC_OscConfig+0x47c>
        {
          if ((HAL_GetTick() - tickstart) > PLL_TIMEOUT_VALUE)
 8001b66:	f7ff f977 	bl	8000e58 <HAL_GetTick>
 8001b6a:	4602      	mov	r2, r0
 8001b6c:	693b      	ldr	r3, [r7, #16]
 8001b6e:	1ad3      	subs	r3, r2, r3
 8001b70:	2b02      	cmp	r3, #2
 8001b72:	d901      	bls.n	8001b78 <HAL_RCC_OscConfig+0x47c>
          {
            return HAL_TIMEOUT;
 8001b74:	2303      	movs	r3, #3
 8001b76:	e037      	b.n	8001be8 <HAL_RCC_OscConfig+0x4ec>
        while (__HAL_RCC_GET_FLAG(RCC_FLAG_PLLRDY)  == RESET)
 8001b78:	4b1d      	ldr	r3, [pc, #116]	; (8001bf0 <HAL_RCC_OscConfig+0x4f4>)
 8001b7a:	681b      	ldr	r3, [r3, #0]
 8001b7c:	f003 7300 	and.w	r3, r3, #33554432	; 0x2000000
 8001b80:	2b00      	cmp	r3, #0
 8001b82:	d0f0      	beq.n	8001b66 <HAL_RCC_OscConfig+0x46a>
 8001b84:	e02f      	b.n	8001be6 <HAL_RCC_OscConfig+0x4ea>
        }
      }
      else
      {
        /* Disable the main PLL. */
        __HAL_RCC_PLL_DISABLE();
 8001b86:	4b1c      	ldr	r3, [pc, #112]	; (8001bf8 <HAL_RCC_OscConfig+0x4fc>)
 8001b88:	2200      	movs	r2, #0
 8001b8a:	601a      	str	r2, [r3, #0]

        /* Get Start Tick */
        tickstart = HAL_GetTick();
 8001b8c:	f7ff f964 	bl	8000e58 <HAL_GetTick>
 8001b90:	6138      	str	r0, [r7, #16]

        /* Wait till PLL is disabled */
        while (__HAL_RCC_GET_FLAG(RCC_FLAG_PLLRDY)  != RESET)
 8001b92:	e008      	b.n	8001ba6 <HAL_RCC_OscConfig+0x4aa>
        {
          if ((HAL_GetTick() - tickstart) > PLL_TIMEOUT_VALUE)
 8001b94:	f7ff f960 	bl	8000e58 <HAL_GetTick>
 8001b98:	4602      	mov	r2, r0
 8001b9a:	693b      	ldr	r3, [r7, #16]
 8001b9c:	1ad3      	subs	r3, r2, r3
 8001b9e:	2b02      	cmp	r3, #2
 8001ba0:	d901      	bls.n	8001ba6 <HAL_RCC_OscConfig+0x4aa>
          {
            return HAL_TIMEOUT;
 8001ba2:	2303      	movs	r3, #3
 8001ba4:	e020      	b.n	8001be8 <HAL_RCC_OscConfig+0x4ec>
        while (__HAL_RCC_GET_FLAG(RCC_FLAG_PLLRDY)  != RESET)
 8001ba6:	4b12      	ldr	r3, [pc, #72]	; (8001bf0 <HAL_RCC_OscConfig+0x4f4>)
 8001ba8:	681b      	ldr	r3, [r3, #0]
 8001baa:	f003 7300 	and.w	r3, r3, #33554432	; 0x2000000
 8001bae:	2b00      	cmp	r3, #0
 8001bb0:	d1f0      	bne.n	8001b94 <HAL_RCC_OscConfig+0x498>
 8001bb2:	e018      	b.n	8001be6 <HAL_RCC_OscConfig+0x4ea>
      }
    }
    else
    {
      /* Check if there is a request to disable the PLL used as System clock source */
      if ((RCC_OscInitStruct->PLL.PLLState) == RCC_PLL_OFF)
 8001bb4:	687b      	ldr	r3, [r7, #4]
 8001bb6:	69db      	ldr	r3, [r3, #28]
 8001bb8:	2b01      	cmp	r3, #1
 8001bba:	d101      	bne.n	8001bc0 <HAL_RCC_OscConfig+0x4c4>
      {
        return HAL_ERROR;
 8001bbc:	2301      	movs	r3, #1
 8001bbe:	e013      	b.n	8001be8 <HAL_RCC_OscConfig+0x4ec>
      }
      else
      {
        /* Do not return HAL_ERROR if request repeats the current configuration */
        pll_config = RCC->CFGR;
 8001bc0:	4b0b      	ldr	r3, [pc, #44]	; (8001bf0 <HAL_RCC_OscConfig+0x4f4>)
 8001bc2:	685b      	ldr	r3, [r3, #4]
 8001bc4:	60fb      	str	r3, [r7, #12]
        if ((READ_BIT(pll_config, RCC_CFGR_PLLSRC) != RCC_OscInitStruct->PLL.PLLSource) ||
 8001bc6:	68fb      	ldr	r3, [r7, #12]
 8001bc8:	f403 3280 	and.w	r2, r3, #65536	; 0x10000
 8001bcc:	687b      	ldr	r3, [r7, #4]
 8001bce:	6a1b      	ldr	r3, [r3, #32]
 8001bd0:	429a      	cmp	r2, r3
 8001bd2:	d106      	bne.n	8001be2 <HAL_RCC_OscConfig+0x4e6>
            (READ_BIT(pll_config, RCC_CFGR_PLLMULL) != RCC_OscInitStruct->PLL.PLLMUL))
 8001bd4:	68fb      	ldr	r3, [r7, #12]
 8001bd6:	f403 1270 	and.w	r2, r3, #3932160	; 0x3c0000
 8001bda:	687b      	ldr	r3, [r7, #4]
 8001bdc:	6a5b      	ldr	r3, [r3, #36]	; 0x24
        if ((READ_BIT(pll_config, RCC_CFGR_PLLSRC) != RCC_OscInitStruct->PLL.PLLSource) ||
 8001bde:	429a      	cmp	r2, r3
 8001be0:	d001      	beq.n	8001be6 <HAL_RCC_OscConfig+0x4ea>
        {
          return HAL_ERROR;
 8001be2:	2301      	movs	r3, #1
 8001be4:	e000      	b.n	8001be8 <HAL_RCC_OscConfig+0x4ec>
        }
      }
    }
  }

  return HAL_OK;
 8001be6:	2300      	movs	r3, #0
}
 8001be8:	4618      	mov	r0, r3
 8001bea:	3718      	adds	r7, #24
 8001bec:	46bd      	mov	sp, r7
 8001bee:	bd80      	pop	{r7, pc}
 8001bf0:	40021000 	.word	0x40021000
 8001bf4:	40007000 	.word	0x40007000
 8001bf8:	42420060 	.word	0x42420060

08001bfc <HAL_RCC_ClockConfig>:
  *         You can use @ref HAL_RCC_GetClockConfig() function to know which clock is
  *         currently used as system clock source.
  * @retval HAL status
  */
HAL_StatusTypeDef HAL_RCC_ClockConfig(RCC_ClkInitTypeDef  *RCC_ClkInitStruct, uint32_t FLatency)
{
 8001bfc:	b580      	push	{r7, lr}
 8001bfe:	b084      	sub	sp, #16
 8001c00:	af00      	add	r7, sp, #0
 8001c02:	6078      	str	r0, [r7, #4]
 8001c04:	6039      	str	r1, [r7, #0]
  uint32_t tickstart;

  /* Check Null pointer */
  if (RCC_ClkInitStruct == NULL)
 8001c06:	687b      	ldr	r3, [r7, #4]
 8001c08:	2b00      	cmp	r3, #0
 8001c0a:	d101      	bne.n	8001c10 <HAL_RCC_ClockConfig+0x14>
  {
    return HAL_ERROR;
 8001c0c:	2301      	movs	r3, #1
 8001c0e:	e0d0      	b.n	8001db2 <HAL_RCC_ClockConfig+0x1b6>
  must be correctly programmed according to the frequency of the CPU clock
    (HCLK) of the device. */

#if defined(FLASH_ACR_LATENCY)
  /* Increasing the number of wait states because of higher CPU frequency */
  if (FLatency > __HAL_FLASH_GET_LATENCY())
 8001c10:	4b6a      	ldr	r3, [pc, #424]	; (8001dbc <HAL_RCC_ClockConfig+0x1c0>)
 8001c12:	681b      	ldr	r3, [r3, #0]
 8001c14:	f003 0307 	and.w	r3, r3, #7
 8001c18:	683a      	ldr	r2, [r7, #0]
 8001c1a:	429a      	cmp	r2, r3
 8001c1c:	d910      	bls.n	8001c40 <HAL_RCC_ClockConfig+0x44>
  {
    /* Program the new number of wait states to the LATENCY bits in the FLASH_ACR register */
    __HAL_FLASH_SET_LATENCY(FLatency);
 8001c1e:	4b67      	ldr	r3, [pc, #412]	; (8001dbc <HAL_RCC_ClockConfig+0x1c0>)
 8001c20:	681b      	ldr	r3, [r3, #0]
 8001c22:	f023 0207 	bic.w	r2, r3, #7
 8001c26:	4965      	ldr	r1, [pc, #404]	; (8001dbc <HAL_RCC_ClockConfig+0x1c0>)
 8001c28:	683b      	ldr	r3, [r7, #0]
 8001c2a:	4313      	orrs	r3, r2
 8001c2c:	600b      	str	r3, [r1, #0]

    /* Check that the new number of wait states is taken into account to access the Flash
    memory by reading the FLASH_ACR register */
    if (__HAL_FLASH_GET_LATENCY() != FLatency)
 8001c2e:	4b63      	ldr	r3, [pc, #396]	; (8001dbc <HAL_RCC_ClockConfig+0x1c0>)
 8001c30:	681b      	ldr	r3, [r3, #0]
 8001c32:	f003 0307 	and.w	r3, r3, #7
 8001c36:	683a      	ldr	r2, [r7, #0]
 8001c38:	429a      	cmp	r2, r3
 8001c3a:	d001      	beq.n	8001c40 <HAL_RCC_ClockConfig+0x44>
  {
    return HAL_ERROR;
 8001c3c:	2301      	movs	r3, #1
 8001c3e:	e0b8      	b.n	8001db2 <HAL_RCC_ClockConfig+0x1b6>
  }
}

#endif /* FLASH_ACR_LATENCY */
/*-------------------------- HCLK Configuration --------------------------*/
if (((RCC_ClkInitStruct->ClockType) & RCC_CLOCKTYPE_HCLK) == RCC_CLOCKTYPE_HCLK)
 8001c40:	687b      	ldr	r3, [r7, #4]
 8001c42:	681b      	ldr	r3, [r3, #0]
 8001c44:	f003 0302 	and.w	r3, r3, #2
 8001c48:	2b00      	cmp	r3, #0
 8001c4a:	d020      	beq.n	8001c8e <HAL_RCC_ClockConfig+0x92>
  {
    /* Set the highest APBx dividers in order to ensure that we do not go through
    a non-spec phase whatever we decrease or increase HCLK. */
    if (((RCC_ClkInitStruct->ClockType) & RCC_CLOCKTYPE_PCLK1) == RCC_CLOCKTYPE_PCLK1)
 8001c4c:	687b      	ldr	r3, [r7, #4]
 8001c4e:	681b      	ldr	r3, [r3, #0]
 8001c50:	f003 0304 	and.w	r3, r3, #4
 8001c54:	2b00      	cmp	r3, #0
 8001c56:	d005      	beq.n	8001c64 <HAL_RCC_ClockConfig+0x68>
    {
      MODIFY_REG(RCC->CFGR, RCC_CFGR_PPRE1, RCC_HCLK_DIV16);
 8001c58:	4b59      	ldr	r3, [pc, #356]	; (8001dc0 <HAL_RCC_ClockConfig+0x1c4>)
 8001c5a:	685b      	ldr	r3, [r3, #4]
 8001c5c:	4a58      	ldr	r2, [pc, #352]	; (8001dc0 <HAL_RCC_ClockConfig+0x1c4>)
 8001c5e:	f443 63e0 	orr.w	r3, r3, #1792	; 0x700
 8001c62:	6053      	str	r3, [r2, #4]
    }

    if (((RCC_ClkInitStruct->ClockType) & RCC_CLOCKTYPE_PCLK2) == RCC_CLOCKTYPE_PCLK2)
 8001c64:	687b      	ldr	r3, [r7, #4]
 8001c66:	681b      	ldr	r3, [r3, #0]
 8001c68:	f003 0308 	and.w	r3, r3, #8
 8001c6c:	2b00      	cmp	r3, #0
 8001c6e:	d005      	beq.n	8001c7c <HAL_RCC_ClockConfig+0x80>
    {
      MODIFY_REG(RCC->CFGR, RCC_CFGR_PPRE2, (RCC_HCLK_DIV16 << 3));
 8001c70:	4b53      	ldr	r3, [pc, #332]	; (8001dc0 <HAL_RCC_ClockConfig+0x1c4>)
 8001c72:	685b      	ldr	r3, [r3, #4]
 8001c74:	4a52      	ldr	r2, [pc, #328]	; (8001dc0 <HAL_RCC_ClockConfig+0x1c4>)
 8001c76:	f443 5360 	orr.w	r3, r3, #14336	; 0x3800
 8001c7a:	6053      	str	r3, [r2, #4]
    }

    /* Set the new HCLK clock divider */
    assert_param(IS_RCC_HCLK(RCC_ClkInitStruct->AHBCLKDivider));
    MODIFY_REG(RCC->CFGR, RCC_CFGR_HPRE, RCC_ClkInitStruct->AHBCLKDivider);
 8001c7c:	4b50      	ldr	r3, [pc, #320]	; (8001dc0 <HAL_RCC_ClockConfig+0x1c4>)
 8001c7e:	685b      	ldr	r3, [r3, #4]
 8001c80:	f023 02f0 	bic.w	r2, r3, #240	; 0xf0
 8001c84:	687b      	ldr	r3, [r7, #4]
 8001c86:	689b      	ldr	r3, [r3, #8]
 8001c88:	494d      	ldr	r1, [pc, #308]	; (8001dc0 <HAL_RCC_ClockConfig+0x1c4>)
 8001c8a:	4313      	orrs	r3, r2
 8001c8c:	604b      	str	r3, [r1, #4]
  }

  /*------------------------- SYSCLK Configuration ---------------------------*/
  if (((RCC_ClkInitStruct->ClockType) & RCC_CLOCKTYPE_SYSCLK) == RCC_CLOCKTYPE_SYSCLK)
 8001c8e:	687b      	ldr	r3, [r7, #4]
 8001c90:	681b      	ldr	r3, [r3, #0]
 8001c92:	f003 0301 	and.w	r3, r3, #1
 8001c96:	2b00      	cmp	r3, #0
 8001c98:	d040      	beq.n	8001d1c <HAL_RCC_ClockConfig+0x120>
  {
    assert_param(IS_RCC_SYSCLKSOURCE(RCC_ClkInitStruct->SYSCLKSource));

    /* HSE is selected as System Clock Source */
    if (RCC_ClkInitStruct->SYSCLKSource == RCC_SYSCLKSOURCE_HSE)
 8001c9a:	687b      	ldr	r3, [r7, #4]
 8001c9c:	685b      	ldr	r3, [r3, #4]
 8001c9e:	2b01      	cmp	r3, #1
 8001ca0:	d107      	bne.n	8001cb2 <HAL_RCC_ClockConfig+0xb6>
    {
      /* Check the HSE ready flag */
      if (__HAL_RCC_GET_FLAG(RCC_FLAG_HSERDY) == RESET)
 8001ca2:	4b47      	ldr	r3, [pc, #284]	; (8001dc0 <HAL_RCC_ClockConfig+0x1c4>)
 8001ca4:	681b      	ldr	r3, [r3, #0]
 8001ca6:	f403 3300 	and.w	r3, r3, #131072	; 0x20000
 8001caa:	2b00      	cmp	r3, #0
 8001cac:	d115      	bne.n	8001cda <HAL_RCC_ClockConfig+0xde>
      {
        return HAL_ERROR;
 8001cae:	2301      	movs	r3, #1
 8001cb0:	e07f      	b.n	8001db2 <HAL_RCC_ClockConfig+0x1b6>
      }
    }
    /* PLL is selected as System Clock Source */
    else if (RCC_ClkInitStruct->SYSCLKSource == RCC_SYSCLKSOURCE_PLLCLK)
 8001cb2:	687b      	ldr	r3, [r7, #4]
 8001cb4:	685b      	ldr	r3, [r3, #4]
 8001cb6:	2b02      	cmp	r3, #2
 8001cb8:	d107      	bne.n	8001cca <HAL_RCC_ClockConfig+0xce>
    {
      /* Check the PLL ready flag */
      if (__HAL_RCC_GET_FLAG(RCC_FLAG_PLLRDY) == RESET)
 8001cba:	4b41      	ldr	r3, [pc, #260]	; (8001dc0 <HAL_RCC_ClockConfig+0x1c4>)
 8001cbc:	681b      	ldr	r3, [r3, #0]
 8001cbe:	f003 7300 	and.w	r3, r3, #33554432	; 0x2000000
 8001cc2:	2b00      	cmp	r3, #0
 8001cc4:	d109      	bne.n	8001cda <HAL_RCC_ClockConfig+0xde>
      {
        return HAL_ERROR;
 8001cc6:	2301      	movs	r3, #1
 8001cc8:	e073      	b.n	8001db2 <HAL_RCC_ClockConfig+0x1b6>
    }
    /* HSI is selected as System Clock Source */
    else
    {
      /* Check the HSI ready flag */
      if (__HAL_RCC_GET_FLAG(RCC_FLAG_HSIRDY) == RESET)
 8001cca:	4b3d      	ldr	r3, [pc, #244]	; (8001dc0 <HAL_RCC_ClockConfig+0x1c4>)
 8001ccc:	681b      	ldr	r3, [r3, #0]
 8001cce:	f003 0302 	and.w	r3, r3, #2
 8001cd2:	2b00      	cmp	r3, #0
 8001cd4:	d101      	bne.n	8001cda <HAL_RCC_ClockConfig+0xde>
      {
        return HAL_ERROR;
 8001cd6:	2301      	movs	r3, #1
 8001cd8:	e06b      	b.n	8001db2 <HAL_RCC_ClockConfig+0x1b6>
      }
    }
    __HAL_RCC_SYSCLK_CONFIG(RCC_ClkInitStruct->SYSCLKSource);
 8001cda:	4b39      	ldr	r3, [pc, #228]	; (8001dc0 <HAL_RCC_ClockConfig+0x1c4>)
 8001cdc:	685b      	ldr	r3, [r3, #4]
 8001cde:	f023 0203 	bic.w	r2, r3, #3
 8001ce2:	687b      	ldr	r3, [r7, #4]
 8001ce4:	685b      	ldr	r3, [r3, #4]
 8001ce6:	4936      	ldr	r1, [pc, #216]	; (8001dc0 <HAL_RCC_ClockConfig+0x1c4>)
 8001ce8:	4313      	orrs	r3, r2
 8001cea:	604b      	str	r3, [r1, #4]

    /* Get Start Tick */
    tickstart = HAL_GetTick();
 8001cec:	f7ff f8b4 	bl	8000e58 <HAL_GetTick>
 8001cf0:	60f8      	str	r0, [r7, #12]

    while (__HAL_RCC_GET_SYSCLK_SOURCE() != (RCC_ClkInitStruct->SYSCLKSource << RCC_CFGR_SWS_Pos))
 8001cf2:	e00a      	b.n	8001d0a <HAL_RCC_ClockConfig+0x10e>
    {
      if ((HAL_GetTick() - tickstart) > CLOCKSWITCH_TIMEOUT_VALUE)
 8001cf4:	f7ff f8b0 	bl	8000e58 <HAL_GetTick>
 8001cf8:	4602      	mov	r2, r0
 8001cfa:	68fb      	ldr	r3, [r7, #12]
 8001cfc:	1ad3      	subs	r3, r2, r3
 8001cfe:	f241 3288 	movw	r2, #5000	; 0x1388
 8001d02:	4293      	cmp	r3, r2
 8001d04:	d901      	bls.n	8001d0a <HAL_RCC_ClockConfig+0x10e>
      {
        return HAL_TIMEOUT;
 8001d06:	2303      	movs	r3, #3
 8001d08:	e053      	b.n	8001db2 <HAL_RCC_ClockConfig+0x1b6>
    while (__HAL_RCC_GET_SYSCLK_SOURCE() != (RCC_ClkInitStruct->SYSCLKSource << RCC_CFGR_SWS_Pos))
 8001d0a:	4b2d      	ldr	r3, [pc, #180]	; (8001dc0 <HAL_RCC_ClockConfig+0x1c4>)
 8001d0c:	685b      	ldr	r3, [r3, #4]
 8001d0e:	f003 020c 	and.w	r2, r3, #12
 8001d12:	687b      	ldr	r3, [r7, #4]
 8001d14:	685b      	ldr	r3, [r3, #4]
 8001d16:	009b      	lsls	r3, r3, #2
 8001d18:	429a      	cmp	r2, r3
 8001d1a:	d1eb      	bne.n	8001cf4 <HAL_RCC_ClockConfig+0xf8>
    }
  }

#if defined(FLASH_ACR_LATENCY)
  /* Decreasing the number of wait states because of lower CPU frequency */
  if (FLatency < __HAL_FLASH_GET_LATENCY())
 8001d1c:	4b27      	ldr	r3, [pc, #156]	; (8001dbc <HAL_RCC_ClockConfig+0x1c0>)
 8001d1e:	681b      	ldr	r3, [r3, #0]
 8001d20:	f003 0307 	and.w	r3, r3, #7
 8001d24:	683a      	ldr	r2, [r7, #0]
 8001d26:	429a      	cmp	r2, r3
 8001d28:	d210      	bcs.n	8001d4c <HAL_RCC_ClockConfig+0x150>
  {
    /* Program the new number of wait states to the LATENCY bits in the FLASH_ACR register */
    __HAL_FLASH_SET_LATENCY(FLatency);
 8001d2a:	4b24      	ldr	r3, [pc, #144]	; (8001dbc <HAL_RCC_ClockConfig+0x1c0>)
 8001d2c:	681b      	ldr	r3, [r3, #0]
 8001d2e:	f023 0207 	bic.w	r2, r3, #7
 8001d32:	4922      	ldr	r1, [pc, #136]	; (8001dbc <HAL_RCC_ClockConfig+0x1c0>)
 8001d34:	683b      	ldr	r3, [r7, #0]
 8001d36:	4313      	orrs	r3, r2
 8001d38:	600b      	str	r3, [r1, #0]

    /* Check that the new number of wait states is taken into account to access the Flash
    memory by reading the FLASH_ACR register */
    if (__HAL_FLASH_GET_LATENCY() != FLatency)
 8001d3a:	4b20      	ldr	r3, [pc, #128]	; (8001dbc <HAL_RCC_ClockConfig+0x1c0>)
 8001d3c:	681b      	ldr	r3, [r3, #0]
 8001d3e:	f003 0307 	and.w	r3, r3, #7
 8001d42:	683a      	ldr	r2, [r7, #0]
 8001d44:	429a      	cmp	r2, r3
 8001d46:	d001      	beq.n	8001d4c <HAL_RCC_ClockConfig+0x150>
  {
    return HAL_ERROR;
 8001d48:	2301      	movs	r3, #1
 8001d4a:	e032      	b.n	8001db2 <HAL_RCC_ClockConfig+0x1b6>
  }
}
#endif /* FLASH_ACR_LATENCY */

/*-------------------------- PCLK1 Configuration ---------------------------*/
if (((RCC_ClkInitStruct->ClockType) & RCC_CLOCKTYPE_PCLK1) == RCC_CLOCKTYPE_PCLK1)
 8001d4c:	687b      	ldr	r3, [r7, #4]
 8001d4e:	681b      	ldr	r3, [r3, #0]
 8001d50:	f003 0304 	and.w	r3, r3, #4
 8001d54:	2b00      	cmp	r3, #0
 8001d56:	d008      	beq.n	8001d6a <HAL_RCC_ClockConfig+0x16e>
  {
    assert_param(IS_RCC_PCLK(RCC_ClkInitStruct->APB1CLKDivider));
    MODIFY_REG(RCC->CFGR, RCC_CFGR_PPRE1, RCC_ClkInitStruct->APB1CLKDivider);
 8001d58:	4b19      	ldr	r3, [pc, #100]	; (8001dc0 <HAL_RCC_ClockConfig+0x1c4>)
 8001d5a:	685b      	ldr	r3, [r3, #4]
 8001d5c:	f423 62e0 	bic.w	r2, r3, #1792	; 0x700
 8001d60:	687b      	ldr	r3, [r7, #4]
 8001d62:	68db      	ldr	r3, [r3, #12]
 8001d64:	4916      	ldr	r1, [pc, #88]	; (8001dc0 <HAL_RCC_ClockConfig+0x1c4>)
 8001d66:	4313      	orrs	r3, r2
 8001d68:	604b      	str	r3, [r1, #4]
  }

  /*-------------------------- PCLK2 Configuration ---------------------------*/
  if (((RCC_ClkInitStruct->ClockType) & RCC_CLOCKTYPE_PCLK2) == RCC_CLOCKTYPE_PCLK2)
 8001d6a:	687b      	ldr	r3, [r7, #4]
 8001d6c:	681b      	ldr	r3, [r3, #0]
 8001d6e:	f003 0308 	and.w	r3, r3, #8
 8001d72:	2b00      	cmp	r3, #0
 8001d74:	d009      	beq.n	8001d8a <HAL_RCC_ClockConfig+0x18e>
  {
    assert_param(IS_RCC_PCLK(RCC_ClkInitStruct->APB2CLKDivider));
    MODIFY_REG(RCC->CFGR, RCC_CFGR_PPRE2, ((RCC_ClkInitStruct->APB2CLKDivider) << 3));
 8001d76:	4b12      	ldr	r3, [pc, #72]	; (8001dc0 <HAL_RCC_ClockConfig+0x1c4>)
 8001d78:	685b      	ldr	r3, [r3, #4]
 8001d7a:	f423 5260 	bic.w	r2, r3, #14336	; 0x3800
 8001d7e:	687b      	ldr	r3, [r7, #4]
 8001d80:	691b      	ldr	r3, [r3, #16]
 8001d82:	00db      	lsls	r3, r3, #3
 8001d84:	490e      	ldr	r1, [pc, #56]	; (8001dc0 <HAL_RCC_ClockConfig+0x1c4>)
 8001d86:	4313      	orrs	r3, r2
 8001d88:	604b      	str	r3, [r1, #4]
  }

  /* Update the SystemCoreClock global variable */
  SystemCoreClock = HAL_RCC_GetSysClockFreq() >> AHBPrescTable[(RCC->CFGR & RCC_CFGR_HPRE) >> RCC_CFGR_HPRE_Pos];
 8001d8a:	f000 f821 	bl	8001dd0 <HAL_RCC_GetSysClockFreq>
 8001d8e:	4601      	mov	r1, r0
 8001d90:	4b0b      	ldr	r3, [pc, #44]	; (8001dc0 <HAL_RCC_ClockConfig+0x1c4>)
 8001d92:	685b      	ldr	r3, [r3, #4]
 8001d94:	091b      	lsrs	r3, r3, #4
 8001d96:	f003 030f 	and.w	r3, r3, #15
 8001d9a:	4a0a      	ldr	r2, [pc, #40]	; (8001dc4 <HAL_RCC_ClockConfig+0x1c8>)
 8001d9c:	5cd3      	ldrb	r3, [r2, r3]
 8001d9e:	fa21 f303 	lsr.w	r3, r1, r3
 8001da2:	4a09      	ldr	r2, [pc, #36]	; (8001dc8 <HAL_RCC_ClockConfig+0x1cc>)
 8001da4:	6013      	str	r3, [r2, #0]

  /* Configure the source of time base considering new system clocks settings*/
  HAL_InitTick(uwTickPrio);
 8001da6:	4b09      	ldr	r3, [pc, #36]	; (8001dcc <HAL_RCC_ClockConfig+0x1d0>)
 8001da8:	681b      	ldr	r3, [r3, #0]
 8001daa:	4618      	mov	r0, r3
 8001dac:	f7ff f812 	bl	8000dd4 <HAL_InitTick>

  return HAL_OK;
 8001db0:	2300      	movs	r3, #0
}
 8001db2:	4618      	mov	r0, r3
 8001db4:	3710      	adds	r7, #16
 8001db6:	46bd      	mov	sp, r7
 8001db8:	bd80      	pop	{r7, pc}
 8001dba:	bf00      	nop
 8001dbc:	40022000 	.word	0x40022000
 8001dc0:	40021000 	.word	0x40021000
 8001dc4:	080032f0 	.word	0x080032f0
 8001dc8:	20000000 	.word	0x20000000
 8001dcc:	20000004 	.word	0x20000004

08001dd0 <HAL_RCC_GetSysClockFreq>:
  *         right SYSCLK value. Otherwise, any configuration based on this function will be incorrect.
  *
  * @retval SYSCLK frequency
  */
uint32_t HAL_RCC_GetSysClockFreq(void)
{
 8001dd0:	b490      	push	{r4, r7}
 8001dd2:	b08a      	sub	sp, #40	; 0x28
 8001dd4:	af00      	add	r7, sp, #0
#if defined(RCC_CFGR2_PREDIV1SRC)
  const uint8_t aPLLMULFactorTable[14] = {0, 0, 4, 5, 6, 7, 8, 9, 0, 0, 0, 0, 0, 13};
  const uint8_t aPredivFactorTable[16] = {1, 2, 3, 4, 5, 6, 7, 8, 9, 10, 11, 12, 13, 14, 15, 16};
#else
  const uint8_t aPLLMULFactorTable[16] = {2, 3, 4, 5, 6, 7, 8, 9, 10, 11, 12, 13, 14, 15, 16, 16};
 8001dd6:	4b2a      	ldr	r3, [pc, #168]	; (8001e80 <HAL_RCC_GetSysClockFreq+0xb0>)
 8001dd8:	1d3c      	adds	r4, r7, #4
 8001dda:	cb0f      	ldmia	r3, {r0, r1, r2, r3}
 8001ddc:	e884 000f 	stmia.w	r4, {r0, r1, r2, r3}
#if defined(RCC_CFGR2_PREDIV1)
  const uint8_t aPredivFactorTable[16] = {1, 2, 3, 4, 5, 6, 7, 8, 9, 10, 11, 12, 13, 14, 15, 16};
#else
  const uint8_t aPredivFactorTable[2] = {1, 2};
 8001de0:	4b28      	ldr	r3, [pc, #160]	; (8001e84 <HAL_RCC_GetSysClockFreq+0xb4>)
 8001de2:	881b      	ldrh	r3, [r3, #0]
 8001de4:	803b      	strh	r3, [r7, #0]
#endif /*RCC_CFGR2_PREDIV1*/

#endif
  uint32_t tmpreg = 0U, prediv = 0U, pllclk = 0U, pllmul = 0U;
 8001de6:	2300      	movs	r3, #0
 8001de8:	61fb      	str	r3, [r7, #28]
 8001dea:	2300      	movs	r3, #0
 8001dec:	61bb      	str	r3, [r7, #24]
 8001dee:	2300      	movs	r3, #0
 8001df0:	627b      	str	r3, [r7, #36]	; 0x24
 8001df2:	2300      	movs	r3, #0
 8001df4:	617b      	str	r3, [r7, #20]
  uint32_t sysclockfreq = 0U;
 8001df6:	2300      	movs	r3, #0
 8001df8:	623b      	str	r3, [r7, #32]
#if defined(RCC_CFGR2_PREDIV1SRC)
  uint32_t prediv2 = 0U, pll2mul = 0U;
#endif /*RCC_CFGR2_PREDIV1SRC*/

  tmpreg = RCC->CFGR;
 8001dfa:	4b23      	ldr	r3, [pc, #140]	; (8001e88 <HAL_RCC_GetSysClockFreq+0xb8>)
 8001dfc:	685b      	ldr	r3, [r3, #4]
 8001dfe:	61fb      	str	r3, [r7, #28]

  /* Get SYSCLK source -------------------------------------------------------*/
  switch (tmpreg & RCC_CFGR_SWS)
 8001e00:	69fb      	ldr	r3, [r7, #28]
 8001e02:	f003 030c 	and.w	r3, r3, #12
 8001e06:	2b04      	cmp	r3, #4
 8001e08:	d002      	beq.n	8001e10 <HAL_RCC_GetSysClockFreq+0x40>
 8001e0a:	2b08      	cmp	r3, #8
 8001e0c:	d003      	beq.n	8001e16 <HAL_RCC_GetSysClockFreq+0x46>
 8001e0e:	e02d      	b.n	8001e6c <HAL_RCC_GetSysClockFreq+0x9c>
  {
    case RCC_SYSCLKSOURCE_STATUS_HSE:  /* HSE used as system clock */
    {
      sysclockfreq = HSE_VALUE;
 8001e10:	4b1e      	ldr	r3, [pc, #120]	; (8001e8c <HAL_RCC_GetSysClockFreq+0xbc>)
 8001e12:	623b      	str	r3, [r7, #32]
      break;
 8001e14:	e02d      	b.n	8001e72 <HAL_RCC_GetSysClockFreq+0xa2>
    }
    case RCC_SYSCLKSOURCE_STATUS_PLLCLK:  /* PLL used as system clock */
    {
      pllmul = aPLLMULFactorTable[(uint32_t)(tmpreg & RCC_CFGR_PLLMULL) >> RCC_CFGR_PLLMULL_Pos];
 8001e16:	69fb      	ldr	r3, [r7, #28]
 8001e18:	0c9b      	lsrs	r3, r3, #18
 8001e1a:	f003 030f 	and.w	r3, r3, #15
 8001e1e:	f107 0228 	add.w	r2, r7, #40	; 0x28
 8001e22:	4413      	add	r3, r2
 8001e24:	f813 3c24 	ldrb.w	r3, [r3, #-36]
 8001e28:	617b      	str	r3, [r7, #20]
      if ((tmpreg & RCC_CFGR_PLLSRC) != RCC_PLLSOURCE_HSI_DIV2)
 8001e2a:	69fb      	ldr	r3, [r7, #28]
 8001e2c:	f403 3380 	and.w	r3, r3, #65536	; 0x10000
 8001e30:	2b00      	cmp	r3, #0
 8001e32:	d013      	beq.n	8001e5c <HAL_RCC_GetSysClockFreq+0x8c>
      {
#if defined(RCC_CFGR2_PREDIV1)
        prediv = aPredivFactorTable[(uint32_t)(RCC->CFGR2 & RCC_CFGR2_PREDIV1) >> RCC_CFGR2_PREDIV1_Pos];
#else
        prediv = aPredivFactorTable[(uint32_t)(RCC->CFGR & RCC_CFGR_PLLXTPRE) >> RCC_CFGR_PLLXTPRE_Pos];
 8001e34:	4b14      	ldr	r3, [pc, #80]	; (8001e88 <HAL_RCC_GetSysClockFreq+0xb8>)
 8001e36:	685b      	ldr	r3, [r3, #4]
 8001e38:	0c5b      	lsrs	r3, r3, #17
 8001e3a:	f003 0301 	and.w	r3, r3, #1
 8001e3e:	f107 0228 	add.w	r2, r7, #40	; 0x28
 8001e42:	4413      	add	r3, r2
 8001e44:	f813 3c28 	ldrb.w	r3, [r3, #-40]
 8001e48:	61bb      	str	r3, [r7, #24]
        {
          pllclk = pllclk / 2;
        }
#else
        /* HSE used as PLL clock source : PLLCLK = HSE/PREDIV1 * PLLMUL */
        pllclk = (uint32_t)((HSE_VALUE  * pllmul) / prediv);
 8001e4a:	697b      	ldr	r3, [r7, #20]
 8001e4c:	4a0f      	ldr	r2, [pc, #60]	; (8001e8c <HAL_RCC_GetSysClockFreq+0xbc>)
 8001e4e:	fb02 f203 	mul.w	r2, r2, r3
 8001e52:	69bb      	ldr	r3, [r7, #24]
 8001e54:	fbb2 f3f3 	udiv	r3, r2, r3
 8001e58:	627b      	str	r3, [r7, #36]	; 0x24
 8001e5a:	e004      	b.n	8001e66 <HAL_RCC_GetSysClockFreq+0x96>
#endif /*RCC_CFGR2_PREDIV1SRC*/
      }
      else
      {
        /* HSI used as PLL clock source : PLLCLK = HSI/2 * PLLMUL */
        pllclk = (uint32_t)((HSI_VALUE >> 1) * pllmul);
 8001e5c:	697b      	ldr	r3, [r7, #20]
 8001e5e:	4a0c      	ldr	r2, [pc, #48]	; (8001e90 <HAL_RCC_GetSysClockFreq+0xc0>)
 8001e60:	fb02 f303 	mul.w	r3, r2, r3
 8001e64:	627b      	str	r3, [r7, #36]	; 0x24
      }
      sysclockfreq = pllclk;
 8001e66:	6a7b      	ldr	r3, [r7, #36]	; 0x24
 8001e68:	623b      	str	r3, [r7, #32]
      break;
 8001e6a:	e002      	b.n	8001e72 <HAL_RCC_GetSysClockFreq+0xa2>
    }
    case RCC_SYSCLKSOURCE_STATUS_HSI:  /* HSI used as system clock source */
    default: /* HSI used as system clock */
    {
      sysclockfreq = HSI_VALUE;
 8001e6c:	4b07      	ldr	r3, [pc, #28]	; (8001e8c <HAL_RCC_GetSysClockFreq+0xbc>)
 8001e6e:	623b      	str	r3, [r7, #32]
      break;
 8001e70:	bf00      	nop
    }
  }
  return sysclockfreq;
 8001e72:	6a3b      	ldr	r3, [r7, #32]
}
 8001e74:	4618      	mov	r0, r3
 8001e76:	3728      	adds	r7, #40	; 0x28
 8001e78:	46bd      	mov	sp, r7
 8001e7a:	bc90      	pop	{r4, r7}
 8001e7c:	4770      	bx	lr
 8001e7e:	bf00      	nop
 8001e80:	080032dc 	.word	0x080032dc
 8001e84:	080032ec 	.word	0x080032ec
 8001e88:	40021000 	.word	0x40021000
 8001e8c:	007a1200 	.word	0x007a1200
 8001e90:	003d0900 	.word	0x003d0900

08001e94 <HAL_RCC_GetHCLKFreq>:
  * @note   The SystemCoreClock CMSIS variable is used to store System Clock Frequency
  *         and updated within this function
  * @retval HCLK frequency
  */
uint32_t HAL_RCC_GetHCLKFreq(void)
{
 8001e94:	b480      	push	{r7}
 8001e96:	af00      	add	r7, sp, #0
  return SystemCoreClock;
 8001e98:	4b02      	ldr	r3, [pc, #8]	; (8001ea4 <HAL_RCC_GetHCLKFreq+0x10>)
 8001e9a:	681b      	ldr	r3, [r3, #0]
}
 8001e9c:	4618      	mov	r0, r3
 8001e9e:	46bd      	mov	sp, r7
 8001ea0:	bc80      	pop	{r7}
