
DHT11_Example.elf:     file format elf32-littlearm

Sections:
Idx Name          Size      VMA       LMA       File off  Algn
  0 .isr_vector   0000010c  08000000  08000000  00010000  2**0
                  CONTENTS, ALLOC, LOAD, READONLY, DATA
  1 .text         00002c38  0800010c  0800010c  0001010c  2**2
                  CONTENTS, ALLOC, LOAD, READONLY, CODE
  2 .rodata       000000bc  08002d44  08002d44  00012d44  2**2
                  CONTENTS, ALLOC, LOAD, READONLY, DATA
  3 .ARM.extab    00000000  08002e00  08002e00  00020074  2**0
                  CONTENTS
  4 .ARM          00000000  08002e00  08002e00  00020074  2**0
                  CONTENTS
  5 .preinit_array 00000000  08002e00  08002e00  00020074  2**0
                  CONTENTS, ALLOC, LOAD, DATA
  6 .init_array   00000004  08002e00  08002e00  00012e00  2**2
                  CONTENTS, ALLOC, LOAD, DATA
  7 .fini_array   00000004  08002e04  08002e04  00012e04  2**2
                  CONTENTS, ALLOC, LOAD, DATA
  8 .data         00000074  20000000  08002e08  00020000  2**2
                  CONTENTS, ALLOC, LOAD, DATA
  9 .bss          000000d0  20000074  08002e7c  00020074  2**2
                  ALLOC
 10 ._user_heap_stack 00000604  20000144  08002e7c  00020144  2**0
                  ALLOC
 11 .ARM.attributes 00000029  00000000  00000000  00020074  2**0
                  CONTENTS, READONLY
 12 .debug_info   00009c7b  00000000  00000000  0002009d  2**0
                  CONTENTS, READONLY, DEBUGGING
 13 .debug_abbrev 00001c03  00000000  00000000  00029d18  2**0
                  CONTENTS, READONLY, DEBUGGING
 14 .debug_aranges 00000700  00000000  00000000  0002b920  2**3
                  CONTENTS, READONLY, DEBUGGING
 15 .debug_ranges 00000618  00000000  00000000  0002c020  2**3
                  CONTENTS, READONLY, DEBUGGING
 16 .debug_macro  0001529f  00000000  00000000  0002c638  2**0
                  CONTENTS, READONLY, DEBUGGING
 17 .debug_line   00007cf4  00000000  00000000  000418d7  2**0
                  CONTENTS, READONLY, DEBUGGING
 18 .debug_str    00070dfd  00000000  00000000  000495cb  2**0
                  CONTENTS, READONLY, DEBUGGING
 19 .comment      0000007b  00000000  00000000  000ba3c8  2**0
                  CONTENTS, READONLY
 20 .debug_frame  00001da4  00000000  00000000  000ba444  2**2
                  CONTENTS, READONLY, DEBUGGING

Disassembly of section .text:

0800010c <__do_global_dtors_aux>:
 800010c:	b510      	push	{r4, lr}
 800010e:	4c05      	ldr	r4, [pc, #20]	; (8000124 <__do_global_dtors_aux+0x18>)
 8000110:	7823      	ldrb	r3, [r4, #0]
 8000112:	b933      	cbnz	r3, 8000122 <__do_global_dtors_aux+0x16>
 8000114:	4b04      	ldr	r3, [pc, #16]	; (8000128 <__do_global_dtors_aux+0x1c>)
 8000116:	b113      	cbz	r3, 800011e <__do_global_dtors_aux+0x12>
 8000118:	4804      	ldr	r0, [pc, #16]	; (800012c <__do_global_dtors_aux+0x20>)
 800011a:	f3af 8000 	nop.w
 800011e:	2301      	movs	r3, #1
 8000120:	7023      	strb	r3, [r4, #0]
 8000122:	bd10      	pop	{r4, pc}
 8000124:	20000074 	.word	0x20000074
 8000128:	00000000 	.word	0x00000000
 800012c:	08002d2c 	.word	0x08002d2c

08000130 <frame_dummy>:
 8000130:	b508      	push	{r3, lr}
 8000132:	4b03      	ldr	r3, [pc, #12]	; (8000140 <frame_dummy+0x10>)
 8000134:	b11b      	cbz	r3, 800013e <frame_dummy+0xe>
 8000136:	4903      	ldr	r1, [pc, #12]	; (8000144 <frame_dummy+0x14>)
 8000138:	4803      	ldr	r0, [pc, #12]	; (8000148 <frame_dummy+0x18>)
 800013a:	f3af 8000 	nop.w
 800013e:	bd08      	pop	{r3, pc}
 8000140:	00000000 	.word	0x00000000
 8000144:	20000078 	.word	0x20000078
 8000148:	08002d2c 	.word	0x08002d2c

0800014c <strlen>:
 800014c:	4603      	mov	r3, r0
 800014e:	f813 2b01 	ldrb.w	r2, [r3], #1
 8000152:	2a00      	cmp	r2, #0
 8000154:	d1fb      	bne.n	800014e <strlen+0x2>
 8000156:	1a18      	subs	r0, r3, r0
 8000158:	3801      	subs	r0, #1
 800015a:	4770      	bx	lr

0800015c <DHT11_Mode_OUT_PP>:
static u32 fac_us=72;
/**
	* @brief DHT11 输出模式
	*/
static void DHT11_Mode_OUT_PP(void)
{
 800015c:	b580      	push	{r7, lr}
 800015e:	b082      	sub	sp, #8
 8000160:	af02      	add	r7, sp, #8
//  GPIO_InitStruct.Mode = GPIO_MODE_OUTPUT_PP;
//  GPIO_InitStruct.Speed = GPIO_SPEED_FREQ_HIGH;
//
//  HAL_GPIO_Init(BSP_DHT11_PORT, &GPIO_InitStruct);
	//GPIO_COMMON *dht11_out = NULL;
	dht11_out = new_Gpio(dht11_out, DHT11_PORT, DHT11_PIN, GPIO_MODE_OUTPUT_PP,GPIO_NOPULL,GPIO_SPEED_FREQ_HIGH);
 8000162:	4b09      	ldr	r3, [pc, #36]	; (8000188 <DHT11_Mode_OUT_PP+0x2c>)
 8000164:	6818      	ldr	r0, [r3, #0]
 8000166:	2303      	movs	r3, #3
 8000168:	9301      	str	r3, [sp, #4]
 800016a:	2300      	movs	r3, #0
 800016c:	9300      	str	r3, [sp, #0]
 800016e:	2301      	movs	r3, #1
 8000170:	f44f 6200 	mov.w	r2, #2048	; 0x800
 8000174:	4905      	ldr	r1, [pc, #20]	; (800018c <DHT11_Mode_OUT_PP+0x30>)
 8000176:	f000 f963 	bl	8000440 <new_Gpio>
 800017a:	4602      	mov	r2, r0
 800017c:	4b02      	ldr	r3, [pc, #8]	; (8000188 <DHT11_Mode_OUT_PP+0x2c>)
 800017e:	601a      	str	r2, [r3, #0]
}
 8000180:	bf00      	nop
 8000182:	46bd      	mov	sp, r7
 8000184:	bd80      	pop	{r7, pc}
 8000186:	bf00      	nop
 8000188:	200000a4 	.word	0x200000a4
 800018c:	40010800 	.word	0x40010800

08000190 <DHT11_Mode_IN_NP>:

/**
	* @brief DHT11 输入模式
	*/
static void DHT11_Mode_IN_NP(void)
{
 8000190:	b580      	push	{r7, lr}
 8000192:	b082      	sub	sp, #8
 8000194:	af02      	add	r7, sp, #8
//  GPIO_InitStruct.Mode = GPIO_MODE_INPUT;
//  GPIO_InitStruct.Pull = GPIO_NOPULL;
//
//  HAL_GPIO_Init(BSP_DHT11_PORT, &GPIO_InitStruct);
	//GPIO_COMMON *dht11_in = NULL;
	dht11_in = new_Gpio(dht11_in, DHT11_PORT, DHT11_PIN, GPIO_MODE_INPUT, GPIO_NOPULL,GPIO_SPEED_FREQ_HIGH);
 8000196:	4b09      	ldr	r3, [pc, #36]	; (80001bc <DHT11_Mode_IN_NP+0x2c>)
 8000198:	6818      	ldr	r0, [r3, #0]
 800019a:	2303      	movs	r3, #3
 800019c:	9301      	str	r3, [sp, #4]
 800019e:	2300      	movs	r3, #0
 80001a0:	9300      	str	r3, [sp, #0]
 80001a2:	2300      	movs	r3, #0
 80001a4:	f44f 6200 	mov.w	r2, #2048	; 0x800
 80001a8:	4905      	ldr	r1, [pc, #20]	; (80001c0 <DHT11_Mode_IN_NP+0x30>)
 80001aa:	f000 f949 	bl	8000440 <new_Gpio>
 80001ae:	4602      	mov	r2, r0
 80001b0:	4b02      	ldr	r3, [pc, #8]	; (80001bc <DHT11_Mode_IN_NP+0x2c>)
 80001b2:	601a      	str	r2, [r3, #0]
}
 80001b4:	bf00      	nop
 80001b6:	46bd      	mov	sp, r7
 80001b8:	bd80      	pop	{r7, pc}
 80001ba:	bf00      	nop
 80001bc:	200000a0 	.word	0x200000a0
 80001c0:	40010800 	.word	0x40010800

080001c4 <DHT11_ReadByte>:

/**
	* @brief DHT11 读取字节
	*/
uint8_t DHT11_ReadByte(void)
{
 80001c4:	b580      	push	{r7, lr}
 80001c6:	b082      	sub	sp, #8
 80001c8:	af00      	add	r7, sp, #0
	uint8_t i, temp = 0;
 80001ca:	2300      	movs	r3, #0
 80001cc:	71bb      	strb	r3, [r7, #6]

	for (i = 0; i < 8; i++)
 80001ce:	2300      	movs	r3, #0
 80001d0:	71fb      	strb	r3, [r7, #7]
 80001d2:	e03c      	b.n	800024e <DHT11_ReadByte+0x8a>
	{
		while (DHT11_IN == 0);		// 等待低电平结束
 80001d4:	bf00      	nop
 80001d6:	4b22      	ldr	r3, [pc, #136]	; (8000260 <DHT11_ReadByte+0x9c>)
 80001d8:	681b      	ldr	r3, [r3, #0]
 80001da:	69db      	ldr	r3, [r3, #28]
 80001dc:	4a20      	ldr	r2, [pc, #128]	; (8000260 <DHT11_ReadByte+0x9c>)
 80001de:	6812      	ldr	r2, [r2, #0]
 80001e0:	4610      	mov	r0, r2
 80001e2:	4798      	blx	r3
 80001e4:	4603      	mov	r3, r0
 80001e6:	2b00      	cmp	r3, #0
 80001e8:	d0f5      	beq.n	80001d6 <DHT11_ReadByte+0x12>

		delay_us(40);					//	延时 40 微秒		低电平为 0 ，高电平为 1
 80001ea:	2028      	movs	r0, #40	; 0x28
 80001ec:	f000 f8be 	bl	800036c <delay_us>

		if (DHT11_IN == 1)
 80001f0:	4b1b      	ldr	r3, [pc, #108]	; (8000260 <DHT11_ReadByte+0x9c>)
 80001f2:	681b      	ldr	r3, [r3, #0]
 80001f4:	69db      	ldr	r3, [r3, #28]
 80001f6:	4a1a      	ldr	r2, [pc, #104]	; (8000260 <DHT11_ReadByte+0x9c>)
 80001f8:	6812      	ldr	r2, [r2, #0]
 80001fa:	4610      	mov	r0, r2
 80001fc:	4798      	blx	r3
 80001fe:	4603      	mov	r3, r0
 8000200:	2b01      	cmp	r3, #1
 8000202:	d115      	bne.n	8000230 <DHT11_ReadByte+0x6c>
		{
			while (DHT11_IN == 1);	// 等待高电平结束
 8000204:	bf00      	nop
 8000206:	4b16      	ldr	r3, [pc, #88]	; (8000260 <DHT11_ReadByte+0x9c>)
 8000208:	681b      	ldr	r3, [r3, #0]
 800020a:	69db      	ldr	r3, [r3, #28]
 800020c:	4a14      	ldr	r2, [pc, #80]	; (8000260 <DHT11_ReadByte+0x9c>)
 800020e:	6812      	ldr	r2, [r2, #0]
 8000210:	4610      	mov	r0, r2
 8000212:	4798      	blx	r3
 8000214:	4603      	mov	r3, r0
 8000216:	2b01      	cmp	r3, #1
 8000218:	d0f5      	beq.n	8000206 <DHT11_ReadByte+0x42>

			temp |= (uint8_t)(0X01 << (7 - i));			// 先发送高位 MSB
 800021a:	79fb      	ldrb	r3, [r7, #7]
 800021c:	f1c3 0307 	rsb	r3, r3, #7
 8000220:	2201      	movs	r2, #1
 8000222:	fa02 f303 	lsl.w	r3, r2, r3
 8000226:	b2da      	uxtb	r2, r3
 8000228:	79bb      	ldrb	r3, [r7, #6]
 800022a:	4313      	orrs	r3, r2
 800022c:	71bb      	strb	r3, [r7, #6]
 800022e:	e00b      	b.n	8000248 <DHT11_ReadByte+0x84>
		}
		else
		{
			temp &= (uint8_t)~(0X01 << (7 - i));
 8000230:	79fb      	ldrb	r3, [r7, #7]
 8000232:	f1c3 0307 	rsb	r3, r3, #7
 8000236:	2201      	movs	r2, #1
 8000238:	fa02 f303 	lsl.w	r3, r2, r3
 800023c:	b2db      	uxtb	r3, r3
 800023e:	43db      	mvns	r3, r3
 8000240:	b2da      	uxtb	r2, r3
 8000242:	79bb      	ldrb	r3, [r7, #6]
 8000244:	4013      	ands	r3, r2
 8000246:	71bb      	strb	r3, [r7, #6]
	for (i = 0; i < 8; i++)
 8000248:	79fb      	ldrb	r3, [r7, #7]
 800024a:	3301      	adds	r3, #1
 800024c:	71fb      	strb	r3, [r7, #7]
 800024e:	79fb      	ldrb	r3, [r7, #7]
 8000250:	2b07      	cmp	r3, #7
 8000252:	d9bf      	bls.n	80001d4 <DHT11_ReadByte+0x10>
		}
	}
	return temp;
 8000254:	79bb      	ldrb	r3, [r7, #6]
}
 8000256:	4618      	mov	r0, r3
 8000258:	3708      	adds	r7, #8
 800025a:	46bd      	mov	sp, r7
 800025c:	bd80      	pop	{r7, pc}
 800025e:	bf00      	nop
 8000260:	200000a0 	.word	0x200000a0

08000264 <DHT11_ReadData>:

/**
	* @brief DHT11 读取一次数据
	*/
uint8_t DHT11_ReadData(DHT11_Data_TypeDef *DHT11_Data)
{
 8000264:	b580      	push	{r7, lr}
 8000266:	b082      	sub	sp, #8
 8000268:	af00      	add	r7, sp, #0
 800026a:	6078      	str	r0, [r7, #4]
	DHT11_Mode_OUT_PP();
 800026c:	f7ff ff76 	bl	800015c <DHT11_Mode_OUT_PP>
	DHT11_OUT_0;// 主机输出，主机拉低;
 8000270:	4b3c      	ldr	r3, [pc, #240]	; (8000364 <DHT11_ReadData+0x100>)
 8000272:	681b      	ldr	r3, [r3, #0]
 8000274:	695b      	ldr	r3, [r3, #20]
 8000276:	4a3b      	ldr	r2, [pc, #236]	; (8000364 <DHT11_ReadData+0x100>)
 8000278:	6812      	ldr	r2, [r2, #0]
 800027a:	2100      	movs	r1, #0
 800027c:	4610      	mov	r0, r2
 800027e:	4798      	blx	r3
	HAL_Delay(18);					// 延时 18 ms
 8000280:	2012      	movs	r0, #18
 8000282:	f000 fced 	bl	8000c60 <HAL_Delay>

	DHT11_OUT_1;						// 主机拉高，延时 30 us
 8000286:	4b37      	ldr	r3, [pc, #220]	; (8000364 <DHT11_ReadData+0x100>)
 8000288:	681b      	ldr	r3, [r3, #0]
 800028a:	695b      	ldr	r3, [r3, #20]
 800028c:	4a35      	ldr	r2, [pc, #212]	; (8000364 <DHT11_ReadData+0x100>)
 800028e:	6812      	ldr	r2, [r2, #0]
 8000290:	2101      	movs	r1, #1
 8000292:	4610      	mov	r0, r2
 8000294:	4798      	blx	r3
	delay_us(30);
 8000296:	201e      	movs	r0, #30
 8000298:	f000 f868 	bl	800036c <delay_us>

	DHT11_Mode_IN_NP();			// 主机输入，获取 DHT11 数据
 800029c:	f7ff ff78 	bl	8000190 <DHT11_Mode_IN_NP>

	if (DHT11_IN == GPIO_PIN_RESET)			// 收到从机应答
 80002a0:	4b31      	ldr	r3, [pc, #196]	; (8000368 <DHT11_ReadData+0x104>)
 80002a2:	681b      	ldr	r3, [r3, #0]
 80002a4:	69db      	ldr	r3, [r3, #28]
 80002a6:	4a30      	ldr	r2, [pc, #192]	; (8000368 <DHT11_ReadData+0x104>)
 80002a8:	6812      	ldr	r2, [r2, #0]
 80002aa:	4610      	mov	r0, r2
 80002ac:	4798      	blx	r3
 80002ae:	4603      	mov	r3, r0
 80002b0:	2b00      	cmp	r3, #0
 80002b2:	d152      	bne.n	800035a <DHT11_ReadData+0xf6>
	{
		while (DHT11_IN == GPIO_PIN_RESET);		// 等待从机应答的低电平结束
 80002b4:	bf00      	nop
 80002b6:	4b2c      	ldr	r3, [pc, #176]	; (8000368 <DHT11_ReadData+0x104>)
 80002b8:	681b      	ldr	r3, [r3, #0]
 80002ba:	69db      	ldr	r3, [r3, #28]
 80002bc:	4a2a      	ldr	r2, [pc, #168]	; (8000368 <DHT11_ReadData+0x104>)
 80002be:	6812      	ldr	r2, [r2, #0]
 80002c0:	4610      	mov	r0, r2
 80002c2:	4798      	blx	r3
 80002c4:	4603      	mov	r3, r0
 80002c6:	2b00      	cmp	r3, #0
 80002c8:	d0f5      	beq.n	80002b6 <DHT11_ReadData+0x52>

		while (DHT11_IN == GPIO_PIN_SET);		// 等待从机应答的高电平结束
 80002ca:	bf00      	nop
 80002cc:	4b26      	ldr	r3, [pc, #152]	; (8000368 <DHT11_ReadData+0x104>)
 80002ce:	681b      	ldr	r3, [r3, #0]
 80002d0:	69db      	ldr	r3, [r3, #28]
 80002d2:	4a25      	ldr	r2, [pc, #148]	; (8000368 <DHT11_ReadData+0x104>)
 80002d4:	6812      	ldr	r2, [r2, #0]
 80002d6:	4610      	mov	r0, r2
 80002d8:	4798      	blx	r3
 80002da:	4603      	mov	r3, r0
 80002dc:	2b01      	cmp	r3, #1
 80002de:	d0f5      	beq.n	80002cc <DHT11_ReadData+0x68>

		/*开始接收数据*/
		DHT11_Data->humi_int  = DHT11_ReadByte();
 80002e0:	f7ff ff70 	bl	80001c4 <DHT11_ReadByte>
 80002e4:	4603      	mov	r3, r0
 80002e6:	461a      	mov	r2, r3
 80002e8:	687b      	ldr	r3, [r7, #4]
 80002ea:	701a      	strb	r2, [r3, #0]
		DHT11_Data->humi_deci = DHT11_ReadByte();
 80002ec:	f7ff ff6a 	bl	80001c4 <DHT11_ReadByte>
 80002f0:	4603      	mov	r3, r0
 80002f2:	461a      	mov	r2, r3
 80002f4:	687b      	ldr	r3, [r7, #4]
 80002f6:	705a      	strb	r2, [r3, #1]
		DHT11_Data->temp_int  = DHT11_ReadByte();
 80002f8:	f7ff ff64 	bl	80001c4 <DHT11_ReadByte>
 80002fc:	4603      	mov	r3, r0
 80002fe:	461a      	mov	r2, r3
 8000300:	687b      	ldr	r3, [r7, #4]
 8000302:	709a      	strb	r2, [r3, #2]
		DHT11_Data->temp_deci = DHT11_ReadByte();
 8000304:	f7ff ff5e 	bl	80001c4 <DHT11_ReadByte>
 8000308:	4603      	mov	r3, r0
 800030a:	461a      	mov	r2, r3
 800030c:	687b      	ldr	r3, [r7, #4]
 800030e:	70da      	strb	r2, [r3, #3]
		DHT11_Data->check_sum = DHT11_ReadByte();
 8000310:	f7ff ff58 	bl	80001c4 <DHT11_ReadByte>
 8000314:	4603      	mov	r3, r0
 8000316:	461a      	mov	r2, r3
 8000318:	687b      	ldr	r3, [r7, #4]
 800031a:	711a      	strb	r2, [r3, #4]

		DHT11_Mode_OUT_PP();		// 读取结束，主机拉高
 800031c:	f7ff ff1e 	bl	800015c <DHT11_Mode_OUT_PP>
		DHT11_OUT_1;
 8000320:	4b10      	ldr	r3, [pc, #64]	; (8000364 <DHT11_ReadData+0x100>)
 8000322:	681b      	ldr	r3, [r3, #0]
 8000324:	695b      	ldr	r3, [r3, #20]
 8000326:	4a0f      	ldr	r2, [pc, #60]	; (8000364 <DHT11_ReadData+0x100>)
 8000328:	6812      	ldr	r2, [r2, #0]
 800032a:	2101      	movs	r1, #1
 800032c:	4610      	mov	r0, r2
 800032e:	4798      	blx	r3

		// 数据校验
		if (DHT11_Data->check_sum == DHT11_Data->humi_int + DHT11_Data->humi_deci + DHT11_Data->temp_int + DHT11_Data->temp_deci)
 8000330:	687b      	ldr	r3, [r7, #4]
 8000332:	791b      	ldrb	r3, [r3, #4]
 8000334:	4619      	mov	r1, r3
 8000336:	687b      	ldr	r3, [r7, #4]
 8000338:	781b      	ldrb	r3, [r3, #0]
 800033a:	461a      	mov	r2, r3
 800033c:	687b      	ldr	r3, [r7, #4]
 800033e:	785b      	ldrb	r3, [r3, #1]
 8000340:	4413      	add	r3, r2
 8000342:	687a      	ldr	r2, [r7, #4]
 8000344:	7892      	ldrb	r2, [r2, #2]
 8000346:	4413      	add	r3, r2
 8000348:	687a      	ldr	r2, [r7, #4]
 800034a:	78d2      	ldrb	r2, [r2, #3]
 800034c:	4413      	add	r3, r2
 800034e:	4299      	cmp	r1, r3
 8000350:	d101      	bne.n	8000356 <DHT11_ReadData+0xf2>
		{
			return 1;
 8000352:	2301      	movs	r3, #1
 8000354:	e002      	b.n	800035c <DHT11_ReadData+0xf8>
		}
		else
		{
			return 0;
 8000356:	2300      	movs	r3, #0
 8000358:	e000      	b.n	800035c <DHT11_ReadData+0xf8>
		}
	}
	else		// 未收到从机应答
	{
		return 0;
 800035a:	2300      	movs	r3, #0
	}
}
 800035c:	4618      	mov	r0, r3
 800035e:	3708      	adds	r7, #8
 8000360:	46bd      	mov	sp, r7
 8000362:	bd80      	pop	{r7, pc}
 8000364:	200000a4 	.word	0x200000a4
 8000368:	200000a0 	.word	0x200000a0

0800036c <delay_us>:

void delay_us(u32 nus)
{
 800036c:	b480      	push	{r7}
 800036e:	b085      	sub	sp, #20
 8000370:	af00      	add	r7, sp, #0
 8000372:	6078      	str	r0, [r7, #4]
	u32 temp;
	SysTick->LOAD=nus*fac_us; 					//时间加载
 8000374:	4b15      	ldr	r3, [pc, #84]	; (80003cc <delay_us+0x60>)
 8000376:	681b      	ldr	r3, [r3, #0]
 8000378:	4915      	ldr	r1, [pc, #84]	; (80003d0 <delay_us+0x64>)
 800037a:	687a      	ldr	r2, [r7, #4]
 800037c:	fb02 f303 	mul.w	r3, r2, r3
 8000380:	604b      	str	r3, [r1, #4]
	SysTick->VAL=0x00;        					//清空计数器
 8000382:	4b13      	ldr	r3, [pc, #76]	; (80003d0 <delay_us+0x64>)
 8000384:	2200      	movs	r2, #0
 8000386:	609a      	str	r2, [r3, #8]
	SysTick->CTRL|=SysTick_CTRL_ENABLE_Msk ;	//开始倒数
 8000388:	4b11      	ldr	r3, [pc, #68]	; (80003d0 <delay_us+0x64>)
 800038a:	681b      	ldr	r3, [r3, #0]
 800038c:	4a10      	ldr	r2, [pc, #64]	; (80003d0 <delay_us+0x64>)
 800038e:	f043 0301 	orr.w	r3, r3, #1
 8000392:	6013      	str	r3, [r2, #0]
	do
	{
		temp=SysTick->CTRL;
 8000394:	4b0e      	ldr	r3, [pc, #56]	; (80003d0 <delay_us+0x64>)
 8000396:	681b      	ldr	r3, [r3, #0]
 8000398:	60fb      	str	r3, [r7, #12]
	}while((temp&0x01)&&!(temp&(1<<16)));		//等待时间到达
 800039a:	68fb      	ldr	r3, [r7, #12]
 800039c:	f003 0301 	and.w	r3, r3, #1
 80003a0:	2b00      	cmp	r3, #0
 80003a2:	d004      	beq.n	80003ae <delay_us+0x42>
 80003a4:	68fb      	ldr	r3, [r7, #12]
 80003a6:	f403 3380 	and.w	r3, r3, #65536	; 0x10000
 80003aa:	2b00      	cmp	r3, #0
 80003ac:	d0f2      	beq.n	8000394 <delay_us+0x28>
	SysTick->CTRL&=~SysTick_CTRL_ENABLE_Msk;	//关闭计数器
 80003ae:	4b08      	ldr	r3, [pc, #32]	; (80003d0 <delay_us+0x64>)
 80003b0:	681b      	ldr	r3, [r3, #0]
 80003b2:	4a07      	ldr	r2, [pc, #28]	; (80003d0 <delay_us+0x64>)
 80003b4:	f023 0301 	bic.w	r3, r3, #1
 80003b8:	6013      	str	r3, [r2, #0]
	SysTick->VAL =0X00;      					 //清空计数器
 80003ba:	4b05      	ldr	r3, [pc, #20]	; (80003d0 <delay_us+0x64>)
 80003bc:	2200      	movs	r2, #0
 80003be:	609a      	str	r2, [r3, #8]
}
 80003c0:	bf00      	nop
 80003c2:	3714      	adds	r7, #20
 80003c4:	46bd      	mov	sp, r7
 80003c6:	bc80      	pop	{r7}
 80003c8:	4770      	bx	lr
 80003ca:	bf00      	nop
 80003cc:	20000000 	.word	0x20000000
 80003d0:	e000e010 	.word	0xe000e010

080003d4 <GPIO_WritePin>:
 */

#include "gpio.h"

void GPIO_WritePin(GPIO_COMMON *this,GPIO_PinState PinState)
{
 80003d4:	b580      	push	{r7, lr}
 80003d6:	b082      	sub	sp, #8
 80003d8:	af00      	add	r7, sp, #0
 80003da:	6078      	str	r0, [r7, #4]
 80003dc:	460b      	mov	r3, r1
 80003de:	70fb      	strb	r3, [r7, #3]
	HAL_GPIO_WritePin(this->GPIO_Port, this->GPIO_InitStruct.Pin, PinState);
 80003e0:	687b      	ldr	r3, [r7, #4]
 80003e2:	6918      	ldr	r0, [r3, #16]
 80003e4:	687b      	ldr	r3, [r7, #4]
 80003e6:	681b      	ldr	r3, [r3, #0]
 80003e8:	b29b      	uxth	r3, r3
 80003ea:	78fa      	ldrb	r2, [r7, #3]
 80003ec:	4619      	mov	r1, r3
 80003ee:	f000 ff4e 	bl	800128e <HAL_GPIO_WritePin>
}
 80003f2:	bf00      	nop
 80003f4:	3708      	adds	r7, #8
 80003f6:	46bd      	mov	sp, r7
 80003f8:	bd80      	pop	{r7, pc}

080003fa <GPIO_TogglePin>:

void GPIO_TogglePin(GPIO_COMMON *this)
{
 80003fa:	b580      	push	{r7, lr}
 80003fc:	b082      	sub	sp, #8
 80003fe:	af00      	add	r7, sp, #0
 8000400:	6078      	str	r0, [r7, #4]
	HAL_GPIO_TogglePin(this->GPIO_Port, this->GPIO_InitStruct.Pin);
 8000402:	687b      	ldr	r3, [r7, #4]
 8000404:	691a      	ldr	r2, [r3, #16]
 8000406:	687b      	ldr	r3, [r7, #4]
 8000408:	681b      	ldr	r3, [r3, #0]
 800040a:	b29b      	uxth	r3, r3
 800040c:	4619      	mov	r1, r3
 800040e:	4610      	mov	r0, r2
 8000410:	f000 ff55 	bl	80012be <HAL_GPIO_TogglePin>
}
 8000414:	bf00      	nop
 8000416:	3708      	adds	r7, #8
 8000418:	46bd      	mov	sp, r7
 800041a:	bd80      	pop	{r7, pc}

0800041c <GPIO_ReadPin>:

GPIO_PinState GPIO_ReadPin(GPIO_COMMON *this)
{
 800041c:	b580      	push	{r7, lr}
 800041e:	b082      	sub	sp, #8
 8000420:	af00      	add	r7, sp, #0
 8000422:	6078      	str	r0, [r7, #4]
	return HAL_GPIO_ReadPin(this->GPIO_Port, this->GPIO_InitStruct.Pin);
 8000424:	687b      	ldr	r3, [r7, #4]
 8000426:	691a      	ldr	r2, [r3, #16]
 8000428:	687b      	ldr	r3, [r7, #4]
 800042a:	681b      	ldr	r3, [r3, #0]
 800042c:	b29b      	uxth	r3, r3
 800042e:	4619      	mov	r1, r3
 8000430:	4610      	mov	r0, r2
 8000432:	f000 ff15 	bl	8001260 <HAL_GPIO_ReadPin>
 8000436:	4603      	mov	r3, r0
}
 8000438:	4618      	mov	r0, r3
 800043a:	3708      	adds	r7, #8
 800043c:	46bd      	mov	sp, r7
 800043e:	bd80      	pop	{r7, pc}

08000440 <new_Gpio>:

GPIO_COMMON *new_Gpio(struct GPIO_COMMON *this,GPIO_TypeDef *port,uint32_t pin,uint32_t mode,uint32_t pull,uint32_t speed)
{
 8000440:	b580      	push	{r7, lr}
 8000442:	b08a      	sub	sp, #40	; 0x28
 8000444:	af00      	add	r7, sp, #0
 8000446:	60f8      	str	r0, [r7, #12]
 8000448:	60b9      	str	r1, [r7, #8]
 800044a:	607a      	str	r2, [r7, #4]
 800044c:	603b      	str	r3, [r7, #0]
	this=(struct GPIO_COMMON*)calloc(1,sizeof(struct GPIO_COMMON));
 800044e:	2120      	movs	r1, #32
 8000450:	2001      	movs	r0, #1
 8000452:	f002 f811 	bl	8002478 <calloc>
 8000456:	4603      	mov	r3, r0
 8000458:	60fb      	str	r3, [r7, #12]
	this->GPIO_Port=port;
 800045a:	68fb      	ldr	r3, [r7, #12]
 800045c:	68ba      	ldr	r2, [r7, #8]
 800045e:	611a      	str	r2, [r3, #16]
	if(this->GPIO_Port==GPIOA)
 8000460:	68fb      	ldr	r3, [r7, #12]
 8000462:	691b      	ldr	r3, [r3, #16]
 8000464:	4a3b      	ldr	r2, [pc, #236]	; (8000554 <new_Gpio+0x114>)
 8000466:	4293      	cmp	r3, r2
 8000468:	d10c      	bne.n	8000484 <new_Gpio+0x44>
		__HAL_RCC_GPIOA_CLK_ENABLE();
 800046a:	4b3b      	ldr	r3, [pc, #236]	; (8000558 <new_Gpio+0x118>)
 800046c:	699b      	ldr	r3, [r3, #24]
 800046e:	4a3a      	ldr	r2, [pc, #232]	; (8000558 <new_Gpio+0x118>)
 8000470:	f043 0304 	orr.w	r3, r3, #4
 8000474:	6193      	str	r3, [r2, #24]
 8000476:	4b38      	ldr	r3, [pc, #224]	; (8000558 <new_Gpio+0x118>)
 8000478:	699b      	ldr	r3, [r3, #24]
 800047a:	f003 0304 	and.w	r3, r3, #4
 800047e:	627b      	str	r3, [r7, #36]	; 0x24
 8000480:	6a7b      	ldr	r3, [r7, #36]	; 0x24
 8000482:	e046      	b.n	8000512 <new_Gpio+0xd2>
	else if(this->GPIO_Port==GPIOB)
 8000484:	68fb      	ldr	r3, [r7, #12]
 8000486:	691b      	ldr	r3, [r3, #16]
 8000488:	4a34      	ldr	r2, [pc, #208]	; (800055c <new_Gpio+0x11c>)
 800048a:	4293      	cmp	r3, r2
 800048c:	d10c      	bne.n	80004a8 <new_Gpio+0x68>
		__HAL_RCC_GPIOB_CLK_ENABLE();
 800048e:	4b32      	ldr	r3, [pc, #200]	; (8000558 <new_Gpio+0x118>)
 8000490:	699b      	ldr	r3, [r3, #24]
 8000492:	4a31      	ldr	r2, [pc, #196]	; (8000558 <new_Gpio+0x118>)
 8000494:	f043 0308 	orr.w	r3, r3, #8
 8000498:	6193      	str	r3, [r2, #24]
 800049a:	4b2f      	ldr	r3, [pc, #188]	; (8000558 <new_Gpio+0x118>)
 800049c:	699b      	ldr	r3, [r3, #24]
 800049e:	f003 0308 	and.w	r3, r3, #8
 80004a2:	623b      	str	r3, [r7, #32]
 80004a4:	6a3b      	ldr	r3, [r7, #32]
 80004a6:	e034      	b.n	8000512 <new_Gpio+0xd2>
	else if(this->GPIO_Port==GPIOC)
 80004a8:	68fb      	ldr	r3, [r7, #12]
 80004aa:	691b      	ldr	r3, [r3, #16]
 80004ac:	4a2c      	ldr	r2, [pc, #176]	; (8000560 <new_Gpio+0x120>)
 80004ae:	4293      	cmp	r3, r2
 80004b0:	d10c      	bne.n	80004cc <new_Gpio+0x8c>
		__HAL_RCC_GPIOC_CLK_ENABLE();
 80004b2:	4b29      	ldr	r3, [pc, #164]	; (8000558 <new_Gpio+0x118>)
 80004b4:	699b      	ldr	r3, [r3, #24]
 80004b6:	4a28      	ldr	r2, [pc, #160]	; (8000558 <new_Gpio+0x118>)
 80004b8:	f043 0310 	orr.w	r3, r3, #16
 80004bc:	6193      	str	r3, [r2, #24]
 80004be:	4b26      	ldr	r3, [pc, #152]	; (8000558 <new_Gpio+0x118>)
 80004c0:	699b      	ldr	r3, [r3, #24]
 80004c2:	f003 0310 	and.w	r3, r3, #16
 80004c6:	61fb      	str	r3, [r7, #28]
 80004c8:	69fb      	ldr	r3, [r7, #28]
 80004ca:	e022      	b.n	8000512 <new_Gpio+0xd2>
	else if(this->GPIO_Port==GPIOD)
 80004cc:	68fb      	ldr	r3, [r7, #12]
 80004ce:	691b      	ldr	r3, [r3, #16]
 80004d0:	4a24      	ldr	r2, [pc, #144]	; (8000564 <new_Gpio+0x124>)
 80004d2:	4293      	cmp	r3, r2
 80004d4:	d10c      	bne.n	80004f0 <new_Gpio+0xb0>
		__HAL_RCC_GPIOD_CLK_ENABLE();
 80004d6:	4b20      	ldr	r3, [pc, #128]	; (8000558 <new_Gpio+0x118>)
 80004d8:	699b      	ldr	r3, [r3, #24]
 80004da:	4a1f      	ldr	r2, [pc, #124]	; (8000558 <new_Gpio+0x118>)
 80004dc:	f043 0320 	orr.w	r3, r3, #32
 80004e0:	6193      	str	r3, [r2, #24]
 80004e2:	4b1d      	ldr	r3, [pc, #116]	; (8000558 <new_Gpio+0x118>)
 80004e4:	699b      	ldr	r3, [r3, #24]
 80004e6:	f003 0320 	and.w	r3, r3, #32
 80004ea:	61bb      	str	r3, [r7, #24]
 80004ec:	69bb      	ldr	r3, [r7, #24]
 80004ee:	e010      	b.n	8000512 <new_Gpio+0xd2>
	else if(this->GPIO_Port==GPIOE)
 80004f0:	68fb      	ldr	r3, [r7, #12]
 80004f2:	691b      	ldr	r3, [r3, #16]
 80004f4:	4a1c      	ldr	r2, [pc, #112]	; (8000568 <new_Gpio+0x128>)
 80004f6:	4293      	cmp	r3, r2
 80004f8:	d10b      	bne.n	8000512 <new_Gpio+0xd2>
		__HAL_RCC_GPIOE_CLK_ENABLE();
 80004fa:	4b17      	ldr	r3, [pc, #92]	; (8000558 <new_Gpio+0x118>)
 80004fc:	699b      	ldr	r3, [r3, #24]
 80004fe:	4a16      	ldr	r2, [pc, #88]	; (8000558 <new_Gpio+0x118>)
 8000500:	f043 0340 	orr.w	r3, r3, #64	; 0x40
 8000504:	6193      	str	r3, [r2, #24]
 8000506:	4b14      	ldr	r3, [pc, #80]	; (8000558 <new_Gpio+0x118>)
 8000508:	699b      	ldr	r3, [r3, #24]
 800050a:	f003 0340 	and.w	r3, r3, #64	; 0x40
 800050e:	617b      	str	r3, [r7, #20]
 8000510:	697b      	ldr	r3, [r7, #20]
	else if(this->GPIO_Port==GPIOF)
		__HAL_RCC_GPIOF_CLK_ENABLE();
	else if(this->GPIO_Port==GPIOG)
		__HAL_RCC_GPIOG_CLK_ENABLE();
#endif
	this->GPIO_InitStruct.Pin=pin;
 8000512:	68fb      	ldr	r3, [r7, #12]
 8000514:	687a      	ldr	r2, [r7, #4]
 8000516:	601a      	str	r2, [r3, #0]
	this->GPIO_InitStruct.Mode = mode;
 8000518:	68fb      	ldr	r3, [r7, #12]
 800051a:	683a      	ldr	r2, [r7, #0]
 800051c:	605a      	str	r2, [r3, #4]
	this->GPIO_InitStruct.Pull = pull;
 800051e:	68fb      	ldr	r3, [r7, #12]
 8000520:	6b3a      	ldr	r2, [r7, #48]	; 0x30
 8000522:	609a      	str	r2, [r3, #8]
	this->GPIO_InitStruct.Speed = speed;
 8000524:	68fb      	ldr	r3, [r7, #12]
 8000526:	6b7a      	ldr	r2, [r7, #52]	; 0x34
 8000528:	60da      	str	r2, [r3, #12]
	HAL_GPIO_Init(this->GPIO_Port, &this->GPIO_InitStruct);
 800052a:	68fb      	ldr	r3, [r7, #12]
 800052c:	691b      	ldr	r3, [r3, #16]
 800052e:	68fa      	ldr	r2, [r7, #12]
 8000530:	4611      	mov	r1, r2
 8000532:	4618      	mov	r0, r3
 8000534:	f000 fd3a 	bl	8000fac <HAL_GPIO_Init>
	this->ReadPin=GPIO_ReadPin;
 8000538:	68fb      	ldr	r3, [r7, #12]
 800053a:	4a0c      	ldr	r2, [pc, #48]	; (800056c <new_Gpio+0x12c>)
 800053c:	61da      	str	r2, [r3, #28]
	this->WritePin=GPIO_WritePin;
 800053e:	68fb      	ldr	r3, [r7, #12]
 8000540:	4a0b      	ldr	r2, [pc, #44]	; (8000570 <new_Gpio+0x130>)
 8000542:	615a      	str	r2, [r3, #20]
	this->TogglePin=GPIO_TogglePin;
 8000544:	68fb      	ldr	r3, [r7, #12]
 8000546:	4a0b      	ldr	r2, [pc, #44]	; (8000574 <new_Gpio+0x134>)
 8000548:	619a      	str	r2, [r3, #24]
	return this;
 800054a:	68fb      	ldr	r3, [r7, #12]
}
 800054c:	4618      	mov	r0, r3
 800054e:	3728      	adds	r7, #40	; 0x28
 8000550:	46bd      	mov	sp, r7
 8000552:	bd80      	pop	{r7, pc}
 8000554:	40010800 	.word	0x40010800
 8000558:	40021000 	.word	0x40021000
 800055c:	40010c00 	.word	0x40010c00
 8000560:	40011000 	.word	0x40011000
 8000564:	40011400 	.word	0x40011400
 8000568:	40011800 	.word	0x40011800
 800056c:	0800041d 	.word	0x0800041d
 8000570:	080003d5 	.word	0x080003d5
 8000574:	080003fb 	.word	0x080003fb

08000578 <main>:
/**
  * @brief  The application entry point.
  * @retval int
  */
int main(void)
{
 8000578:	b5b0      	push	{r4, r5, r7, lr}
 800057a:	b082      	sub	sp, #8
 800057c:	af02      	add	r7, sp, #8
  /* USER CODE END 1 */

  /* MCU Configuration--------------------------------------------------------*/

  /* Reset of all peripherals, Initializes the Flash interface and the Systick. */
  HAL_Init();
 800057e:	f000 fb0d 	bl	8000b9c <HAL_Init>
  /* USER CODE BEGIN Init */

  /* USER CODE END Init */

  /* Configure the system clock */
  SystemClock_Config();
 8000582:	f000 f86d 	bl	8000660 <SystemClock_Config>

  /* USER CODE BEGIN SysInit */

  led = new_Gpio(led, GPIOC, GPIO_PIN_13, GPIO_MODE_OUTPUT_PP, GPIO_NOPULL,GPIO_SPEED_FREQ_HIGH);
 8000586:	4b2e      	ldr	r3, [pc, #184]	; (8000640 <main+0xc8>)
 8000588:	6818      	ldr	r0, [r3, #0]
 800058a:	2303      	movs	r3, #3
 800058c:	9301      	str	r3, [sp, #4]
 800058e:	2300      	movs	r3, #0
 8000590:	9300      	str	r3, [sp, #0]
 8000592:	2301      	movs	r3, #1
 8000594:	f44f 5200 	mov.w	r2, #8192	; 0x2000
 8000598:	492a      	ldr	r1, [pc, #168]	; (8000644 <main+0xcc>)
 800059a:	f7ff ff51 	bl	8000440 <new_Gpio>
 800059e:	4602      	mov	r2, r0
 80005a0:	4b27      	ldr	r3, [pc, #156]	; (8000640 <main+0xc8>)
 80005a2:	601a      	str	r2, [r3, #0]
  /* USER CODE END SysInit */
  	uart1_common = new_Uart(uart1_common, USART1, 115200);		//初始化串口一 注册相关成员函数
 80005a4:	4b28      	ldr	r3, [pc, #160]	; (8000648 <main+0xd0>)
 80005a6:	681b      	ldr	r3, [r3, #0]
 80005a8:	f44f 32e1 	mov.w	r2, #115200	; 0x1c200
 80005ac:	4927      	ldr	r1, [pc, #156]	; (800064c <main+0xd4>)
 80005ae:	4618      	mov	r0, r3
 80005b0:	f000 fa22 	bl	80009f8 <new_Uart>
 80005b4:	4602      	mov	r2, r0
 80005b6:	4b24      	ldr	r3, [pc, #144]	; (8000648 <main+0xd0>)
 80005b8:	601a      	str	r2, [r3, #0]
  /* Infinite loop */
  /* USER CODE BEGIN WHILE */
  while (1)
  {
    /* USER CODE END WHILE */
	  led->TogglePin(led);
 80005ba:	4b21      	ldr	r3, [pc, #132]	; (8000640 <main+0xc8>)
 80005bc:	681b      	ldr	r3, [r3, #0]
 80005be:	699b      	ldr	r3, [r3, #24]
 80005c0:	4a1f      	ldr	r2, [pc, #124]	; (8000640 <main+0xc8>)
 80005c2:	6812      	ldr	r2, [r2, #0]
 80005c4:	4610      	mov	r0, r2
 80005c6:	4798      	blx	r3
	  uart1_common->UPrintf(uart1_common,"tesst\n");
 80005c8:	4b1f      	ldr	r3, [pc, #124]	; (8000648 <main+0xd0>)
 80005ca:	681b      	ldr	r3, [r3, #0]
 80005cc:	f8d3 3148 	ldr.w	r3, [r3, #328]	; 0x148
 80005d0:	4a1d      	ldr	r2, [pc, #116]	; (8000648 <main+0xd0>)
 80005d2:	6812      	ldr	r2, [r2, #0]
 80005d4:	491e      	ldr	r1, [pc, #120]	; (8000650 <main+0xd8>)
 80005d6:	4610      	mov	r0, r2
 80005d8:	4798      	blx	r3
	  HAL_Delay(1000);
 80005da:	f44f 707a 	mov.w	r0, #1000	; 0x3e8
 80005de:	f000 fb3f 	bl	8000c60 <HAL_Delay>
	  if (DHT11_ReadData(DHT11_Data))
 80005e2:	4b1c      	ldr	r3, [pc, #112]	; (8000654 <main+0xdc>)
 80005e4:	681b      	ldr	r3, [r3, #0]
 80005e6:	4618      	mov	r0, r3
 80005e8:	f7ff fe3c 	bl	8000264 <DHT11_ReadData>
 80005ec:	4603      	mov	r3, r0
 80005ee:	2b00      	cmp	r3, #0
 80005f0:	d01b      	beq.n	800062a <main+0xb2>
	  {
		  uart1_common->UPrintf(uart1_common,"\r\n读取DHT11成功!\r\n\r\n湿度为%d.%d ％RH温度为 %d.%d℃ \r\n",DHT11_Data->humi_int,DHT11_Data->humi_deci,DHT11_Data->temp_int,DHT11_Data->temp_deci);
 80005f2:	4b15      	ldr	r3, [pc, #84]	; (8000648 <main+0xd0>)
 80005f4:	681b      	ldr	r3, [r3, #0]
 80005f6:	f8d3 4148 	ldr.w	r4, [r3, #328]	; 0x148
 80005fa:	4b13      	ldr	r3, [pc, #76]	; (8000648 <main+0xd0>)
 80005fc:	6818      	ldr	r0, [r3, #0]
 80005fe:	4b15      	ldr	r3, [pc, #84]	; (8000654 <main+0xdc>)
 8000600:	681b      	ldr	r3, [r3, #0]
 8000602:	781b      	ldrb	r3, [r3, #0]
 8000604:	4619      	mov	r1, r3
 8000606:	4b13      	ldr	r3, [pc, #76]	; (8000654 <main+0xdc>)
 8000608:	681b      	ldr	r3, [r3, #0]
 800060a:	785b      	ldrb	r3, [r3, #1]
 800060c:	461d      	mov	r5, r3
 800060e:	4b11      	ldr	r3, [pc, #68]	; (8000654 <main+0xdc>)
 8000610:	681b      	ldr	r3, [r3, #0]
 8000612:	789b      	ldrb	r3, [r3, #2]
 8000614:	461a      	mov	r2, r3
 8000616:	4b0f      	ldr	r3, [pc, #60]	; (8000654 <main+0xdc>)
 8000618:	681b      	ldr	r3, [r3, #0]
 800061a:	78db      	ldrb	r3, [r3, #3]
 800061c:	9301      	str	r3, [sp, #4]
 800061e:	9200      	str	r2, [sp, #0]
 8000620:	462b      	mov	r3, r5
 8000622:	460a      	mov	r2, r1
 8000624:	490c      	ldr	r1, [pc, #48]	; (8000658 <main+0xe0>)
 8000626:	47a0      	blx	r4
 8000628:	e7c7      	b.n	80005ba <main+0x42>
	  }
	  else
		  uart1_common->UPrintf(uart1_common,"dht11 error!");
 800062a:	4b07      	ldr	r3, [pc, #28]	; (8000648 <main+0xd0>)
 800062c:	681b      	ldr	r3, [r3, #0]
 800062e:	f8d3 3148 	ldr.w	r3, [r3, #328]	; 0x148
 8000632:	4a05      	ldr	r2, [pc, #20]	; (8000648 <main+0xd0>)
 8000634:	6812      	ldr	r2, [r2, #0]
 8000636:	4909      	ldr	r1, [pc, #36]	; (800065c <main+0xe4>)
 8000638:	4610      	mov	r0, r2
 800063a:	4798      	blx	r3
	  led->TogglePin(led);
 800063c:	e7bd      	b.n	80005ba <main+0x42>
 800063e:	bf00      	nop
 8000640:	20000090 	.word	0x20000090
 8000644:	40011000 	.word	0x40011000
 8000648:	20000138 	.word	0x20000138
 800064c:	40013800 	.word	0x40013800
 8000650:	08002d44 	.word	0x08002d44
 8000654:	200000a8 	.word	0x200000a8
 8000658:	08002d4c 	.word	0x08002d4c
 800065c:	08002d90 	.word	0x08002d90

08000660 <SystemClock_Config>:
/**
  * @brief System Clock Configuration
  * @retval None
  */
void SystemClock_Config(void)
{
 8000660:	b580      	push	{r7, lr}
 8000662:	b090      	sub	sp, #64	; 0x40
 8000664:	af00      	add	r7, sp, #0
  RCC_OscInitTypeDef RCC_OscInitStruct = {0};
 8000666:	f107 0318 	add.w	r3, r7, #24
 800066a:	2228      	movs	r2, #40	; 0x28
 800066c:	2100      	movs	r1, #0
 800066e:	4618      	mov	r0, r3
 8000670:	f001 ff34 	bl	80024dc <memset>
  RCC_ClkInitTypeDef RCC_ClkInitStruct = {0};
 8000674:	1d3b      	adds	r3, r7, #4
 8000676:	2200      	movs	r2, #0
 8000678:	601a      	str	r2, [r3, #0]
 800067a:	605a      	str	r2, [r3, #4]
 800067c:	609a      	str	r2, [r3, #8]
 800067e:	60da      	str	r2, [r3, #12]
 8000680:	611a      	str	r2, [r3, #16]

  /** Initializes the CPU, AHB and APB busses clocks 
  */
  RCC_OscInitStruct.OscillatorType = RCC_OSCILLATORTYPE_HSE;
 8000682:	2301      	movs	r3, #1
 8000684:	61bb      	str	r3, [r7, #24]
  RCC_OscInitStruct.HSEState = RCC_HSE_ON;
 8000686:	f44f 3380 	mov.w	r3, #65536	; 0x10000
 800068a:	61fb      	str	r3, [r7, #28]
  RCC_OscInitStruct.HSEPredivValue = RCC_HSE_PREDIV_DIV1;
 800068c:	2300      	movs	r3, #0
 800068e:	623b      	str	r3, [r7, #32]
  RCC_OscInitStruct.HSIState = RCC_HSI_ON;
 8000690:	2301      	movs	r3, #1
 8000692:	62bb      	str	r3, [r7, #40]	; 0x28
  RCC_OscInitStruct.PLL.PLLState = RCC_PLL_ON;
 8000694:	2302      	movs	r3, #2
 8000696:	637b      	str	r3, [r7, #52]	; 0x34
  RCC_OscInitStruct.PLL.PLLSource = RCC_PLLSOURCE_HSE;
 8000698:	f44f 3380 	mov.w	r3, #65536	; 0x10000
 800069c:	63bb      	str	r3, [r7, #56]	; 0x38
  RCC_OscInitStruct.PLL.PLLMUL = RCC_PLL_MUL9;
 800069e:	f44f 13e0 	mov.w	r3, #1835008	; 0x1c0000
 80006a2:	63fb      	str	r3, [r7, #60]	; 0x3c
  if (HAL_RCC_OscConfig(&RCC_OscInitStruct) != HAL_OK)
 80006a4:	f107 0318 	add.w	r3, r7, #24
 80006a8:	4618      	mov	r0, r3
 80006aa:	f000 fe21 	bl	80012f0 <HAL_RCC_OscConfig>
 80006ae:	4603      	mov	r3, r0
 80006b0:	2b00      	cmp	r3, #0
 80006b2:	d001      	beq.n	80006b8 <SystemClock_Config+0x58>
  {
    Error_Handler();
 80006b4:	f000 f819 	bl	80006ea <Error_Handler>
  }
  /** Initializes the CPU, AHB and APB busses clocks 
  */
  RCC_ClkInitStruct.ClockType = RCC_CLOCKTYPE_HCLK|RCC_CLOCKTYPE_SYSCLK
 80006b8:	230f      	movs	r3, #15
 80006ba:	607b      	str	r3, [r7, #4]
                              |RCC_CLOCKTYPE_PCLK1|RCC_CLOCKTYPE_PCLK2;
  RCC_ClkInitStruct.SYSCLKSource = RCC_SYSCLKSOURCE_PLLCLK;
 80006bc:	2302      	movs	r3, #2
 80006be:	60bb      	str	r3, [r7, #8]
  RCC_ClkInitStruct.AHBCLKDivider = RCC_SYSCLK_DIV1;
 80006c0:	2300      	movs	r3, #0
 80006c2:	60fb      	str	r3, [r7, #12]
  RCC_ClkInitStruct.APB1CLKDivider = RCC_HCLK_DIV2;
 80006c4:	f44f 6380 	mov.w	r3, #1024	; 0x400
 80006c8:	613b      	str	r3, [r7, #16]
  RCC_ClkInitStruct.APB2CLKDivider = RCC_HCLK_DIV1;
 80006ca:	2300      	movs	r3, #0
 80006cc:	617b      	str	r3, [r7, #20]

  if (HAL_RCC_ClockConfig(&RCC_ClkInitStruct, FLASH_LATENCY_2) != HAL_OK)
 80006ce:	1d3b      	adds	r3, r7, #4
 80006d0:	2102      	movs	r1, #2
 80006d2:	4618      	mov	r0, r3
 80006d4:	f001 f88c 	bl	80017f0 <HAL_RCC_ClockConfig>
 80006d8:	4603      	mov	r3, r0
 80006da:	2b00      	cmp	r3, #0
 80006dc:	d001      	beq.n	80006e2 <SystemClock_Config+0x82>
  {
    Error_Handler();
 80006de:	f000 f804 	bl	80006ea <Error_Handler>
  }
}
 80006e2:	bf00      	nop
 80006e4:	3740      	adds	r7, #64	; 0x40
 80006e6:	46bd      	mov	sp, r7
 80006e8:	bd80      	pop	{r7, pc}

080006ea <Error_Handler>:
/**
  * @brief  This function is executed in case of error occurrence.
  * @retval None
  */
void Error_Handler(void)
{
 80006ea:	b480      	push	{r7}
 80006ec:	af00      	add	r7, sp, #0
  /* USER CODE BEGIN Error_Handler_Debug */
  /* User can add his own implementation to report the HAL error return state */

  /* USER CODE END Error_Handler_Debug */
}
 80006ee:	bf00      	nop
 80006f0:	46bd      	mov	sp, r7
 80006f2:	bc80      	pop	{r7}
 80006f4:	4770      	bx	lr
	...

080006f8 <HAL_MspInit>:
/* USER CODE END 0 */
/**
  * Initializes the Global MSP.
  */
void HAL_MspInit(void)
{
 80006f8:	b480      	push	{r7}
 80006fa:	b085      	sub	sp, #20
 80006fc:	af00      	add	r7, sp, #0
  /* USER CODE BEGIN MspInit 0 */

  /* USER CODE END MspInit 0 */

  __HAL_RCC_AFIO_CLK_ENABLE();
 80006fe:	4b15      	ldr	r3, [pc, #84]	; (8000754 <HAL_MspInit+0x5c>)
 8000700:	699b      	ldr	r3, [r3, #24]
 8000702:	4a14      	ldr	r2, [pc, #80]	; (8000754 <HAL_MspInit+0x5c>)
 8000704:	f043 0301 	orr.w	r3, r3, #1
 8000708:	6193      	str	r3, [r2, #24]
 800070a:	4b12      	ldr	r3, [pc, #72]	; (8000754 <HAL_MspInit+0x5c>)
 800070c:	699b      	ldr	r3, [r3, #24]
 800070e:	f003 0301 	and.w	r3, r3, #1
 8000712:	60bb      	str	r3, [r7, #8]
 8000714:	68bb      	ldr	r3, [r7, #8]
  __HAL_RCC_PWR_CLK_ENABLE();
 8000716:	4b0f      	ldr	r3, [pc, #60]	; (8000754 <HAL_MspInit+0x5c>)
 8000718:	69db      	ldr	r3, [r3, #28]
 800071a:	4a0e      	ldr	r2, [pc, #56]	; (8000754 <HAL_MspInit+0x5c>)
 800071c:	f043 5380 	orr.w	r3, r3, #268435456	; 0x10000000
 8000720:	61d3      	str	r3, [r2, #28]
 8000722:	4b0c      	ldr	r3, [pc, #48]	; (8000754 <HAL_MspInit+0x5c>)
 8000724:	69db      	ldr	r3, [r3, #28]
 8000726:	f003 5380 	and.w	r3, r3, #268435456	; 0x10000000
 800072a:	607b      	str	r3, [r7, #4]
 800072c:	687b      	ldr	r3, [r7, #4]

  /* System interrupt init*/

  /** NOJTAG: JTAG-DP Disabled and SW-DP Enabled 
  */
  __HAL_AFIO_REMAP_SWJ_NOJTAG();
 800072e:	4b0a      	ldr	r3, [pc, #40]	; (8000758 <HAL_MspInit+0x60>)
 8000730:	685b      	ldr	r3, [r3, #4]
 8000732:	60fb      	str	r3, [r7, #12]
 8000734:	68fb      	ldr	r3, [r7, #12]
 8000736:	f023 63e0 	bic.w	r3, r3, #117440512	; 0x7000000
 800073a:	60fb      	str	r3, [r7, #12]
 800073c:	68fb      	ldr	r3, [r7, #12]
 800073e:	f043 7300 	orr.w	r3, r3, #33554432	; 0x2000000
 8000742:	60fb      	str	r3, [r7, #12]
 8000744:	4a04      	ldr	r2, [pc, #16]	; (8000758 <HAL_MspInit+0x60>)
 8000746:	68fb      	ldr	r3, [r7, #12]
 8000748:	6053      	str	r3, [r2, #4]

  /* USER CODE BEGIN MspInit 1 */

  /* USER CODE END MspInit 1 */
}
 800074a:	bf00      	nop
 800074c:	3714      	adds	r7, #20
 800074e:	46bd      	mov	sp, r7
 8000750:	bc80      	pop	{r7}
 8000752:	4770      	bx	lr
 8000754:	40021000 	.word	0x40021000
 8000758:	40010000 	.word	0x40010000

0800075c <NMI_Handler>:
/******************************************************************************/
/**
  * @brief This function handles Non maskable interrupt.
  */
void NMI_Handler(void)
{
 800075c:	b480      	push	{r7}
 800075e:	af00      	add	r7, sp, #0

  /* USER CODE END NonMaskableInt_IRQn 0 */
  /* USER CODE BEGIN NonMaskableInt_IRQn 1 */

  /* USER CODE END NonMaskableInt_IRQn 1 */
}
 8000760:	bf00      	nop
 8000762:	46bd      	mov	sp, r7
 8000764:	bc80      	pop	{r7}
 8000766:	4770      	bx	lr

08000768 <HardFault_Handler>:

/**
  * @brief This function handles Hard fault interrupt.
  */
void HardFault_Handler(void)
{
 8000768:	b480      	push	{r7}
 800076a:	af00      	add	r7, sp, #0
  /* USER CODE BEGIN HardFault_IRQn 0 */

  /* USER CODE END HardFault_IRQn 0 */
  while (1)
 800076c:	e7fe      	b.n	800076c <HardFault_Handler+0x4>

0800076e <MemManage_Handler>:

/**
  * @brief This function handles Memory management fault.
  */
void MemManage_Handler(void)
{
 800076e:	b480      	push	{r7}
 8000770:	af00      	add	r7, sp, #0
  /* USER CODE BEGIN MemoryManagement_IRQn 0 */

  /* USER CODE END MemoryManagement_IRQn 0 */
  while (1)
 8000772:	e7fe      	b.n	8000772 <MemManage_Handler+0x4>

08000774 <BusFault_Handler>:

/**
  * @brief This function handles Prefetch fault, memory access fault.
  */
void BusFault_Handler(void)
{
 8000774:	b480      	push	{r7}
 8000776:	af00      	add	r7, sp, #0
  /* USER CODE BEGIN BusFault_IRQn 0 */

  /* USER CODE END BusFault_IRQn 0 */
  while (1)
 8000778:	e7fe      	b.n	8000778 <BusFault_Handler+0x4>

0800077a <UsageFault_Handler>:

/**
  * @brief This function handles Undefined instruction or illegal state.
  */
void UsageFault_Handler(void)
{
 800077a:	b480      	push	{r7}
 800077c:	af00      	add	r7, sp, #0
  /* USER CODE BEGIN UsageFault_IRQn 0 */

  /* USER CODE END UsageFault_IRQn 0 */
  while (1)
 800077e:	e7fe      	b.n	800077e <UsageFault_Handler+0x4>

08000780 <SVC_Handler>:

/**
  * @brief This function handles System service call via SWI instruction.
  */
void SVC_Handler(void)
{
 8000780:	b480      	push	{r7}
 8000782:	af00      	add	r7, sp, #0

  /* USER CODE END SVCall_IRQn 0 */
  /* USER CODE BEGIN SVCall_IRQn 1 */

  /* USER CODE END SVCall_IRQn 1 */
}
 8000784:	bf00      	nop
 8000786:	46bd      	mov	sp, r7
 8000788:	bc80      	pop	{r7}
 800078a:	4770      	bx	lr

0800078c <DebugMon_Handler>:

/**
  * @brief This function handles Debug monitor.
  */
void DebugMon_Handler(void)
{
 800078c:	b480      	push	{r7}
 800078e:	af00      	add	r7, sp, #0

  /* USER CODE END DebugMonitor_IRQn 0 */
  /* USER CODE BEGIN DebugMonitor_IRQn 1 */

  /* USER CODE END DebugMonitor_IRQn 1 */
}
 8000790:	bf00      	nop
 8000792:	46bd      	mov	sp, r7
 8000794:	bc80      	pop	{r7}
 8000796:	4770      	bx	lr

08000798 <PendSV_Handler>:

/**
  * @brief This function handles Pendable request for system service.
  */
void PendSV_Handler(void)
{
 8000798:	b480      	push	{r7}
 800079a:	af00      	add	r7, sp, #0

  /* USER CODE END PendSV_IRQn 0 */
  /* USER CODE BEGIN PendSV_IRQn 1 */

  /* USER CODE END PendSV_IRQn 1 */
}
 800079c:	bf00      	nop
 800079e:	46bd      	mov	sp, r7
 80007a0:	bc80      	pop	{r7}
 80007a2:	4770      	bx	lr

080007a4 <SysTick_Handler>:

/**
  * @brief This function handles System tick timer.
  */
void SysTick_Handler(void)
{
 80007a4:	b580      	push	{r7, lr}
 80007a6:	af00      	add	r7, sp, #0
  /* USER CODE BEGIN SysTick_IRQn 0 */

  /* USER CODE END SysTick_IRQn 0 */
  HAL_IncTick();
 80007a8:	f000 fa3e 	bl	8000c28 <HAL_IncTick>
  /* USER CODE BEGIN SysTick_IRQn 1 */

  /* USER CODE END SysTick_IRQn 1 */
}
 80007ac:	bf00      	nop
 80007ae:	bd80      	pop	{r7, pc}

080007b0 <_sbrk>:
/**
 _sbrk
 Increase program data space. Malloc and related functions depend on this
**/
caddr_t _sbrk(int incr)
{
 80007b0:	b580      	push	{r7, lr}
 80007b2:	b084      	sub	sp, #16
 80007b4:	af00      	add	r7, sp, #0
 80007b6:	6078      	str	r0, [r7, #4]
	extern char end asm("end");
	static char *heap_end;
	char *prev_heap_end;

	if (heap_end == 0)
 80007b8:	4b11      	ldr	r3, [pc, #68]	; (8000800 <_sbrk+0x50>)
 80007ba:	681b      	ldr	r3, [r3, #0]
 80007bc:	2b00      	cmp	r3, #0
 80007be:	d102      	bne.n	80007c6 <_sbrk+0x16>
		heap_end = &end;
 80007c0:	4b0f      	ldr	r3, [pc, #60]	; (8000800 <_sbrk+0x50>)
 80007c2:	4a10      	ldr	r2, [pc, #64]	; (8000804 <_sbrk+0x54>)
 80007c4:	601a      	str	r2, [r3, #0]

	prev_heap_end = heap_end;
 80007c6:	4b0e      	ldr	r3, [pc, #56]	; (8000800 <_sbrk+0x50>)
 80007c8:	681b      	ldr	r3, [r3, #0]
 80007ca:	60fb      	str	r3, [r7, #12]
	if (heap_end + incr > stack_ptr)
 80007cc:	4b0c      	ldr	r3, [pc, #48]	; (8000800 <_sbrk+0x50>)
 80007ce:	681a      	ldr	r2, [r3, #0]
 80007d0:	687b      	ldr	r3, [r7, #4]
 80007d2:	4413      	add	r3, r2
 80007d4:	466a      	mov	r2, sp
 80007d6:	4293      	cmp	r3, r2
 80007d8:	d907      	bls.n	80007ea <_sbrk+0x3a>
	{
		errno = ENOMEM;
 80007da:	f001 fe55 	bl	8002488 <__errno>
 80007de:	4602      	mov	r2, r0
 80007e0:	230c      	movs	r3, #12
 80007e2:	6013      	str	r3, [r2, #0]
		return (caddr_t) -1;
 80007e4:	f04f 33ff 	mov.w	r3, #4294967295
 80007e8:	e006      	b.n	80007f8 <_sbrk+0x48>
	}

	heap_end += incr;
 80007ea:	4b05      	ldr	r3, [pc, #20]	; (8000800 <_sbrk+0x50>)
 80007ec:	681a      	ldr	r2, [r3, #0]
 80007ee:	687b      	ldr	r3, [r7, #4]
 80007f0:	4413      	add	r3, r2
 80007f2:	4a03      	ldr	r2, [pc, #12]	; (8000800 <_sbrk+0x50>)
 80007f4:	6013      	str	r3, [r2, #0]

	return (caddr_t) prev_heap_end;
 80007f6:	68fb      	ldr	r3, [r7, #12]
}
 80007f8:	4618      	mov	r0, r3
 80007fa:	3710      	adds	r7, #16
 80007fc:	46bd      	mov	sp, r7
 80007fe:	bd80      	pop	{r7, pc}
 8000800:	20000094 	.word	0x20000094
 8000804:	20000148 	.word	0x20000148

08000808 <SystemInit>:
  * @note   This function should be used only after reset.
  * @param  None
  * @retval None
  */
void SystemInit (void)
{
 8000808:	b480      	push	{r7}
 800080a:	af00      	add	r7, sp, #0
  /* Reset the RCC clock configuration to the default reset state(for debug purpose) */
  /* Set HSION bit */
  RCC->CR |= 0x00000001U;
 800080c:	4b15      	ldr	r3, [pc, #84]	; (8000864 <SystemInit+0x5c>)
 800080e:	681b      	ldr	r3, [r3, #0]
 8000810:	4a14      	ldr	r2, [pc, #80]	; (8000864 <SystemInit+0x5c>)
 8000812:	f043 0301 	orr.w	r3, r3, #1
 8000816:	6013      	str	r3, [r2, #0]

  /* Reset SW, HPRE, PPRE1, PPRE2, ADCPRE and MCO bits */
#if !defined(STM32F105xC) && !defined(STM32F107xC)
  RCC->CFGR &= 0xF8FF0000U;
 8000818:	4b12      	ldr	r3, [pc, #72]	; (8000864 <SystemInit+0x5c>)
 800081a:	685a      	ldr	r2, [r3, #4]
 800081c:	4911      	ldr	r1, [pc, #68]	; (8000864 <SystemInit+0x5c>)
 800081e:	4b12      	ldr	r3, [pc, #72]	; (8000868 <SystemInit+0x60>)
 8000820:	4013      	ands	r3, r2
 8000822:	604b      	str	r3, [r1, #4]
#else
  RCC->CFGR &= 0xF0FF0000U;
#endif /* STM32F105xC */   
  
  /* Reset HSEON, CSSON and PLLON bits */
  RCC->CR &= 0xFEF6FFFFU;
 8000824:	4b0f      	ldr	r3, [pc, #60]	; (8000864 <SystemInit+0x5c>)
 8000826:	681b      	ldr	r3, [r3, #0]
 8000828:	4a0e      	ldr	r2, [pc, #56]	; (8000864 <SystemInit+0x5c>)
 800082a:	f023 7384 	bic.w	r3, r3, #17301504	; 0x1080000
 800082e:	f423 3380 	bic.w	r3, r3, #65536	; 0x10000
 8000832:	6013      	str	r3, [r2, #0]

  /* Reset HSEBYP bit */
  RCC->CR &= 0xFFFBFFFFU;
 8000834:	4b0b      	ldr	r3, [pc, #44]	; (8000864 <SystemInit+0x5c>)
 8000836:	681b      	ldr	r3, [r3, #0]
 8000838:	4a0a      	ldr	r2, [pc, #40]	; (8000864 <SystemInit+0x5c>)
 800083a:	f423 2380 	bic.w	r3, r3, #262144	; 0x40000
 800083e:	6013      	str	r3, [r2, #0]

  /* Reset PLLSRC, PLLXTPRE, PLLMUL and USBPRE/OTGFSPRE bits */
  RCC->CFGR &= 0xFF80FFFFU;
 8000840:	4b08      	ldr	r3, [pc, #32]	; (8000864 <SystemInit+0x5c>)
 8000842:	685b      	ldr	r3, [r3, #4]
 8000844:	4a07      	ldr	r2, [pc, #28]	; (8000864 <SystemInit+0x5c>)
 8000846:	f423 03fe 	bic.w	r3, r3, #8323072	; 0x7f0000
 800084a:	6053      	str	r3, [r2, #4]

  /* Reset CFGR2 register */
  RCC->CFGR2 = 0x00000000U;      
#else
  /* Disable all interrupts and clear pending bits  */
  RCC->CIR = 0x009F0000U;
 800084c:	4b05      	ldr	r3, [pc, #20]	; (8000864 <SystemInit+0x5c>)
 800084e:	f44f 021f 	mov.w	r2, #10420224	; 0x9f0000
 8000852:	609a      	str	r2, [r3, #8]
#endif 

#ifdef VECT_TAB_SRAM
  SCB->VTOR = SRAM_BASE | VECT_TAB_OFFSET; /* Vector Table Relocation in Internal SRAM. */
#else
  SCB->VTOR = FLASH_BASE | VECT_TAB_OFFSET; /* Vector Table Relocation in Internal FLASH. */
 8000854:	4b05      	ldr	r3, [pc, #20]	; (800086c <SystemInit+0x64>)
 8000856:	f04f 6200 	mov.w	r2, #134217728	; 0x8000000
 800085a:	609a      	str	r2, [r3, #8]
#endif 
}
 800085c:	bf00      	nop
 800085e:	46bd      	mov	sp, r7
 8000860:	bc80      	pop	{r7}
 8000862:	4770      	bx	lr
 8000864:	40021000 	.word	0x40021000
 8000868:	f8ff0000 	.word	0xf8ff0000
 800086c:	e000ed00 	.word	0xe000ed00

08000870 <HAL_UART_MspInit>:
{
	HAL_UART_Receive_DMA(&uart1_common->uart_handle, Data, len); //重新打开DMA接收
}
#endif

void HAL_UART_MspInit(UART_HandleTypeDef *uartHandle) {
 8000870:	b580      	push	{r7, lr}
 8000872:	b088      	sub	sp, #32
 8000874:	af02      	add	r7, sp, #8
 8000876:	6078      	str	r0, [r7, #4]
	GPIO_COMMON *u1_txd = NULL, *u1_rxd = NULL;
 8000878:	2300      	movs	r3, #0
 800087a:	617b      	str	r3, [r7, #20]
 800087c:	2300      	movs	r3, #0
 800087e:	613b      	str	r3, [r7, #16]

	if (uartHandle->Instance == USART1) {
 8000880:	687b      	ldr	r3, [r7, #4]
 8000882:	681b      	ldr	r3, [r3, #0]
 8000884:	4a19      	ldr	r2, [pc, #100]	; (80008ec <HAL_UART_MspInit+0x7c>)
 8000886:	4293      	cmp	r3, r2
 8000888:	d12b      	bne.n	80008e2 <HAL_UART_MspInit+0x72>
		/* USART1 clock enable */
		__HAL_RCC_USART1_CLK_ENABLE();
 800088a:	4b19      	ldr	r3, [pc, #100]	; (80008f0 <HAL_UART_MspInit+0x80>)
 800088c:	699b      	ldr	r3, [r3, #24]
 800088e:	4a18      	ldr	r2, [pc, #96]	; (80008f0 <HAL_UART_MspInit+0x80>)
 8000890:	f443 4380 	orr.w	r3, r3, #16384	; 0x4000
 8000894:	6193      	str	r3, [r2, #24]
 8000896:	4b16      	ldr	r3, [pc, #88]	; (80008f0 <HAL_UART_MspInit+0x80>)
 8000898:	699b      	ldr	r3, [r3, #24]
 800089a:	f403 4380 	and.w	r3, r3, #16384	; 0x4000
 800089e:	60fb      	str	r3, [r7, #12]
 80008a0:	68fb      	ldr	r3, [r7, #12]

		//    /**USART1 GPIO Configuration
		//    PA9     ------> USART1_TX
		//    PA10     ------> USART1_RX
		//    */
		u1_txd = new_Gpio(u1_txd, GPIOA, GPIO_PIN_9, GPIO_MODE_AF_PP,
 80008a2:	2303      	movs	r3, #3
 80008a4:	9301      	str	r3, [sp, #4]
 80008a6:	2300      	movs	r3, #0
 80008a8:	9300      	str	r3, [sp, #0]
 80008aa:	2302      	movs	r3, #2
 80008ac:	f44f 7200 	mov.w	r2, #512	; 0x200
 80008b0:	4910      	ldr	r1, [pc, #64]	; (80008f4 <HAL_UART_MspInit+0x84>)
 80008b2:	6978      	ldr	r0, [r7, #20]
 80008b4:	f7ff fdc4 	bl	8000440 <new_Gpio>
 80008b8:	6178      	str	r0, [r7, #20]
		GPIO_NOPULL, GPIO_SPEED_FREQ_HIGH);
		u1_rxd = new_Gpio(u1_rxd, GPIOA, GPIO_PIN_10, GPIO_MODE_INPUT,
 80008ba:	2303      	movs	r3, #3
 80008bc:	9301      	str	r3, [sp, #4]
 80008be:	2300      	movs	r3, #0
 80008c0:	9300      	str	r3, [sp, #0]
 80008c2:	2300      	movs	r3, #0
 80008c4:	f44f 6280 	mov.w	r2, #1024	; 0x400
 80008c8:	490a      	ldr	r1, [pc, #40]	; (80008f4 <HAL_UART_MspInit+0x84>)
 80008ca:	6938      	ldr	r0, [r7, #16]
 80008cc:	f7ff fdb8 	bl	8000440 <new_Gpio>
 80008d0:	6138      	str	r0, [r7, #16]
		}

		__HAL_LINKDMA(uartHandle, hdmatx, hdma_usart1_tx);

#endif
		HAL_NVIC_SetPriority(USART1_IRQn, 0, 0);
 80008d2:	2200      	movs	r2, #0
 80008d4:	2100      	movs	r1, #0
 80008d6:	2025      	movs	r0, #37	; 0x25
 80008d8:	f000 fabb 	bl	8000e52 <HAL_NVIC_SetPriority>
		HAL_NVIC_EnableIRQ(USART1_IRQn);
 80008dc:	2025      	movs	r0, #37	; 0x25
 80008de:	f000 fad4 	bl	8000e8a <HAL_NVIC_EnableIRQ>
	}
}
 80008e2:	bf00      	nop
 80008e4:	3718      	adds	r7, #24
 80008e6:	46bd      	mov	sp, r7
 80008e8:	bd80      	pop	{r7, pc}
 80008ea:	bf00      	nop
 80008ec:	40013800 	.word	0x40013800
 80008f0:	40021000 	.word	0x40021000
 80008f4:	40010800 	.word	0x40010800

080008f8 <USART1_IRQHandler>:
#endif
		HAL_NVIC_DisableIRQ(USART1_IRQn);
	}
}

void USART1_IRQHandler(void) {
 80008f8:	b580      	push	{r7, lr}
 80008fa:	b082      	sub	sp, #8
 80008fc:	af00      	add	r7, sp, #0
		uart1_common->rx_len = MAX_RX_LENGTH - temp; //总计数减去未传输的数据个数，得到已经接收的数据个数
		uart1_common->rx_flag = 1;	// 接受完成标志位置1
	}
	HAL_UART_IRQHandler(&uart1_common->uart_handle);
#else
	u32 timeout = 0;
 80008fe:	2300      	movs	r3, #0
 8000900:	607b      	str	r3, [r7, #4]
	u32 maxDelay = 0x1FFFF;
 8000902:	4b1a      	ldr	r3, [pc, #104]	; (800096c <USART1_IRQHandler+0x74>)
 8000904:	603b      	str	r3, [r7, #0]

	HAL_UART_IRQHandler(&uart1_common->uart_handle);	//调用HAL库中断处理公用函数
 8000906:	4b1a      	ldr	r3, [pc, #104]	; (8000970 <USART1_IRQHandler+0x78>)
 8000908:	681b      	ldr	r3, [r3, #0]
 800090a:	4618      	mov	r0, r3
 800090c:	f001 fa46 	bl	8001d9c <HAL_UART_IRQHandler>

	timeout = 0;
 8000910:	2300      	movs	r3, #0
 8000912:	607b      	str	r3, [r7, #4]
	while (HAL_UART_GetState(&uart1_common->uart_handle) != HAL_UART_STATE_READY)	//等待就绪
 8000914:	e006      	b.n	8000924 <USART1_IRQHandler+0x2c>
	{
		timeout++;	////超时处理
 8000916:	687b      	ldr	r3, [r7, #4]
 8000918:	3301      	adds	r3, #1
 800091a:	607b      	str	r3, [r7, #4]
		if (timeout > maxDelay)
 800091c:	687a      	ldr	r2, [r7, #4]
 800091e:	683b      	ldr	r3, [r7, #0]
 8000920:	429a      	cmp	r2, r3
 8000922:	d808      	bhi.n	8000936 <USART1_IRQHandler+0x3e>
	while (HAL_UART_GetState(&uart1_common->uart_handle) != HAL_UART_STATE_READY)	//等待就绪
 8000924:	4b12      	ldr	r3, [pc, #72]	; (8000970 <USART1_IRQHandler+0x78>)
 8000926:	681b      	ldr	r3, [r3, #0]
 8000928:	4618      	mov	r0, r3
 800092a:	f001 fb45 	bl	8001fb8 <HAL_UART_GetState>
 800092e:	4603      	mov	r3, r0
 8000930:	2b20      	cmp	r3, #32
 8000932:	d1f0      	bne.n	8000916 <USART1_IRQHandler+0x1e>
 8000934:	e000      	b.n	8000938 <USART1_IRQHandler+0x40>
			break;
 8000936:	bf00      	nop
	}

	timeout = 0;
 8000938:	2300      	movs	r3, #0
 800093a:	607b      	str	r3, [r7, #4]
	while (HAL_UART_Receive_IT(&uart1_common->uart_handle, (u8*) aRxBuffer, 1) != HAL_OK)//一次处理完成之后，重新开启中断并设置RxXferCount为1
 800093c:	e006      	b.n	800094c <USART1_IRQHandler+0x54>
	{
		timeout++; //超时处理
 800093e:	687b      	ldr	r3, [r7, #4]
 8000940:	3301      	adds	r3, #1
 8000942:	607b      	str	r3, [r7, #4]
		if (timeout > maxDelay)
 8000944:	687a      	ldr	r2, [r7, #4]
 8000946:	683b      	ldr	r3, [r7, #0]
 8000948:	429a      	cmp	r2, r3
 800094a:	d80a      	bhi.n	8000962 <USART1_IRQHandler+0x6a>
	while (HAL_UART_Receive_IT(&uart1_common->uart_handle, (u8*) aRxBuffer, 1) != HAL_OK)//一次处理完成之后，重新开启中断并设置RxXferCount为1
 800094c:	4b08      	ldr	r3, [pc, #32]	; (8000970 <USART1_IRQHandler+0x78>)
 800094e:	681b      	ldr	r3, [r3, #0]
 8000950:	2201      	movs	r2, #1
 8000952:	4908      	ldr	r1, [pc, #32]	; (8000974 <USART1_IRQHandler+0x7c>)
 8000954:	4618      	mov	r0, r3
 8000956:	f001 f9cd 	bl	8001cf4 <HAL_UART_Receive_IT>
 800095a:	4603      	mov	r3, r0
 800095c:	2b00      	cmp	r3, #0
 800095e:	d1ee      	bne.n	800093e <USART1_IRQHandler+0x46>
			break;
	}
#endif
}
 8000960:	e000      	b.n	8000964 <USART1_IRQHandler+0x6c>
			break;
 8000962:	bf00      	nop
}
 8000964:	bf00      	nop
 8000966:	3708      	adds	r7, #8
 8000968:	46bd      	mov	sp, r7
 800096a:	bd80      	pop	{r7, pc}
 800096c:	0001ffff 	.word	0x0001ffff
 8000970:	20000138 	.word	0x20000138
 8000974:	20000134 	.word	0x20000134

08000978 <uart_clear_rec>:

void uart_clear_rec(struct UART_COMMON *this) {
 8000978:	b580      	push	{r7, lr}
 800097a:	b082      	sub	sp, #8
 800097c:	af00      	add	r7, sp, #0
 800097e:	6078      	str	r0, [r7, #4]
	memset(this->rx_buf, 0, this->rx_len);
 8000980:	687b      	ldr	r3, [r7, #4]
 8000982:	f103 0044 	add.w	r0, r3, #68	; 0x44
 8000986:	687b      	ldr	r3, [r7, #4]
 8000988:	f8b3 3042 	ldrh.w	r3, [r3, #66]	; 0x42
 800098c:	461a      	mov	r2, r3
 800098e:	2100      	movs	r1, #0
 8000990:	f001 fda4 	bl	80024dc <memset>
	this->rx_flag = 0;
 8000994:	687b      	ldr	r3, [r7, #4]
 8000996:	2200      	movs	r2, #0
 8000998:	f883 2040 	strb.w	r2, [r3, #64]	; 0x40
	this->rx_len = 0;
 800099c:	687b      	ldr	r3, [r7, #4]
 800099e:	2200      	movs	r2, #0
 80009a0:	f8a3 2042 	strh.w	r2, [r3, #66]	; 0x42
}
 80009a4:	bf00      	nop
 80009a6:	3708      	adds	r7, #8
 80009a8:	46bd      	mov	sp, r7
 80009aa:	bd80      	pop	{r7, pc}

080009ac <uart_printf>:

void uart_printf(struct UART_COMMON *this, char *fmt, ...) {	//通过任意串口发送字符串
 80009ac:	b40e      	push	{r1, r2, r3}
 80009ae:	b580      	push	{r7, lr}
 80009b0:	b085      	sub	sp, #20
 80009b2:	af00      	add	r7, sp, #0
 80009b4:	6078      	str	r0, [r7, #4]
	u16 i;
	va_list ap;
	va_start(ap, fmt);
 80009b6:	f107 0320 	add.w	r3, r7, #32
 80009ba:	60bb      	str	r3, [r7, #8]
	vsprintf((char*) this->tx_buf, fmt, ap);
 80009bc:	687b      	ldr	r3, [r7, #4]
 80009be:	33c4      	adds	r3, #196	; 0xc4
 80009c0:	68ba      	ldr	r2, [r7, #8]
 80009c2:	69f9      	ldr	r1, [r7, #28]
 80009c4:	4618      	mov	r0, r3
 80009c6:	f001 fe1f 	bl	8002608 <vsiprintf>
	va_end(ap);
	i = strlen((const char*) this->tx_buf);		//此次发送数据的长度
 80009ca:	687b      	ldr	r3, [r7, #4]
 80009cc:	33c4      	adds	r3, #196	; 0xc4
 80009ce:	4618      	mov	r0, r3
 80009d0:	f7ff fbbc 	bl	800014c <strlen>
 80009d4:	4603      	mov	r3, r0
 80009d6:	81fb      	strh	r3, [r7, #14]
#ifdef UART_USE_DMA
	HAL_UART_Transmit_DMA(&this->uart_handle, (uint8_t*) this->tx_buf, i);
#else
	HAL_UART_Transmit(&this->uart_handle, (uint8_t*) this->tx_buf, i, 0xffff);
 80009d8:	6878      	ldr	r0, [r7, #4]
 80009da:	687b      	ldr	r3, [r7, #4]
 80009dc:	f103 01c4 	add.w	r1, r3, #196	; 0xc4
 80009e0:	89fa      	ldrh	r2, [r7, #14]
 80009e2:	f64f 73ff 	movw	r3, #65535	; 0xffff
 80009e6:	f001 f8ec 	bl	8001bc2 <HAL_UART_Transmit>
#endif
}
 80009ea:	bf00      	nop
 80009ec:	3714      	adds	r7, #20
 80009ee:	46bd      	mov	sp, r7
 80009f0:	e8bd 4080 	ldmia.w	sp!, {r7, lr}
 80009f4:	b003      	add	sp, #12
 80009f6:	4770      	bx	lr

080009f8 <new_Uart>:

UART_COMMON* new_Uart(struct UART_COMMON *this, USART_TypeDef *port, u32 baud)//串口的初始化与相关函数注册
{
 80009f8:	b580      	push	{r7, lr}
 80009fa:	b084      	sub	sp, #16
 80009fc:	af00      	add	r7, sp, #0
 80009fe:	60f8      	str	r0, [r7, #12]
 8000a00:	60b9      	str	r1, [r7, #8]
 8000a02:	607a      	str	r2, [r7, #4]
	this = (struct UART_COMMON*) calloc(1, sizeof(struct UART_COMMON));
 8000a04:	f44f 71a6 	mov.w	r1, #332	; 0x14c
 8000a08:	2001      	movs	r0, #1
 8000a0a:	f001 fd35 	bl	8002478 <calloc>
 8000a0e:	4603      	mov	r3, r0
 8000a10:	60fb      	str	r3, [r7, #12]
	this->uart_handle.Instance = port;
 8000a12:	68fb      	ldr	r3, [r7, #12]
 8000a14:	68ba      	ldr	r2, [r7, #8]
 8000a16:	601a      	str	r2, [r3, #0]
	this->uart_handle.Init.BaudRate = baud;
 8000a18:	68fb      	ldr	r3, [r7, #12]
 8000a1a:	687a      	ldr	r2, [r7, #4]
 8000a1c:	605a      	str	r2, [r3, #4]
	this->uart_handle.Init.WordLength = UART_WORDLENGTH_8B;
 8000a1e:	68fb      	ldr	r3, [r7, #12]
 8000a20:	2200      	movs	r2, #0
 8000a22:	609a      	str	r2, [r3, #8]
	this->uart_handle.Init.StopBits = UART_STOPBITS_1;
 8000a24:	68fb      	ldr	r3, [r7, #12]
 8000a26:	2200      	movs	r2, #0
 8000a28:	60da      	str	r2, [r3, #12]
	this->uart_handle.Init.Parity = UART_PARITY_NONE;
 8000a2a:	68fb      	ldr	r3, [r7, #12]
 8000a2c:	2200      	movs	r2, #0
 8000a2e:	611a      	str	r2, [r3, #16]
	this->uart_handle.Init.Mode = UART_MODE_TX_RX;
 8000a30:	68fb      	ldr	r3, [r7, #12]
 8000a32:	220c      	movs	r2, #12
 8000a34:	615a      	str	r2, [r3, #20]
	this->uart_handle.Init.HwFlowCtl = UART_HWCONTROL_NONE;
 8000a36:	68fb      	ldr	r3, [r7, #12]
 8000a38:	2200      	movs	r2, #0
 8000a3a:	619a      	str	r2, [r3, #24]
	this->uart_handle.Init.OverSampling = UART_OVERSAMPLING_16;
 8000a3c:	68fb      	ldr	r3, [r7, #12]
 8000a3e:	2200      	movs	r2, #0
 8000a40:	61da      	str	r2, [r3, #28]
	if (HAL_UART_Init(&this->uart_handle) != HAL_OK) {
 8000a42:	68fb      	ldr	r3, [r7, #12]
 8000a44:	4618      	mov	r0, r3
 8000a46:	f001 f86f 	bl	8001b28 <HAL_UART_Init>
 8000a4a:	4603      	mov	r3, r0
 8000a4c:	2b00      	cmp	r3, #0
 8000a4e:	d001      	beq.n	8000a54 <new_Uart+0x5c>
		Error_Handler();
 8000a50:	f7ff fe4b 	bl	80006ea <Error_Handler>
	__HAL_UART_ENABLE_IT(&this->uart_handle, UART_IT_IDLE); //使能IDLE中断

	//DMA接收函数，此句一定要加，不加接收不到第一次传进来的实数据，是空的，且此时接收到的数据长度为缓存器的数据长度
	HAL_UART_Receive_DMA(&this->uart_handle, this->rx_buf,MAX_RX_LENGTH);
#else
	HAL_UART_Receive_IT(&this->uart_handle, (u8*) aRxBuffer, 1);
 8000a54:	68fb      	ldr	r3, [r7, #12]
 8000a56:	2201      	movs	r2, #1
 8000a58:	4908      	ldr	r1, [pc, #32]	; (8000a7c <new_Uart+0x84>)
 8000a5a:	4618      	mov	r0, r3
 8000a5c:	f001 f94a 	bl	8001cf4 <HAL_UART_Receive_IT>
#endif
	this->UClearRec = uart_clear_rec;
 8000a60:	68fb      	ldr	r3, [r7, #12]
 8000a62:	4a07      	ldr	r2, [pc, #28]	; (8000a80 <new_Uart+0x88>)
 8000a64:	f8c3 2144 	str.w	r2, [r3, #324]	; 0x144
	this->UPrintf = uart_printf;
 8000a68:	68fb      	ldr	r3, [r7, #12]
 8000a6a:	4a06      	ldr	r2, [pc, #24]	; (8000a84 <new_Uart+0x8c>)
 8000a6c:	f8c3 2148 	str.w	r2, [r3, #328]	; 0x148
	return this;
 8000a70:	68fb      	ldr	r3, [r7, #12]
}
 8000a72:	4618      	mov	r0, r3
 8000a74:	3710      	adds	r7, #16
 8000a76:	46bd      	mov	sp, r7
 8000a78:	bd80      	pop	{r7, pc}
 8000a7a:	bf00      	nop
 8000a7c:	20000134 	.word	0x20000134
 8000a80:	08000979 	.word	0x08000979
 8000a84:	080009ad 	.word	0x080009ad

08000a88 <HAL_UART_RxCpltCallback>:

void HAL_UART_RxCpltCallback(UART_HandleTypeDef *huart) {
 8000a88:	b580      	push	{r7, lr}
 8000a8a:	b082      	sub	sp, #8
 8000a8c:	af00      	add	r7, sp, #0
 8000a8e:	6078      	str	r0, [r7, #4]
#ifdef UART_USE_DMA
#else
	if (huart->Instance == USART1) //如果是串口1
 8000a90:	687b      	ldr	r3, [r7, #4]
 8000a92:	681b      	ldr	r3, [r3, #0]
 8000a94:	4a2b      	ldr	r2, [pc, #172]	; (8000b44 <HAL_UART_RxCpltCallback+0xbc>)
 8000a96:	4293      	cmp	r3, r2
 8000a98:	d14f      	bne.n	8000b3a <HAL_UART_RxCpltCallback+0xb2>
	{
		if (((uart1_common->rx_flag) & 0x80) == 0) //接收未完成
 8000a9a:	4b2b      	ldr	r3, [pc, #172]	; (8000b48 <HAL_UART_RxCpltCallback+0xc0>)
 8000a9c:	681b      	ldr	r3, [r3, #0]
 8000a9e:	f893 3040 	ldrb.w	r3, [r3, #64]	; 0x40
 8000aa2:	b25b      	sxtb	r3, r3
 8000aa4:	2b00      	cmp	r3, #0
 8000aa6:	db48      	blt.n	8000b3a <HAL_UART_RxCpltCallback+0xb2>
				{
			if ((uart1_common->rx_flag) & 0x40) //接收到了0x0d
 8000aa8:	4b27      	ldr	r3, [pc, #156]	; (8000b48 <HAL_UART_RxCpltCallback+0xc0>)
 8000aaa:	681b      	ldr	r3, [r3, #0]
 8000aac:	f893 3040 	ldrb.w	r3, [r3, #64]	; 0x40
 8000ab0:	f003 0340 	and.w	r3, r3, #64	; 0x40
 8000ab4:	2b00      	cmp	r3, #0
 8000ab6:	d015      	beq.n	8000ae4 <HAL_UART_RxCpltCallback+0x5c>
					{
				if (aRxBuffer[0] != 0x0a) {
 8000ab8:	4b24      	ldr	r3, [pc, #144]	; (8000b4c <HAL_UART_RxCpltCallback+0xc4>)
 8000aba:	781b      	ldrb	r3, [r3, #0]
 8000abc:	2b0a      	cmp	r3, #10
 8000abe:	d005      	beq.n	8000acc <HAL_UART_RxCpltCallback+0x44>
					uart_clear_rec(uart1_common); //接收错误,重新开始
 8000ac0:	4b21      	ldr	r3, [pc, #132]	; (8000b48 <HAL_UART_RxCpltCallback+0xc0>)
 8000ac2:	681b      	ldr	r3, [r3, #0]
 8000ac4:	4618      	mov	r0, r3
 8000ac6:	f7ff ff57 	bl	8000978 <uart_clear_rec>
				}
			}
		}
	}
#endif
}
 8000aca:	e036      	b.n	8000b3a <HAL_UART_RxCpltCallback+0xb2>
					uart1_common->rx_flag |= 0x80;	//接收完成了
 8000acc:	4b1e      	ldr	r3, [pc, #120]	; (8000b48 <HAL_UART_RxCpltCallback+0xc0>)
 8000ace:	681b      	ldr	r3, [r3, #0]
 8000ad0:	f893 2040 	ldrb.w	r2, [r3, #64]	; 0x40
 8000ad4:	4b1c      	ldr	r3, [pc, #112]	; (8000b48 <HAL_UART_RxCpltCallback+0xc0>)
 8000ad6:	681b      	ldr	r3, [r3, #0]
 8000ad8:	f062 027f 	orn	r2, r2, #127	; 0x7f
 8000adc:	b2d2      	uxtb	r2, r2
 8000ade:	f883 2040 	strb.w	r2, [r3, #64]	; 0x40
}
 8000ae2:	e02a      	b.n	8000b3a <HAL_UART_RxCpltCallback+0xb2>
				if (aRxBuffer[0] == 0x0d)
 8000ae4:	4b19      	ldr	r3, [pc, #100]	; (8000b4c <HAL_UART_RxCpltCallback+0xc4>)
 8000ae6:	781b      	ldrb	r3, [r3, #0]
 8000ae8:	2b0d      	cmp	r3, #13
 8000aea:	d10b      	bne.n	8000b04 <HAL_UART_RxCpltCallback+0x7c>
					uart1_common->rx_flag |= 0x40;
 8000aec:	4b16      	ldr	r3, [pc, #88]	; (8000b48 <HAL_UART_RxCpltCallback+0xc0>)
 8000aee:	681b      	ldr	r3, [r3, #0]
 8000af0:	f893 2040 	ldrb.w	r2, [r3, #64]	; 0x40
 8000af4:	4b14      	ldr	r3, [pc, #80]	; (8000b48 <HAL_UART_RxCpltCallback+0xc0>)
 8000af6:	681b      	ldr	r3, [r3, #0]
 8000af8:	f042 0240 	orr.w	r2, r2, #64	; 0x40
 8000afc:	b2d2      	uxtb	r2, r2
 8000afe:	f883 2040 	strb.w	r2, [r3, #64]	; 0x40
}
 8000b02:	e01a      	b.n	8000b3a <HAL_UART_RxCpltCallback+0xb2>
					uart1_common->rx_buf[uart1_common->rx_len++] = aRxBuffer[0];
 8000b04:	4b10      	ldr	r3, [pc, #64]	; (8000b48 <HAL_UART_RxCpltCallback+0xc0>)
 8000b06:	6819      	ldr	r1, [r3, #0]
 8000b08:	4b0f      	ldr	r3, [pc, #60]	; (8000b48 <HAL_UART_RxCpltCallback+0xc0>)
 8000b0a:	681b      	ldr	r3, [r3, #0]
 8000b0c:	f8b3 2042 	ldrh.w	r2, [r3, #66]	; 0x42
 8000b10:	1c50      	adds	r0, r2, #1
 8000b12:	b280      	uxth	r0, r0
 8000b14:	f8a3 0042 	strh.w	r0, [r3, #66]	; 0x42
 8000b18:	4610      	mov	r0, r2
 8000b1a:	4b0c      	ldr	r3, [pc, #48]	; (8000b4c <HAL_UART_RxCpltCallback+0xc4>)
 8000b1c:	781a      	ldrb	r2, [r3, #0]
 8000b1e:	180b      	adds	r3, r1, r0
 8000b20:	f883 2044 	strb.w	r2, [r3, #68]	; 0x44
					if (uart1_common->rx_len > (MAX_RX_LENGTH - 1)) {
 8000b24:	4b08      	ldr	r3, [pc, #32]	; (8000b48 <HAL_UART_RxCpltCallback+0xc0>)
 8000b26:	681b      	ldr	r3, [r3, #0]
 8000b28:	f8b3 3042 	ldrh.w	r3, [r3, #66]	; 0x42
 8000b2c:	2b7f      	cmp	r3, #127	; 0x7f
 8000b2e:	d904      	bls.n	8000b3a <HAL_UART_RxCpltCallback+0xb2>
						uart_clear_rec(uart1_common);	//接收错误,重新开始
 8000b30:	4b05      	ldr	r3, [pc, #20]	; (8000b48 <HAL_UART_RxCpltCallback+0xc0>)
 8000b32:	681b      	ldr	r3, [r3, #0]
 8000b34:	4618      	mov	r0, r3
 8000b36:	f7ff ff1f 	bl	8000978 <uart_clear_rec>
}
 8000b3a:	bf00      	nop
 8000b3c:	3708      	adds	r7, #8
 8000b3e:	46bd      	mov	sp, r7
 8000b40:	bd80      	pop	{r7, pc}
 8000b42:	bf00      	nop
 8000b44:	40013800 	.word	0x40013800
 8000b48:	20000138 	.word	0x20000138
 8000b4c:	20000134 	.word	0x20000134

08000b50 <Reset_Handler>:
  .weak Reset_Handler
  .type Reset_Handler, %function
Reset_Handler:

/* Copy the data segment initializers from flash to SRAM */
  movs r1, #0
 8000b50:	2100      	movs	r1, #0
  b LoopCopyDataInit
 8000b52:	e003      	b.n	8000b5c <LoopCopyDataInit>

08000b54 <CopyDataInit>:

CopyDataInit:
  ldr r3, =_sidata
 8000b54:	4b0b      	ldr	r3, [pc, #44]	; (8000b84 <LoopFillZerobss+0x14>)
  ldr r3, [r3, r1]
 8000b56:	585b      	ldr	r3, [r3, r1]
  str r3, [r0, r1]
 8000b58:	5043      	str	r3, [r0, r1]
  adds r1, r1, #4
 8000b5a:	3104      	adds	r1, #4

08000b5c <LoopCopyDataInit>:

LoopCopyDataInit:
  ldr r0, =_sdata
 8000b5c:	480a      	ldr	r0, [pc, #40]	; (8000b88 <LoopFillZerobss+0x18>)
  ldr r3, =_edata
 8000b5e:	4b0b      	ldr	r3, [pc, #44]	; (8000b8c <LoopFillZerobss+0x1c>)
  adds r2, r0, r1
 8000b60:	1842      	adds	r2, r0, r1
  cmp r2, r3
 8000b62:	429a      	cmp	r2, r3
  bcc CopyDataInit
 8000b64:	d3f6      	bcc.n	8000b54 <CopyDataInit>
  ldr r2, =_sbss
 8000b66:	4a0a      	ldr	r2, [pc, #40]	; (8000b90 <LoopFillZerobss+0x20>)
  b LoopFillZerobss
 8000b68:	e002      	b.n	8000b70 <LoopFillZerobss>

08000b6a <FillZerobss>:
/* Zero fill the bss segment. */
FillZerobss:
  movs r3, #0
 8000b6a:	2300      	movs	r3, #0
  str r3, [r2], #4
 8000b6c:	f842 3b04 	str.w	r3, [r2], #4

08000b70 <LoopFillZerobss>:

LoopFillZerobss:
  ldr r3, = _ebss
 8000b70:	4b08      	ldr	r3, [pc, #32]	; (8000b94 <LoopFillZerobss+0x24>)
  cmp r2, r3
 8000b72:	429a      	cmp	r2, r3
  bcc FillZerobss
 8000b74:	d3f9      	bcc.n	8000b6a <FillZerobss>

/* Call the clock system intitialization function.*/
    bl  SystemInit
 8000b76:	f7ff fe47 	bl	8000808 <SystemInit>
/* Call static constructors */
    bl __libc_init_array
 8000b7a:	f001 fc8b 	bl	8002494 <__libc_init_array>
/* Call the application's entry point.*/
  bl main
 8000b7e:	f7ff fcfb 	bl	8000578 <main>
  bx lr
 8000b82:	4770      	bx	lr
  ldr r3, =_sidata
 8000b84:	08002e08 	.word	0x08002e08
  ldr r0, =_sdata
 8000b88:	20000000 	.word	0x20000000
  ldr r3, =_edata
 8000b8c:	20000074 	.word	0x20000074
  ldr r2, =_sbss
 8000b90:	20000074 	.word	0x20000074
  ldr r3, = _ebss
 8000b94:	20000144 	.word	0x20000144

08000b98 <ADC1_2_IRQHandler>:
 * @retval : None
*/
    .section .text.Default_Handler,"ax",%progbits
Default_Handler:
Infinite_Loop:
  b Infinite_Loop
 8000b98:	e7fe      	b.n	8000b98 <ADC1_2_IRQHandler>
	...

08000b9c <HAL_Init>:
  *         need to ensure that the SysTick time base is always set to 1 millisecond
  *         to have correct HAL operation.
  * @retval HAL status
  */
HAL_StatusTypeDef HAL_Init(void)
{
 8000b9c:	b580      	push	{r7, lr}
 8000b9e:	af00      	add	r7, sp, #0
    defined(STM32F102x6) || defined(STM32F102xB) || \
    defined(STM32F103x6) || defined(STM32F103xB) || defined(STM32F103xE) || defined(STM32F103xG) || \
    defined(STM32F105xC) || defined(STM32F107xC)

  /* Prefetch buffer is not available on value line devices */
  __HAL_FLASH_PREFETCH_BUFFER_ENABLE();
 8000ba0:	4b08      	ldr	r3, [pc, #32]	; (8000bc4 <HAL_Init+0x28>)
 8000ba2:	681b      	ldr	r3, [r3, #0]
 8000ba4:	4a07      	ldr	r2, [pc, #28]	; (8000bc4 <HAL_Init+0x28>)
 8000ba6:	f043 0310 	orr.w	r3, r3, #16
 8000baa:	6013      	str	r3, [r2, #0]
#endif
#endif /* PREFETCH_ENABLE */

  /* Set Interrupt Group Priority */
  HAL_NVIC_SetPriorityGrouping(NVIC_PRIORITYGROUP_4);
 8000bac:	2003      	movs	r0, #3
 8000bae:	f000 f945 	bl	8000e3c <HAL_NVIC_SetPriorityGrouping>

  /* Use systick as time base source and configure 1ms tick (default clock after Reset is HSI) */
  HAL_InitTick(TICK_INT_PRIORITY);
 8000bb2:	2000      	movs	r0, #0
 8000bb4:	f000 f808 	bl	8000bc8 <HAL_InitTick>

  /* Init the low level hardware */
  HAL_MspInit();
 8000bb8:	f7ff fd9e 	bl	80006f8 <HAL_MspInit>

  /* Return function status */
  return HAL_OK;
 8000bbc:	2300      	movs	r3, #0
}
 8000bbe:	4618      	mov	r0, r3
 8000bc0:	bd80      	pop	{r7, pc}
 8000bc2:	bf00      	nop
 8000bc4:	40022000 	.word	0x40022000

08000bc8 <HAL_InitTick>:
  *       implementation  in user file.
  * @param TickPriority Tick interrupt priority.
  * @retval HAL status
  */
__weak HAL_StatusTypeDef HAL_InitTick(uint32_t TickPriority)
{
 8000bc8:	b580      	push	{r7, lr}
 8000bca:	b082      	sub	sp, #8
 8000bcc:	af00      	add	r7, sp, #0
 8000bce:	6078      	str	r0, [r7, #4]
  /* Configure the SysTick to have interrupt in 1ms time basis*/
  if (HAL_SYSTICK_Config(SystemCoreClock / (1000U / uwTickFreq)) > 0U)
 8000bd0:	4b12      	ldr	r3, [pc, #72]	; (8000c1c <HAL_InitTick+0x54>)
 8000bd2:	681a      	ldr	r2, [r3, #0]
 8000bd4:	4b12      	ldr	r3, [pc, #72]	; (8000c20 <HAL_InitTick+0x58>)
 8000bd6:	781b      	ldrb	r3, [r3, #0]
 8000bd8:	4619      	mov	r1, r3
 8000bda:	f44f 737a 	mov.w	r3, #1000	; 0x3e8
 8000bde:	fbb3 f3f1 	udiv	r3, r3, r1
 8000be2:	fbb2 f3f3 	udiv	r3, r2, r3
 8000be6:	4618      	mov	r0, r3
 8000be8:	f000 f95d 	bl	8000ea6 <HAL_SYSTICK_Config>
 8000bec:	4603      	mov	r3, r0
 8000bee:	2b00      	cmp	r3, #0
 8000bf0:	d001      	beq.n	8000bf6 <HAL_InitTick+0x2e>
  {
    return HAL_ERROR;
 8000bf2:	2301      	movs	r3, #1
 8000bf4:	e00e      	b.n	8000c14 <HAL_InitTick+0x4c>
  }

  /* Configure the SysTick IRQ priority */
  if (TickPriority < (1UL << __NVIC_PRIO_BITS))
 8000bf6:	687b      	ldr	r3, [r7, #4]
 8000bf8:	2b0f      	cmp	r3, #15
 8000bfa:	d80a      	bhi.n	8000c12 <HAL_InitTick+0x4a>
  {
    HAL_NVIC_SetPriority(SysTick_IRQn, TickPriority, 0U);
 8000bfc:	2200      	movs	r2, #0
 8000bfe:	6879      	ldr	r1, [r7, #4]
 8000c00:	f04f 30ff 	mov.w	r0, #4294967295
 8000c04:	f000 f925 	bl	8000e52 <HAL_NVIC_SetPriority>
    uwTickPrio = TickPriority;
 8000c08:	4a06      	ldr	r2, [pc, #24]	; (8000c24 <HAL_InitTick+0x5c>)
 8000c0a:	687b      	ldr	r3, [r7, #4]
 8000c0c:	6013      	str	r3, [r2, #0]
  {
    return HAL_ERROR;
  }

  /* Return function status */
  return HAL_OK;
 8000c0e:	2300      	movs	r3, #0
 8000c10:	e000      	b.n	8000c14 <HAL_InitTick+0x4c>
    return HAL_ERROR;
 8000c12:	2301      	movs	r3, #1
}
 8000c14:	4618      	mov	r0, r3
 8000c16:	3708      	adds	r7, #8
 8000c18:	46bd      	mov	sp, r7
 8000c1a:	bd80      	pop	{r7, pc}
 8000c1c:	20000004 	.word	0x20000004
 8000c20:	2000000c 	.word	0x2000000c
 8000c24:	20000008 	.word	0x20000008

08000c28 <HAL_IncTick>:
  * @note This function is declared as __weak to be overwritten in case of other
  *      implementations in user file.
  * @retval None
  */
__weak void HAL_IncTick(void)
{
 8000c28:	b480      	push	{r7}
 8000c2a:	af00      	add	r7, sp, #0
  uwTick += uwTickFreq;
 8000c2c:	4b05      	ldr	r3, [pc, #20]	; (8000c44 <HAL_IncTick+0x1c>)
 8000c2e:	781b      	ldrb	r3, [r3, #0]
 8000c30:	461a      	mov	r2, r3
 8000c32:	4b05      	ldr	r3, [pc, #20]	; (8000c48 <HAL_IncTick+0x20>)
 8000c34:	681b      	ldr	r3, [r3, #0]
 8000c36:	4413      	add	r3, r2
 8000c38:	4a03      	ldr	r2, [pc, #12]	; (8000c48 <HAL_IncTick+0x20>)
 8000c3a:	6013      	str	r3, [r2, #0]
}
 8000c3c:	bf00      	nop
 8000c3e:	46bd      	mov	sp, r7
 8000c40:	bc80      	pop	{r7}
 8000c42:	4770      	bx	lr
 8000c44:	2000000c 	.word	0x2000000c
 8000c48:	2000013c 	.word	0x2000013c

08000c4c <HAL_GetTick>:
  * @note  This function is declared as __weak to be overwritten in case of other
  *       implementations in user file.
  * @retval tick value
  */
__weak uint32_t HAL_GetTick(void)
{
 8000c4c:	b480      	push	{r7}
 8000c4e:	af00      	add	r7, sp, #0
  return uwTick;
 8000c50:	4b02      	ldr	r3, [pc, #8]	; (8000c5c <HAL_GetTick+0x10>)
 8000c52:	681b      	ldr	r3, [r3, #0]
}
 8000c54:	4618      	mov	r0, r3
 8000c56:	46bd      	mov	sp, r7
 8000c58:	bc80      	pop	{r7}
 8000c5a:	4770      	bx	lr
 8000c5c:	2000013c 	.word	0x2000013c

08000c60 <HAL_Delay>:
  *       implementations in user file.
  * @param Delay specifies the delay time length, in milliseconds.
  * @retval None
  */
__weak void HAL_Delay(uint32_t Delay)
{
 8000c60:	b580      	push	{r7, lr}
 8000c62:	b084      	sub	sp, #16
 8000c64:	af00      	add	r7, sp, #0
 8000c66:	6078      	str	r0, [r7, #4]
  uint32_t tickstart = HAL_GetTick();
 8000c68:	f7ff fff0 	bl	8000c4c <HAL_GetTick>
 8000c6c:	60b8      	str	r0, [r7, #8]
  uint32_t wait = Delay;
 8000c6e:	687b      	ldr	r3, [r7, #4]
 8000c70:	60fb      	str	r3, [r7, #12]

  /* Add a freq to guarantee minimum wait */
  if (wait < HAL_MAX_DELAY)
 8000c72:	68fb      	ldr	r3, [r7, #12]
 8000c74:	f1b3 3fff 	cmp.w	r3, #4294967295
 8000c78:	d005      	beq.n	8000c86 <HAL_Delay+0x26>
  {
    wait += (uint32_t)(uwTickFreq);
 8000c7a:	4b09      	ldr	r3, [pc, #36]	; (8000ca0 <HAL_Delay+0x40>)
 8000c7c:	781b      	ldrb	r3, [r3, #0]
 8000c7e:	461a      	mov	r2, r3
 8000c80:	68fb      	ldr	r3, [r7, #12]
 8000c82:	4413      	add	r3, r2
 8000c84:	60fb      	str	r3, [r7, #12]
  }

  while ((HAL_GetTick() - tickstart) < wait)
 8000c86:	bf00      	nop
 8000c88:	f7ff ffe0 	bl	8000c4c <HAL_GetTick>
 8000c8c:	4602      	mov	r2, r0
 8000c8e:	68bb      	ldr	r3, [r7, #8]
 8000c90:	1ad3      	subs	r3, r2, r3
 8000c92:	68fa      	ldr	r2, [r7, #12]
 8000c94:	429a      	cmp	r2, r3
 8000c96:	d8f7      	bhi.n	8000c88 <HAL_Delay+0x28>
  {
  }
}
 8000c98:	bf00      	nop
 8000c9a:	3710      	adds	r7, #16
 8000c9c:	46bd      	mov	sp, r7
 8000c9e:	bd80      	pop	{r7, pc}
 8000ca0:	2000000c 	.word	0x2000000c

08000ca4 <__NVIC_SetPriorityGrouping>:
           In case of a conflict between priority grouping and available
           priority bits (__NVIC_PRIO_BITS), the smallest possible priority group is set.
  \param [in]      PriorityGroup  Priority grouping field.
 */
__STATIC_INLINE void __NVIC_SetPriorityGrouping(uint32_t PriorityGroup)
{
 8000ca4:	b480      	push	{r7}
 8000ca6:	b085      	sub	sp, #20
 8000ca8:	af00      	add	r7, sp, #0
 8000caa:	6078      	str	r0, [r7, #4]
  uint32_t reg_value;
  uint32_t PriorityGroupTmp = (PriorityGroup & (uint32_t)0x07UL);             /* only values 0..7 are used          */
 8000cac:	687b      	ldr	r3, [r7, #4]
 8000cae:	f003 0307 	and.w	r3, r3, #7
 8000cb2:	60fb      	str	r3, [r7, #12]

  reg_value  =  SCB->AIRCR;                                                   /* read old register configuration    */
 8000cb4:	4b0c      	ldr	r3, [pc, #48]	; (8000ce8 <__NVIC_SetPriorityGrouping+0x44>)
 8000cb6:	68db      	ldr	r3, [r3, #12]
 8000cb8:	60bb      	str	r3, [r7, #8]
  reg_value &= ~((uint32_t)(SCB_AIRCR_VECTKEY_Msk | SCB_AIRCR_PRIGROUP_Msk)); /* clear bits to change               */
 8000cba:	68ba      	ldr	r2, [r7, #8]
 8000cbc:	f64f 03ff 	movw	r3, #63743	; 0xf8ff
 8000cc0:	4013      	ands	r3, r2
 8000cc2:	60bb      	str	r3, [r7, #8]
  reg_value  =  (reg_value                                   |
                ((uint32_t)0x5FAUL << SCB_AIRCR_VECTKEY_Pos) |
                (PriorityGroupTmp << SCB_AIRCR_PRIGROUP_Pos) );               /* Insert write key and priority group */
 8000cc4:	68fb      	ldr	r3, [r7, #12]
 8000cc6:	021a      	lsls	r2, r3, #8
                ((uint32_t)0x5FAUL << SCB_AIRCR_VECTKEY_Pos) |
 8000cc8:	68bb      	ldr	r3, [r7, #8]
 8000cca:	4313      	orrs	r3, r2
  reg_value  =  (reg_value                                   |
 8000ccc:	f043 63bf 	orr.w	r3, r3, #100139008	; 0x5f80000
 8000cd0:	f443 3300 	orr.w	r3, r3, #131072	; 0x20000
 8000cd4:	60bb      	str	r3, [r7, #8]
  SCB->AIRCR =  reg_value;
 8000cd6:	4a04      	ldr	r2, [pc, #16]	; (8000ce8 <__NVIC_SetPriorityGrouping+0x44>)
 8000cd8:	68bb      	ldr	r3, [r7, #8]
 8000cda:	60d3      	str	r3, [r2, #12]
}
 8000cdc:	bf00      	nop
 8000cde:	3714      	adds	r7, #20
 8000ce0:	46bd      	mov	sp, r7
 8000ce2:	bc80      	pop	{r7}
 8000ce4:	4770      	bx	lr
 8000ce6:	bf00      	nop
 8000ce8:	e000ed00 	.word	0xe000ed00

08000cec <__NVIC_GetPriorityGrouping>:
  \brief   Get Priority Grouping
  \details Reads the priority grouping field from the NVIC Interrupt Controller.
  \return                Priority grouping field (SCB->AIRCR [10:8] PRIGROUP field).
 */
__STATIC_INLINE uint32_t __NVIC_GetPriorityGrouping(void)
{
 8000cec:	b480      	push	{r7}
 8000cee:	af00      	add	r7, sp, #0
  return ((uint32_t)((SCB->AIRCR & SCB_AIRCR_PRIGROUP_Msk) >> SCB_AIRCR_PRIGROUP_Pos));
 8000cf0:	4b04      	ldr	r3, [pc, #16]	; (8000d04 <__NVIC_GetPriorityGrouping+0x18>)
 8000cf2:	68db      	ldr	r3, [r3, #12]
 8000cf4:	0a1b      	lsrs	r3, r3, #8
 8000cf6:	f003 0307 	and.w	r3, r3, #7
}
 8000cfa:	4618      	mov	r0, r3
 8000cfc:	46bd      	mov	sp, r7
 8000cfe:	bc80      	pop	{r7}
 8000d00:	4770      	bx	lr
 8000d02:	bf00      	nop
 8000d04:	e000ed00 	.word	0xe000ed00

08000d08 <__NVIC_EnableIRQ>:
  \details Enables a device specific interrupt in the NVIC interrupt controller.
  \param [in]      IRQn  Device specific interrupt number.
  \note    IRQn must not be negative.
 */
__STATIC_INLINE void __NVIC_EnableIRQ(IRQn_Type IRQn)
{
 8000d08:	b480      	push	{r7}
 8000d0a:	b083      	sub	sp, #12
 8000d0c:	af00      	add	r7, sp, #0
 8000d0e:	4603      	mov	r3, r0
 8000d10:	71fb      	strb	r3, [r7, #7]
  if ((int32_t)(IRQn) >= 0)
 8000d12:	f997 3007 	ldrsb.w	r3, [r7, #7]
 8000d16:	2b00      	cmp	r3, #0
 8000d18:	db0b      	blt.n	8000d32 <__NVIC_EnableIRQ+0x2a>
  {
    NVIC->ISER[(((uint32_t)IRQn) >> 5UL)] = (uint32_t)(1UL << (((uint32_t)IRQn) & 0x1FUL));
 8000d1a:	79fb      	ldrb	r3, [r7, #7]
 8000d1c:	f003 021f 	and.w	r2, r3, #31
 8000d20:	4906      	ldr	r1, [pc, #24]	; (8000d3c <__NVIC_EnableIRQ+0x34>)
 8000d22:	f997 3007 	ldrsb.w	r3, [r7, #7]
 8000d26:	095b      	lsrs	r3, r3, #5
 8000d28:	2001      	movs	r0, #1
 8000d2a:	fa00 f202 	lsl.w	r2, r0, r2
 8000d2e:	f841 2023 	str.w	r2, [r1, r3, lsl #2]
  }
}
 8000d32:	bf00      	nop
 8000d34:	370c      	adds	r7, #12
 8000d36:	46bd      	mov	sp, r7
 8000d38:	bc80      	pop	{r7}
 8000d3a:	4770      	bx	lr
 8000d3c:	e000e100 	.word	0xe000e100

08000d40 <__NVIC_SetPriority>:
  \param [in]      IRQn  Interrupt number.
  \param [in]  priority  Priority to set.
  \note    The priority cannot be set for every processor exception.
 */
__STATIC_INLINE void __NVIC_SetPriority(IRQn_Type IRQn, uint32_t priority)
{
 8000d40:	b480      	push	{r7}
 8000d42:	b083      	sub	sp, #12
 8000d44:	af00      	add	r7, sp, #0
 8000d46:	4603      	mov	r3, r0
 8000d48:	6039      	str	r1, [r7, #0]
 8000d4a:	71fb      	strb	r3, [r7, #7]
  if ((int32_t)(IRQn) >= 0)
 8000d4c:	f997 3007 	ldrsb.w	r3, [r7, #7]
 8000d50:	2b00      	cmp	r3, #0
 8000d52:	db0a      	blt.n	8000d6a <__NVIC_SetPriority+0x2a>
  {
    NVIC->IP[((uint32_t)IRQn)]               = (uint8_t)((priority << (8U - __NVIC_PRIO_BITS)) & (uint32_t)0xFFUL);
 8000d54:	683b      	ldr	r3, [r7, #0]
 8000d56:	b2da      	uxtb	r2, r3
 8000d58:	490c      	ldr	r1, [pc, #48]	; (8000d8c <__NVIC_SetPriority+0x4c>)
 8000d5a:	f997 3007 	ldrsb.w	r3, [r7, #7]
 8000d5e:	0112      	lsls	r2, r2, #4
 8000d60:	b2d2      	uxtb	r2, r2
 8000d62:	440b      	add	r3, r1
 8000d64:	f883 2300 	strb.w	r2, [r3, #768]	; 0x300
  }
  else
  {
    SCB->SHP[(((uint32_t)IRQn) & 0xFUL)-4UL] = (uint8_t)((priority << (8U - __NVIC_PRIO_BITS)) & (uint32_t)0xFFUL);
  }
}
 8000d68:	e00a      	b.n	8000d80 <__NVIC_SetPriority+0x40>
    SCB->SHP[(((uint32_t)IRQn) & 0xFUL)-4UL] = (uint8_t)((priority << (8U - __NVIC_PRIO_BITS)) & (uint32_t)0xFFUL);
 8000d6a:	683b      	ldr	r3, [r7, #0]
 8000d6c:	b2da      	uxtb	r2, r3
 8000d6e:	4908      	ldr	r1, [pc, #32]	; (8000d90 <__NVIC_SetPriority+0x50>)
 8000d70:	79fb      	ldrb	r3, [r7, #7]
 8000d72:	f003 030f 	and.w	r3, r3, #15
 8000d76:	3b04      	subs	r3, #4
 8000d78:	0112      	lsls	r2, r2, #4
 8000d7a:	b2d2      	uxtb	r2, r2
 8000d7c:	440b      	add	r3, r1
 8000d7e:	761a      	strb	r2, [r3, #24]
}
 8000d80:	bf00      	nop
 8000d82:	370c      	adds	r7, #12
 8000d84:	46bd      	mov	sp, r7
 8000d86:	bc80      	pop	{r7}
 8000d88:	4770      	bx	lr
 8000d8a:	bf00      	nop
 8000d8c:	e000e100 	.word	0xe000e100
 8000d90:	e000ed00 	.word	0xe000ed00

08000d94 <NVIC_EncodePriority>:
  \param [in]   PreemptPriority  Preemptive priority value (starting from 0).
  \param [in]       SubPriority  Subpriority value (starting from 0).
  \return                        Encoded priority. Value can be used in the function \ref NVIC_SetPriority().
 */
__STATIC_INLINE uint32_t NVIC_EncodePriority (uint32_t PriorityGroup, uint32_t PreemptPriority, uint32_t SubPriority)
{
 8000d94:	b480      	push	{r7}
 8000d96:	b089      	sub	sp, #36	; 0x24
 8000d98:	af00      	add	r7, sp, #0
 8000d9a:	60f8      	str	r0, [r7, #12]
 8000d9c:	60b9      	str	r1, [r7, #8]
 8000d9e:	607a      	str	r2, [r7, #4]
  uint32_t PriorityGroupTmp = (PriorityGroup & (uint32_t)0x07UL);   /* only values 0..7 are used          */
 8000da0:	68fb      	ldr	r3, [r7, #12]
 8000da2:	f003 0307 	and.w	r3, r3, #7
 8000da6:	61fb      	str	r3, [r7, #28]
  uint32_t PreemptPriorityBits;
  uint32_t SubPriorityBits;

  PreemptPriorityBits = ((7UL - PriorityGroupTmp) > (uint32_t)(__NVIC_PRIO_BITS)) ? (uint32_t)(__NVIC_PRIO_BITS) : (uint32_t)(7UL - PriorityGroupTmp);
 8000da8:	69fb      	ldr	r3, [r7, #28]
 8000daa:	f1c3 0307 	rsb	r3, r3, #7
 8000dae:	2b04      	cmp	r3, #4
 8000db0:	bf28      	it	cs
 8000db2:	2304      	movcs	r3, #4
 8000db4:	61bb      	str	r3, [r7, #24]
  SubPriorityBits     = ((PriorityGroupTmp + (uint32_t)(__NVIC_PRIO_BITS)) < (uint32_t)7UL) ? (uint32_t)0UL : (uint32_t)((PriorityGroupTmp - 7UL) + (uint32_t)(__NVIC_PRIO_BITS));
 8000db6:	69fb      	ldr	r3, [r7, #28]
 8000db8:	3304      	adds	r3, #4
 8000dba:	2b06      	cmp	r3, #6
 8000dbc:	d902      	bls.n	8000dc4 <NVIC_EncodePriority+0x30>
 8000dbe:	69fb      	ldr	r3, [r7, #28]
 8000dc0:	3b03      	subs	r3, #3
 8000dc2:	e000      	b.n	8000dc6 <NVIC_EncodePriority+0x32>
 8000dc4:	2300      	movs	r3, #0
 8000dc6:	617b      	str	r3, [r7, #20]

  return (
           ((PreemptPriority & (uint32_t)((1UL << (PreemptPriorityBits)) - 1UL)) << SubPriorityBits) |
 8000dc8:	f04f 32ff 	mov.w	r2, #4294967295
 8000dcc:	69bb      	ldr	r3, [r7, #24]
 8000dce:	fa02 f303 	lsl.w	r3, r2, r3
 8000dd2:	43da      	mvns	r2, r3
 8000dd4:	68bb      	ldr	r3, [r7, #8]
 8000dd6:	401a      	ands	r2, r3
 8000dd8:	697b      	ldr	r3, [r7, #20]
 8000dda:	409a      	lsls	r2, r3
           ((SubPriority     & (uint32_t)((1UL << (SubPriorityBits    )) - 1UL)))
 8000ddc:	f04f 31ff 	mov.w	r1, #4294967295
 8000de0:	697b      	ldr	r3, [r7, #20]
 8000de2:	fa01 f303 	lsl.w	r3, r1, r3
 8000de6:	43d9      	mvns	r1, r3
 8000de8:	687b      	ldr	r3, [r7, #4]
 8000dea:	400b      	ands	r3, r1
           ((PreemptPriority & (uint32_t)((1UL << (PreemptPriorityBits)) - 1UL)) << SubPriorityBits) |
 8000dec:	4313      	orrs	r3, r2
         );
}
 8000dee:	4618      	mov	r0, r3
 8000df0:	3724      	adds	r7, #36	; 0x24
 8000df2:	46bd      	mov	sp, r7
 8000df4:	bc80      	pop	{r7}
 8000df6:	4770      	bx	lr

08000df8 <SysTick_Config>:
  \note    When the variable <b>__Vendor_SysTickConfig</b> is set to 1, then the
           function <b>SysTick_Config</b> is not included. In this case, the file <b><i>device</i>.h</b>
           must contain a vendor-specific implementation of this function.
 */
__STATIC_INLINE uint32_t SysTick_Config(uint32_t ticks)
{
 8000df8:	b580      	push	{r7, lr}
 8000dfa:	b082      	sub	sp, #8
 8000dfc:	af00      	add	r7, sp, #0
 8000dfe:	6078      	str	r0, [r7, #4]
  if ((ticks - 1UL) > SysTick_LOAD_RELOAD_Msk)
 8000e00:	687b      	ldr	r3, [r7, #4]
 8000e02:	3b01      	subs	r3, #1
 8000e04:	f1b3 7f80 	cmp.w	r3, #16777216	; 0x1000000
 8000e08:	d301      	bcc.n	8000e0e <SysTick_Config+0x16>
  {
    return (1UL);                                                   /* Reload value impossible */
 8000e0a:	2301      	movs	r3, #1
 8000e0c:	e00f      	b.n	8000e2e <SysTick_Config+0x36>
  }

  SysTick->LOAD  = (uint32_t)(ticks - 1UL);                         /* set reload register */
 8000e0e:	4a0a      	ldr	r2, [pc, #40]	; (8000e38 <SysTick_Config+0x40>)
 8000e10:	687b      	ldr	r3, [r7, #4]
 8000e12:	3b01      	subs	r3, #1
 8000e14:	6053      	str	r3, [r2, #4]
  NVIC_SetPriority (SysTick_IRQn, (1UL << __NVIC_PRIO_BITS) - 1UL); /* set Priority for Systick Interrupt */
 8000e16:	210f      	movs	r1, #15
 8000e18:	f04f 30ff 	mov.w	r0, #4294967295
 8000e1c:	f7ff ff90 	bl	8000d40 <__NVIC_SetPriority>
  SysTick->VAL   = 0UL;                                             /* Load the SysTick Counter Value */
 8000e20:	4b05      	ldr	r3, [pc, #20]	; (8000e38 <SysTick_Config+0x40>)
 8000e22:	2200      	movs	r2, #0
 8000e24:	609a      	str	r2, [r3, #8]
  SysTick->CTRL  = SysTick_CTRL_CLKSOURCE_Msk |
 8000e26:	4b04      	ldr	r3, [pc, #16]	; (8000e38 <SysTick_Config+0x40>)
 8000e28:	2207      	movs	r2, #7
 8000e2a:	601a      	str	r2, [r3, #0]
                   SysTick_CTRL_TICKINT_Msk   |
                   SysTick_CTRL_ENABLE_Msk;                         /* Enable SysTick IRQ and SysTick Timer */
  return (0UL);                                                     /* Function successful */
 8000e2c:	2300      	movs	r3, #0
}
 8000e2e:	4618      	mov	r0, r3
 8000e30:	3708      	adds	r7, #8
 8000e32:	46bd      	mov	sp, r7
 8000e34:	bd80      	pop	{r7, pc}
 8000e36:	bf00      	nop
 8000e38:	e000e010 	.word	0xe000e010

08000e3c <HAL_NVIC_SetPriorityGrouping>:
  * @note   When the NVIC_PriorityGroup_0 is selected, IRQ preemption is no more possible. 
  *         The pending IRQ priority will be managed only by the subpriority. 
  * @retval None
  */
void HAL_NVIC_SetPriorityGrouping(uint32_t PriorityGroup)
{
 8000e3c:	b580      	push	{r7, lr}
 8000e3e:	b082      	sub	sp, #8
 8000e40:	af00      	add	r7, sp, #0
 8000e42:	6078      	str	r0, [r7, #4]
  /* Check the parameters */
  assert_param(IS_NVIC_PRIORITY_GROUP(PriorityGroup));
  
  /* Set the PRIGROUP[10:8] bits according to the PriorityGroup parameter value */
  NVIC_SetPriorityGrouping(PriorityGroup);
 8000e44:	6878      	ldr	r0, [r7, #4]
 8000e46:	f7ff ff2d 	bl	8000ca4 <__NVIC_SetPriorityGrouping>
}
 8000e4a:	bf00      	nop
 8000e4c:	3708      	adds	r7, #8
 8000e4e:	46bd      	mov	sp, r7
 8000e50:	bd80      	pop	{r7, pc}

08000e52 <HAL_NVIC_SetPriority>:
  *         This parameter can be a value between 0 and 15
  *         A lower priority value indicates a higher priority.          
  * @retval None
  */
void HAL_NVIC_SetPriority(IRQn_Type IRQn, uint32_t PreemptPriority, uint32_t SubPriority)
{ 
 8000e52:	b580      	push	{r7, lr}
 8000e54:	b086      	sub	sp, #24
 8000e56:	af00      	add	r7, sp, #0
 8000e58:	4603      	mov	r3, r0
 8000e5a:	60b9      	str	r1, [r7, #8]
 8000e5c:	607a      	str	r2, [r7, #4]
 8000e5e:	73fb      	strb	r3, [r7, #15]
  uint32_t prioritygroup = 0x00U;
 8000e60:	2300      	movs	r3, #0
 8000e62:	617b      	str	r3, [r7, #20]
  
  /* Check the parameters */
  assert_param(IS_NVIC_SUB_PRIORITY(SubPriority));
  assert_param(IS_NVIC_PREEMPTION_PRIORITY(PreemptPriority));
  
  prioritygroup = NVIC_GetPriorityGrouping();
 8000e64:	f7ff ff42 	bl	8000cec <__NVIC_GetPriorityGrouping>
 8000e68:	6178      	str	r0, [r7, #20]
  
  NVIC_SetPriority(IRQn, NVIC_EncodePriority(prioritygroup, PreemptPriority, SubPriority));
 8000e6a:	687a      	ldr	r2, [r7, #4]
 8000e6c:	68b9      	ldr	r1, [r7, #8]
 8000e6e:	6978      	ldr	r0, [r7, #20]
 8000e70:	f7ff ff90 	bl	8000d94 <NVIC_EncodePriority>
 8000e74:	4602      	mov	r2, r0
 8000e76:	f997 300f 	ldrsb.w	r3, [r7, #15]
 8000e7a:	4611      	mov	r1, r2
 8000e7c:	4618      	mov	r0, r3
 8000e7e:	f7ff ff5f 	bl	8000d40 <__NVIC_SetPriority>
}
 8000e82:	bf00      	nop
 8000e84:	3718      	adds	r7, #24
 8000e86:	46bd      	mov	sp, r7
 8000e88:	bd80      	pop	{r7, pc}

08000e8a <HAL_NVIC_EnableIRQ>:
  *         This parameter can be an enumerator of IRQn_Type enumeration
  *         (For the complete STM32 Devices IRQ Channels list, please refer to the appropriate CMSIS device file (stm32f10xxx.h))
  * @retval None
  */
void HAL_NVIC_EnableIRQ(IRQn_Type IRQn)
{
 8000e8a:	b580      	push	{r7, lr}
 8000e8c:	b082      	sub	sp, #8
 8000e8e:	af00      	add	r7, sp, #0
 8000e90:	4603      	mov	r3, r0
 8000e92:	71fb      	strb	r3, [r7, #7]
  /* Check the parameters */
  assert_param(IS_NVIC_DEVICE_IRQ(IRQn));

  /* Enable interrupt */
  NVIC_EnableIRQ(IRQn);
 8000e94:	f997 3007 	ldrsb.w	r3, [r7, #7]
 8000e98:	4618      	mov	r0, r3
 8000e9a:	f7ff ff35 	bl	8000d08 <__NVIC_EnableIRQ>
}
 8000e9e:	bf00      	nop
 8000ea0:	3708      	adds	r7, #8
 8000ea2:	46bd      	mov	sp, r7
 8000ea4:	bd80      	pop	{r7, pc}

08000ea6 <HAL_SYSTICK_Config>:
  * @param  TicksNumb: Specifies the ticks Number of ticks between two interrupts.
  * @retval status:  - 0  Function succeeded.
  *                  - 1  Function failed.
  */
uint32_t HAL_SYSTICK_Config(uint32_t TicksNumb)
{
 8000ea6:	b580      	push	{r7, lr}
 8000ea8:	b082      	sub	sp, #8
 8000eaa:	af00      	add	r7, sp, #0
 8000eac:	6078      	str	r0, [r7, #4]
   return SysTick_Config(TicksNumb);
 8000eae:	6878      	ldr	r0, [r7, #4]
 8000eb0:	f7ff ffa2 	bl	8000df8 <SysTick_Config>
 8000eb4:	4603      	mov	r3, r0
}
 8000eb6:	4618      	mov	r0, r3
 8000eb8:	3708      	adds	r7, #8
 8000eba:	46bd      	mov	sp, r7
 8000ebc:	bd80      	pop	{r7, pc}
	...

08000ec0 <HAL_DMA_Abort_IT>:
  * @param  hdma  : pointer to a DMA_HandleTypeDef structure that contains
  *                 the configuration information for the specified DMA Channel.
  * @retval HAL status
  */
HAL_StatusTypeDef HAL_DMA_Abort_IT(DMA_HandleTypeDef *hdma)
{  
 8000ec0:	b580      	push	{r7, lr}
 8000ec2:	b084      	sub	sp, #16
 8000ec4:	af00      	add	r7, sp, #0
 8000ec6:	6078      	str	r0, [r7, #4]
  HAL_StatusTypeDef status = HAL_OK;
 8000ec8:	2300      	movs	r3, #0
 8000eca:	73fb      	strb	r3, [r7, #15]
  
  if(HAL_DMA_STATE_BUSY != hdma->State)
 8000ecc:	687b      	ldr	r3, [r7, #4]
 8000ece:	f893 3021 	ldrb.w	r3, [r3, #33]	; 0x21
 8000ed2:	2b02      	cmp	r3, #2
 8000ed4:	d005      	beq.n	8000ee2 <HAL_DMA_Abort_IT+0x22>
  {
    /* no transfer ongoing */
    hdma->ErrorCode = HAL_DMA_ERROR_NO_XFER;
 8000ed6:	687b      	ldr	r3, [r7, #4]
 8000ed8:	2204      	movs	r2, #4
 8000eda:	639a      	str	r2, [r3, #56]	; 0x38
        
    status = HAL_ERROR;
 8000edc:	2301      	movs	r3, #1
 8000ede:	73fb      	strb	r3, [r7, #15]
 8000ee0:	e051      	b.n	8000f86 <HAL_DMA_Abort_IT+0xc6>
  }
  else
  { 
    /* Disable DMA IT */
    __HAL_DMA_DISABLE_IT(hdma, (DMA_IT_TC | DMA_IT_HT | DMA_IT_TE));
 8000ee2:	687b      	ldr	r3, [r7, #4]
 8000ee4:	681b      	ldr	r3, [r3, #0]
 8000ee6:	681a      	ldr	r2, [r3, #0]
 8000ee8:	687b      	ldr	r3, [r7, #4]
 8000eea:	681b      	ldr	r3, [r3, #0]
 8000eec:	f022 020e 	bic.w	r2, r2, #14
 8000ef0:	601a      	str	r2, [r3, #0]

    /* Disable the channel */
    __HAL_DMA_DISABLE(hdma);
 8000ef2:	687b      	ldr	r3, [r7, #4]
 8000ef4:	681b      	ldr	r3, [r3, #0]
 8000ef6:	681a      	ldr	r2, [r3, #0]
 8000ef8:	687b      	ldr	r3, [r7, #4]
 8000efa:	681b      	ldr	r3, [r3, #0]
 8000efc:	f022 0201 	bic.w	r2, r2, #1
 8000f00:	601a      	str	r2, [r3, #0]

    /* Clear all flags */
    __HAL_DMA_CLEAR_FLAG(hdma, __HAL_DMA_GET_GI_FLAG_INDEX(hdma));
 8000f02:	687b      	ldr	r3, [r7, #4]
 8000f04:	681b      	ldr	r3, [r3, #0]
 8000f06:	4a22      	ldr	r2, [pc, #136]	; (8000f90 <HAL_DMA_Abort_IT+0xd0>)
 8000f08:	4293      	cmp	r3, r2
 8000f0a:	d029      	beq.n	8000f60 <HAL_DMA_Abort_IT+0xa0>
 8000f0c:	687b      	ldr	r3, [r7, #4]
 8000f0e:	681b      	ldr	r3, [r3, #0]
 8000f10:	4a20      	ldr	r2, [pc, #128]	; (8000f94 <HAL_DMA_Abort_IT+0xd4>)
 8000f12:	4293      	cmp	r3, r2
 8000f14:	d022      	beq.n	8000f5c <HAL_DMA_Abort_IT+0x9c>
 8000f16:	687b      	ldr	r3, [r7, #4]
 8000f18:	681b      	ldr	r3, [r3, #0]
 8000f1a:	4a1f      	ldr	r2, [pc, #124]	; (8000f98 <HAL_DMA_Abort_IT+0xd8>)
 8000f1c:	4293      	cmp	r3, r2
 8000f1e:	d01a      	beq.n	8000f56 <HAL_DMA_Abort_IT+0x96>
 8000f20:	687b      	ldr	r3, [r7, #4]
 8000f22:	681b      	ldr	r3, [r3, #0]
 8000f24:	4a1d      	ldr	r2, [pc, #116]	; (8000f9c <HAL_DMA_Abort_IT+0xdc>)
 8000f26:	4293      	cmp	r3, r2
 8000f28:	d012      	beq.n	8000f50 <HAL_DMA_Abort_IT+0x90>
 8000f2a:	687b      	ldr	r3, [r7, #4]
 8000f2c:	681b      	ldr	r3, [r3, #0]
 8000f2e:	4a1c      	ldr	r2, [pc, #112]	; (8000fa0 <HAL_DMA_Abort_IT+0xe0>)
 8000f30:	4293      	cmp	r3, r2
 8000f32:	d00a      	beq.n	8000f4a <HAL_DMA_Abort_IT+0x8a>
 8000f34:	687b      	ldr	r3, [r7, #4]
 8000f36:	681b      	ldr	r3, [r3, #0]
 8000f38:	4a1a      	ldr	r2, [pc, #104]	; (8000fa4 <HAL_DMA_Abort_IT+0xe4>)
 8000f3a:	4293      	cmp	r3, r2
 8000f3c:	d102      	bne.n	8000f44 <HAL_DMA_Abort_IT+0x84>
 8000f3e:	f44f 1380 	mov.w	r3, #1048576	; 0x100000
 8000f42:	e00e      	b.n	8000f62 <HAL_DMA_Abort_IT+0xa2>
 8000f44:	f04f 7380 	mov.w	r3, #16777216	; 0x1000000
 8000f48:	e00b      	b.n	8000f62 <HAL_DMA_Abort_IT+0xa2>
 8000f4a:	f44f 3380 	mov.w	r3, #65536	; 0x10000
 8000f4e:	e008      	b.n	8000f62 <HAL_DMA_Abort_IT+0xa2>
 8000f50:	f44f 5380 	mov.w	r3, #4096	; 0x1000
 8000f54:	e005      	b.n	8000f62 <HAL_DMA_Abort_IT+0xa2>
 8000f56:	f44f 7380 	mov.w	r3, #256	; 0x100
 8000f5a:	e002      	b.n	8000f62 <HAL_DMA_Abort_IT+0xa2>
 8000f5c:	2310      	movs	r3, #16
 8000f5e:	e000      	b.n	8000f62 <HAL_DMA_Abort_IT+0xa2>
 8000f60:	2301      	movs	r3, #1
 8000f62:	4a11      	ldr	r2, [pc, #68]	; (8000fa8 <HAL_DMA_Abort_IT+0xe8>)
 8000f64:	6053      	str	r3, [r2, #4]

    /* Change the DMA state */
    hdma->State = HAL_DMA_STATE_READY;
 8000f66:	687b      	ldr	r3, [r7, #4]
 8000f68:	2201      	movs	r2, #1
 8000f6a:	f883 2021 	strb.w	r2, [r3, #33]	; 0x21

    /* Process Unlocked */
    __HAL_UNLOCK(hdma);
 8000f6e:	687b      	ldr	r3, [r7, #4]
 8000f70:	2200      	movs	r2, #0
 8000f72:	f883 2020 	strb.w	r2, [r3, #32]

    /* Call User Abort callback */
    if(hdma->XferAbortCallback != NULL)
 8000f76:	687b      	ldr	r3, [r7, #4]
 8000f78:	6b5b      	ldr	r3, [r3, #52]	; 0x34
 8000f7a:	2b00      	cmp	r3, #0
 8000f7c:	d003      	beq.n	8000f86 <HAL_DMA_Abort_IT+0xc6>
    {
      hdma->XferAbortCallback(hdma);
 8000f7e:	687b      	ldr	r3, [r7, #4]
 8000f80:	6b5b      	ldr	r3, [r3, #52]	; 0x34
 8000f82:	6878      	ldr	r0, [r7, #4]
 8000f84:	4798      	blx	r3
    } 
  }
  return status;
 8000f86:	7bfb      	ldrb	r3, [r7, #15]
}
 8000f88:	4618      	mov	r0, r3
 8000f8a:	3710      	adds	r7, #16
 8000f8c:	46bd      	mov	sp, r7
 8000f8e:	bd80      	pop	{r7, pc}
 8000f90:	40020008 	.word	0x40020008
 8000f94:	4002001c 	.word	0x4002001c
 8000f98:	40020030 	.word	0x40020030
 8000f9c:	40020044 	.word	0x40020044
 8000fa0:	40020058 	.word	0x40020058
 8000fa4:	4002006c 	.word	0x4002006c
 8000fa8:	40020000 	.word	0x40020000

08000fac <HAL_GPIO_Init>:
  * @param  GPIO_Init: pointer to a GPIO_InitTypeDef structure that contains
  *         the configuration information for the specified GPIO peripheral.
  * @retval None
  */
void HAL_GPIO_Init(GPIO_TypeDef  *GPIOx, GPIO_InitTypeDef *GPIO_Init)
{
 8000fac:	b480      	push	{r7}
 8000fae:	b08b      	sub	sp, #44	; 0x2c
 8000fb0:	af00      	add	r7, sp, #0
 8000fb2:	6078      	str	r0, [r7, #4]
 8000fb4:	6039      	str	r1, [r7, #0]
  uint32_t position = 0x00u;
 8000fb6:	2300      	movs	r3, #0
 8000fb8:	627b      	str	r3, [r7, #36]	; 0x24
  uint32_t ioposition;
  uint32_t iocurrent;
  uint32_t temp;
  uint32_t config = 0x00u;
 8000fba:	2300      	movs	r3, #0
 8000fbc:	623b      	str	r3, [r7, #32]
  assert_param(IS_GPIO_ALL_INSTANCE(GPIOx));
  assert_param(IS_GPIO_PIN(GPIO_Init->Pin));
  assert_param(IS_GPIO_MODE(GPIO_Init->Mode));

  /* Configure the port pins */
  while (((GPIO_Init->Pin) >> position) != 0x00u)
 8000fbe:	e127      	b.n	8001210 <HAL_GPIO_Init+0x264>
  {
    /* Get the IO position */
    ioposition = (0x01uL << position);
 8000fc0:	2201      	movs	r2, #1
 8000fc2:	6a7b      	ldr	r3, [r7, #36]	; 0x24
 8000fc4:	fa02 f303 	lsl.w	r3, r2, r3
 8000fc8:	61fb      	str	r3, [r7, #28]

    /* Get the current IO position */
    iocurrent = (uint32_t)(GPIO_Init->Pin) & ioposition;
 8000fca:	683b      	ldr	r3, [r7, #0]
 8000fcc:	681b      	ldr	r3, [r3, #0]
 8000fce:	69fa      	ldr	r2, [r7, #28]
 8000fd0:	4013      	ands	r3, r2
 8000fd2:	61bb      	str	r3, [r7, #24]

    if (iocurrent == ioposition)
 8000fd4:	69ba      	ldr	r2, [r7, #24]
 8000fd6:	69fb      	ldr	r3, [r7, #28]
 8000fd8:	429a      	cmp	r2, r3
 8000fda:	f040 8116 	bne.w	800120a <HAL_GPIO_Init+0x25e>
    {
      /* Check the Alternate function parameters */
      assert_param(IS_GPIO_AF_INSTANCE(GPIOx));

      /* Based on the required mode, filling config variable with MODEy[1:0] and CNFy[3:2] corresponding bits */
      switch (GPIO_Init->Mode)
 8000fde:	683b      	ldr	r3, [r7, #0]
 8000fe0:	685b      	ldr	r3, [r3, #4]
 8000fe2:	2b12      	cmp	r3, #18
 8000fe4:	d034      	beq.n	8001050 <HAL_GPIO_Init+0xa4>
 8000fe6:	2b12      	cmp	r3, #18
 8000fe8:	d80d      	bhi.n	8001006 <HAL_GPIO_Init+0x5a>
 8000fea:	2b02      	cmp	r3, #2
 8000fec:	d02b      	beq.n	8001046 <HAL_GPIO_Init+0x9a>
 8000fee:	2b02      	cmp	r3, #2
 8000ff0:	d804      	bhi.n	8000ffc <HAL_GPIO_Init+0x50>
 8000ff2:	2b00      	cmp	r3, #0
 8000ff4:	d031      	beq.n	800105a <HAL_GPIO_Init+0xae>
 8000ff6:	2b01      	cmp	r3, #1
 8000ff8:	d01c      	beq.n	8001034 <HAL_GPIO_Init+0x88>
          config = GPIO_CR_MODE_INPUT + GPIO_CR_CNF_ANALOG;
          break;

        /* Parameters are checked with assert_param */
        default:
          break;
 8000ffa:	e048      	b.n	800108e <HAL_GPIO_Init+0xe2>
      switch (GPIO_Init->Mode)
 8000ffc:	2b03      	cmp	r3, #3
 8000ffe:	d043      	beq.n	8001088 <HAL_GPIO_Init+0xdc>
 8001000:	2b11      	cmp	r3, #17
 8001002:	d01b      	beq.n	800103c <HAL_GPIO_Init+0x90>
          break;
 8001004:	e043      	b.n	800108e <HAL_GPIO_Init+0xe2>
      switch (GPIO_Init->Mode)
 8001006:	4a89      	ldr	r2, [pc, #548]	; (800122c <HAL_GPIO_Init+0x280>)
 8001008:	4293      	cmp	r3, r2
 800100a:	d026      	beq.n	800105a <HAL_GPIO_Init+0xae>
 800100c:	4a87      	ldr	r2, [pc, #540]	; (800122c <HAL_GPIO_Init+0x280>)
 800100e:	4293      	cmp	r3, r2
 8001010:	d806      	bhi.n	8001020 <HAL_GPIO_Init+0x74>
 8001012:	4a87      	ldr	r2, [pc, #540]	; (8001230 <HAL_GPIO_Init+0x284>)
 8001014:	4293      	cmp	r3, r2
 8001016:	d020      	beq.n	800105a <HAL_GPIO_Init+0xae>
 8001018:	4a86      	ldr	r2, [pc, #536]	; (8001234 <HAL_GPIO_Init+0x288>)
 800101a:	4293      	cmp	r3, r2
 800101c:	d01d      	beq.n	800105a <HAL_GPIO_Init+0xae>
          break;
 800101e:	e036      	b.n	800108e <HAL_GPIO_Init+0xe2>
      switch (GPIO_Init->Mode)
 8001020:	4a85      	ldr	r2, [pc, #532]	; (8001238 <HAL_GPIO_Init+0x28c>)
 8001022:	4293      	cmp	r3, r2
 8001024:	d019      	beq.n	800105a <HAL_GPIO_Init+0xae>
 8001026:	4a85      	ldr	r2, [pc, #532]	; (800123c <HAL_GPIO_Init+0x290>)
 8001028:	4293      	cmp	r3, r2
 800102a:	d016      	beq.n	800105a <HAL_GPIO_Init+0xae>
 800102c:	4a84      	ldr	r2, [pc, #528]	; (8001240 <HAL_GPIO_Init+0x294>)
 800102e:	4293      	cmp	r3, r2
 8001030:	d013      	beq.n	800105a <HAL_GPIO_Init+0xae>
          break;
 8001032:	e02c      	b.n	800108e <HAL_GPIO_Init+0xe2>
          config = GPIO_Init->Speed + GPIO_CR_CNF_GP_OUTPUT_PP;
 8001034:	683b      	ldr	r3, [r7, #0]
 8001036:	68db      	ldr	r3, [r3, #12]
 8001038:	623b      	str	r3, [r7, #32]
          break;
 800103a:	e028      	b.n	800108e <HAL_GPIO_Init+0xe2>
          config = GPIO_Init->Speed + GPIO_CR_CNF_GP_OUTPUT_OD;
 800103c:	683b      	ldr	r3, [r7, #0]
 800103e:	68db      	ldr	r3, [r3, #12]
 8001040:	3304      	adds	r3, #4
 8001042:	623b      	str	r3, [r7, #32]
          break;
 8001044:	e023      	b.n	800108e <HAL_GPIO_Init+0xe2>
          config = GPIO_Init->Speed + GPIO_CR_CNF_AF_OUTPUT_PP;
 8001046:	683b      	ldr	r3, [r7, #0]
 8001048:	68db      	ldr	r3, [r3, #12]
 800104a:	3308      	adds	r3, #8
 800104c:	623b      	str	r3, [r7, #32]
          break;
 800104e:	e01e      	b.n	800108e <HAL_GPIO_Init+0xe2>
          config = GPIO_Init->Speed + GPIO_CR_CNF_AF_OUTPUT_OD;
 8001050:	683b      	ldr	r3, [r7, #0]
 8001052:	68db      	ldr	r3, [r3, #12]
 8001054:	330c      	adds	r3, #12
 8001056:	623b      	str	r3, [r7, #32]
          break;
 8001058:	e019      	b.n	800108e <HAL_GPIO_Init+0xe2>
          if (GPIO_Init->Pull == GPIO_NOPULL)
 800105a:	683b      	ldr	r3, [r7, #0]
 800105c:	689b      	ldr	r3, [r3, #8]
 800105e:	2b00      	cmp	r3, #0
 8001060:	d102      	bne.n	8001068 <HAL_GPIO_Init+0xbc>
            config = GPIO_CR_MODE_INPUT + GPIO_CR_CNF_INPUT_FLOATING;
 8001062:	2304      	movs	r3, #4
 8001064:	623b      	str	r3, [r7, #32]
          break;
 8001066:	e012      	b.n	800108e <HAL_GPIO_Init+0xe2>
          else if (GPIO_Init->Pull == GPIO_PULLUP)
 8001068:	683b      	ldr	r3, [r7, #0]
 800106a:	689b      	ldr	r3, [r3, #8]
 800106c:	2b01      	cmp	r3, #1
 800106e:	d105      	bne.n	800107c <HAL_GPIO_Init+0xd0>
            config = GPIO_CR_MODE_INPUT + GPIO_CR_CNF_INPUT_PU_PD;
 8001070:	2308      	movs	r3, #8
 8001072:	623b      	str	r3, [r7, #32]
            GPIOx->BSRR = ioposition;
 8001074:	687b      	ldr	r3, [r7, #4]
 8001076:	69fa      	ldr	r2, [r7, #28]
 8001078:	611a      	str	r2, [r3, #16]
          break;
 800107a:	e008      	b.n	800108e <HAL_GPIO_Init+0xe2>
            config = GPIO_CR_MODE_INPUT + GPIO_CR_CNF_INPUT_PU_PD;
 800107c:	2308      	movs	r3, #8
 800107e:	623b      	str	r3, [r7, #32]
            GPIOx->BRR = ioposition;
 8001080:	687b      	ldr	r3, [r7, #4]
 8001082:	69fa      	ldr	r2, [r7, #28]
 8001084:	615a      	str	r2, [r3, #20]
          break;
 8001086:	e002      	b.n	800108e <HAL_GPIO_Init+0xe2>
          config = GPIO_CR_MODE_INPUT + GPIO_CR_CNF_ANALOG;
 8001088:	2300      	movs	r3, #0
 800108a:	623b      	str	r3, [r7, #32]
          break;
 800108c:	bf00      	nop
      }

      /* Check if the current bit belongs to first half or last half of the pin count number
       in order to address CRH or CRL register*/
      configregister = (iocurrent < GPIO_PIN_8) ? &GPIOx->CRL     : &GPIOx->CRH;
 800108e:	69bb      	ldr	r3, [r7, #24]
 8001090:	2bff      	cmp	r3, #255	; 0xff
 8001092:	d801      	bhi.n	8001098 <HAL_GPIO_Init+0xec>
 8001094:	687b      	ldr	r3, [r7, #4]
 8001096:	e001      	b.n	800109c <HAL_GPIO_Init+0xf0>
 8001098:	687b      	ldr	r3, [r7, #4]
 800109a:	3304      	adds	r3, #4
 800109c:	617b      	str	r3, [r7, #20]
      registeroffset = (iocurrent < GPIO_PIN_8) ? (position << 2u) : ((position - 8u) << 2u);
 800109e:	69bb      	ldr	r3, [r7, #24]
 80010a0:	2bff      	cmp	r3, #255	; 0xff
 80010a2:	d802      	bhi.n	80010aa <HAL_GPIO_Init+0xfe>
 80010a4:	6a7b      	ldr	r3, [r7, #36]	; 0x24
 80010a6:	009b      	lsls	r3, r3, #2
 80010a8:	e002      	b.n	80010b0 <HAL_GPIO_Init+0x104>
 80010aa:	6a7b      	ldr	r3, [r7, #36]	; 0x24
 80010ac:	3b08      	subs	r3, #8
 80010ae:	009b      	lsls	r3, r3, #2
 80010b0:	613b      	str	r3, [r7, #16]

      /* Apply the new configuration of the pin to the register */
      MODIFY_REG((*configregister), ((GPIO_CRL_MODE0 | GPIO_CRL_CNF0) << registeroffset), (config << registeroffset));
 80010b2:	697b      	ldr	r3, [r7, #20]
 80010b4:	681a      	ldr	r2, [r3, #0]
 80010b6:	210f      	movs	r1, #15
 80010b8:	693b      	ldr	r3, [r7, #16]
 80010ba:	fa01 f303 	lsl.w	r3, r1, r3
 80010be:	43db      	mvns	r3, r3
 80010c0:	401a      	ands	r2, r3
 80010c2:	6a39      	ldr	r1, [r7, #32]
 80010c4:	693b      	ldr	r3, [r7, #16]
 80010c6:	fa01 f303 	lsl.w	r3, r1, r3
 80010ca:	431a      	orrs	r2, r3
 80010cc:	697b      	ldr	r3, [r7, #20]
 80010ce:	601a      	str	r2, [r3, #0]

      /*--------------------- EXTI Mode Configuration ------------------------*/
      /* Configure the External Interrupt or event for the current IO */
      if ((GPIO_Init->Mode & EXTI_MODE) == EXTI_MODE)
 80010d0:	683b      	ldr	r3, [r7, #0]
 80010d2:	685b      	ldr	r3, [r3, #4]
 80010d4:	f003 5380 	and.w	r3, r3, #268435456	; 0x10000000
 80010d8:	2b00      	cmp	r3, #0
 80010da:	f000 8096 	beq.w	800120a <HAL_GPIO_Init+0x25e>
      {
        /* Enable AFIO Clock */
        __HAL_RCC_AFIO_CLK_ENABLE();
 80010de:	4b59      	ldr	r3, [pc, #356]	; (8001244 <HAL_GPIO_Init+0x298>)
 80010e0:	699b      	ldr	r3, [r3, #24]
 80010e2:	4a58      	ldr	r2, [pc, #352]	; (8001244 <HAL_GPIO_Init+0x298>)
 80010e4:	f043 0301 	orr.w	r3, r3, #1
 80010e8:	6193      	str	r3, [r2, #24]
 80010ea:	4b56      	ldr	r3, [pc, #344]	; (8001244 <HAL_GPIO_Init+0x298>)
 80010ec:	699b      	ldr	r3, [r3, #24]
 80010ee:	f003 0301 	and.w	r3, r3, #1
 80010f2:	60bb      	str	r3, [r7, #8]
 80010f4:	68bb      	ldr	r3, [r7, #8]
        temp = AFIO->EXTICR[position >> 2u];
 80010f6:	4a54      	ldr	r2, [pc, #336]	; (8001248 <HAL_GPIO_Init+0x29c>)
 80010f8:	6a7b      	ldr	r3, [r7, #36]	; 0x24
 80010fa:	089b      	lsrs	r3, r3, #2
 80010fc:	3302      	adds	r3, #2
 80010fe:	f852 3023 	ldr.w	r3, [r2, r3, lsl #2]
 8001102:	60fb      	str	r3, [r7, #12]
        CLEAR_BIT(temp, (0x0Fu) << (4u * (position & 0x03u)));
 8001104:	6a7b      	ldr	r3, [r7, #36]	; 0x24
 8001106:	f003 0303 	and.w	r3, r3, #3
 800110a:	009b      	lsls	r3, r3, #2
 800110c:	220f      	movs	r2, #15
 800110e:	fa02 f303 	lsl.w	r3, r2, r3
 8001112:	43db      	mvns	r3, r3
 8001114:	68fa      	ldr	r2, [r7, #12]
 8001116:	4013      	ands	r3, r2
 8001118:	60fb      	str	r3, [r7, #12]
        SET_BIT(temp, (GPIO_GET_INDEX(GPIOx)) << (4u * (position & 0x03u)));
 800111a:	687b      	ldr	r3, [r7, #4]
 800111c:	4a4b      	ldr	r2, [pc, #300]	; (800124c <HAL_GPIO_Init+0x2a0>)
 800111e:	4293      	cmp	r3, r2
 8001120:	d013      	beq.n	800114a <HAL_GPIO_Init+0x19e>
 8001122:	687b      	ldr	r3, [r7, #4]
 8001124:	4a4a      	ldr	r2, [pc, #296]	; (8001250 <HAL_GPIO_Init+0x2a4>)
 8001126:	4293      	cmp	r3, r2
 8001128:	d00d      	beq.n	8001146 <HAL_GPIO_Init+0x19a>
 800112a:	687b      	ldr	r3, [r7, #4]
 800112c:	4a49      	ldr	r2, [pc, #292]	; (8001254 <HAL_GPIO_Init+0x2a8>)
 800112e:	4293      	cmp	r3, r2
 8001130:	d007      	beq.n	8001142 <HAL_GPIO_Init+0x196>
 8001132:	687b      	ldr	r3, [r7, #4]
 8001134:	4a48      	ldr	r2, [pc, #288]	; (8001258 <HAL_GPIO_Init+0x2ac>)
 8001136:	4293      	cmp	r3, r2
 8001138:	d101      	bne.n	800113e <HAL_GPIO_Init+0x192>
 800113a:	2303      	movs	r3, #3
 800113c:	e006      	b.n	800114c <HAL_GPIO_Init+0x1a0>
 800113e:	2304      	movs	r3, #4
 8001140:	e004      	b.n	800114c <HAL_GPIO_Init+0x1a0>
 8001142:	2302      	movs	r3, #2
 8001144:	e002      	b.n	800114c <HAL_GPIO_Init+0x1a0>
 8001146:	2301      	movs	r3, #1
 8001148:	e000      	b.n	800114c <HAL_GPIO_Init+0x1a0>
 800114a:	2300      	movs	r3, #0
 800114c:	6a7a      	ldr	r2, [r7, #36]	; 0x24
 800114e:	f002 0203 	and.w	r2, r2, #3
 8001152:	0092      	lsls	r2, r2, #2
 8001154:	4093      	lsls	r3, r2
 8001156:	68fa      	ldr	r2, [r7, #12]
 8001158:	4313      	orrs	r3, r2
 800115a:	60fb      	str	r3, [r7, #12]
        AFIO->EXTICR[position >> 2u] = temp;
 800115c:	493a      	ldr	r1, [pc, #232]	; (8001248 <HAL_GPIO_Init+0x29c>)
 800115e:	6a7b      	ldr	r3, [r7, #36]	; 0x24
 8001160:	089b      	lsrs	r3, r3, #2
 8001162:	3302      	adds	r3, #2
 8001164:	68fa      	ldr	r2, [r7, #12]
 8001166:	f841 2023 	str.w	r2, [r1, r3, lsl #2]


        /* Configure the interrupt mask */
        if ((GPIO_Init->Mode & GPIO_MODE_IT) == GPIO_MODE_IT)
 800116a:	683b      	ldr	r3, [r7, #0]
 800116c:	685b      	ldr	r3, [r3, #4]
 800116e:	f403 3380 	and.w	r3, r3, #65536	; 0x10000
 8001172:	2b00      	cmp	r3, #0
 8001174:	d006      	beq.n	8001184 <HAL_GPIO_Init+0x1d8>
        {
          SET_BIT(EXTI->IMR, iocurrent);
 8001176:	4b39      	ldr	r3, [pc, #228]	; (800125c <HAL_GPIO_Init+0x2b0>)
 8001178:	681a      	ldr	r2, [r3, #0]
 800117a:	4938      	ldr	r1, [pc, #224]	; (800125c <HAL_GPIO_Init+0x2b0>)
 800117c:	69bb      	ldr	r3, [r7, #24]
 800117e:	4313      	orrs	r3, r2
 8001180:	600b      	str	r3, [r1, #0]
 8001182:	e006      	b.n	8001192 <HAL_GPIO_Init+0x1e6>
        }
        else
        {
          CLEAR_BIT(EXTI->IMR, iocurrent);
 8001184:	4b35      	ldr	r3, [pc, #212]	; (800125c <HAL_GPIO_Init+0x2b0>)
 8001186:	681a      	ldr	r2, [r3, #0]
 8001188:	69bb      	ldr	r3, [r7, #24]
 800118a:	43db      	mvns	r3, r3
 800118c:	4933      	ldr	r1, [pc, #204]	; (800125c <HAL_GPIO_Init+0x2b0>)
 800118e:	4013      	ands	r3, r2
 8001190:	600b      	str	r3, [r1, #0]
        }

        /* Configure the event mask */
        if ((GPIO_Init->Mode & GPIO_MODE_EVT) == GPIO_MODE_EVT)
 8001192:	683b      	ldr	r3, [r7, #0]
 8001194:	685b      	ldr	r3, [r3, #4]
 8001196:	f403 3300 	and.w	r3, r3, #131072	; 0x20000
 800119a:	2b00      	cmp	r3, #0
 800119c:	d006      	beq.n	80011ac <HAL_GPIO_Init+0x200>
        {
          SET_BIT(EXTI->EMR, iocurrent);
 800119e:	4b2f      	ldr	r3, [pc, #188]	; (800125c <HAL_GPIO_Init+0x2b0>)
 80011a0:	685a      	ldr	r2, [r3, #4]
 80011a2:	492e      	ldr	r1, [pc, #184]	; (800125c <HAL_GPIO_Init+0x2b0>)
 80011a4:	69bb      	ldr	r3, [r7, #24]
 80011a6:	4313      	orrs	r3, r2
 80011a8:	604b      	str	r3, [r1, #4]
 80011aa:	e006      	b.n	80011ba <HAL_GPIO_Init+0x20e>
        }
        else
        {
          CLEAR_BIT(EXTI->EMR, iocurrent);
 80011ac:	4b2b      	ldr	r3, [pc, #172]	; (800125c <HAL_GPIO_Init+0x2b0>)
 80011ae:	685a      	ldr	r2, [r3, #4]
 80011b0:	69bb      	ldr	r3, [r7, #24]
 80011b2:	43db      	mvns	r3, r3
 80011b4:	4929      	ldr	r1, [pc, #164]	; (800125c <HAL_GPIO_Init+0x2b0>)
 80011b6:	4013      	ands	r3, r2
 80011b8:	604b      	str	r3, [r1, #4]
        }

        /* Enable or disable the rising trigger */
        if ((GPIO_Init->Mode & RISING_EDGE) == RISING_EDGE)
 80011ba:	683b      	ldr	r3, [r7, #0]
 80011bc:	685b      	ldr	r3, [r3, #4]
 80011be:	f403 1380 	and.w	r3, r3, #1048576	; 0x100000
 80011c2:	2b00      	cmp	r3, #0
 80011c4:	d006      	beq.n	80011d4 <HAL_GPIO_Init+0x228>
        {
          SET_BIT(EXTI->RTSR, iocurrent);
 80011c6:	4b25      	ldr	r3, [pc, #148]	; (800125c <HAL_GPIO_Init+0x2b0>)
 80011c8:	689a      	ldr	r2, [r3, #8]
 80011ca:	4924      	ldr	r1, [pc, #144]	; (800125c <HAL_GPIO_Init+0x2b0>)
 80011cc:	69bb      	ldr	r3, [r7, #24]
 80011ce:	4313      	orrs	r3, r2
 80011d0:	608b      	str	r3, [r1, #8]
 80011d2:	e006      	b.n	80011e2 <HAL_GPIO_Init+0x236>
        }
        else
        {
          CLEAR_BIT(EXTI->RTSR, iocurrent);
 80011d4:	4b21      	ldr	r3, [pc, #132]	; (800125c <HAL_GPIO_Init+0x2b0>)
 80011d6:	689a      	ldr	r2, [r3, #8]
 80011d8:	69bb      	ldr	r3, [r7, #24]
 80011da:	43db      	mvns	r3, r3
 80011dc:	491f      	ldr	r1, [pc, #124]	; (800125c <HAL_GPIO_Init+0x2b0>)
 80011de:	4013      	ands	r3, r2
 80011e0:	608b      	str	r3, [r1, #8]
        }

        /* Enable or disable the falling trigger */
        if ((GPIO_Init->Mode & FALLING_EDGE) == FALLING_EDGE)
 80011e2:	683b      	ldr	r3, [r7, #0]
 80011e4:	685b      	ldr	r3, [r3, #4]
 80011e6:	f403 1300 	and.w	r3, r3, #2097152	; 0x200000
 80011ea:	2b00      	cmp	r3, #0
 80011ec:	d006      	beq.n	80011fc <HAL_GPIO_Init+0x250>
        {
          SET_BIT(EXTI->FTSR, iocurrent);
 80011ee:	4b1b      	ldr	r3, [pc, #108]	; (800125c <HAL_GPIO_Init+0x2b0>)
 80011f0:	68da      	ldr	r2, [r3, #12]
 80011f2:	491a      	ldr	r1, [pc, #104]	; (800125c <HAL_GPIO_Init+0x2b0>)
 80011f4:	69bb      	ldr	r3, [r7, #24]
 80011f6:	4313      	orrs	r3, r2
 80011f8:	60cb      	str	r3, [r1, #12]
 80011fa:	e006      	b.n	800120a <HAL_GPIO_Init+0x25e>
        }
        else
        {
          CLEAR_BIT(EXTI->FTSR, iocurrent);
 80011fc:	4b17      	ldr	r3, [pc, #92]	; (800125c <HAL_GPIO_Init+0x2b0>)
 80011fe:	68da      	ldr	r2, [r3, #12]
 8001200:	69bb      	ldr	r3, [r7, #24]
 8001202:	43db      	mvns	r3, r3
 8001204:	4915      	ldr	r1, [pc, #84]	; (800125c <HAL_GPIO_Init+0x2b0>)
 8001206:	4013      	ands	r3, r2
 8001208:	60cb      	str	r3, [r1, #12]
        }
      }
    }

	position++;
 800120a:	6a7b      	ldr	r3, [r7, #36]	; 0x24
 800120c:	3301      	adds	r3, #1
 800120e:	627b      	str	r3, [r7, #36]	; 0x24
  while (((GPIO_Init->Pin) >> position) != 0x00u)
 8001210:	683b      	ldr	r3, [r7, #0]
 8001212:	681a      	ldr	r2, [r3, #0]
 8001214:	6a7b      	ldr	r3, [r7, #36]	; 0x24
 8001216:	fa22 f303 	lsr.w	r3, r2, r3
 800121a:	2b00      	cmp	r3, #0
 800121c:	f47f aed0 	bne.w	8000fc0 <HAL_GPIO_Init+0x14>
  }
}
 8001220:	bf00      	nop
 8001222:	372c      	adds	r7, #44	; 0x2c
 8001224:	46bd      	mov	sp, r7
 8001226:	bc80      	pop	{r7}
 8001228:	4770      	bx	lr
 800122a:	bf00      	nop
 800122c:	10210000 	.word	0x10210000
 8001230:	10110000 	.word	0x10110000
 8001234:	10120000 	.word	0x10120000
 8001238:	10310000 	.word	0x10310000
 800123c:	10320000 	.word	0x10320000
 8001240:	10220000 	.word	0x10220000
 8001244:	40021000 	.word	0x40021000
 8001248:	40010000 	.word	0x40010000
 800124c:	40010800 	.word	0x40010800
 8001250:	40010c00 	.word	0x40010c00
 8001254:	40011000 	.word	0x40011000
 8001258:	40011400 	.word	0x40011400
 800125c:	40010400 	.word	0x40010400

08001260 <HAL_GPIO_ReadPin>:
  * @param  GPIO_Pin: specifies the port bit to read.
  *         This parameter can be GPIO_PIN_x where x can be (0..15).
  * @retval The input port pin value.
  */
GPIO_PinState HAL_GPIO_ReadPin(GPIO_TypeDef *GPIOx, uint16_t GPIO_Pin)
{
 8001260:	b480      	push	{r7}
 8001262:	b085      	sub	sp, #20
 8001264:	af00      	add	r7, sp, #0
 8001266:	6078      	str	r0, [r7, #4]
 8001268:	460b      	mov	r3, r1
 800126a:	807b      	strh	r3, [r7, #2]
  GPIO_PinState bitstatus;

  /* Check the parameters */
  assert_param(IS_GPIO_PIN(GPIO_Pin));

  if ((GPIOx->IDR & GPIO_Pin) != (uint32_t)GPIO_PIN_RESET)
 800126c:	687b      	ldr	r3, [r7, #4]
 800126e:	689a      	ldr	r2, [r3, #8]
 8001270:	887b      	ldrh	r3, [r7, #2]
 8001272:	4013      	ands	r3, r2
 8001274:	2b00      	cmp	r3, #0
 8001276:	d002      	beq.n	800127e <HAL_GPIO_ReadPin+0x1e>
  {
    bitstatus = GPIO_PIN_SET;
 8001278:	2301      	movs	r3, #1
 800127a:	73fb      	strb	r3, [r7, #15]
 800127c:	e001      	b.n	8001282 <HAL_GPIO_ReadPin+0x22>
  }
  else
  {
    bitstatus = GPIO_PIN_RESET;
 800127e:	2300      	movs	r3, #0
 8001280:	73fb      	strb	r3, [r7, #15]
  }
  return bitstatus;
 8001282:	7bfb      	ldrb	r3, [r7, #15]
}
 8001284:	4618      	mov	r0, r3
 8001286:	3714      	adds	r7, #20
 8001288:	46bd      	mov	sp, r7
 800128a:	bc80      	pop	{r7}
 800128c:	4770      	bx	lr

0800128e <HAL_GPIO_WritePin>:
  *            @arg GPIO_PIN_RESET: to clear the port pin
  *            @arg GPIO_PIN_SET: to set the port pin
  * @retval None
  */
void HAL_GPIO_WritePin(GPIO_TypeDef *GPIOx, uint16_t GPIO_Pin, GPIO_PinState PinState)
{
 800128e:	b480      	push	{r7}
 8001290:	b083      	sub	sp, #12
 8001292:	af00      	add	r7, sp, #0
 8001294:	6078      	str	r0, [r7, #4]
 8001296:	460b      	mov	r3, r1
 8001298:	807b      	strh	r3, [r7, #2]
 800129a:	4613      	mov	r3, r2
 800129c:	707b      	strb	r3, [r7, #1]
  /* Check the parameters */
  assert_param(IS_GPIO_PIN(GPIO_Pin));
  assert_param(IS_GPIO_PIN_ACTION(PinState));

  if (PinState != GPIO_PIN_RESET)
 800129e:	787b      	ldrb	r3, [r7, #1]
 80012a0:	2b00      	cmp	r3, #0
 80012a2:	d003      	beq.n	80012ac <HAL_GPIO_WritePin+0x1e>
  {
    GPIOx->BSRR = GPIO_Pin;
 80012a4:	887a      	ldrh	r2, [r7, #2]
 80012a6:	687b      	ldr	r3, [r7, #4]
 80012a8:	611a      	str	r2, [r3, #16]
  }
  else
  {
    GPIOx->BSRR = (uint32_t)GPIO_Pin << 16u;
  }
}
 80012aa:	e003      	b.n	80012b4 <HAL_GPIO_WritePin+0x26>
    GPIOx->BSRR = (uint32_t)GPIO_Pin << 16u;
 80012ac:	887b      	ldrh	r3, [r7, #2]
 80012ae:	041a      	lsls	r2, r3, #16
 80012b0:	687b      	ldr	r3, [r7, #4]
 80012b2:	611a      	str	r2, [r3, #16]
}
 80012b4:	bf00      	nop
 80012b6:	370c      	adds	r7, #12
 80012b8:	46bd      	mov	sp, r7
 80012ba:	bc80      	pop	{r7}
 80012bc:	4770      	bx	lr

080012be <HAL_GPIO_TogglePin>:
  * @param  GPIOx: where x can be (A..G depending on device used) to select the GPIO peripheral
  * @param  GPIO_Pin: Specifies the pins to be toggled.
  * @retval None
  */
void HAL_GPIO_TogglePin(GPIO_TypeDef *GPIOx, uint16_t GPIO_Pin)
{
 80012be:	b480      	push	{r7}
 80012c0:	b083      	sub	sp, #12
 80012c2:	af00      	add	r7, sp, #0
 80012c4:	6078      	str	r0, [r7, #4]
 80012c6:	460b      	mov	r3, r1
 80012c8:	807b      	strh	r3, [r7, #2]
  /* Check the parameters */
  assert_param(IS_GPIO_PIN(GPIO_Pin));

  if ((GPIOx->ODR & GPIO_Pin) != 0x00u)
 80012ca:	687b      	ldr	r3, [r7, #4]
 80012cc:	68da      	ldr	r2, [r3, #12]
 80012ce:	887b      	ldrh	r3, [r7, #2]
 80012d0:	4013      	ands	r3, r2
 80012d2:	2b00      	cmp	r3, #0
 80012d4:	d003      	beq.n	80012de <HAL_GPIO_TogglePin+0x20>
  {
    GPIOx->BRR = (uint32_t)GPIO_Pin;
 80012d6:	887a      	ldrh	r2, [r7, #2]
 80012d8:	687b      	ldr	r3, [r7, #4]
 80012da:	615a      	str	r2, [r3, #20]
  }
  else
  {
    GPIOx->BSRR = (uint32_t)GPIO_Pin;
  }
}
 80012dc:	e002      	b.n	80012e4 <HAL_GPIO_TogglePin+0x26>
    GPIOx->BSRR = (uint32_t)GPIO_Pin;
 80012de:	887a      	ldrh	r2, [r7, #2]
 80012e0:	687b      	ldr	r3, [r7, #4]
 80012e2:	611a      	str	r2, [r3, #16]
}
 80012e4:	bf00      	nop
 80012e6:	370c      	adds	r7, #12
 80012e8:	46bd      	mov	sp, r7
 80012ea:	bc80      	pop	{r7}
 80012ec:	4770      	bx	lr
	...

080012f0 <HAL_RCC_OscConfig>:
  *         supported by this macro. User should request a transition to HSE Off
  *         first and then HSE On or HSE Bypass.
  * @retval HAL status
  */
HAL_StatusTypeDef HAL_RCC_OscConfig(RCC_OscInitTypeDef  *RCC_OscInitStruct)
{
 80012f0:	b580      	push	{r7, lr}
 80012f2:	b086      	sub	sp, #24
 80012f4:	af00      	add	r7, sp, #0
 80012f6:	6078      	str	r0, [r7, #4]
  uint32_t tickstart;
  uint32_t pll_config;

  /* Check Null pointer */
  if (RCC_OscInitStruct == NULL)
 80012f8:	687b      	ldr	r3, [r7, #4]
 80012fa:	2b00      	cmp	r3, #0
 80012fc:	d101      	bne.n	8001302 <HAL_RCC_OscConfig+0x12>
  {
    return HAL_ERROR;
 80012fe:	2301      	movs	r3, #1
 8001300:	e26c      	b.n	80017dc <HAL_RCC_OscConfig+0x4ec>

  /* Check the parameters */
  assert_param(IS_RCC_OSCILLATORTYPE(RCC_OscInitStruct->OscillatorType));

  /*------------------------------- HSE Configuration ------------------------*/
  if (((RCC_OscInitStruct->OscillatorType) & RCC_OSCILLATORTYPE_HSE) == RCC_OSCILLATORTYPE_HSE)
 8001302:	687b      	ldr	r3, [r7, #4]
 8001304:	681b      	ldr	r3, [r3, #0]
 8001306:	f003 0301 	and.w	r3, r3, #1
 800130a:	2b00      	cmp	r3, #0
 800130c:	f000 8087 	beq.w	800141e <HAL_RCC_OscConfig+0x12e>
  {
    /* Check the parameters */
    assert_param(IS_RCC_HSE(RCC_OscInitStruct->HSEState));

    /* When the HSE is used as system clock or clock source for PLL in these cases it is not allowed to be disabled */
    if ((__HAL_RCC_GET_SYSCLK_SOURCE() == RCC_SYSCLKSOURCE_STATUS_HSE)
 8001310:	4b92      	ldr	r3, [pc, #584]	; (800155c <HAL_RCC_OscConfig+0x26c>)
 8001312:	685b      	ldr	r3, [r3, #4]
 8001314:	f003 030c 	and.w	r3, r3, #12
 8001318:	2b04      	cmp	r3, #4
 800131a:	d00c      	beq.n	8001336 <HAL_RCC_OscConfig+0x46>
        || ((__HAL_RCC_GET_SYSCLK_SOURCE() == RCC_SYSCLKSOURCE_STATUS_PLLCLK) && (__HAL_RCC_GET_PLL_OSCSOURCE() == RCC_PLLSOURCE_HSE)))
 800131c:	4b8f      	ldr	r3, [pc, #572]	; (800155c <HAL_RCC_OscConfig+0x26c>)
 800131e:	685b      	ldr	r3, [r3, #4]
 8001320:	f003 030c 	and.w	r3, r3, #12
 8001324:	2b08      	cmp	r3, #8
 8001326:	d112      	bne.n	800134e <HAL_RCC_OscConfig+0x5e>
 8001328:	4b8c      	ldr	r3, [pc, #560]	; (800155c <HAL_RCC_OscConfig+0x26c>)
 800132a:	685b      	ldr	r3, [r3, #4]
 800132c:	f403 3380 	and.w	r3, r3, #65536	; 0x10000
 8001330:	f5b3 3f80 	cmp.w	r3, #65536	; 0x10000
 8001334:	d10b      	bne.n	800134e <HAL_RCC_OscConfig+0x5e>
    {
      if ((__HAL_RCC_GET_FLAG(RCC_FLAG_HSERDY) != RESET) && (RCC_OscInitStruct->HSEState == RCC_HSE_OFF))
 8001336:	4b89      	ldr	r3, [pc, #548]	; (800155c <HAL_RCC_OscConfig+0x26c>)
 8001338:	681b      	ldr	r3, [r3, #0]
 800133a:	f403 3300 	and.w	r3, r3, #131072	; 0x20000
 800133e:	2b00      	cmp	r3, #0
 8001340:	d06c      	beq.n	800141c <HAL_RCC_OscConfig+0x12c>
 8001342:	687b      	ldr	r3, [r7, #4]
 8001344:	685b      	ldr	r3, [r3, #4]
 8001346:	2b00      	cmp	r3, #0
 8001348:	d168      	bne.n	800141c <HAL_RCC_OscConfig+0x12c>
      {
        return HAL_ERROR;
 800134a:	2301      	movs	r3, #1
 800134c:	e246      	b.n	80017dc <HAL_RCC_OscConfig+0x4ec>
      }
    }
    else
    {
      /* Set the new HSE configuration ---------------------------------------*/
      __HAL_RCC_HSE_CONFIG(RCC_OscInitStruct->HSEState);
 800134e:	687b      	ldr	r3, [r7, #4]
 8001350:	685b      	ldr	r3, [r3, #4]
 8001352:	f5b3 3f80 	cmp.w	r3, #65536	; 0x10000
 8001356:	d106      	bne.n	8001366 <HAL_RCC_OscConfig+0x76>
 8001358:	4b80      	ldr	r3, [pc, #512]	; (800155c <HAL_RCC_OscConfig+0x26c>)
 800135a:	681b      	ldr	r3, [r3, #0]
 800135c:	4a7f      	ldr	r2, [pc, #508]	; (800155c <HAL_RCC_OscConfig+0x26c>)
 800135e:	f443 3380 	orr.w	r3, r3, #65536	; 0x10000
 8001362:	6013      	str	r3, [r2, #0]
 8001364:	e02e      	b.n	80013c4 <HAL_RCC_OscConfig+0xd4>
 8001366:	687b      	ldr	r3, [r7, #4]
 8001368:	685b      	ldr	r3, [r3, #4]
 800136a:	2b00      	cmp	r3, #0
 800136c:	d10c      	bne.n	8001388 <HAL_RCC_OscConfig+0x98>
 800136e:	4b7b      	ldr	r3, [pc, #492]	; (800155c <HAL_RCC_OscConfig+0x26c>)
 8001370:	681b      	ldr	r3, [r3, #0]
 8001372:	4a7a      	ldr	r2, [pc, #488]	; (800155c <HAL_RCC_OscConfig+0x26c>)
 8001374:	f423 3380 	bic.w	r3, r3, #65536	; 0x10000
 8001378:	6013      	str	r3, [r2, #0]
 800137a:	4b78      	ldr	r3, [pc, #480]	; (800155c <HAL_RCC_OscConfig+0x26c>)
 800137c:	681b      	ldr	r3, [r3, #0]
 800137e:	4a77      	ldr	r2, [pc, #476]	; (800155c <HAL_RCC_OscConfig+0x26c>)
 8001380:	f423 2380 	bic.w	r3, r3, #262144	; 0x40000
 8001384:	6013      	str	r3, [r2, #0]
 8001386:	e01d      	b.n	80013c4 <HAL_RCC_OscConfig+0xd4>
 8001388:	687b      	ldr	r3, [r7, #4]
 800138a:	685b      	ldr	r3, [r3, #4]
 800138c:	f5b3 2fa0 	cmp.w	r3, #327680	; 0x50000
 8001390:	d10c      	bne.n	80013ac <HAL_RCC_OscConfig+0xbc>
 8001392:	4b72      	ldr	r3, [pc, #456]	; (800155c <HAL_RCC_OscConfig+0x26c>)
 8001394:	681b      	ldr	r3, [r3, #0]
 8001396:	4a71      	ldr	r2, [pc, #452]	; (800155c <HAL_RCC_OscConfig+0x26c>)
 8001398:	f443 2380 	orr.w	r3, r3, #262144	; 0x40000
 800139c:	6013      	str	r3, [r2, #0]
 800139e:	4b6f      	ldr	r3, [pc, #444]	; (800155c <HAL_RCC_OscConfig+0x26c>)
 80013a0:	681b      	ldr	r3, [r3, #0]
 80013a2:	4a6e      	ldr	r2, [pc, #440]	; (800155c <HAL_RCC_OscConfig+0x26c>)
 80013a4:	f443 3380 	orr.w	r3, r3, #65536	; 0x10000
 80013a8:	6013      	str	r3, [r2, #0]
 80013aa:	e00b      	b.n	80013c4 <HAL_RCC_OscConfig+0xd4>
 80013ac:	4b6b      	ldr	r3, [pc, #428]	; (800155c <HAL_RCC_OscConfig+0x26c>)
 80013ae:	681b      	ldr	r3, [r3, #0]
 80013b0:	4a6a      	ldr	r2, [pc, #424]	; (800155c <HAL_RCC_OscConfig+0x26c>)
 80013b2:	f423 3380 	bic.w	r3, r3, #65536	; 0x10000
 80013b6:	6013      	str	r3, [r2, #0]
 80013b8:	4b68      	ldr	r3, [pc, #416]	; (800155c <HAL_RCC_OscConfig+0x26c>)
 80013ba:	681b      	ldr	r3, [r3, #0]
 80013bc:	4a67      	ldr	r2, [pc, #412]	; (800155c <HAL_RCC_OscConfig+0x26c>)
 80013be:	f423 2380 	bic.w	r3, r3, #262144	; 0x40000
 80013c2:	6013      	str	r3, [r2, #0]


      /* Check the HSE State */
      if (RCC_OscInitStruct->HSEState != RCC_HSE_OFF)
 80013c4:	687b      	ldr	r3, [r7, #4]
 80013c6:	685b      	ldr	r3, [r3, #4]
 80013c8:	2b00      	cmp	r3, #0
 80013ca:	d013      	beq.n	80013f4 <HAL_RCC_OscConfig+0x104>
      {
        /* Get Start Tick */
        tickstart = HAL_GetTick();
 80013cc:	f7ff fc3e 	bl	8000c4c <HAL_GetTick>
 80013d0:	6138      	str	r0, [r7, #16]

        /* Wait till HSE is ready */
        while (__HAL_RCC_GET_FLAG(RCC_FLAG_HSERDY) == RESET)
 80013d2:	e008      	b.n	80013e6 <HAL_RCC_OscConfig+0xf6>
        {
          if ((HAL_GetTick() - tickstart) > HSE_TIMEOUT_VALUE)
 80013d4:	f7ff fc3a 	bl	8000c4c <HAL_GetTick>
 80013d8:	4602      	mov	r2, r0
 80013da:	693b      	ldr	r3, [r7, #16]
 80013dc:	1ad3      	subs	r3, r2, r3
 80013de:	2b64      	cmp	r3, #100	; 0x64
 80013e0:	d901      	bls.n	80013e6 <HAL_RCC_OscConfig+0xf6>
          {
            return HAL_TIMEOUT;
 80013e2:	2303      	movs	r3, #3
 80013e4:	e1fa      	b.n	80017dc <HAL_RCC_OscConfig+0x4ec>
        while (__HAL_RCC_GET_FLAG(RCC_FLAG_HSERDY) == RESET)
 80013e6:	4b5d      	ldr	r3, [pc, #372]	; (800155c <HAL_RCC_OscConfig+0x26c>)
 80013e8:	681b      	ldr	r3, [r3, #0]
 80013ea:	f403 3300 	and.w	r3, r3, #131072	; 0x20000
 80013ee:	2b00      	cmp	r3, #0
 80013f0:	d0f0      	beq.n	80013d4 <HAL_RCC_OscConfig+0xe4>
 80013f2:	e014      	b.n	800141e <HAL_RCC_OscConfig+0x12e>
        }
      }
      else
      {
        /* Get Start Tick */
        tickstart = HAL_GetTick();
 80013f4:	f7ff fc2a 	bl	8000c4c <HAL_GetTick>
 80013f8:	6138      	str	r0, [r7, #16]

        /* Wait till HSE is disabled */
        while (__HAL_RCC_GET_FLAG(RCC_FLAG_HSERDY) != RESET)
 80013fa:	e008      	b.n	800140e <HAL_RCC_OscConfig+0x11e>
        {
          if ((HAL_GetTick() - tickstart) > HSE_TIMEOUT_VALUE)
 80013fc:	f7ff fc26 	bl	8000c4c <HAL_GetTick>
 8001400:	4602      	mov	r2, r0
 8001402:	693b      	ldr	r3, [r7, #16]
 8001404:	1ad3      	subs	r3, r2, r3
 8001406:	2b64      	cmp	r3, #100	; 0x64
 8001408:	d901      	bls.n	800140e <HAL_RCC_OscConfig+0x11e>
          {
            return HAL_TIMEOUT;
 800140a:	2303      	movs	r3, #3
 800140c:	e1e6      	b.n	80017dc <HAL_RCC_OscConfig+0x4ec>
        while (__HAL_RCC_GET_FLAG(RCC_FLAG_HSERDY) != RESET)
 800140e:	4b53      	ldr	r3, [pc, #332]	; (800155c <HAL_RCC_OscConfig+0x26c>)
 8001410:	681b      	ldr	r3, [r3, #0]
 8001412:	f403 3300 	and.w	r3, r3, #131072	; 0x20000
 8001416:	2b00      	cmp	r3, #0
 8001418:	d1f0      	bne.n	80013fc <HAL_RCC_OscConfig+0x10c>
 800141a:	e000      	b.n	800141e <HAL_RCC_OscConfig+0x12e>
      if ((__HAL_RCC_GET_FLAG(RCC_FLAG_HSERDY) != RESET) && (RCC_OscInitStruct->HSEState == RCC_HSE_OFF))
 800141c:	bf00      	nop
        }
      }
    }
  }
  /*----------------------------- HSI Configuration --------------------------*/
  if (((RCC_OscInitStruct->OscillatorType) & RCC_OSCILLATORTYPE_HSI) == RCC_OSCILLATORTYPE_HSI)
 800141e:	687b      	ldr	r3, [r7, #4]
 8001420:	681b      	ldr	r3, [r3, #0]
 8001422:	f003 0302 	and.w	r3, r3, #2
 8001426:	2b00      	cmp	r3, #0
 8001428:	d063      	beq.n	80014f2 <HAL_RCC_OscConfig+0x202>
    /* Check the parameters */
    assert_param(IS_RCC_HSI(RCC_OscInitStruct->HSIState));
    assert_param(IS_RCC_CALIBRATION_VALUE(RCC_OscInitStruct->HSICalibrationValue));

    /* Check if HSI is used as system clock or as PLL source when PLL is selected as system clock */
    if ((__HAL_RCC_GET_SYSCLK_SOURCE() == RCC_SYSCLKSOURCE_STATUS_HSI)
 800142a:	4b4c      	ldr	r3, [pc, #304]	; (800155c <HAL_RCC_OscConfig+0x26c>)
 800142c:	685b      	ldr	r3, [r3, #4]
 800142e:	f003 030c 	and.w	r3, r3, #12
 8001432:	2b00      	cmp	r3, #0
 8001434:	d00b      	beq.n	800144e <HAL_RCC_OscConfig+0x15e>
        || ((__HAL_RCC_GET_SYSCLK_SOURCE() == RCC_SYSCLKSOURCE_STATUS_PLLCLK) && (__HAL_RCC_GET_PLL_OSCSOURCE() == RCC_PLLSOURCE_HSI_DIV2)))
 8001436:	4b49      	ldr	r3, [pc, #292]	; (800155c <HAL_RCC_OscConfig+0x26c>)
 8001438:	685b      	ldr	r3, [r3, #4]
 800143a:	f003 030c 	and.w	r3, r3, #12
 800143e:	2b08      	cmp	r3, #8
 8001440:	d11c      	bne.n	800147c <HAL_RCC_OscConfig+0x18c>
 8001442:	4b46      	ldr	r3, [pc, #280]	; (800155c <HAL_RCC_OscConfig+0x26c>)
 8001444:	685b      	ldr	r3, [r3, #4]
 8001446:	f403 3380 	and.w	r3, r3, #65536	; 0x10000
 800144a:	2b00      	cmp	r3, #0
 800144c:	d116      	bne.n	800147c <HAL_RCC_OscConfig+0x18c>
    {
      /* When HSI is used as system clock it will not disabled */
      if ((__HAL_RCC_GET_FLAG(RCC_FLAG_HSIRDY) != RESET) && (RCC_OscInitStruct->HSIState != RCC_HSI_ON))
 800144e:	4b43      	ldr	r3, [pc, #268]	; (800155c <HAL_RCC_OscConfig+0x26c>)
 8001450:	681b      	ldr	r3, [r3, #0]
 8001452:	f003 0302 	and.w	r3, r3, #2
 8001456:	2b00      	cmp	r3, #0
 8001458:	d005      	beq.n	8001466 <HAL_RCC_OscConfig+0x176>
 800145a:	687b      	ldr	r3, [r7, #4]
 800145c:	691b      	ldr	r3, [r3, #16]
 800145e:	2b01      	cmp	r3, #1
 8001460:	d001      	beq.n	8001466 <HAL_RCC_OscConfig+0x176>
      {
        return HAL_ERROR;
 8001462:	2301      	movs	r3, #1
 8001464:	e1ba      	b.n	80017dc <HAL_RCC_OscConfig+0x4ec>
      }
      /* Otherwise, just the calibration is allowed */
      else
      {
        /* Adjusts the Internal High Speed oscillator (HSI) calibration value.*/
        __HAL_RCC_HSI_CALIBRATIONVALUE_ADJUST(RCC_OscInitStruct->HSICalibrationValue);
 8001466:	4b3d      	ldr	r3, [pc, #244]	; (800155c <HAL_RCC_OscConfig+0x26c>)
 8001468:	681b      	ldr	r3, [r3, #0]
 800146a:	f023 02f8 	bic.w	r2, r3, #248	; 0xf8
 800146e:	687b      	ldr	r3, [r7, #4]
 8001470:	695b      	ldr	r3, [r3, #20]
 8001472:	00db      	lsls	r3, r3, #3
 8001474:	4939      	ldr	r1, [pc, #228]	; (800155c <HAL_RCC_OscConfig+0x26c>)
 8001476:	4313      	orrs	r3, r2
 8001478:	600b      	str	r3, [r1, #0]
      if ((__HAL_RCC_GET_FLAG(RCC_FLAG_HSIRDY) != RESET) && (RCC_OscInitStruct->HSIState != RCC_HSI_ON))
 800147a:	e03a      	b.n	80014f2 <HAL_RCC_OscConfig+0x202>
      }
    }
    else
    {
      /* Check the HSI State */
      if (RCC_OscInitStruct->HSIState != RCC_HSI_OFF)
 800147c:	687b      	ldr	r3, [r7, #4]
 800147e:	691b      	ldr	r3, [r3, #16]
 8001480:	2b00      	cmp	r3, #0
 8001482:	d020      	beq.n	80014c6 <HAL_RCC_OscConfig+0x1d6>
      {
        /* Enable the Internal High Speed oscillator (HSI). */
        __HAL_RCC_HSI_ENABLE();
 8001484:	4b36      	ldr	r3, [pc, #216]	; (8001560 <HAL_RCC_OscConfig+0x270>)
 8001486:	2201      	movs	r2, #1
 8001488:	601a      	str	r2, [r3, #0]

        /* Get Start Tick */
        tickstart = HAL_GetTick();
 800148a:	f7ff fbdf 	bl	8000c4c <HAL_GetTick>
 800148e:	6138      	str	r0, [r7, #16]

        /* Wait till HSI is ready */
        while (__HAL_RCC_GET_FLAG(RCC_FLAG_HSIRDY) == RESET)
 8001490:	e008      	b.n	80014a4 <HAL_RCC_OscConfig+0x1b4>
        {
          if ((HAL_GetTick() - tickstart) > HSI_TIMEOUT_VALUE)
 8001492:	f7ff fbdb 	bl	8000c4c <HAL_GetTick>
 8001496:	4602      	mov	r2, r0
 8001498:	693b      	ldr	r3, [r7, #16]
 800149a:	1ad3      	subs	r3, r2, r3
 800149c:	2b02      	cmp	r3, #2
 800149e:	d901      	bls.n	80014a4 <HAL_RCC_OscConfig+0x1b4>
          {
            return HAL_TIMEOUT;
 80014a0:	2303      	movs	r3, #3
 80014a2:	e19b      	b.n	80017dc <HAL_RCC_OscConfig+0x4ec>
        while (__HAL_RCC_GET_FLAG(RCC_FLAG_HSIRDY) == RESET)
 80014a4:	4b2d      	ldr	r3, [pc, #180]	; (800155c <HAL_RCC_OscConfig+0x26c>)
 80014a6:	681b      	ldr	r3, [r3, #0]
 80014a8:	f003 0302 	and.w	r3, r3, #2
 80014ac:	2b00      	cmp	r3, #0
 80014ae:	d0f0      	beq.n	8001492 <HAL_RCC_OscConfig+0x1a2>
          }
        }

        /* Adjusts the Internal High Speed oscillator (HSI) calibration value.*/
        __HAL_RCC_HSI_CALIBRATIONVALUE_ADJUST(RCC_OscInitStruct->HSICalibrationValue);
 80014b0:	4b2a      	ldr	r3, [pc, #168]	; (800155c <HAL_RCC_OscConfig+0x26c>)
 80014b2:	681b      	ldr	r3, [r3, #0]
 80014b4:	f023 02f8 	bic.w	r2, r3, #248	; 0xf8
 80014b8:	687b      	ldr	r3, [r7, #4]
 80014ba:	695b      	ldr	r3, [r3, #20]
 80014bc:	00db      	lsls	r3, r3, #3
 80014be:	4927      	ldr	r1, [pc, #156]	; (800155c <HAL_RCC_OscConfig+0x26c>)
 80014c0:	4313      	orrs	r3, r2
 80014c2:	600b      	str	r3, [r1, #0]
 80014c4:	e015      	b.n	80014f2 <HAL_RCC_OscConfig+0x202>
      }
      else
      {
        /* Disable the Internal High Speed oscillator (HSI). */
        __HAL_RCC_HSI_DISABLE();
 80014c6:	4b26      	ldr	r3, [pc, #152]	; (8001560 <HAL_RCC_OscConfig+0x270>)
 80014c8:	2200      	movs	r2, #0
 80014ca:	601a      	str	r2, [r3, #0]

        /* Get Start Tick */
        tickstart = HAL_GetTick();
 80014cc:	f7ff fbbe 	bl	8000c4c <HAL_GetTick>
 80014d0:	6138      	str	r0, [r7, #16]

        /* Wait till HSI is disabled */
        while (__HAL_RCC_GET_FLAG(RCC_FLAG_HSIRDY) != RESET)
 80014d2:	e008      	b.n	80014e6 <HAL_RCC_OscConfig+0x1f6>
        {
          if ((HAL_GetTick() - tickstart) > HSI_TIMEOUT_VALUE)
 80014d4:	f7ff fbba 	bl	8000c4c <HAL_GetTick>
 80014d8:	4602      	mov	r2, r0
 80014da:	693b      	ldr	r3, [r7, #16]
 80014dc:	1ad3      	subs	r3, r2, r3
 80014de:	2b02      	cmp	r3, #2
 80014e0:	d901      	bls.n	80014e6 <HAL_RCC_OscConfig+0x1f6>
          {
            return HAL_TIMEOUT;
 80014e2:	2303      	movs	r3, #3
 80014e4:	e17a      	b.n	80017dc <HAL_RCC_OscConfig+0x4ec>
        while (__HAL_RCC_GET_FLAG(RCC_FLAG_HSIRDY) != RESET)
 80014e6:	4b1d      	ldr	r3, [pc, #116]	; (800155c <HAL_RCC_OscConfig+0x26c>)
 80014e8:	681b      	ldr	r3, [r3, #0]
 80014ea:	f003 0302 	and.w	r3, r3, #2
 80014ee:	2b00      	cmp	r3, #0
 80014f0:	d1f0      	bne.n	80014d4 <HAL_RCC_OscConfig+0x1e4>
        }
      }
    }
  }
  /*------------------------------ LSI Configuration -------------------------*/
  if (((RCC_OscInitStruct->OscillatorType) & RCC_OSCILLATORTYPE_LSI) == RCC_OSCILLATORTYPE_LSI)
 80014f2:	687b      	ldr	r3, [r7, #4]
 80014f4:	681b      	ldr	r3, [r3, #0]
 80014f6:	f003 0308 	and.w	r3, r3, #8
 80014fa:	2b00      	cmp	r3, #0
 80014fc:	d03a      	beq.n	8001574 <HAL_RCC_OscConfig+0x284>
  {
    /* Check the parameters */
    assert_param(IS_RCC_LSI(RCC_OscInitStruct->LSIState));

    /* Check the LSI State */
    if (RCC_OscInitStruct->LSIState != RCC_LSI_OFF)
 80014fe:	687b      	ldr	r3, [r7, #4]
 8001500:	699b      	ldr	r3, [r3, #24]
 8001502:	2b00      	cmp	r3, #0
 8001504:	d019      	beq.n	800153a <HAL_RCC_OscConfig+0x24a>
    {
      /* Enable the Internal Low Speed oscillator (LSI). */
      __HAL_RCC_LSI_ENABLE();
 8001506:	4b17      	ldr	r3, [pc, #92]	; (8001564 <HAL_RCC_OscConfig+0x274>)
 8001508:	2201      	movs	r2, #1
 800150a:	601a      	str	r2, [r3, #0]

      /* Get Start Tick */
      tickstart = HAL_GetTick();
 800150c:	f7ff fb9e 	bl	8000c4c <HAL_GetTick>
 8001510:	6138      	str	r0, [r7, #16]

      /* Wait till LSI is ready */
      while (__HAL_RCC_GET_FLAG(RCC_FLAG_LSIRDY) == RESET)
 8001512:	e008      	b.n	8001526 <HAL_RCC_OscConfig+0x236>
      {
        if ((HAL_GetTick() - tickstart) > LSI_TIMEOUT_VALUE)
 8001514:	f7ff fb9a 	bl	8000c4c <HAL_GetTick>
 8001518:	4602      	mov	r2, r0
 800151a:	693b      	ldr	r3, [r7, #16]
 800151c:	1ad3      	subs	r3, r2, r3
 800151e:	2b02      	cmp	r3, #2
 8001520:	d901      	bls.n	8001526 <HAL_RCC_OscConfig+0x236>
        {
          return HAL_TIMEOUT;
 8001522:	2303      	movs	r3, #3
 8001524:	e15a      	b.n	80017dc <HAL_RCC_OscConfig+0x4ec>
      while (__HAL_RCC_GET_FLAG(RCC_FLAG_LSIRDY) == RESET)
 8001526:	4b0d      	ldr	r3, [pc, #52]	; (800155c <HAL_RCC_OscConfig+0x26c>)
 8001528:	6a5b      	ldr	r3, [r3, #36]	; 0x24
 800152a:	f003 0302 	and.w	r3, r3, #2
 800152e:	2b00      	cmp	r3, #0
 8001530:	d0f0      	beq.n	8001514 <HAL_RCC_OscConfig+0x224>
        }
      }
      /*  To have a fully stabilized clock in the specified range, a software delay of 1ms
          should be added.*/
      RCC_Delay(1);
 8001532:	2001      	movs	r0, #1
 8001534:	f000 fada 	bl	8001aec <RCC_Delay>
 8001538:	e01c      	b.n	8001574 <HAL_RCC_OscConfig+0x284>
    }
    else
    {
      /* Disable the Internal Low Speed oscillator (LSI). */
      __HAL_RCC_LSI_DISABLE();
 800153a:	4b0a      	ldr	r3, [pc, #40]	; (8001564 <HAL_RCC_OscConfig+0x274>)
 800153c:	2200      	movs	r2, #0
 800153e:	601a      	str	r2, [r3, #0]

      /* Get Start Tick */
      tickstart = HAL_GetTick();
 8001540:	f7ff fb84 	bl	8000c4c <HAL_GetTick>
 8001544:	6138      	str	r0, [r7, #16]

      /* Wait till LSI is disabled */
      while (__HAL_RCC_GET_FLAG(RCC_FLAG_LSIRDY) != RESET)
 8001546:	e00f      	b.n	8001568 <HAL_RCC_OscConfig+0x278>
      {
        if ((HAL_GetTick() - tickstart) > LSI_TIMEOUT_VALUE)
 8001548:	f7ff fb80 	bl	8000c4c <HAL_GetTick>
 800154c:	4602      	mov	r2, r0
 800154e:	693b      	ldr	r3, [r7, #16]
 8001550:	1ad3      	subs	r3, r2, r3
 8001552:	2b02      	cmp	r3, #2
 8001554:	d908      	bls.n	8001568 <HAL_RCC_OscConfig+0x278>
        {
          return HAL_TIMEOUT;
 8001556:	2303      	movs	r3, #3
 8001558:	e140      	b.n	80017dc <HAL_RCC_OscConfig+0x4ec>
 800155a:	bf00      	nop
 800155c:	40021000 	.word	0x40021000
 8001560:	42420000 	.word	0x42420000
 8001564:	42420480 	.word	0x42420480
      while (__HAL_RCC_GET_FLAG(RCC_FLAG_LSIRDY) != RESET)
 8001568:	4b9e      	ldr	r3, [pc, #632]	; (80017e4 <HAL_RCC_OscConfig+0x4f4>)
 800156a:	6a5b      	ldr	r3, [r3, #36]	; 0x24
 800156c:	f003 0302 	and.w	r3, r3, #2
 8001570:	2b00      	cmp	r3, #0
 8001572:	d1e9      	bne.n	8001548 <HAL_RCC_OscConfig+0x258>
        }
      }
    }
  }
  /*------------------------------ LSE Configuration -------------------------*/
  if (((RCC_OscInitStruct->OscillatorType) & RCC_OSCILLATORTYPE_LSE) == RCC_OSCILLATORTYPE_LSE)
 8001574:	687b      	ldr	r3, [r7, #4]
 8001576:	681b      	ldr	r3, [r3, #0]
 8001578:	f003 0304 	and.w	r3, r3, #4
 800157c:	2b00      	cmp	r3, #0
 800157e:	f000 80a6 	beq.w	80016ce <HAL_RCC_OscConfig+0x3de>
  {
    FlagStatus       pwrclkchanged = RESET;
 8001582:	2300      	movs	r3, #0
 8001584:	75fb      	strb	r3, [r7, #23]
    /* Check the parameters */
    assert_param(IS_RCC_LSE(RCC_OscInitStruct->LSEState));

    /* Update LSE configuration in Backup Domain control register    */
    /* Requires to enable write access to Backup Domain of necessary */
    if (__HAL_RCC_PWR_IS_CLK_DISABLED())
 8001586:	4b97      	ldr	r3, [pc, #604]	; (80017e4 <HAL_RCC_OscConfig+0x4f4>)
 8001588:	69db      	ldr	r3, [r3, #28]
 800158a:	f003 5380 	and.w	r3, r3, #268435456	; 0x10000000
 800158e:	2b00      	cmp	r3, #0
 8001590:	d10d      	bne.n	80015ae <HAL_RCC_OscConfig+0x2be>
    {
      __HAL_RCC_PWR_CLK_ENABLE();
 8001592:	4b94      	ldr	r3, [pc, #592]	; (80017e4 <HAL_RCC_OscConfig+0x4f4>)
 8001594:	69db      	ldr	r3, [r3, #28]
 8001596:	4a93      	ldr	r2, [pc, #588]	; (80017e4 <HAL_RCC_OscConfig+0x4f4>)
 8001598:	f043 5380 	orr.w	r3, r3, #268435456	; 0x10000000
 800159c:	61d3      	str	r3, [r2, #28]
 800159e:	4b91      	ldr	r3, [pc, #580]	; (80017e4 <HAL_RCC_OscConfig+0x4f4>)
 80015a0:	69db      	ldr	r3, [r3, #28]
 80015a2:	f003 5380 	and.w	r3, r3, #268435456	; 0x10000000
 80015a6:	60bb      	str	r3, [r7, #8]
 80015a8:	68bb      	ldr	r3, [r7, #8]
      pwrclkchanged = SET;
 80015aa:	2301      	movs	r3, #1
 80015ac:	75fb      	strb	r3, [r7, #23]
    }

    if (HAL_IS_BIT_CLR(PWR->CR, PWR_CR_DBP))
 80015ae:	4b8e      	ldr	r3, [pc, #568]	; (80017e8 <HAL_RCC_OscConfig+0x4f8>)
 80015b0:	681b      	ldr	r3, [r3, #0]
 80015b2:	f403 7380 	and.w	r3, r3, #256	; 0x100
 80015b6:	2b00      	cmp	r3, #0
 80015b8:	d118      	bne.n	80015ec <HAL_RCC_OscConfig+0x2fc>
    {
      /* Enable write access to Backup domain */
      SET_BIT(PWR->CR, PWR_CR_DBP);
 80015ba:	4b8b      	ldr	r3, [pc, #556]	; (80017e8 <HAL_RCC_OscConfig+0x4f8>)
 80015bc:	681b      	ldr	r3, [r3, #0]
 80015be:	4a8a      	ldr	r2, [pc, #552]	; (80017e8 <HAL_RCC_OscConfig+0x4f8>)
 80015c0:	f443 7380 	orr.w	r3, r3, #256	; 0x100
 80015c4:	6013      	str	r3, [r2, #0]

      /* Wait for Backup domain Write protection disable */
      tickstart = HAL_GetTick();
 80015c6:	f7ff fb41 	bl	8000c4c <HAL_GetTick>
 80015ca:	6138      	str	r0, [r7, #16]

      while (HAL_IS_BIT_CLR(PWR->CR, PWR_CR_DBP))
 80015cc:	e008      	b.n	80015e0 <HAL_RCC_OscConfig+0x2f0>
      {
        if ((HAL_GetTick() - tickstart) > RCC_DBP_TIMEOUT_VALUE)
 80015ce:	f7ff fb3d 	bl	8000c4c <HAL_GetTick>
 80015d2:	4602      	mov	r2, r0
 80015d4:	693b      	ldr	r3, [r7, #16]
 80015d6:	1ad3      	subs	r3, r2, r3
 80015d8:	2b64      	cmp	r3, #100	; 0x64
 80015da:	d901      	bls.n	80015e0 <HAL_RCC_OscConfig+0x2f0>
        {
          return HAL_TIMEOUT;
 80015dc:	2303      	movs	r3, #3
 80015de:	e0fd      	b.n	80017dc <HAL_RCC_OscConfig+0x4ec>
      while (HAL_IS_BIT_CLR(PWR->CR, PWR_CR_DBP))
 80015e0:	4b81      	ldr	r3, [pc, #516]	; (80017e8 <HAL_RCC_OscConfig+0x4f8>)
 80015e2:	681b      	ldr	r3, [r3, #0]
 80015e4:	f403 7380 	and.w	r3, r3, #256	; 0x100
 80015e8:	2b00      	cmp	r3, #0
 80015ea:	d0f0      	beq.n	80015ce <HAL_RCC_OscConfig+0x2de>
        }
      }
    }

    /* Set the new LSE configuration -----------------------------------------*/
    __HAL_RCC_LSE_CONFIG(RCC_OscInitStruct->LSEState);
 80015ec:	687b      	ldr	r3, [r7, #4]
 80015ee:	68db      	ldr	r3, [r3, #12]
 80015f0:	2b01      	cmp	r3, #1
 80015f2:	d106      	bne.n	8001602 <HAL_RCC_OscConfig+0x312>
 80015f4:	4b7b      	ldr	r3, [pc, #492]	; (80017e4 <HAL_RCC_OscConfig+0x4f4>)
 80015f6:	6a1b      	ldr	r3, [r3, #32]
 80015f8:	4a7a      	ldr	r2, [pc, #488]	; (80017e4 <HAL_RCC_OscConfig+0x4f4>)
 80015fa:	f043 0301 	orr.w	r3, r3, #1
 80015fe:	6213      	str	r3, [r2, #32]
 8001600:	e02d      	b.n	800165e <HAL_RCC_OscConfig+0x36e>
 8001602:	687b      	ldr	r3, [r7, #4]
 8001604:	68db      	ldr	r3, [r3, #12]
 8001606:	2b00      	cmp	r3, #0
 8001608:	d10c      	bne.n	8001624 <HAL_RCC_OscConfig+0x334>
 800160a:	4b76      	ldr	r3, [pc, #472]	; (80017e4 <HAL_RCC_OscConfig+0x4f4>)
 800160c:	6a1b      	ldr	r3, [r3, #32]
 800160e:	4a75      	ldr	r2, [pc, #468]	; (80017e4 <HAL_RCC_OscConfig+0x4f4>)
 8001610:	f023 0301 	bic.w	r3, r3, #1
 8001614:	6213      	str	r3, [r2, #32]
 8001616:	4b73      	ldr	r3, [pc, #460]	; (80017e4 <HAL_RCC_OscConfig+0x4f4>)
 8001618:	6a1b      	ldr	r3, [r3, #32]
 800161a:	4a72      	ldr	r2, [pc, #456]	; (80017e4 <HAL_RCC_OscConfig+0x4f4>)
 800161c:	f023 0304 	bic.w	r3, r3, #4
 8001620:	6213      	str	r3, [r2, #32]
 8001622:	e01c      	b.n	800165e <HAL_RCC_OscConfig+0x36e>
 8001624:	687b      	ldr	r3, [r7, #4]
 8001626:	68db      	ldr	r3, [r3, #12]
 8001628:	2b05      	cmp	r3, #5
 800162a:	d10c      	bne.n	8001646 <HAL_RCC_OscConfig+0x356>
 800162c:	4b6d      	ldr	r3, [pc, #436]	; (80017e4 <HAL_RCC_OscConfig+0x4f4>)
 800162e:	6a1b      	ldr	r3, [r3, #32]
 8001630:	4a6c      	ldr	r2, [pc, #432]	; (80017e4 <HAL_RCC_OscConfig+0x4f4>)
 8001632:	f043 0304 	orr.w	r3, r3, #4
 8001636:	6213      	str	r3, [r2, #32]
 8001638:	4b6a      	ldr	r3, [pc, #424]	; (80017e4 <HAL_RCC_OscConfig+0x4f4>)
 800163a:	6a1b      	ldr	r3, [r3, #32]
 800163c:	4a69      	ldr	r2, [pc, #420]	; (80017e4 <HAL_RCC_OscConfig+0x4f4>)
 800163e:	f043 0301 	orr.w	r3, r3, #1
 8001642:	6213      	str	r3, [r2, #32]
 8001644:	e00b      	b.n	800165e <HAL_RCC_OscConfig+0x36e>
 8001646:	4b67      	ldr	r3, [pc, #412]	; (80017e4 <HAL_RCC_OscConfig+0x4f4>)
 8001648:	6a1b      	ldr	r3, [r3, #32]
 800164a:	4a66      	ldr	r2, [pc, #408]	; (80017e4 <HAL_RCC_OscConfig+0x4f4>)
 800164c:	f023 0301 	bic.w	r3, r3, #1
 8001650:	6213      	str	r3, [r2, #32]
 8001652:	4b64      	ldr	r3, [pc, #400]	; (80017e4 <HAL_RCC_OscConfig+0x4f4>)
 8001654:	6a1b      	ldr	r3, [r3, #32]
 8001656:	4a63      	ldr	r2, [pc, #396]	; (80017e4 <HAL_RCC_OscConfig+0x4f4>)
 8001658:	f023 0304 	bic.w	r3, r3, #4
 800165c:	6213      	str	r3, [r2, #32]
    /* Check the LSE State */
    if (RCC_OscInitStruct->LSEState != RCC_LSE_OFF)
 800165e:	687b      	ldr	r3, [r7, #4]
 8001660:	68db      	ldr	r3, [r3, #12]
 8001662:	2b00      	cmp	r3, #0
 8001664:	d015      	beq.n	8001692 <HAL_RCC_OscConfig+0x3a2>
    {
      /* Get Start Tick */
      tickstart = HAL_GetTick();
 8001666:	f7ff faf1 	bl	8000c4c <HAL_GetTick>
 800166a:	6138      	str	r0, [r7, #16]

      /* Wait till LSE is ready */
      while (__HAL_RCC_GET_FLAG(RCC_FLAG_LSERDY) == RESET)
 800166c:	e00a      	b.n	8001684 <HAL_RCC_OscConfig+0x394>
      {
        if ((HAL_GetTick() - tickstart) > RCC_LSE_TIMEOUT_VALUE)
 800166e:	f7ff faed 	bl	8000c4c <HAL_GetTick>
 8001672:	4602      	mov	r2, r0
 8001674:	693b      	ldr	r3, [r7, #16]
 8001676:	1ad3      	subs	r3, r2, r3
 8001678:	f241 3288 	movw	r2, #5000	; 0x1388
 800167c:	4293      	cmp	r3, r2
 800167e:	d901      	bls.n	8001684 <HAL_RCC_OscConfig+0x394>
        {
          return HAL_TIMEOUT;
 8001680:	2303      	movs	r3, #3
 8001682:	e0ab      	b.n	80017dc <HAL_RCC_OscConfig+0x4ec>
      while (__HAL_RCC_GET_FLAG(RCC_FLAG_LSERDY) == RESET)
 8001684:	4b57      	ldr	r3, [pc, #348]	; (80017e4 <HAL_RCC_OscConfig+0x4f4>)
 8001686:	6a1b      	ldr	r3, [r3, #32]
 8001688:	f003 0302 	and.w	r3, r3, #2
 800168c:	2b00      	cmp	r3, #0
 800168e:	d0ee      	beq.n	800166e <HAL_RCC_OscConfig+0x37e>
 8001690:	e014      	b.n	80016bc <HAL_RCC_OscConfig+0x3cc>
      }
    }
    else
    {
      /* Get Start Tick */
      tickstart = HAL_GetTick();
 8001692:	f7ff fadb 	bl	8000c4c <HAL_GetTick>
 8001696:	6138      	str	r0, [r7, #16]

      /* Wait till LSE is disabled */
      while (__HAL_RCC_GET_FLAG(RCC_FLAG_LSERDY) != RESET)
 8001698:	e00a      	b.n	80016b0 <HAL_RCC_OscConfig+0x3c0>
      {
        if ((HAL_GetTick() - tickstart) > RCC_LSE_TIMEOUT_VALUE)
 800169a:	f7ff fad7 	bl	8000c4c <HAL_GetTick>
 800169e:	4602      	mov	r2, r0
 80016a0:	693b      	ldr	r3, [r7, #16]
 80016a2:	1ad3      	subs	r3, r2, r3
 80016a4:	f241 3288 	movw	r2, #5000	; 0x1388
 80016a8:	4293      	cmp	r3, r2
 80016aa:	d901      	bls.n	80016b0 <HAL_RCC_OscConfig+0x3c0>
        {
          return HAL_TIMEOUT;
 80016ac:	2303      	movs	r3, #3
 80016ae:	e095      	b.n	80017dc <HAL_RCC_OscConfig+0x4ec>
      while (__HAL_RCC_GET_FLAG(RCC_FLAG_LSERDY) != RESET)
 80016b0:	4b4c      	ldr	r3, [pc, #304]	; (80017e4 <HAL_RCC_OscConfig+0x4f4>)
 80016b2:	6a1b      	ldr	r3, [r3, #32]
 80016b4:	f003 0302 	and.w	r3, r3, #2
 80016b8:	2b00      	cmp	r3, #0
 80016ba:	d1ee      	bne.n	800169a <HAL_RCC_OscConfig+0x3aa>
        }
      }
    }

    /* Require to disable power clock if necessary */
    if (pwrclkchanged == SET)
 80016bc:	7dfb      	ldrb	r3, [r7, #23]
 80016be:	2b01      	cmp	r3, #1
 80016c0:	d105      	bne.n	80016ce <HAL_RCC_OscConfig+0x3de>
    {
      __HAL_RCC_PWR_CLK_DISABLE();
 80016c2:	4b48      	ldr	r3, [pc, #288]	; (80017e4 <HAL_RCC_OscConfig+0x4f4>)
 80016c4:	69db      	ldr	r3, [r3, #28]
 80016c6:	4a47      	ldr	r2, [pc, #284]	; (80017e4 <HAL_RCC_OscConfig+0x4f4>)
 80016c8:	f023 5380 	bic.w	r3, r3, #268435456	; 0x10000000
 80016cc:	61d3      	str	r3, [r2, #28]

#endif /* RCC_CR_PLL2ON */
  /*-------------------------------- PLL Configuration -----------------------*/
  /* Check the parameters */
  assert_param(IS_RCC_PLL(RCC_OscInitStruct->PLL.PLLState));
  if ((RCC_OscInitStruct->PLL.PLLState) != RCC_PLL_NONE)
 80016ce:	687b      	ldr	r3, [r7, #4]
 80016d0:	69db      	ldr	r3, [r3, #28]
 80016d2:	2b00      	cmp	r3, #0
 80016d4:	f000 8081 	beq.w	80017da <HAL_RCC_OscConfig+0x4ea>
  {
    /* Check if the PLL is used as system clock or not */
    if (__HAL_RCC_GET_SYSCLK_SOURCE() != RCC_SYSCLKSOURCE_STATUS_PLLCLK)
 80016d8:	4b42      	ldr	r3, [pc, #264]	; (80017e4 <HAL_RCC_OscConfig+0x4f4>)
 80016da:	685b      	ldr	r3, [r3, #4]
 80016dc:	f003 030c 	and.w	r3, r3, #12
 80016e0:	2b08      	cmp	r3, #8
 80016e2:	d061      	beq.n	80017a8 <HAL_RCC_OscConfig+0x4b8>
    {
      if ((RCC_OscInitStruct->PLL.PLLState) == RCC_PLL_ON)
 80016e4:	687b      	ldr	r3, [r7, #4]
 80016e6:	69db      	ldr	r3, [r3, #28]
 80016e8:	2b02      	cmp	r3, #2
 80016ea:	d146      	bne.n	800177a <HAL_RCC_OscConfig+0x48a>
        /* Check the parameters */
        assert_param(IS_RCC_PLLSOURCE(RCC_OscInitStruct->PLL.PLLSource));
        assert_param(IS_RCC_PLL_MUL(RCC_OscInitStruct->PLL.PLLMUL));

        /* Disable the main PLL. */
        __HAL_RCC_PLL_DISABLE();
 80016ec:	4b3f      	ldr	r3, [pc, #252]	; (80017ec <HAL_RCC_OscConfig+0x4fc>)
 80016ee:	2200      	movs	r2, #0
 80016f0:	601a      	str	r2, [r3, #0]

        /* Get Start Tick */
        tickstart = HAL_GetTick();
 80016f2:	f7ff faab 	bl	8000c4c <HAL_GetTick>
 80016f6:	6138      	str	r0, [r7, #16]

        /* Wait till PLL is disabled */
        while (__HAL_RCC_GET_FLAG(RCC_FLAG_PLLRDY)  != RESET)
 80016f8:	e008      	b.n	800170c <HAL_RCC_OscConfig+0x41c>
        {
          if ((HAL_GetTick() - tickstart) > PLL_TIMEOUT_VALUE)
 80016fa:	f7ff faa7 	bl	8000c4c <HAL_GetTick>
 80016fe:	4602      	mov	r2, r0
 8001700:	693b      	ldr	r3, [r7, #16]
 8001702:	1ad3      	subs	r3, r2, r3
 8001704:	2b02      	cmp	r3, #2
 8001706:	d901      	bls.n	800170c <HAL_RCC_OscConfig+0x41c>
          {
            return HAL_TIMEOUT;
 8001708:	2303      	movs	r3, #3
 800170a:	e067      	b.n	80017dc <HAL_RCC_OscConfig+0x4ec>
        while (__HAL_RCC_GET_FLAG(RCC_FLAG_PLLRDY)  != RESET)
 800170c:	4b35      	ldr	r3, [pc, #212]	; (80017e4 <HAL_RCC_OscConfig+0x4f4>)
 800170e:	681b      	ldr	r3, [r3, #0]
 8001710:	f003 7300 	and.w	r3, r3, #33554432	; 0x2000000
 8001714:	2b00      	cmp	r3, #0
 8001716:	d1f0      	bne.n	80016fa <HAL_RCC_OscConfig+0x40a>
          }
        }

        /* Configure the HSE prediv factor --------------------------------*/
        /* It can be written only when the PLL is disabled. Not used in PLL source is different than HSE */
        if (RCC_OscInitStruct->PLL.PLLSource == RCC_PLLSOURCE_HSE)
 8001718:	687b      	ldr	r3, [r7, #4]
 800171a:	6a1b      	ldr	r3, [r3, #32]
 800171c:	f5b3 3f80 	cmp.w	r3, #65536	; 0x10000
 8001720:	d108      	bne.n	8001734 <HAL_RCC_OscConfig+0x444>
          /* Set PREDIV1 source */
          SET_BIT(RCC->CFGR2, RCC_OscInitStruct->Prediv1Source);
#endif /* RCC_CFGR2_PREDIV1SRC */

          /* Set PREDIV1 Value */
          __HAL_RCC_HSE_PREDIV_CONFIG(RCC_OscInitStruct->HSEPredivValue);
 8001722:	4b30      	ldr	r3, [pc, #192]	; (80017e4 <HAL_RCC_OscConfig+0x4f4>)
 8001724:	685b      	ldr	r3, [r3, #4]
 8001726:	f423 3200 	bic.w	r2, r3, #131072	; 0x20000
 800172a:	687b      	ldr	r3, [r7, #4]
 800172c:	689b      	ldr	r3, [r3, #8]
 800172e:	492d      	ldr	r1, [pc, #180]	; (80017e4 <HAL_RCC_OscConfig+0x4f4>)
 8001730:	4313      	orrs	r3, r2
 8001732:	604b      	str	r3, [r1, #4]
        }

        /* Configure the main PLL clock source and multiplication factors. */
        __HAL_RCC_PLL_CONFIG(RCC_OscInitStruct->PLL.PLLSource,
 8001734:	4b2b      	ldr	r3, [pc, #172]	; (80017e4 <HAL_RCC_OscConfig+0x4f4>)
 8001736:	685b      	ldr	r3, [r3, #4]
 8001738:	f423 1274 	bic.w	r2, r3, #3997696	; 0x3d0000
 800173c:	687b      	ldr	r3, [r7, #4]
 800173e:	6a19      	ldr	r1, [r3, #32]
 8001740:	687b      	ldr	r3, [r7, #4]
 8001742:	6a5b      	ldr	r3, [r3, #36]	; 0x24
 8001744:	430b      	orrs	r3, r1
 8001746:	4927      	ldr	r1, [pc, #156]	; (80017e4 <HAL_RCC_OscConfig+0x4f4>)
 8001748:	4313      	orrs	r3, r2
 800174a:	604b      	str	r3, [r1, #4]
                             RCC_OscInitStruct->PLL.PLLMUL);
        /* Enable the main PLL. */
        __HAL_RCC_PLL_ENABLE();
 800174c:	4b27      	ldr	r3, [pc, #156]	; (80017ec <HAL_RCC_OscConfig+0x4fc>)
 800174e:	2201      	movs	r2, #1
 8001750:	601a      	str	r2, [r3, #0]

        /* Get Start Tick */
        tickstart = HAL_GetTick();
 8001752:	f7ff fa7b 	bl	8000c4c <HAL_GetTick>
 8001756:	6138      	str	r0, [r7, #16]

        /* Wait till PLL is ready */
        while (__HAL_RCC_GET_FLAG(RCC_FLAG_PLLRDY)  == RESET)
 8001758:	e008      	b.n	800176c <HAL_RCC_OscConfig+0x47c>
        {
          if ((HAL_GetTick() - tickstart) > PLL_TIMEOUT_VALUE)
 800175a:	f7ff fa77 	bl	8000c4c <HAL_GetTick>
 800175e:	4602      	mov	r2, r0
 8001760:	693b      	ldr	r3, [r7, #16]
 8001762:	1ad3      	subs	r3, r2, r3
 8001764:	2b02      	cmp	r3, #2
 8001766:	d901      	bls.n	800176c <HAL_RCC_OscConfig+0x47c>
          {
            return HAL_TIMEOUT;
 8001768:	2303      	movs	r3, #3
 800176a:	e037      	b.n	80017dc <HAL_RCC_OscConfig+0x4ec>
        while (__HAL_RCC_GET_FLAG(RCC_FLAG_PLLRDY)  == RESET)
 800176c:	4b1d      	ldr	r3, [pc, #116]	; (80017e4 <HAL_RCC_OscConfig+0x4f4>)
 800176e:	681b      	ldr	r3, [r3, #0]
 8001770:	f003 7300 	and.w	r3, r3, #33554432	; 0x2000000
 8001774:	2b00      	cmp	r3, #0
 8001776:	d0f0      	beq.n	800175a <HAL_RCC_OscConfig+0x46a>
 8001778:	e02f      	b.n	80017da <HAL_RCC_OscConfig+0x4ea>
        }
      }
      else
      {
        /* Disable the main PLL. */
        __HAL_RCC_PLL_DISABLE();
 800177a:	4b1c      	ldr	r3, [pc, #112]	; (80017ec <HAL_RCC_OscConfig+0x4fc>)
 800177c:	2200      	movs	r2, #0
 800177e:	601a      	str	r2, [r3, #0]

        /* Get Start Tick */
        tickstart = HAL_GetTick();
 8001780:	f7ff fa64 	bl	8000c4c <HAL_GetTick>
 8001784:	6138      	str	r0, [r7, #16]

        /* Wait till PLL is disabled */
        while (__HAL_RCC_GET_FLAG(RCC_FLAG_PLLRDY)  != RESET)
 8001786:	e008      	b.n	800179a <HAL_RCC_OscConfig+0x4aa>
        {
          if ((HAL_GetTick() - tickstart) > PLL_TIMEOUT_VALUE)
 8001788:	f7ff fa60 	bl	8000c4c <HAL_GetTick>
 800178c:	4602      	mov	r2, r0
 800178e:	693b      	ldr	r3, [r7, #16]
 8001790:	1ad3      	subs	r3, r2, r3
 8001792:	2b02      	cmp	r3, #2
 8001794:	d901      	bls.n	800179a <HAL_RCC_OscConfig+0x4aa>
          {
            return HAL_TIMEOUT;
 8001796:	2303      	movs	r3, #3
 8001798:	e020      	b.n	80017dc <HAL_RCC_OscConfig+0x4ec>
        while (__HAL_RCC_GET_FLAG(RCC_FLAG_PLLRDY)  != RESET)
 800179a:	4b12      	ldr	r3, [pc, #72]	; (80017e4 <HAL_RCC_OscConfig+0x4f4>)
 800179c:	681b      	ldr	r3, [r3, #0]
 800179e:	f003 7300 	and.w	r3, r3, #33554432	; 0x2000000
 80017a2:	2b00      	cmp	r3, #0
 80017a4:	d1f0      	bne.n	8001788 <HAL_RCC_OscConfig+0x498>
 80017a6:	e018      	b.n	80017da <HAL_RCC_OscConfig+0x4ea>
      }
    }
    else
    {
      /* Check if there is a request to disable the PLL used as System clock source */
      if ((RCC_OscInitStruct->PLL.PLLState) == RCC_PLL_OFF)
 80017a8:	687b      	ldr	r3, [r7, #4]
 80017aa:	69db      	ldr	r3, [r3, #28]
 80017ac:	2b01      	cmp	r3, #1
 80017ae:	d101      	bne.n	80017b4 <HAL_RCC_OscConfig+0x4c4>
      {
        return HAL_ERROR;
 80017b0:	2301      	movs	r3, #1
 80017b2:	e013      	b.n	80017dc <HAL_RCC_OscConfig+0x4ec>
      }
      else
      {
        /* Do not return HAL_ERROR if request repeats the current configuration */
        pll_config = RCC->CFGR;
 80017b4:	4b0b      	ldr	r3, [pc, #44]	; (80017e4 <HAL_RCC_OscConfig+0x4f4>)
 80017b6:	685b      	ldr	r3, [r3, #4]
 80017b8:	60fb      	str	r3, [r7, #12]
        if ((READ_BIT(pll_config, RCC_CFGR_PLLSRC) != RCC_OscInitStruct->PLL.PLLSource) ||
 80017ba:	68fb      	ldr	r3, [r7, #12]
 80017bc:	f403 3280 	and.w	r2, r3, #65536	; 0x10000
 80017c0:	687b      	ldr	r3, [r7, #4]
 80017c2:	6a1b      	ldr	r3, [r3, #32]
 80017c4:	429a      	cmp	r2, r3
 80017c6:	d106      	bne.n	80017d6 <HAL_RCC_OscConfig+0x4e6>
            (READ_BIT(pll_config, RCC_CFGR_PLLMULL) != RCC_OscInitStruct->PLL.PLLMUL))
 80017c8:	68fb      	ldr	r3, [r7, #12]
 80017ca:	f403 1270 	and.w	r2, r3, #3932160	; 0x3c0000
 80017ce:	687b      	ldr	r3, [r7, #4]
 80017d0:	6a5b      	ldr	r3, [r3, #36]	; 0x24
        if ((READ_BIT(pll_config, RCC_CFGR_PLLSRC) != RCC_OscInitStruct->PLL.PLLSource) ||
 80017d2:	429a      	cmp	r2, r3
 80017d4:	d001      	beq.n	80017da <HAL_RCC_OscConfig+0x4ea>
        {
          return HAL_ERROR;
 80017d6:	2301      	movs	r3, #1
 80017d8:	e000      	b.n	80017dc <HAL_RCC_OscConfig+0x4ec>
        }
      }
    }
  }

  return HAL_OK;
 80017da:	2300      	movs	r3, #0
}
 80017dc:	4618      	mov	r0, r3
 80017de:	3718      	adds	r7, #24
 80017e0:	46bd      	mov	sp, r7
 80017e2:	bd80      	pop	{r7, pc}
 80017e4:	40021000 	.word	0x40021000
 80017e8:	40007000 	.word	0x40007000
 80017ec:	42420060 	.word	0x42420060

080017f0 <HAL_RCC_ClockConfig>:
  *         You can use @ref HAL_RCC_GetClockConfig() function to know which clock is
  *         currently used as system clock source.
  * @retval HAL status
  */
HAL_StatusTypeDef HAL_RCC_ClockConfig(RCC_ClkInitTypeDef  *RCC_ClkInitStruct, uint32_t FLatency)
{
 80017f0:	b580      	push	{r7, lr}
 80017f2:	b084      	sub	sp, #16
 80017f4:	af00      	add	r7, sp, #0
 80017f6:	6078      	str	r0, [r7, #4]
 80017f8:	6039      	str	r1, [r7, #0]
  uint32_t tickstart;

  /* Check Null pointer */
  if (RCC_ClkInitStruct == NULL)
 80017fa:	687b      	ldr	r3, [r7, #4]
 80017fc:	2b00      	cmp	r3, #0
 80017fe:	d101      	bne.n	8001804 <HAL_RCC_ClockConfig+0x14>
  {
    return HAL_ERROR;
 8001800:	2301      	movs	r3, #1
 8001802:	e0d0      	b.n	80019a6 <HAL_RCC_ClockConfig+0x1b6>
  must be correctly programmed according to the frequency of the CPU clock
    (HCLK) of the device. */

#if defined(FLASH_ACR_LATENCY)
  /* Increasing the number of wait states because of higher CPU frequency */
  if (FLatency > __HAL_FLASH_GET_LATENCY())
 8001804:	4b6a      	ldr	r3, [pc, #424]	; (80019b0 <HAL_RCC_ClockConfig+0x1c0>)
 8001806:	681b      	ldr	r3, [r3, #0]
 8001808:	f003 0307 	and.w	r3, r3, #7
 800180c:	683a      	ldr	r2, [r7, #0]
 800180e:	429a      	cmp	r2, r3
 8001810:	d910      	bls.n	8001834 <HAL_RCC_ClockConfig+0x44>
  {
    /* Program the new number of wait states to the LATENCY bits in the FLASH_ACR register */
    __HAL_FLASH_SET_LATENCY(FLatency);
 8001812:	4b67      	ldr	r3, [pc, #412]	; (80019b0 <HAL_RCC_ClockConfig+0x1c0>)
 8001814:	681b      	ldr	r3, [r3, #0]
 8001816:	f023 0207 	bic.w	r2, r3, #7
 800181a:	4965      	ldr	r1, [pc, #404]	; (80019b0 <HAL_RCC_ClockConfig+0x1c0>)
 800181c:	683b      	ldr	r3, [r7, #0]
 800181e:	4313      	orrs	r3, r2
 8001820:	600b      	str	r3, [r1, #0]

    /* Check that the new number of wait states is taken into account to access the Flash
    memory by reading the FLASH_ACR register */
    if (__HAL_FLASH_GET_LATENCY() != FLatency)
 8001822:	4b63      	ldr	r3, [pc, #396]	; (80019b0 <HAL_RCC_ClockConfig+0x1c0>)
 8001824:	681b      	ldr	r3, [r3, #0]
 8001826:	f003 0307 	and.w	r3, r3, #7
 800182a:	683a      	ldr	r2, [r7, #0]
 800182c:	429a      	cmp	r2, r3
 800182e:	d001      	beq.n	8001834 <HAL_RCC_ClockConfig+0x44>
  {
    return HAL_ERROR;
 8001830:	2301      	movs	r3, #1
 8001832:	e0b8      	b.n	80019a6 <HAL_RCC_ClockConfig+0x1b6>
  }
}

#endif /* FLASH_ACR_LATENCY */
/*-------------------------- HCLK Configuration --------------------------*/
if (((RCC_ClkInitStruct->ClockType) & RCC_CLOCKTYPE_HCLK) == RCC_CLOCKTYPE_HCLK)
 8001834:	687b      	ldr	r3, [r7, #4]
 8001836:	681b      	ldr	r3, [r3, #0]
 8001838:	f003 0302 	and.w	r3, r3, #2
 800183c:	2b00      	cmp	r3, #0
 800183e:	d020      	beq.n	8001882 <HAL_RCC_ClockConfig+0x92>
  {
    /* Set the highest APBx dividers in order to ensure that we do not go through
    a non-spec phase whatever we decrease or increase HCLK. */
    if (((RCC_ClkInitStruct->ClockType) & RCC_CLOCKTYPE_PCLK1) == RCC_CLOCKTYPE_PCLK1)
 8001840:	687b      	ldr	r3, [r7, #4]
 8001842:	681b      	ldr	r3, [r3, #0]
 8001844:	f003 0304 	and.w	r3, r3, #4
 8001848:	2b00      	cmp	r3, #0
 800184a:	d005      	beq.n	8001858 <HAL_RCC_ClockConfig+0x68>
    {
      MODIFY_REG(RCC->CFGR, RCC_CFGR_PPRE1, RCC_HCLK_DIV16);
 800184c:	4b59      	ldr	r3, [pc, #356]	; (80019b4 <HAL_RCC_ClockConfig+0x1c4>)
 800184e:	685b      	ldr	r3, [r3, #4]
 8001850:	4a58      	ldr	r2, [pc, #352]	; (80019b4 <HAL_RCC_ClockConfig+0x1c4>)
 8001852:	f443 63e0 	orr.w	r3, r3, #1792	; 0x700
 8001856:	6053      	str	r3, [r2, #4]
    }

    if (((RCC_ClkInitStruct->ClockType) & RCC_CLOCKTYPE_PCLK2) == RCC_CLOCKTYPE_PCLK2)
 8001858:	687b      	ldr	r3, [r7, #4]
 800185a:	681b      	ldr	r3, [r3, #0]
 800185c:	f003 0308 	and.w	r3, r3, #8
 8001860:	2b00      	cmp	r3, #0
 8001862:	d005      	beq.n	8001870 <HAL_RCC_ClockConfig+0x80>
    {
      MODIFY_REG(RCC->CFGR, RCC_CFGR_PPRE2, (RCC_HCLK_DIV16 << 3));
 8001864:	4b53      	ldr	r3, [pc, #332]	; (80019b4 <HAL_RCC_ClockConfig+0x1c4>)
 8001866:	685b      	ldr	r3, [r3, #4]
 8001868:	4a52      	ldr	r2, [pc, #328]	; (80019b4 <HAL_RCC_ClockConfig+0x1c4>)
 800186a:	f443 5360 	orr.w	r3, r3, #14336	; 0x3800
 800186e:	6053      	str	r3, [r2, #4]
    }

    /* Set the new HCLK clock divider */
    assert_param(IS_RCC_HCLK(RCC_ClkInitStruct->AHBCLKDivider));
    MODIFY_REG(RCC->CFGR, RCC_CFGR_HPRE, RCC_ClkInitStruct->AHBCLKDivider);
 8001870:	4b50      	ldr	r3, [pc, #320]	; (80019b4 <HAL_RCC_ClockConfig+0x1c4>)
 8001872:	685b      	ldr	r3, [r3, #4]
 8001874:	f023 02f0 	bic.w	r2, r3, #240	; 0xf0
 8001878:	687b      	ldr	r3, [r7, #4]
 800187a:	689b      	ldr	r3, [r3, #8]
 800187c:	494d      	ldr	r1, [pc, #308]	; (80019b4 <HAL_RCC_ClockConfig+0x1c4>)
 800187e:	4313      	orrs	r3, r2
 8001880:	604b      	str	r3, [r1, #4]
  }

  /*------------------------- SYSCLK Configuration ---------------------------*/
  if (((RCC_ClkInitStruct->ClockType) & RCC_CLOCKTYPE_SYSCLK) == RCC_CLOCKTYPE_SYSCLK)
 8001882:	687b      	ldr	r3, [r7, #4]
 8001884:	681b      	ldr	r3, [r3, #0]
 8001886:	f003 0301 	and.w	r3, r3, #1
 800188a:	2b00      	cmp	r3, #0
 800188c:	d040      	beq.n	8001910 <HAL_RCC_ClockConfig+0x120>
  {
    assert_param(IS_RCC_SYSCLKSOURCE(RCC_ClkInitStruct->SYSCLKSource));

    /* HSE is selected as System Clock Source */
    if (RCC_ClkInitStruct->SYSCLKSource == RCC_SYSCLKSOURCE_HSE)
 800188e:	687b      	ldr	r3, [r7, #4]
 8001890:	685b      	ldr	r3, [r3, #4]
 8001892:	2b01      	cmp	r3, #1
 8001894:	d107      	bne.n	80018a6 <HAL_RCC_ClockConfig+0xb6>
    {
      /* Check the HSE ready flag */
      if (__HAL_RCC_GET_FLAG(RCC_FLAG_HSERDY) == RESET)
 8001896:	4b47      	ldr	r3, [pc, #284]	; (80019b4 <HAL_RCC_ClockConfig+0x1c4>)
 8001898:	681b      	ldr	r3, [r3, #0]
 800189a:	f403 3300 	and.w	r3, r3, #131072	; 0x20000
 800189e:	2b00      	cmp	r3, #0
 80018a0:	d115      	bne.n	80018ce <HAL_RCC_ClockConfig+0xde>
      {
        return HAL_ERROR;
 80018a2:	2301      	movs	r3, #1
 80018a4:	e07f      	b.n	80019a6 <HAL_RCC_ClockConfig+0x1b6>
      }
    }
    /* PLL is selected as System Clock Source */
    else if (RCC_ClkInitStruct->SYSCLKSource == RCC_SYSCLKSOURCE_PLLCLK)
 80018a6:	687b      	ldr	r3, [r7, #4]
 80018a8:	685b      	ldr	r3, [r3, #4]
 80018aa:	2b02      	cmp	r3, #2
 80018ac:	d107      	bne.n	80018be <HAL_RCC_ClockConfig+0xce>
    {
      /* Check the PLL ready flag */
      if (__HAL_RCC_GET_FLAG(RCC_FLAG_PLLRDY) == RESET)
 80018ae:	4b41      	ldr	r3, [pc, #260]	; (80019b4 <HAL_RCC_ClockConfig+0x1c4>)
 80018b0:	681b      	ldr	r3, [r3, #0]
 80018b2:	f003 7300 	and.w	r3, r3, #33554432	; 0x2000000
 80018b6:	2b00      	cmp	r3, #0
 80018b8:	d109      	bne.n	80018ce <HAL_RCC_ClockConfig+0xde>
      {
        return HAL_ERROR;
 80018ba:	2301      	movs	r3, #1
 80018bc:	e073      	b.n	80019a6 <HAL_RCC_ClockConfig+0x1b6>
    }
    /* HSI is selected as System Clock Source */
    else
    {
      /* Check the HSI ready flag */
      if (__HAL_RCC_GET_FLAG(RCC_FLAG_HSIRDY) == RESET)
 80018be:	4b3d      	ldr	r3, [pc, #244]	; (80019b4 <HAL_RCC_ClockConfig+0x1c4>)
 80018c0:	681b      	ldr	r3, [r3, #0]
 80018c2:	f003 0302 	and.w	r3, r3, #2
 80018c6:	2b00      	cmp	r3, #0
 80018c8:	d101      	bne.n	80018ce <HAL_RCC_ClockConfig+0xde>
      {
        return HAL_ERROR;
 80018ca:	2301      	movs	r3, #1
 80018cc:	e06b      	b.n	80019a6 <HAL_RCC_ClockConfig+0x1b6>
      }
    }
    __HAL_RCC_SYSCLK_CONFIG(RCC_ClkInitStruct->SYSCLKSource);
 80018ce:	4b39      	ldr	r3, [pc, #228]	; (80019b4 <HAL_RCC_ClockConfig+0x1c4>)
 80018d0:	685b      	ldr	r3, [r3, #4]
 80018d2:	f023 0203 	bic.w	r2, r3, #3
 80018d6:	687b      	ldr	r3, [r7, #4]
 80018d8:	685b      	ldr	r3, [r3, #4]
 80018da:	4936      	ldr	r1, [pc, #216]	; (80019b4 <HAL_RCC_ClockConfig+0x1c4>)
 80018dc:	4313      	orrs	r3, r2
 80018de:	604b      	str	r3, [r1, #4]

    /* Get Start Tick */
    tickstart = HAL_GetTick();
 80018e0:	f7ff f9b4 	bl	8000c4c <HAL_GetTick>
 80018e4:	60f8      	str	r0, [r7, #12]

    while (__HAL_RCC_GET_SYSCLK_SOURCE() != (RCC_ClkInitStruct->SYSCLKSource << RCC_CFGR_SWS_Pos))
 80018e6:	e00a      	b.n	80018fe <HAL_RCC_ClockConfig+0x10e>
    {
      if ((HAL_GetTick() - tickstart) > CLOCKSWITCH_TIMEOUT_VALUE)
 80018e8:	f7ff f9b0 	bl	8000c4c <HAL_GetTick>
 80018ec:	4602      	mov	r2, r0
 80018ee:	68fb      	ldr	r3, [r7, #12]
 80018f0:	1ad3      	subs	r3, r2, r3
 80018f2:	f241 3288 	movw	r2, #5000	; 0x1388
 80018f6:	4293      	cmp	r3, r2
 80018f8:	d901      	bls.n	80018fe <HAL_RCC_ClockConfig+0x10e>
      {
        return HAL_TIMEOUT;
 80018fa:	2303      	movs	r3, #3
 80018fc:	e053      	b.n	80019a6 <HAL_RCC_ClockConfig+0x1b6>
    while (__HAL_RCC_GET_SYSCLK_SOURCE() != (RCC_ClkInitStruct->SYSCLKSource << RCC_CFGR_SWS_Pos))
 80018fe:	4b2d      	ldr	r3, [pc, #180]	; (80019b4 <HAL_RCC_ClockConfig+0x1c4>)
 8001900:	685b      	ldr	r3, [r3, #4]
 8001902:	f003 020c 	and.w	r2, r3, #12
 8001906:	687b      	ldr	r3, [r7, #4]
 8001908:	685b      	ldr	r3, [r3, #4]
 800190a:	009b      	lsls	r3, r3, #2
 800190c:	429a      	cmp	r2, r3
 800190e:	d1eb      	bne.n	80018e8 <HAL_RCC_ClockConfig+0xf8>
    }
  }

#if defined(FLASH_ACR_LATENCY)
  /* Decreasing the number of wait states because of lower CPU frequency */
  if (FLatency < __HAL_FLASH_GET_LATENCY())
 8001910:	4b27      	ldr	r3, [pc, #156]	; (80019b0 <HAL_RCC_ClockConfig+0x1c0>)
 8001912:	681b      	ldr	r3, [r3, #0]
 8001914:	f003 0307 	and.w	r3, r3, #7
 8001918:	683a      	ldr	r2, [r7, #0]
 800191a:	429a      	cmp	r2, r3
 800191c:	d210      	bcs.n	8001940 <HAL_RCC_ClockConfig+0x150>
  {
    /* Program the new number of wait states to the LATENCY bits in the FLASH_ACR register */
    __HAL_FLASH_SET_LATENCY(FLatency);
 800191e:	4b24      	ldr	r3, [pc, #144]	; (80019b0 <HAL_RCC_ClockConfig+0x1c0>)
 8001920:	681b      	ldr	r3, [r3, #0]
 8001922:	f023 0207 	bic.w	r2, r3, #7
 8001926:	4922      	ldr	r1, [pc, #136]	; (80019b0 <HAL_RCC_ClockConfig+0x1c0>)
 8001928:	683b      	ldr	r3, [r7, #0]
 800192a:	4313      	orrs	r3, r2
 800192c:	600b      	str	r3, [r1, #0]

    /* Check that the new number of wait states is taken into account to access the Flash
    memory by reading the FLASH_ACR register */
    if (__HAL_FLASH_GET_LATENCY() != FLatency)
 800192e:	4b20      	ldr	r3, [pc, #128]	; (80019b0 <HAL_RCC_ClockConfig+0x1c0>)
 8001930:	681b      	ldr	r3, [r3, #0]
 8001932:	f003 0307 	and.w	r3, r3, #7
 8001936:	683a      	ldr	r2, [r7, #0]
 8001938:	429a      	cmp	r2, r3
 800193a:	d001      	beq.n	8001940 <HAL_RCC_ClockConfig+0x150>
  {
    return HAL_ERROR;
 800193c:	2301      	movs	r3, #1
 800193e:	e032      	b.n	80019a6 <HAL_RCC_ClockConfig+0x1b6>
  }
}
#endif /* FLASH_ACR_LATENCY */

/*-------------------------- PCLK1 Configuration ---------------------------*/
if (((RCC_ClkInitStruct->ClockType) & RCC_CLOCKTYPE_PCLK1) == RCC_CLOCKTYPE_PCLK1)
 8001940:	687b      	ldr	r3, [r7, #4]
 8001942:	681b      	ldr	r3, [r3, #0]
 8001944:	f003 0304 	and.w	r3, r3, #4
 8001948:	2b00      	cmp	r3, #0
 800194a:	d008      	beq.n	800195e <HAL_RCC_ClockConfig+0x16e>
  {
    assert_param(IS_RCC_PCLK(RCC_ClkInitStruct->APB1CLKDivider));
    MODIFY_REG(RCC->CFGR, RCC_CFGR_PPRE1, RCC_ClkInitStruct->APB1CLKDivider);
 800194c:	4b19      	ldr	r3, [pc, #100]	; (80019b4 <HAL_RCC_ClockConfig+0x1c4>)
 800194e:	685b      	ldr	r3, [r3, #4]
 8001950:	f423 62e0 	bic.w	r2, r3, #1792	; 0x700
 8001954:	687b      	ldr	r3, [r7, #4]
 8001956:	68db      	ldr	r3, [r3, #12]
 8001958:	4916      	ldr	r1, [pc, #88]	; (80019b4 <HAL_RCC_ClockConfig+0x1c4>)
 800195a:	4313      	orrs	r3, r2
 800195c:	604b      	str	r3, [r1, #4]
  }

  /*-------------------------- PCLK2 Configuration ---------------------------*/
  if (((RCC_ClkInitStruct->ClockType) & RCC_CLOCKTYPE_PCLK2) == RCC_CLOCKTYPE_PCLK2)
 800195e:	687b      	ldr	r3, [r7, #4]
 8001960:	681b      	ldr	r3, [r3, #0]
 8001962:	f003 0308 	and.w	r3, r3, #8
 8001966:	2b00      	cmp	r3, #0
 8001968:	d009      	beq.n	800197e <HAL_RCC_ClockConfig+0x18e>
  {
    assert_param(IS_RCC_PCLK(RCC_ClkInitStruct->APB2CLKDivider));
    MODIFY_REG(RCC->CFGR, RCC_CFGR_PPRE2, ((RCC_ClkInitStruct->APB2CLKDivider) << 3));
 800196a:	4b12      	ldr	r3, [pc, #72]	; (80019b4 <HAL_RCC_ClockConfig+0x1c4>)
 800196c:	685b      	ldr	r3, [r3, #4]
 800196e:	f423 5260 	bic.w	r2, r3, #14336	; 0x3800
 8001972:	687b      	ldr	r3, [r7, #4]
 8001974:	691b      	ldr	r3, [r3, #16]
 8001976:	00db      	lsls	r3, r3, #3
 8001978:	490e      	ldr	r1, [pc, #56]	; (80019b4 <HAL_RCC_ClockConfig+0x1c4>)
 800197a:	4313      	orrs	r3, r2
 800197c:	604b      	str	r3, [r1, #4]
  }

  /* Update the SystemCoreClock global variable */
  SystemCoreClock = HAL_RCC_GetSysClockFreq() >> AHBPrescTable[(RCC->CFGR & RCC_CFGR_HPRE) >> RCC_CFGR_HPRE_Pos];
 800197e:	f000 f821 	bl	80019c4 <HAL_RCC_GetSysClockFreq>
 8001982:	4601      	mov	r1, r0
 8001984:	4b0b      	ldr	r3, [pc, #44]	; (80019b4 <HAL_RCC_ClockConfig+0x1c4>)
 8001986:	685b      	ldr	r3, [r3, #4]
 8001988:	091b      	lsrs	r3, r3, #4
 800198a:	f003 030f 	and.w	r3, r3, #15
 800198e:	4a0a      	ldr	r2, [pc, #40]	; (80019b8 <HAL_RCC_ClockConfig+0x1c8>)
 8001990:	5cd3      	ldrb	r3, [r2, r3]
 8001992:	fa21 f303 	lsr.w	r3, r1, r3
 8001996:	4a09      	ldr	r2, [pc, #36]	; (80019bc <HAL_RCC_ClockConfig+0x1cc>)
 8001998:	6013      	str	r3, [r2, #0]

  /* Configure the source of time base considering new system clocks settings*/
  HAL_InitTick(uwTickPrio);
 800199a:	4b09      	ldr	r3, [pc, #36]	; (80019c0 <HAL_RCC_ClockConfig+0x1d0>)
 800199c:	681b      	ldr	r3, [r3, #0]
 800199e:	4618      	mov	r0, r3
 80019a0:	f7ff f912 	bl	8000bc8 <HAL_InitTick>

  return HAL_OK;
 80019a4:	2300      	movs	r3, #0
}
 80019a6:	4618      	mov	r0, r3
 80019a8:	3710      	adds	r7, #16
 80019aa:	46bd      	mov	sp, r7
 80019ac:	bd80      	pop	{r7, pc}
 80019ae:	bf00      	nop
 80019b0:	40022000 	.word	0x40022000
 80019b4:	40021000 	.word	0x40021000
 80019b8:	08002db4 	.word	0x08002db4
 80019bc:	20000004 	.word	0x20000004
 80019c0:	20000008 	.word	0x20000008

080019c4 <HAL_RCC_GetSysClockFreq>:
  *         right SYSCLK value. Otherwise, any configuration based on this function will be incorrect.
  *
  * @retval SYSCLK frequency
  */
uint32_t HAL_RCC_GetSysClockFreq(void)
{
 80019c4:	b490      	push	{r4, r7}
 80019c6:	b08a      	sub	sp, #40	; 0x28
 80019c8:	af00      	add	r7, sp, #0
#if defined(RCC_CFGR2_PREDIV1SRC)
  const uint8_t aPLLMULFactorTable[14] = {0, 0, 4, 5, 6, 7, 8, 9, 0, 0, 0, 0, 0, 13};
  const uint8_t aPredivFactorTable[16] = {1, 2, 3, 4, 5, 6, 7, 8, 9, 10, 11, 12, 13, 14, 15, 16};
#else
  const uint8_t aPLLMULFactorTable[16] = {2, 3, 4, 5, 6, 7, 8, 9, 10, 11, 12, 13, 14, 15, 16, 16};
 80019ca:	4b2a      	ldr	r3, [pc, #168]	; (8001a74 <HAL_RCC_GetSysClockFreq+0xb0>)
 80019cc:	1d3c      	adds	r4, r7, #4
 80019ce:	cb0f      	ldmia	r3, {r0, r1, r2, r3}
 80019d0:	e884 000f 	stmia.w	r4, {r0, r1, r2, r3}
#if defined(RCC_CFGR2_PREDIV1)
  const uint8_t aPredivFactorTable[16] = {1, 2, 3, 4, 5, 6, 7, 8, 9, 10, 11, 12, 13, 14, 15, 16};
#else
  const uint8_t aPredivFactorTable[2] = {1, 2};
 80019d4:	4b28      	ldr	r3, [pc, #160]	; (8001a78 <HAL_RCC_GetSysClockFreq+0xb4>)
 80019d6:	881b      	ldrh	r3, [r3, #0]
 80019d8:	803b      	strh	r3, [r7, #0]
#endif /*RCC_CFGR2_PREDIV1*/

#endif
  uint32_t tmpreg = 0U, prediv = 0U, pllclk = 0U, pllmul = 0U;
 80019da:	2300      	movs	r3, #0
 80019dc:	61fb      	str	r3, [r7, #28]
 80019de:	2300      	movs	r3, #0
 80019e0:	61bb      	str	r3, [r7, #24]
 80019e2:	2300      	movs	r3, #0
 80019e4:	627b      	str	r3, [r7, #36]	; 0x24
 80019e6:	2300      	movs	r3, #0
 80019e8:	617b      	str	r3, [r7, #20]
  uint32_t sysclockfreq = 0U;
 80019ea:	2300      	movs	r3, #0
 80019ec:	623b      	str	r3, [r7, #32]
#if defined(RCC_CFGR2_PREDIV1SRC)
  uint32_t prediv2 = 0U, pll2mul = 0U;
#endif /*RCC_CFGR2_PREDIV1SRC*/

  tmpreg = RCC->CFGR;
 80019ee:	4b23      	ldr	r3, [pc, #140]	; (8001a7c <HAL_RCC_GetSysClockFreq+0xb8>)
 80019f0:	685b      	ldr	r3, [r3, #4]
 80019f2:	61fb      	str	r3, [r7, #28]

  /* Get SYSCLK source -------------------------------------------------------*/
  switch (tmpreg & RCC_CFGR_SWS)
 80019f4:	69fb      	ldr	r3, [r7, #28]
 80019f6:	f003 030c 	and.w	r3, r3, #12
 80019fa:	2b04      	cmp	r3, #4
 80019fc:	d002      	beq.n	8001a04 <HAL_RCC_GetSysClockFreq+0x40>
 80019fe:	2b08      	cmp	r3, #8
 8001a00:	d003      	beq.n	8001a0a <HAL_RCC_GetSysClockFreq+0x46>
 8001a02:	e02d      	b.n	8001a60 <HAL_RCC_GetSysClockFreq+0x9c>
  {
    case RCC_SYSCLKSOURCE_STATUS_HSE:  /* HSE used as system clock */
    {
      sysclockfreq = HSE_VALUE;
 8001a04:	4b1e      	ldr	r3, [pc, #120]	; (8001a80 <HAL_RCC_GetSysClockFreq+0xbc>)
 8001a06:	623b      	str	r3, [r7, #32]
      break;
 8001a08:	e02d      	b.n	8001a66 <HAL_RCC_GetSysClockFreq+0xa2>
    }
    case RCC_SYSCLKSOURCE_STATUS_PLLCLK:  /* PLL used as system clock */
    {
      pllmul = aPLLMULFactorTable[(uint32_t)(tmpreg & RCC_CFGR_PLLMULL) >> RCC_CFGR_PLLMULL_Pos];
 8001a0a:	69fb      	ldr	r3, [r7, #28]
 8001a0c:	0c9b      	lsrs	r3, r3, #18
 8001a0e:	f003 030f 	and.w	r3, r3, #15
 8001a12:	f107 0228 	add.w	r2, r7, #40	; 0x28
 8001a16:	4413      	add	r3, r2
 8001a18:	f813 3c24 	ldrb.w	r3, [r3, #-36]
 8001a1c:	617b      	str	r3, [r7, #20]
      if ((tmpreg & RCC_CFGR_PLLSRC) != RCC_PLLSOURCE_HSI_DIV2)
 8001a1e:	69fb      	ldr	r3, [r7, #28]
 8001a20:	f403 3380 	and.w	r3, r3, #65536	; 0x10000
 8001a24:	2b00      	cmp	r3, #0
 8001a26:	d013      	beq.n	8001a50 <HAL_RCC_GetSysClockFreq+0x8c>
      {
#if defined(RCC_CFGR2_PREDIV1)
        prediv = aPredivFactorTable[(uint32_t)(RCC->CFGR2 & RCC_CFGR2_PREDIV1) >> RCC_CFGR2_PREDIV1_Pos];
#else
        prediv = aPredivFactorTable[(uint32_t)(RCC->CFGR & RCC_CFGR_PLLXTPRE) >> RCC_CFGR_PLLXTPRE_Pos];
 8001a28:	4b14      	ldr	r3, [pc, #80]	; (8001a7c <HAL_RCC_GetSysClockFreq+0xb8>)
 8001a2a:	685b      	ldr	r3, [r3, #4]
 8001a2c:	0c5b      	lsrs	r3, r3, #17
 8001a2e:	f003 0301 	and.w	r3, r3, #1
 8001a32:	f107 0228 	add.w	r2, r7, #40	; 0x28
 8001a36:	4413      	add	r3, r2
 8001a38:	f813 3c28 	ldrb.w	r3, [r3, #-40]
 8001a3c:	61bb      	str	r3, [r7, #24]
        {
          pllclk = pllclk / 2;
        }
#else
        /* HSE used as PLL clock source : PLLCLK = HSE/PREDIV1 * PLLMUL */
        pllclk = (uint32_t)((HSE_VALUE  * pllmul) / prediv);
 8001a3e:	697b      	ldr	r3, [r7, #20]
 8001a40:	4a0f      	ldr	r2, [pc, #60]	; (8001a80 <HAL_RCC_GetSysClockFreq+0xbc>)
 8001a42:	fb02 f203 	mul.w	r2, r2, r3
 8001a46:	69bb      	ldr	r3, [r7, #24]
 8001a48:	fbb2 f3f3 	udiv	r3, r2, r3
 8001a4c:	627b      	str	r3, [r7, #36]	; 0x24
 8001a4e:	e004      	b.n	8001a5a <HAL_RCC_GetSysClockFreq+0x96>
#endif /*RCC_CFGR2_PREDIV1SRC*/
      }
      else
      {
        /* HSI used as PLL clock source : PLLCLK = HSI/2 * PLLMUL */
        pllclk = (uint32_t)((HSI_VALUE >> 1) * pllmul);
 8001a50:	697b      	ldr	r3, [r7, #20]
 8001a52:	4a0c      	ldr	r2, [pc, #48]	; (8001a84 <HAL_RCC_GetSysClockFreq+0xc0>)
 8001a54:	fb02 f303 	mul.w	r3, r2, r3
 8001a58:	627b      	str	r3, [r7, #36]	; 0x24
      }
      sysclockfreq = pllclk;
 8001a5a:	6a7b      	ldr	r3, [r7, #36]	; 0x24
 8001a5c:	623b      	str	r3, [r7, #32]
      break;
 8001a5e:	e002      	b.n	8001a66 <HAL_RCC_GetSysClockFreq+0xa2>
    }
    case RCC_SYSCLKSOURCE_STATUS_HSI:  /* HSI used as system clock source */
    default: /* HSI used as system clock */
    {
      sysclockfreq = HSI_VALUE;
 8001a60:	4b07      	ldr	r3, [pc, #28]	; (8001a80 <HAL_RCC_GetSysClockFreq+0xbc>)
 8001a62:	623b      	str	r3, [r7, #32]
      break;
 8001a64:	bf00      	nop
    }
  }
  return sysclockfreq;
 8001a66:	6a3b      	ldr	r3, [r7, #32]
}
 8001a68:	4618      	mov	r0, r3
 8001a6a:	3728      	adds	r7, #40	; 0x28
 8001a6c:	46bd      	mov	sp, r7
 8001a6e:	bc90      	pop	{r4, r7}
 8001a70:	4770      	bx	lr
 8001a72:	bf00      	nop
 8001a74:	08002da0 	.word	0x08002da0
 8001a78:	08002db0 	.word	0x08002db0
 8001a7c:	40021000 	.word	0x40021000
 8001a80:	007a1200 	.word	0x007a1200
 8001a84:	003d0900 	.word	0x003d0900

08001a88 <HAL_RCC_GetHCLKFreq>:
  * @note   The SystemCoreClock CMSIS variable is used to store System Clock Frequency
  *         and updated within this function
  * @retval HCLK frequency
  */
uint32_t HAL_RCC_GetHCLKFreq(void)
{
 8001a88:	b480      	push	{r7}
 8001a8a:	af00      	add	r7, sp, #0
  return SystemCoreClock;
 8001a8c:	4b02      	ldr	r3, [pc, #8]	; (8001a98 <HAL_RCC_GetHCLKFreq+0x10>)
 8001a8e:	681b      	ldr	r3, [r3, #0]
}
 8001a90:	4618      	mov	r0, r3
 8001a92:	46bd      	mov	sp, r7
 8001a94:	bc80      	pop	{r7}
 8001a96:	4770      	bx	lr
 8001a98:	20000004 	.word	0x20000004

08001a9c <HAL_RCC_GetPCLK1Freq>:
  * @note   Each time PCLK1 changes, this function must be called to update the
  *         right PCLK1 value. Otherwise, any configuration based on this function will be incorrect.
  * @retval PCLK1 frequency
  */
uint32_t HAL_RCC_GetPCLK1Freq(void)
{
 8001a9c:	b580      	push	{r7, lr}
 8001a9e:	af00      	add	r7, sp, #0
  /* Get HCLK source and Compute PCLK1 frequency ---------------------------*/
  return (HAL_RCC_GetHCLKFreq() >> APBPrescTable[(RCC->CFGR & RCC_CFGR_PPRE1) >> RCC_CFGR_PPRE1_Pos]);
 8001aa0:	f7ff fff2 	bl	8001a88 <HAL_RCC_GetHCLKFreq>
 8001aa4:	4601      	mov	r1, r0
 8001aa6:	4b05      	ldr	r3, [pc, #20]	; (8001abc <HAL_RCC_GetPCLK1Freq+0x20>)
 8001aa8:	685b      	ldr	r3, [r3, #4]
 8001aaa:	0a1b      	lsrs	r3, r3, #8
 8001aac:	f003 0307 	and.w	r3, r3, #7
 8001ab0:	4a03      	ldr	r2, [pc, #12]	; (8001ac0 <HAL_RCC_GetPCLK1Freq+0x24>)
 8001ab2:	5cd3      	ldrb	r3, [r2, r3]
 8001ab4:	fa21 f303 	lsr.w	r3, r1, r3
}
 8001ab8:	4618      	mov	r0, r3
 8001aba:	bd80      	pop	{r7, pc}
 8001abc:	40021000 	.word	0x40021000
 8001ac0:	08002dc4 	.word	0x08002dc4

08001ac4 <HAL_RCC_GetPCLK2Freq>:
  * @note   Each time PCLK2 changes, this function must be called to update the
  *         right PCLK2 value. Otherwise, any configuration based on this function will be incorrect.
  * @retval PCLK2 frequency
  */
uint32_t HAL_RCC_GetPCLK2Freq(void)
{
 8001ac4:	b580      	push	{r7, lr}
 8001ac6:	af00      	add	r7, sp, #0
  /* Get HCLK source and Compute PCLK2 frequency ---------------------------*/
  return (HAL_RCC_GetHCLKFreq() >> APBPrescTable[(RCC->CFGR & RCC_CFGR_PPRE2) >> RCC_CFGR_PPRE2_Pos]);
 8001ac8:	f7ff ffde 	bl	8001a88 <HAL_RCC_GetHCLKFreq>
 8001acc:	4601      	mov	r1, r0
 8001ace:	4b05      	ldr	r3, [pc, #20]	; (8001ae4 <HAL_RCC_GetPCLK2Freq+0x20>)
 8001ad0:	685b      	ldr	r3, [r3, #4]
 8001ad2:	0adb      	lsrs	r3, r3, #11
 8001ad4:	f003 0307 	and.w	r3, r3, #7
 8001ad8:	4a03      	ldr	r2, [pc, #12]	; (8001ae8 <HAL_RCC_GetPCLK2Freq+0x24>)
 8001ada:	5cd3      	ldrb	r3, [r2, r3]
 8001adc:	fa21 f303 	lsr.w	r3, r1, r3
}
 8001ae0:	4618      	mov	r0, r3
 8001ae2:	bd80      	pop	{r7, pc}
 8001ae4:	40021000 	.word	0x40021000
 8001ae8:	08002dc4 	.word	0x08002dc4

08001aec <RCC_Delay>:
  * @brief  This function provides delay (in milliseconds) based on CPU cycles method.
  * @param  mdelay: specifies the delay time length, in milliseconds.
  * @retval None
  */
static void RCC_Delay(uint32_t mdelay)
{
 8001aec:	b480      	push	{r7}
 8001aee:	b085      	sub	sp, #20
 8001af0:	af00      	add	r7, sp, #0
 8001af2:	6078      	str	r0, [r7, #4]
  __IO uint32_t Delay = mdelay * (SystemCoreClock / 8U / 1000U);
 8001af4:	4b0a      	ldr	r3, [pc, #40]	; (8001b20 <RCC_Delay+0x34>)
 8001af6:	681b      	ldr	r3, [r3, #0]
 8001af8:	4a0a      	ldr	r2, [pc, #40]	; (8001b24 <RCC_Delay+0x38>)
 8001afa:	fba2 2303 	umull	r2, r3, r2, r3
 8001afe:	0a5b      	lsrs	r3, r3, #9
 8001b00:	687a      	ldr	r2, [r7, #4]
 8001b02:	fb02 f303 	mul.w	r3, r2, r3
 8001b06:	60fb      	str	r3, [r7, #12]
  do
  {
    __NOP();
 8001b08:	bf00      	nop
  }
  while (Delay --);
 8001b0a:	68fb      	ldr	r3, [r7, #12]
 8001b0c:	1e5a      	subs	r2, r3, #1
 8001b0e:	60fa      	str	r2, [r7, #12]
 8001b10:	2b00      	cmp	r3, #0
 8001b12:	d1f9      	bne.n	8001b08 <RCC_Delay+0x1c>
}
 8001b14:	bf00      	nop
 8001b16:	3714      	adds	r7, #20
 8001b18:	46bd      	mov	sp, r7
 8001b1a:	bc80      	pop	{r7}
 8001b1c:	4770      	bx	lr
 8001b1e:	bf00      	nop
 8001b20:	20000004 	.word	0x20000004
 8001b24:	10624dd3 	.word	0x10624dd3

08001b28 <HAL_UART_Init>:
  * @param  huart  Pointer to a UART_HandleTypeDef structure that contains
  *                the configuration information for the specified UART module.
  * @retval HAL status
  */
HAL_StatusTypeDef HAL_UART_Init(UART_HandleTypeDef *huart)
{
 8001b28:	b580      	push	{r7, lr}
 8001b2a:	b082      	sub	sp, #8
 8001b2c:	af00      	add	r7, sp, #0
 8001b2e:	6078      	str	r0, [r7, #4]
  /* Check the UART handle allocation */
  if (huart == NULL)
 8001b30:	687b      	ldr	r3, [r7, #4]
 8001b32:	2b00      	cmp	r3, #0
 8001b34:	d101      	bne.n	8001b3a <HAL_UART_Init+0x12>
  {
    return HAL_ERROR;
 8001b36:	2301      	movs	r3, #1
 8001b38:	e03f      	b.n	8001bba <HAL_UART_Init+0x92>
  assert_param(IS_UART_WORD_LENGTH(huart->Init.WordLength));
#if defined(USART_CR1_OVER8)
  assert_param(IS_UART_OVERSAMPLING(huart->Init.OverSampling));
#endif /* USART_CR1_OVER8 */

  if (huart->gState == HAL_UART_STATE_RESET)
 8001b3a:	687b      	ldr	r3, [r7, #4]
 8001b3c:	f893 3039 	ldrb.w	r3, [r3, #57]	; 0x39
 8001b40:	b2db      	uxtb	r3, r3
 8001b42:	2b00      	cmp	r3, #0
 8001b44:	d106      	bne.n	8001b54 <HAL_UART_Init+0x2c>
  {
    /* Allocate lock resource and initialize it */
    huart->Lock = HAL_UNLOCKED;
 8001b46:	687b      	ldr	r3, [r7, #4]
 8001b48:	2200      	movs	r2, #0
 8001b4a:	f883 2038 	strb.w	r2, [r3, #56]	; 0x38

    /* Init the low level hardware */
    huart->MspInitCallback(huart);
#else
    /* Init the low level hardware : GPIO, CLOCK */
    HAL_UART_MspInit(huart);
 8001b4e:	6878      	ldr	r0, [r7, #4]
 8001b50:	f7fe fe8e 	bl	8000870 <HAL_UART_MspInit>
#endif /* (USE_HAL_UART_REGISTER_CALLBACKS) */
  }

  huart->gState = HAL_UART_STATE_BUSY;
 8001b54:	687b      	ldr	r3, [r7, #4]
 8001b56:	2224      	movs	r2, #36	; 0x24
 8001b58:	f883 2039 	strb.w	r2, [r3, #57]	; 0x39

  /* Disable the peripheral */
  __HAL_UART_DISABLE(huart);
 8001b5c:	687b      	ldr	r3, [r7, #4]
 8001b5e:	681b      	ldr	r3, [r3, #0]
 8001b60:	68da      	ldr	r2, [r3, #12]
 8001b62:	687b      	ldr	r3, [r7, #4]
 8001b64:	681b      	ldr	r3, [r3, #0]
 8001b66:	f422 5200 	bic.w	r2, r2, #8192	; 0x2000
 8001b6a:	60da      	str	r2, [r3, #12]

  /* Set the UART Communication parameters */
  UART_SetConfig(huart);
 8001b6c:	6878      	ldr	r0, [r7, #4]
 8001b6e:	f000 fba9 	bl	80022c4 <UART_SetConfig>

  /* In asynchronous mode, the following bits must be kept cleared:
     - LINEN and CLKEN bits in the USART_CR2 register,
     - SCEN, HDSEL and IREN  bits in the USART_CR3 register.*/
  CLEAR_BIT(huart->Instance->CR2, (USART_CR2_LINEN | USART_CR2_CLKEN));
 8001b72:	687b      	ldr	r3, [r7, #4]
 8001b74:	681b      	ldr	r3, [r3, #0]
 8001b76:	691a      	ldr	r2, [r3, #16]
 8001b78:	687b      	ldr	r3, [r7, #4]
 8001b7a:	681b      	ldr	r3, [r3, #0]
 8001b7c:	f422 4290 	bic.w	r2, r2, #18432	; 0x4800
 8001b80:	611a      	str	r2, [r3, #16]
  CLEAR_BIT(huart->Instance->CR3, (USART_CR3_SCEN | USART_CR3_HDSEL | USART_CR3_IREN));
 8001b82:	687b      	ldr	r3, [r7, #4]
 8001b84:	681b      	ldr	r3, [r3, #0]
 8001b86:	695a      	ldr	r2, [r3, #20]
 8001b88:	687b      	ldr	r3, [r7, #4]
 8001b8a:	681b      	ldr	r3, [r3, #0]
 8001b8c:	f022 022a 	bic.w	r2, r2, #42	; 0x2a
 8001b90:	615a      	str	r2, [r3, #20]

  /* Enable the peripheral */
  __HAL_UART_ENABLE(huart);
 8001b92:	687b      	ldr	r3, [r7, #4]
 8001b94:	681b      	ldr	r3, [r3, #0]
 8001b96:	68da      	ldr	r2, [r3, #12]
 8001b98:	687b      	ldr	r3, [r7, #4]
 8001b9a:	681b      	ldr	r3, [r3, #0]
 8001b9c:	f442 5200 	orr.w	r2, r2, #8192	; 0x2000
 8001ba0:	60da      	str	r2, [r3, #12]

  /* Initialize the UART state */
  huart->ErrorCode = HAL_UART_ERROR_NONE;
 8001ba2:	687b      	ldr	r3, [r7, #4]
 8001ba4:	2200      	movs	r2, #0
 8001ba6:	63da      	str	r2, [r3, #60]	; 0x3c
  huart->gState = HAL_UART_STATE_READY;
 8001ba8:	687b      	ldr	r3, [r7, #4]
 8001baa:	2220      	movs	r2, #32
 8001bac:	f883 2039 	strb.w	r2, [r3, #57]	; 0x39
  huart->RxState = HAL_UART_STATE_READY;
 8001bb0:	687b      	ldr	r3, [r7, #4]
 8001bb2:	2220      	movs	r2, #32
 8001bb4:	f883 203a 	strb.w	r2, [r3, #58]	; 0x3a

  return HAL_OK;
 8001bb8:	2300      	movs	r3, #0
}
 8001bba:	4618      	mov	r0, r3
 8001bbc:	3708      	adds	r7, #8
 8001bbe:	46bd      	mov	sp, r7
 8001bc0:	bd80      	pop	{r7, pc}

08001bc2 <HAL_UART_Transmit>:
  * @param  Size  Amount of data elements (u8 or u16) to be sent
  * @param  Timeout Timeout duration
  * @retval HAL status
  */
HAL_StatusTypeDef HAL_UART_Transmit(UART_HandleTypeDef *huart, uint8_t *pData, uint16_t Size, uint32_t Timeout)
{
 8001bc2:	b580      	push	{r7, lr}
 8001bc4:	b088      	sub	sp, #32
 8001bc6:	af02      	add	r7, sp, #8
 8001bc8:	60f8      	str	r0, [r7, #12]
 8001bca:	60b9      	str	r1, [r7, #8]
 8001bcc:	603b      	str	r3, [r7, #0]
 8001bce:	4613      	mov	r3, r2
 8001bd0:	80fb      	strh	r3, [r7, #6]
  uint16_t *tmp;
  uint32_t tickstart = 0U;
 8001bd2:	2300      	movs	r3, #0
 8001bd4:	617b      	str	r3, [r7, #20]

  /* Check that a Tx process is not already ongoing */
  if (huart->gState == HAL_UART_STATE_READY)
 8001bd6:	68fb      	ldr	r3, [r7, #12]
 8001bd8:	f893 3039 	ldrb.w	r3, [r3, #57]	; 0x39
 8001bdc:	b2db      	uxtb	r3, r3
 8001bde:	2b20      	cmp	r3, #32
 8001be0:	f040 8083 	bne.w	8001cea <HAL_UART_Transmit+0x128>
  {
    if ((pData == NULL) || (Size == 0U))
 8001be4:	68bb      	ldr	r3, [r7, #8]
 8001be6:	2b00      	cmp	r3, #0
 8001be8:	d002      	beq.n	8001bf0 <HAL_UART_Transmit+0x2e>
 8001bea:	88fb      	ldrh	r3, [r7, #6]
 8001bec:	2b00      	cmp	r3, #0
 8001bee:	d101      	bne.n	8001bf4 <HAL_UART_Transmit+0x32>
    {
      return  HAL_ERROR;
 8001bf0:	2301      	movs	r3, #1
 8001bf2:	e07b      	b.n	8001cec <HAL_UART_Transmit+0x12a>
    }

    /* Process Locked */
    __HAL_LOCK(huart);
 8001bf4:	68fb      	ldr	r3, [r7, #12]
 8001bf6:	f893 3038 	ldrb.w	r3, [r3, #56]	; 0x38
 8001bfa:	2b01      	cmp	r3, #1
 8001bfc:	d101      	bne.n	8001c02 <HAL_UART_Transmit+0x40>
 8001bfe:	2302      	movs	r3, #2
 8001c00:	e074      	b.n	8001cec <HAL_UART_Transmit+0x12a>
 8001c02:	68fb      	ldr	r3, [r7, #12]
 8001c04:	2201      	movs	r2, #1
 8001c06:	f883 2038 	strb.w	r2, [r3, #56]	; 0x38

    huart->ErrorCode = HAL_UART_ERROR_NONE;
 8001c0a:	68fb      	ldr	r3, [r7, #12]
 8001c0c:	2200      	movs	r2, #0
 8001c0e:	63da      	str	r2, [r3, #60]	; 0x3c
    huart->gState = HAL_UART_STATE_BUSY_TX;
 8001c10:	68fb      	ldr	r3, [r7, #12]
 8001c12:	2221      	movs	r2, #33	; 0x21
 8001c14:	f883 2039 	strb.w	r2, [r3, #57]	; 0x39

    /* Init tickstart for timeout managment */
    tickstart = HAL_GetTick();
 8001c18:	f7ff f818 	bl	8000c4c <HAL_GetTick>
 8001c1c:	6178      	str	r0, [r7, #20]

    huart->TxXferSize = Size;
 8001c1e:	68fb      	ldr	r3, [r7, #12]
 8001c20:	88fa      	ldrh	r2, [r7, #6]
 8001c22:	849a      	strh	r2, [r3, #36]	; 0x24
    huart->TxXferCount = Size;
 8001c24:	68fb      	ldr	r3, [r7, #12]
 8001c26:	88fa      	ldrh	r2, [r7, #6]
 8001c28:	84da      	strh	r2, [r3, #38]	; 0x26
    while (huart->TxXferCount > 0U)
 8001c2a:	e042      	b.n	8001cb2 <HAL_UART_Transmit+0xf0>
    {
      huart->TxXferCount--;
 8001c2c:	68fb      	ldr	r3, [r7, #12]
 8001c2e:	8cdb      	ldrh	r3, [r3, #38]	; 0x26
 8001c30:	b29b      	uxth	r3, r3
 8001c32:	3b01      	subs	r3, #1
 8001c34:	b29a      	uxth	r2, r3
 8001c36:	68fb      	ldr	r3, [r7, #12]
 8001c38:	84da      	strh	r2, [r3, #38]	; 0x26
      if (huart->Init.WordLength == UART_WORDLENGTH_9B)
 8001c3a:	68fb      	ldr	r3, [r7, #12]
 8001c3c:	689b      	ldr	r3, [r3, #8]
 8001c3e:	f5b3 5f80 	cmp.w	r3, #4096	; 0x1000
 8001c42:	d122      	bne.n	8001c8a <HAL_UART_Transmit+0xc8>
      {
        if (UART_WaitOnFlagUntilTimeout(huart, UART_FLAG_TXE, RESET, tickstart, Timeout) != HAL_OK)
 8001c44:	683b      	ldr	r3, [r7, #0]
 8001c46:	9300      	str	r3, [sp, #0]
 8001c48:	697b      	ldr	r3, [r7, #20]
 8001c4a:	2200      	movs	r2, #0
 8001c4c:	2180      	movs	r1, #128	; 0x80
 8001c4e:	68f8      	ldr	r0, [r7, #12]
 8001c50:	f000 f9cf 	bl	8001ff2 <UART_WaitOnFlagUntilTimeout>
 8001c54:	4603      	mov	r3, r0
 8001c56:	2b00      	cmp	r3, #0
 8001c58:	d001      	beq.n	8001c5e <HAL_UART_Transmit+0x9c>
        {
          return HAL_TIMEOUT;
 8001c5a:	2303      	movs	r3, #3
 8001c5c:	e046      	b.n	8001cec <HAL_UART_Transmit+0x12a>
        }
        tmp = (uint16_t *) pData;
 8001c5e:	68bb      	ldr	r3, [r7, #8]
 8001c60:	613b      	str	r3, [r7, #16]
        huart->Instance->DR = (*tmp & (uint16_t)0x01FF);
 8001c62:	693b      	ldr	r3, [r7, #16]
 8001c64:	881b      	ldrh	r3, [r3, #0]
 8001c66:	461a      	mov	r2, r3
 8001c68:	68fb      	ldr	r3, [r7, #12]
 8001c6a:	681b      	ldr	r3, [r3, #0]
 8001c6c:	f3c2 0208 	ubfx	r2, r2, #0, #9
 8001c70:	605a      	str	r2, [r3, #4]
        if (huart->Init.Parity == UART_PARITY_NONE)
 8001c72:	68fb      	ldr	r3, [r7, #12]
 8001c74:	691b      	ldr	r3, [r3, #16]
 8001c76:	2b00      	cmp	r3, #0
 8001c78:	d103      	bne.n	8001c82 <HAL_UART_Transmit+0xc0>
        {
          pData += 2U;
 8001c7a:	68bb      	ldr	r3, [r7, #8]
 8001c7c:	3302      	adds	r3, #2
 8001c7e:	60bb      	str	r3, [r7, #8]
 8001c80:	e017      	b.n	8001cb2 <HAL_UART_Transmit+0xf0>
        }
        else
        {
          pData += 1U;
 8001c82:	68bb      	ldr	r3, [r7, #8]
 8001c84:	3301      	adds	r3, #1
 8001c86:	60bb      	str	r3, [r7, #8]
 8001c88:	e013      	b.n	8001cb2 <HAL_UART_Transmit+0xf0>
        }
      }
      else
      {
        if (UART_WaitOnFlagUntilTimeout(huart, UART_FLAG_TXE, RESET, tickstart, Timeout) != HAL_OK)
 8001c8a:	683b      	ldr	r3, [r7, #0]
 8001c8c:	9300      	str	r3, [sp, #0]
 8001c8e:	697b      	ldr	r3, [r7, #20]
 8001c90:	2200      	movs	r2, #0
 8001c92:	2180      	movs	r1, #128	; 0x80
 8001c94:	68f8      	ldr	r0, [r7, #12]
 8001c96:	f000 f9ac 	bl	8001ff2 <UART_WaitOnFlagUntilTimeout>
 8001c9a:	4603      	mov	r3, r0
 8001c9c:	2b00      	cmp	r3, #0
 8001c9e:	d001      	beq.n	8001ca4 <HAL_UART_Transmit+0xe2>
        {
          return HAL_TIMEOUT;
 8001ca0:	2303      	movs	r3, #3
 8001ca2:	e023      	b.n	8001cec <HAL_UART_Transmit+0x12a>
        }
        huart->Instance->DR = (*pData++ & (uint8_t)0xFF);
 8001ca4:	68bb      	ldr	r3, [r7, #8]
 8001ca6:	1c5a      	adds	r2, r3, #1
 8001ca8:	60ba      	str	r2, [r7, #8]
 8001caa:	781a      	ldrb	r2, [r3, #0]
 8001cac:	68fb      	ldr	r3, [r7, #12]
 8001cae:	681b      	ldr	r3, [r3, #0]
 8001cb0:	605a      	str	r2, [r3, #4]
    while (huart->TxXferCount > 0U)
 8001cb2:	68fb      	ldr	r3, [r7, #12]
 8001cb4:	8cdb      	ldrh	r3, [r3, #38]	; 0x26
 8001cb6:	b29b      	uxth	r3, r3
 8001cb8:	2b00      	cmp	r3, #0
 8001cba:	d1b7      	bne.n	8001c2c <HAL_UART_Transmit+0x6a>
      }
    }

    if (UART_WaitOnFlagUntilTimeout(huart, UART_FLAG_TC, RESET, tickstart, Timeout) != HAL_OK)
 8001cbc:	683b      	ldr	r3, [r7, #0]
 8001cbe:	9300      	str	r3, [sp, #0]
 8001cc0:	697b      	ldr	r3, [r7, #20]
 8001cc2:	2200      	movs	r2, #0
 8001cc4:	2140      	movs	r1, #64	; 0x40
 8001cc6:	68f8      	ldr	r0, [r7, #12]
 8001cc8:	f000 f993 	bl	8001ff2 <UART_WaitOnFlagUntilTimeout>
 8001ccc:	4603      	mov	r3, r0
 8001cce:	2b00      	cmp	r3, #0
 8001cd0:	d001      	beq.n	8001cd6 <HAL_UART_Transmit+0x114>
    {
      return HAL_TIMEOUT;
 8001cd2:	2303      	movs	r3, #3
 8001cd4:	e00a      	b.n	8001cec <HAL_UART_Transmit+0x12a>
    }

    /* At end of Tx process, restore huart->gState to Ready */
    huart->gState = HAL_UART_STATE_READY;
 8001cd6:	68fb      	ldr	r3, [r7, #12]
 8001cd8:	2220      	movs	r2, #32
 8001cda:	f883 2039 	strb.w	r2, [r3, #57]	; 0x39

    /* Process Unlocked */
    __HAL_UNLOCK(huart);
 8001cde:	68fb      	ldr	r3, [r7, #12]
 8001ce0:	2200      	movs	r2, #0
 8001ce2:	f883 2038 	strb.w	r2, [r3, #56]	; 0x38

    return HAL_OK;
 8001ce6:	2300      	movs	r3, #0
 8001ce8:	e000      	b.n	8001cec <HAL_UART_Transmit+0x12a>
  }
  else
  {
    return HAL_BUSY;
 8001cea:	2302      	movs	r3, #2
  }
}
 8001cec:	4618      	mov	r0, r3
 8001cee:	3718      	adds	r7, #24
 8001cf0:	46bd      	mov	sp, r7
 8001cf2:	bd80      	pop	{r7, pc}

08001cf4 <HAL_UART_Receive_IT>:
  * @param  pData Pointer to data buffer (u8 or u16 data elements).
  * @param  Size  Amount of data elements (u8 or u16) to be received.
  * @retval HAL status
  */
HAL_StatusTypeDef HAL_UART_Receive_IT(UART_HandleTypeDef *huart, uint8_t *pData, uint16_t Size)
{
 8001cf4:	b480      	push	{r7}
 8001cf6:	b085      	sub	sp, #20
 8001cf8:	af00      	add	r7, sp, #0
 8001cfa:	60f8      	str	r0, [r7, #12]
 8001cfc:	60b9      	str	r1, [r7, #8]
 8001cfe:	4613      	mov	r3, r2
 8001d00:	80fb      	strh	r3, [r7, #6]
  /* Check that a Rx process is not already ongoing */
  if (huart->RxState == HAL_UART_STATE_READY)
 8001d02:	68fb      	ldr	r3, [r7, #12]
 8001d04:	f893 303a 	ldrb.w	r3, [r3, #58]	; 0x3a
 8001d08:	b2db      	uxtb	r3, r3
 8001d0a:	2b20      	cmp	r3, #32
 8001d0c:	d140      	bne.n	8001d90 <HAL_UART_Receive_IT+0x9c>
  {
    if ((pData == NULL) || (Size == 0U))
 8001d0e:	68bb      	ldr	r3, [r7, #8]
 8001d10:	2b00      	cmp	r3, #0
 8001d12:	d002      	beq.n	8001d1a <HAL_UART_Receive_IT+0x26>
 8001d14:	88fb      	ldrh	r3, [r7, #6]
 8001d16:	2b00      	cmp	r3, #0
 8001d18:	d101      	bne.n	8001d1e <HAL_UART_Receive_IT+0x2a>
    {
      return HAL_ERROR;
 8001d1a:	2301      	movs	r3, #1
 8001d1c:	e039      	b.n	8001d92 <HAL_UART_Receive_IT+0x9e>
    }

    /* Process Locked */
    __HAL_LOCK(huart);
 8001d1e:	68fb      	ldr	r3, [r7, #12]
 8001d20:	f893 3038 	ldrb.w	r3, [r3, #56]	; 0x38
 8001d24:	2b01      	cmp	r3, #1
 8001d26:	d101      	bne.n	8001d2c <HAL_UART_Receive_IT+0x38>
 8001d28:	2302      	movs	r3, #2
 8001d2a:	e032      	b.n	8001d92 <HAL_UART_Receive_IT+0x9e>
 8001d2c:	68fb      	ldr	r3, [r7, #12]
 8001d2e:	2201      	movs	r2, #1
 8001d30:	f883 2038 	strb.w	r2, [r3, #56]	; 0x38

    huart->pRxBuffPtr = pData;
 8001d34:	68fb      	ldr	r3, [r7, #12]
 8001d36:	68ba      	ldr	r2, [r7, #8]
 8001d38:	629a      	str	r2, [r3, #40]	; 0x28
    huart->RxXferSize = Size;
 8001d3a:	68fb      	ldr	r3, [r7, #12]
 8001d3c:	88fa      	ldrh	r2, [r7, #6]
 8001d3e:	859a      	strh	r2, [r3, #44]	; 0x2c
    huart->RxXferCount = Size;
 8001d40:	68fb      	ldr	r3, [r7, #12]
 8001d42:	88fa      	ldrh	r2, [r7, #6]
 8001d44:	85da      	strh	r2, [r3, #46]	; 0x2e

    huart->ErrorCode = HAL_UART_ERROR_NONE;
 8001d46:	68fb      	ldr	r3, [r7, #12]
 8001d48:	2200      	movs	r2, #0
 8001d4a:	63da      	str	r2, [r3, #60]	; 0x3c
    huart->RxState = HAL_UART_STATE_BUSY_RX;
 8001d4c:	68fb      	ldr	r3, [r7, #12]
 8001d4e:	2222      	movs	r2, #34	; 0x22
 8001d50:	f883 203a 	strb.w	r2, [r3, #58]	; 0x3a

    /* Process Unlocked */
    __HAL_UNLOCK(huart);
 8001d54:	68fb      	ldr	r3, [r7, #12]
 8001d56:	2200      	movs	r2, #0
 8001d58:	f883 2038 	strb.w	r2, [r3, #56]	; 0x38

    /* Enable the UART Parity Error Interrupt */
    __HAL_UART_ENABLE_IT(huart, UART_IT_PE);
 8001d5c:	68fb      	ldr	r3, [r7, #12]
 8001d5e:	681b      	ldr	r3, [r3, #0]
 8001d60:	68da      	ldr	r2, [r3, #12]
 8001d62:	68fb      	ldr	r3, [r7, #12]
 8001d64:	681b      	ldr	r3, [r3, #0]
 8001d66:	f442 7280 	orr.w	r2, r2, #256	; 0x100
 8001d6a:	60da      	str	r2, [r3, #12]

    /* Enable the UART Error Interrupt: (Frame error, noise error, overrun error) */
    __HAL_UART_ENABLE_IT(huart, UART_IT_ERR);
 8001d6c:	68fb      	ldr	r3, [r7, #12]
 8001d6e:	681b      	ldr	r3, [r3, #0]
 8001d70:	695a      	ldr	r2, [r3, #20]
 8001d72:	68fb      	ldr	r3, [r7, #12]
 8001d74:	681b      	ldr	r3, [r3, #0]
 8001d76:	f042 0201 	orr.w	r2, r2, #1
 8001d7a:	615a      	str	r2, [r3, #20]

    /* Enable the UART Data Register not empty Interrupt */
    __HAL_UART_ENABLE_IT(huart, UART_IT_RXNE);
 8001d7c:	68fb      	ldr	r3, [r7, #12]
 8001d7e:	681b      	ldr	r3, [r3, #0]
 8001d80:	68da      	ldr	r2, [r3, #12]
 8001d82:	68fb      	ldr	r3, [r7, #12]
 8001d84:	681b      	ldr	r3, [r3, #0]
 8001d86:	f042 0220 	orr.w	r2, r2, #32
 8001d8a:	60da      	str	r2, [r3, #12]

    return HAL_OK;
 8001d8c:	2300      	movs	r3, #0
 8001d8e:	e000      	b.n	8001d92 <HAL_UART_Receive_IT+0x9e>
  }
  else
  {
    return HAL_BUSY;
 8001d90:	2302      	movs	r3, #2
  }
}
 8001d92:	4618      	mov	r0, r3
 8001d94:	3714      	adds	r7, #20
 8001d96:	46bd      	mov	sp, r7
 8001d98:	bc80      	pop	{r7}
 8001d9a:	4770      	bx	lr

08001d9c <HAL_UART_IRQHandler>:
  * @param  huart  Pointer to a UART_HandleTypeDef structure that contains
  *                the configuration information for the specified UART module.
  * @retval None
  */
void HAL_UART_IRQHandler(UART_HandleTypeDef *huart)
{
 8001d9c:	b580      	push	{r7, lr}
 8001d9e:	b088      	sub	sp, #32
 8001da0:	af00      	add	r7, sp, #0
 8001da2:	6078      	str	r0, [r7, #4]
  uint32_t isrflags   = READ_REG(huart->Instance->SR);
 8001da4:	687b      	ldr	r3, [r7, #4]
 8001da6:	681b      	ldr	r3, [r3, #0]
 8001da8:	681b      	ldr	r3, [r3, #0]
 8001daa:	61fb      	str	r3, [r7, #28]
  uint32_t cr1its     = READ_REG(huart->Instance->CR1);
 8001dac:	687b      	ldr	r3, [r7, #4]
 8001dae:	681b      	ldr	r3, [r3, #0]
 8001db0:	68db      	ldr	r3, [r3, #12]
 8001db2:	61bb      	str	r3, [r7, #24]
  uint32_t cr3its     = READ_REG(huart->Instance->CR3);
 8001db4:	687b      	ldr	r3, [r7, #4]
 8001db6:	681b      	ldr	r3, [r3, #0]
 8001db8:	695b      	ldr	r3, [r3, #20]
 8001dba:	617b      	str	r3, [r7, #20]
  uint32_t errorflags = 0x00U;
 8001dbc:	2300      	movs	r3, #0
 8001dbe:	613b      	str	r3, [r7, #16]
  uint32_t dmarequest = 0x00U;
 8001dc0:	2300      	movs	r3, #0
 8001dc2:	60fb      	str	r3, [r7, #12]

  /* If no error occurs */
  errorflags = (isrflags & (uint32_t)(USART_SR_PE | USART_SR_FE | USART_SR_ORE | USART_SR_NE));
 8001dc4:	69fb      	ldr	r3, [r7, #28]
 8001dc6:	f003 030f 	and.w	r3, r3, #15
 8001dca:	613b      	str	r3, [r7, #16]
  if (errorflags == RESET)
 8001dcc:	693b      	ldr	r3, [r7, #16]
 8001dce:	2b00      	cmp	r3, #0
 8001dd0:	d10d      	bne.n	8001dee <HAL_UART_IRQHandler+0x52>
  {
    /* UART in mode Receiver -------------------------------------------------*/
    if (((isrflags & USART_SR_RXNE) != RESET) && ((cr1its & USART_CR1_RXNEIE) != RESET))
 8001dd2:	69fb      	ldr	r3, [r7, #28]
 8001dd4:	f003 0320 	and.w	r3, r3, #32
 8001dd8:	2b00      	cmp	r3, #0
 8001dda:	d008      	beq.n	8001dee <HAL_UART_IRQHandler+0x52>
 8001ddc:	69bb      	ldr	r3, [r7, #24]
 8001dde:	f003 0320 	and.w	r3, r3, #32
 8001de2:	2b00      	cmp	r3, #0
 8001de4:	d003      	beq.n	8001dee <HAL_UART_IRQHandler+0x52>
    {
      UART_Receive_IT(huart);
 8001de6:	6878      	ldr	r0, [r7, #4]
 8001de8:	f000 f9eb 	bl	80021c2 <UART_Receive_IT>
      return;
 8001dec:	e0cc      	b.n	8001f88 <HAL_UART_IRQHandler+0x1ec>
    }
  }

  /* If some errors occur */
  if ((errorflags != RESET) && (((cr3its & USART_CR3_EIE) != RESET) || ((cr1its & (USART_CR1_RXNEIE | USART_CR1_PEIE)) != RESET)))
 8001dee:	693b      	ldr	r3, [r7, #16]
 8001df0:	2b00      	cmp	r3, #0
 8001df2:	f000 80ab 	beq.w	8001f4c <HAL_UART_IRQHandler+0x1b0>
 8001df6:	697b      	ldr	r3, [r7, #20]
 8001df8:	f003 0301 	and.w	r3, r3, #1
 8001dfc:	2b00      	cmp	r3, #0
 8001dfe:	d105      	bne.n	8001e0c <HAL_UART_IRQHandler+0x70>
 8001e00:	69bb      	ldr	r3, [r7, #24]
 8001e02:	f403 7390 	and.w	r3, r3, #288	; 0x120
 8001e06:	2b00      	cmp	r3, #0
 8001e08:	f000 80a0 	beq.w	8001f4c <HAL_UART_IRQHandler+0x1b0>
  {
    /* UART parity error interrupt occurred ----------------------------------*/
    if (((isrflags & USART_SR_PE) != RESET) && ((cr1its & USART_CR1_PEIE) != RESET))
 8001e0c:	69fb      	ldr	r3, [r7, #28]
 8001e0e:	f003 0301 	and.w	r3, r3, #1
 8001e12:	2b00      	cmp	r3, #0
 8001e14:	d00a      	beq.n	8001e2c <HAL_UART_IRQHandler+0x90>
 8001e16:	69bb      	ldr	r3, [r7, #24]
 8001e18:	f403 7380 	and.w	r3, r3, #256	; 0x100
 8001e1c:	2b00      	cmp	r3, #0
 8001e1e:	d005      	beq.n	8001e2c <HAL_UART_IRQHandler+0x90>
    {
      huart->ErrorCode |= HAL_UART_ERROR_PE;
 8001e20:	687b      	ldr	r3, [r7, #4]
 8001e22:	6bdb      	ldr	r3, [r3, #60]	; 0x3c
 8001e24:	f043 0201 	orr.w	r2, r3, #1
 8001e28:	687b      	ldr	r3, [r7, #4]
 8001e2a:	63da      	str	r2, [r3, #60]	; 0x3c
    }

