:020000040800F2
:1000000000500020510B00085D0700086907000838
:100010006F070008750700087B0700080000000054
:100020000000000000000000000000008107000840
:100030008D0700080000000099070008A5070008C8
:10004000990B0008990B0008990B0008990B000800
:10005000990B0008990B0008990B0008990B0008F0
:10006000990B0008990B0008990B0008990B0008E0
:10007000990B0008990B0008990B0008990B0008D0
:10008000990B0008990B0008990B0008990B0008C0
:10009000990B0008990B0008990B0008990B0008B0
:1000A000990B0008990B0008990B0008990B0008A0
:1000B000990B0008990B0008990B0008990B000890
:1000C000990B0008990B0008990B0008990B000880
:1000D000990B0008F9080008990B0008990B000813
:1000E000990B0008990B0008990B0008000000000C
:1000F0000000000000000000000000000000000000
:0C01000000000000000000005FF808F1A3
:10010C0010B5054C237833B9044B13B10448AFF345
:10011C0000800123237010BD74000020000000003B
:10012C002C2D000808B5034B1BB103490348AFF352
:10013C00008008BD00000000780000202C2D000875
:10014C00034613F8012B002AFBD1181A013870470B
:10015C0080B582B002AF094B1868032301930023CA
:10016C00009301234FF40062054900F063F9024645
:10017C00024B1A6000BFBD4680BD00BFA40000202A
:10018C000008014080B582B002AF094B1868032308
:10019C0001930023009300234FF40062054900F003
:1001AC0049F90246024B1A6000BFBD4680BD00BF34
:1001BC00A00000200008014080B582B000AF0023F1
:1001CC00BB710023FB713CE000BF224B1B68DB6959
:1001DC00204A1268104698470346002BF5D0282079
:1001EC0000F0BEF81B4B1B68DB691A4A12681046FC
:1001FC0098470346012B15D100BF164B1B68DB69D2
:10020C00144A1268104698470346012BF5D0FB7927
:10021C00C3F10703012202FA03F3DAB2BB791343E9
:10022C00BB710BE0FB79C3F10703012202FA03F364
:10023C00DBB2DB43DAB2BB791340BB71FB79013320
:10024C00FB71FB79072BBFD9BB7918460837BD4624
:10025C0080BD00BFA000002080B582B000AF7860E8
:10026C00FFF776FF3C4B1B685B693B4A1268002129
:10027C0010469847122000F0EDFC374B1B685B6969
:10028C00354A12680121104698471E2000F068F884
:10029C00FFF778FF314B1B68DB69304A1268104658
:1002AC0098470346002B52D100BF2C4B1B68DB69CF
:1002BC002A4A1268104698470346002BF5D000BF17
:1002CC00264B1B68DB69254A126810469847034683
:1002DC00012BF5D0FFF770FF03461A467B681A70A6
:1002EC00FFF76AFF03461A467B685A70FFF764FFF4
:1002FC0003461A467B689A70FFF75EFF03461A4660
:10030C007B68DA70FFF758FF03461A467B681A7150
:10031C00FFF71EFF104B1B685B690F4A1268012127
:10032C00104698477B681B7919467B681B781A46E0
:10033C007B685B7813447A68927813447A68D27835
:10034C001344994201D1012302E0002300E0002371
:10035C0018460837BD4680BDA4000020A000002030
:10036C0080B485B000AF7860154B1B6815497A686E
:10037C0002FB03F34B60134B00229A60114B1B687A
:10038C00104A43F0010313600E4B1B68FB60FB68C3
:10039C0003F00103002B04D0FB6803F48033002B23
:1003AC00F2D0084B1B68074A23F001031360054B7E
:1003BC0000229A6000BF1437BD4680BC704700BF56
:1003CC000000002010E000E080B582B000AF786043
:1003DC000B46FB707B6818697B681B689BB2FA78CC
:1003EC00194600F04EFF00BF0837BD4680BD80B5F2
:1003FC0082B000AF78607B681A697B681B689BB21F
:10040C001946104600F055FF00BF0837BD4680BDA9
:10041C0080B582B000AF78607B681A697B681B6816
:10042C009BB21946104600F015FF034618460837D4
:10043C00BD4680BD80B58AB000AFF860B9607A6007
:10044C003B602021012002F011F80346FB60FB68A1
:10045C00BA681A61FB681B693B4A93420CD13B4B4F
:10046C009B693A4A43F004039361384B9B6903F050
:10047C0004037B627B6A46E0FB681B69344A934247
:10048C000CD1324B9B69314A43F0080393612F4BDB
:10049C009B6903F008033B623B6A34E0FB681B6911
:1004AC002C4A93420CD1294B9B69284A43F01003E8
:1004BC009361264B9B6903F01003FB61FB6922E0FF
:1004CC00FB681B69244A93420CD1204B9B691F4A41
:1004DC0043F0200393611D4B9B6903F02003BB6128
:1004EC00BB6910E0FB681B691C4A93420BD1174B8C
:1004FC009B69164A43F040039361144B9B6903F0CC
:10050C0040037B617B69FB687A681A60FB683A6818
:10051C005A60FB683A6B9A60FB687A6BDA60FB682E
:10052C001B69FA681146184600F03AFDFB680C4A44
:10053C00DA61FB680B4A5A61FB680B4A9A61FB68EB
:10054C0018462837BD4680BD000801400010024007
:10055C00000C014000100140001401400018014043
:10056C001D040008D5030008FB030008B0B582B0D9
:10057C0002AF00F00DFB00F06DF82E4B1868032352
:10058C0001930023009301234FF400522A49FFF7F3
:10059C0051FF0246274B1A60284B1B684FF4E1327F
:1005AC002749184600F022FA0246244B1A60214BC8
:1005BC001B689B691F4A1268104698471F4B1B68A3
:1005CC00D3F848311D4A12681E49104698474FF41B
:1005DC007A7000F03FFB1C4B1B681846FFF73CFE83
:1005EC000346002B1BD0154B1B68D3F84841134B0B
:1005FC001868154B1B681B781946134B1B685B78E6
:10060C001D46114B1B689B781A460F4B1B68DB78F9
:10061C00019300922B460A460C49A047C7E7074BAB
:10062C001B68D3F84831054A1268094910469847A7
:10063C00BDE700BF900000200010014038010020F1
:10064C0000380140442D0008A80000204C2D000863
:10065C00902D000880B590B000AF07F11803282248
:10066C000021184601F034FF3B1D00221A605A602D
:10067C009A60DA601A610123BB614FF48033FB612D
:10068C0000233B620123BB6202237B634FF4803364
:10069C00BB634FF4E013FB6307F11803184600F03B
:1006AC0021FE0346002B01D000F019F80F237B60CC
:1006BC000223BB600023FB604FF480633B6100238B
:1006CC007B613B1D0221184601F08CF80346002B80
:1006DC0001D000F004F800BF4037BD4680BD80B4A7
:1006EC0000AF00BFBD4680BC7047000080B485B031
:1006FC0000AF154B9B69144A43F001039361124BF5
:10070C009B6903F00103BB60BB680F4BDB690E4AAE
:10071C0043F08053D3610C4BDB6903F080537B6057
:10072C007B680A4B5B68FB60FB6823F0E063FB6053
:10073C00FB6843F00073FB60044AFB68536000BF26
:10074C001437BD4680BC70470010024000000140C9
:10075C0080B400AF00BFBD4680BC704780B400AF12
:10076C00FEE780B400AFFEE780B400AFFEE780B4D4
:10077C0000AFFEE780B400AF00BFBD4680BC704741
:10078C0080B400AF00BFBD4680BC704780B400AFE2
:10079C0000BFBD4680BC704780B500AF00F03EFA8C
:1007AC0000BF80BD80B584B000AF7860114B1B6872
:1007BC00002B02D10F4B104A1A600E4B1B68FB60CA
:1007CC000C4B1A687B6813446A46934207D901F0B4
:1007DC0055FE02460C2313604FF0FF3306E0054B29
:1007EC001A687B681344034A1360FB681846103779
:1007FC00BD4680BD940000204801002080B400AFAD
:10080C00154B1B68144A43F001031360124B5A68D2
:10081C001149124B13404B600F4B1B680E4A23F0CF
:10082C00847323F4803313600B4B1B680A4A23F444
:10083C0080231360084B5B68074A23F4FE03536064
:10084C00054B4FF41F029A60054B4FF000629A6003
:10085C0000BFBD4680BC7047001002400000FFF88E
:10086C0000ED00E080B588B002AF786000237B61BA
:10087C0000233B617B681B68194A93422BD1194BAF
:10088C009B69184A43F480439361164B9B6903F4AC
:10089C008043FB60FB680323019300230093022336
:1008AC004FF4007210497869FFF7C4FD7861032397
:1008BC0001930023009300234FF480620A493869A6
:1008CC00FFF7B8FD386100220021252000F0BBFAAB
:1008DC00252000F0D4FA00BF1837BD4680BD00BFFC
:1008EC0000380140001002400008014080B582B081
:1008FC0000AF00237B601A4B3B601A4B1B681846F9
:10090C0001F046FA00237B6006E07B6801337B60D4
:10091C007A683B689A4208D8124B1B68184601F05B
:10092C0045FB0346202BF0D100E000BF00237B6089
:10093C0006E07B6801337B607A683B689A420AD890
:10094C00084B1B6801220849184601F0CDF90346F3
:10095C00002BEED100E000BF00BF0837BD4680BDC4
:10096C00FFFF0100380100203401002080B582B067
:10097C0000AF78607B6803F144007B68B3F84230C9
:10098C001A46002101F0A4FD7B68002283F8402068
:10099C007B680022A3F8422000BF0837BD4680BD0B
:1009AC000EB480B585B000AF786007F12003BB6052
:1009BC007B68C433BA68F969184601F01FFE7B687E
:1009CC00C4331846FFF7BCFB0346FB8178687B6891
:1009DC0003F1C401FA894FF6FF7301F0ECF800BF84
:1009EC001437BD46BDE8804003B0704780B584B075
:1009FC0000AFF860B9607A604FF4A671012001F085
:100A0C0035FD0346FB60FB68BA681A60FB687A68C0
:100A1C005A60FB6800229A60FB680022DA60FB686F
:100A2C0000221A61FB680C225A61FB6800229A6151
:100A3C00FB680022DA61FB68184601F06FF8034688
:100A4C00002B01D0FFF74BFEFB680122084918462A
:100A5C0001F04AF9FB68074AC3F84421FB68064ACF
:100A6C00C3F84821FB6818461037BD4680BD00BF4F
:100A7C003401002079090008AD09000880B582B066
:100A8C0000AF78607B681B682B4A93424FD12B4B8D
:100A9C001B6893F840305BB2002B48DB274B1B687C
:100AAC0093F8403003F04003002B15D0244B1B78F7
:100ABC000A2B05D0214B1B681846FFF757FF36E071
:100ACC001E4B1B6893F840201C4B1B6862F07F0286
:100ADC00D2B283F840202AE0194B1B780D2B0BD196
:100AEC00164B1B6893F84020144B1B6842F04002D5
:100AFC00D2B283F840201AE0104B19680F4B1B68D8
:100B0C00B3F84220501C80B2A3F8420010460C4BA4
:100B1C001A780B1883F84420084B1B68B3F8423042
:100B2C007F2B04D9054B1B681846FFF71FFF00BF2E
:100B3C000837BD4680BD00BF003801403801002099
:100B4C0034010020002103E00B4B5B58435004316F
:100B5C000A480B4B42189A42F6D30A4A02E0002389
:100B6C0042F8043B084B9A42F9D3FFF747FE01F0D9
:100B7C008BFCFFF7FBFC7047082E000800000020E0
:100B8C00740000207400002044010020FEE70000E7
:100B9C0080B500AF084B1B68074A43F01003136085
:100BAC00032000F045F9002000F008F8FFF79EFD47
:100BBC000023184680BD00BF0020024080B582B0E3
:100BCC0000AF7860124B1A68124B1B7819464FF421
:100BDC007A73B3FBF1F3B2FBF3F3184600F05DF953
:100BEC000346002B01D001230EE07B680F2B0AD8A3
:100BFC00002279684FF0FF3000F025F9064A7B6837
:100C0C001360002300E0012318460837BD4680BD61
:100C1C00040000200C0000200800002080B400AF6D
:100C2C00054B1B781A46054B1B681344034A13608B
:100C3C0000BFBD4680BC70470C0000203C0100206A
:100C4C0080B400AF024B1B681846BD4680BC704791
:100C5C003C01002080B584B000AF7860FFF7F0FF56
:100C6C00B8607B68FB60FB68B3F1FF3F05D0094BB4
:100C7C001B781A46FB681344FB6000BFFFF7E0FFCC
:100C8C000246BB68D31AFA689A42F7D800BF1037ED
:100C9C00BD4680BD0C00002080B485B000AF7860EC
:100CAC007B6803F00703FB600C4BDB68BB60BA6826
:100CBC004FF6FF031340BB60FB681A02BB6813437B
:100CCC0043F0BF6343F40033BB60044ABB68D3609A
:100CDC0000BF1437BD4680BC704700BF00ED00E07C
:100CEC0080B400AF044BDB681B0A03F00703184603
:100CFC00BD4680BC704700BF00ED00E080B483B0FF
:100D0C0000AF0346FB7197F90730002B0BDBFB7927
:100D1C0003F01F02064997F907305B09012000FA1E
:100D2C0002F241F8232000BF0C37BD4680BC70474F
:100D3C0000E100E080B483B000AF03463960FB7182
:100D4C0097F90730002B0ADB3B68DAB20C4997F9AC
:100D5C0007301201D2B20B4483F800230AE03B683F
:100D6C00DAB20849FB7903F00F03043B1201D2B24B
:100D7C000B441A7600BF0C37BD4680BC704700BFD1
:100D8C0000E100E000ED00E080B489B000AFF86055
:100D9C00B9607A60FB6803F00703FB61FB69C3F180
:100DAC000703042B28BF0423BB61FB690433062B08
:100DBC0002D9FB69033B00E000237B614FF0FF325B
:100DCC00BB6902FA03F3DA43BB681A407B699A40A9
:100DDC004FF0FF317B6901FA03F3D9437B680B4079
:100DEC00134318462437BD4680BC704780B582B08B
:100DFC0000AF78607B68013BB3F1807F01D30123A6
:100E0C000FE00A4A7B68013B53600F214FF0FF3023
:100E1C00FFF790FF054B00229A60044B07221A60E3
:100E2C00002318460837BD4680BD00BF10E000E027
:100E3C0080B582B000AF78607868FFF72DFF00BFF7
:100E4C000837BD4680BD80B586B000AF0346B9609B
:100E5C007A60FB7300237B61FFF742FF78617A684D
:100E6C00B9687869FFF790FF024697F90F30114681
:100E7C001846FFF75FFF00BF1837BD4680BD80B531
:100E8C0082B000AF0346FB7197F907301846FFF7A5
:100E9C0035FF00BF0837BD4680BD80B582B000AFBE
:100EAC0078607868FFF7A2FF034618460837BD46FE
:100EBC0080BD000080B584B000AF78600023FB7368
:100ECC007B6893F82130022B05D07B6804229A634F
:100EDC000123FB7351E07B681B681A687B681B68F5
:100EEC0022F00E021A607B681B681A687B681B680C
:100EFC0022F001021A607B681B68224A934229D0B7
:100F0C007B681B68204A934222D07B681B681F4A6F
:100F1C0093421AD07B681B681D4A934212D07B689F
:100F2C001B681C4A93420AD07B681B681A4A93427E
:100F3C0002D14FF480130EE04FF080730BE04FF4AE
:100F4C00803308E04FF4805305E04FF4807302E0E7
:100F5C00102300E00123114A53607B68012283F8BF
:100F6C0021207B68002283F820207B685B6B002BA0
:100F7C0003D07B685B6B78689847FB7B184610370F
:100F8C00BD4680BD080002401C00024030000240FB
:100F9C0044000240580002406C0002400000024035
:100FAC0080B48BB000AF7860396000237B62002383
:100FBC003B6227E101227B6A02FA03F3FB613B6887
:100FCC001B68FA691340BB61BA69FB699A4240F02D
:100FDC0016813B685B68122B34D0122B0DD8022B78
:100FEC002BD0022B04D8002B31D0012B1CD048E085
:100FFC00032B43D0112B1BD043E0894A934226D0BC
:10100C00874A934206D8874A934220D0864A934215
:10101C001DD036E0854A934219D0854A934216D0AA
:10102C00844A934213D02CE03B68DB683B6228E097
:10103C003B68DB6804333B6223E03B68DB680833C6
:10104C003B621EE03B68DB680C333B6219E03B689B
:10105C009B68002B02D104233B6212E03B689B6827
:10106C00012B05D108233B627B68FA691A6108E001
:10107C0008233B627B68FA695A6102E000233B62F9
:10108C0000BFBB69FF2B01D87B6801E07B68043390
:10109C007B61BB69FF2B02D87B6A9B0002E07B6AF9
:1010AC00083B9B003B617B691A680F213B6901FA85
:1010BC0003F3DB431A40396A3B6901FA03F31A4321
:1010CC007B691A603B685B6803F08053002B00F06F
:1010DC009680594B9B69584A43F001039361564BD8
:1010EC009B6903F00103BB60BB68544A7B6A9B0895
:1010FC00023352F82330FB607B6A03F003039B003E
:10110C000F2202FA03F3DB43FA681340FB607B689F
:10111C004B4A934213D07B684A4A93420DD07B686A
:10112C00494A934207D07B68484A934201D1032332
:10113C0006E0042304E0022302E0012300E0002384
:10114C007A6A02F0030292009340FA681343FB6040
:10115C003A497B6A9B080233FA6841F823203B68C2
:10116C005B6803F48033002B06D0394B1A6838497E
:10117C00BB6913430B6006E0354B1A68BB69DB4354
:10118C00334913400B603B685B6803F40033002B5E
:10119C0006D02F4B5A682E49BB6913434B6006E0AF
:1011AC002B4B5A68BB69DB43294913404B603B68A6
:1011BC005B6803F48013002B06D0254B9A682449F6
:1011CC00BB6913438B6006E0214B9A68BB69DB4318
:1011DC001F4913408B603B685B6803F40013002BC2
:1011EC0006D01B4BDA681A49BB691343CB6006E087
:1011FC00174BDA68BB69DB4315491340CB607B6A3C
:10120C0001337B623B681A687B6A22FA03F3002B7A
:10121C007FF4D0AE00BF2C37BD4680BC704700BFFA
:10122C0000002110000011100000121000003110FD
:10123C00000032100000221000100240000001409B
:10124C0000080140000C0140001001400014014056
:10125C000004014080B485B000AF78600B467B8001
:10126C007B689A687B881340002B02D00123FB73A8
:10127C0001E00023FB73FB7B18461437BD4680BC92
:10128C00704780B483B000AF78600B467B80134608
:10129C007B707B78002B03D07A887B681A6103E023
:1012AC007B881A047B681A6100BF0C37BD4680BC72
:1012BC00704780B483B000AF78600B467B807B684E
:1012CC00DA687B881340002B03D07A887B685A61DC
:1012DC0002E07A887B681A6100BF0C37BD4680BC7F
:1012EC007047000080B586B000AF78607B68002B3B
:1012FC0001D101236CE27B681B6803F00103002B16
:10130C0000F08780924B5B6803F00C03042B0CD02D
:10131C008F4B5B6803F00C03082B12D18C4B5B6872
:10132C0003F48033B3F5803F0BD1894B1B6803F476
:10133C000033002B6CD07B685B68002B68D10123D9
:10134C0046E27B685B68B3F5803F06D1804B1B6837
:10135C007F4A43F4803313602EE07B685B68002B7C
:10136C000CD17B4B1B687A4A23F480331360784B87
:10137C001B68774A23F4802313601DE07B685B684D
:10138C00B3F5A02F0CD1724B1B68714A43F4802328
:10139C0013606F4B1B686E4A43F4803313600BE091
:1013AC006B4B1B686A4A23F480331360684B1B68D1
:1013BC00674A23F4802313607B685B68002B13D08F
:1013CC00FFF73EFC386108E0FFF73AFC02463B6948
:1013DC00D31A642B01D90323FAE15D4B1B6803F488
:1013EC000033002BF0D014E0FFF72AFC386108E042
:1013FC00FFF726FC02463B69D31A642B01D9032361
:10140C00E6E1534B1B6803F40033002BF0D100E0F2
:10141C0000BF7B681B6803F00203002B63D04C4BAE
:10142C005B6803F00C03002B0BD0494B5B6803F09B
:10143C000C03082B1CD1464B5B6803F48033002B48
:10144C0016D1434B1B6803F00203002B05D07B68BD
:10145C001B69012B01D00123BAE13D4B1B6823F022
:10146C00F8027B685B69DB00394913430B603AE097
:10147C007B681B69002B20D0364B01221A60FFF7CA
:10148C00DFFB386108E0FFF7DBFB02463B69D31A50
:10149C00022B01D903239BE12D4B1B6803F00203A4
:1014AC00002BF0D02A4B1B6823F0F8027B685B6999
:1014BC00DB00274913430B6015E0264B00221A6012
:1014CC00FFF7BEFB386108E0FFF7BAFB02463B6949
:1014DC00D31A022B01D903237AE11D4B1B6803F0AD
:1014EC000203002BF0D17B681B6803F00803002B70
:1014FC003AD07B689B69002B19D0174B01221A60DC
:10150C00FFF79EFB386108E0FFF79AFB02463B6948
:10151C00D31A022B01D903235AE10D4B5B6A03F05A
:10152C000203002BF0D0012000F0DAFA1CE00A4B89
:10153C0000221A60FFF784FB38610FE0FFF780FB95
:10154C0002463B69D31A022B08D9032340E100BFA2
:10155C000010024000004242800442429E4B5B6AF3
:10156C0003F00203002BE9D17B681B6803F0040332
:10157C00002B00F0A6800023FB75974BDB6903F072
:10158C008053002B0DD1944BDB69934A43F080536D
:10159C00D361914BDB6903F08053BB60BB680123C3
:1015AC00FB758E4B1B6803F48073002B18D18B4B8F
:1015BC001B688A4A43F480731360FFF741FB386160
:1015CC0008E0FFF73DFB02463B69D31A642B01D9B7
:1015DC000323FDE0814B1B6803F48073002BF0D0D8
:1015EC007B68DB68012B06D17B4B1B6A7A4A43F084
:1015FC00010313622DE07B68DB68002B0CD1764B6A
:10160C001B6A754A23F001031362734B1B6A724AFF
:10161C0023F0040313621CE07B68DB68052B0CD100
:10162C006D4B1B6A6C4A43F0040313626A4B1B6AD2
:10163C00694A43F0010313620BE0674B1B6A664A6D
:10164C0023F001031362644B1B6A634A23F0040307
:10165C0013627B68DB68002B15D0FFF7F1FA386159
:10166C000AE0FFF7EDFA02463B69D31A41F28832E1
:10167C00934201D90323ABE0574B1B6A03F00203DF
:10168C00002BEED014E0FFF7DBFA38610AE0FFF72D
:10169C00D7FA02463B69D31A41F28832934201D9F8
:1016AC00032395E04C4B1B6A03F00203002BEED195
:1016BC00FB7D012B05D1484BDB69474A23F0805356
:1016CC00D3617B68DB69002B00F08180424B5B6847
:1016DC0003F00C03082B61D07B68DB69022B46D12D
:1016EC003F4B00221A60FFF7ABFA386108E0FFF7B6
:1016FC00A7FA02463B69D31A022B01D9032367E0F0
:10170C00354B1B6803F00073002BF0D17B681B6A10
:10171C00B3F5803F08D1304B5B6823F400327B6813
:10172C009B682D4913434B602B4B5B6823F474125D
:10173C007B68196A7B685B6A0B43274913434B60D0
:10174C00274B01221A60FFF77BFA386108E0FFF79C
:10175C0077FA02463B69D31A022B01D9032337E0EF
:10176C001D4B1B6803F00073002BF0D02FE01C4BBB
:10177C0000221A60FFF764FA386108E0FFF760FA9C
:10178C0002463B69D31A022B01D9032320E0124BEA
:10179C001B6803F00073002BF0D118E07B68DB6949
:1017AC00012B01D1012313E00B4B5B68FB60FB6841
:1017BC0003F480327B681B6A9A4206D1FB6803F4FF
:1017CC0070127B685B6A9A4201D0012300E000230F
:1017DC0018461837BD4680BD00100240007000400E
:1017EC006000424280B584B000AF786039607B689D
:1017FC00002B01D10123D0E06A4B1B6803F00703D7
:10180C003A689A4210D9674B1B6823F00702654966
:10181C003B6813430B60634B1B6803F007033A6888
:10182C009A4201D00123B8E07B681B6803F00203E5
:10183C00002B20D07B681B6803F00403002B05D021
:10184C00594B5B68584A43F4E06353607B681B68F0
:10185C0003F00803002B05D0534B5B68524A43F44A
:10186C0060535360504B5B6823F0F0027B689B68BD
:10187C004D4913434B607B681B6803F00103002B3D
:10188C0040D07B685B68012B07D1474B1B6803F486
:10189C000033002B15D101237FE07B685B68022BA2
:1018AC0007D1414B1B6803F00073002B09D10123B6
:1018BC0073E03D4B1B6803F00203002B01D10123A5
:1018CC006BE0394B5B6823F003027B685B6836493D
:1018DC0013434B60FFF7B4F9F8600AE0FFF7B0F977
:1018EC000246FB68D31A41F28832934201D9032392
:1018FC0053E02D4B5B6803F00C027B685B689B002C
:10190C009A42EBD1274B1B6803F007033A689A42C3
:10191C0010D2244B1B6823F0070222493B68134367
:10192C000B60204B1B6803F007033A689A4201D006
:10193C00012332E07B681B6803F00403002B08D002
:10194C00194B5B6823F4E0627B68DB681649134330
:10195C004B607B681B6803F00803002B09D0124B0B
:10196C005B6823F460527B681B69DB000E491343F0
:10197C004B6000F021F801460B4B5B681B0903F030
:10198C000F030A4AD35C21FA03F3094A1360094B8B
:10199C001B681846FFF712F9002318461037BD468E
:1019AC0080BD00BF0020024000100240B42D000892
:1019BC00040000200800002090B48AB000AF2A4B2D
:1019CC003C1D0FCB84E80F00284B1B883B80002369
:1019DC00FB610023BB6100237B6200237B6100233E
:1019EC003B62234B5B68FB61FB6903F00C03042B2C
:1019FC0002D0082B03D02DE01E4B3B622DE0FB697F
:101A0C009B0C03F00F0307F12802134413F8243C3A
:101A1C007B61FB6903F48033002B13D0144B5B68A0
:101A2C005B0C03F0010307F12802134413F8283C64
:101A3C00BB617B690F4A02FB03F2BB69B2FBF3F398
:101A4C007B6204E07B690C4A02FB03F37B627B6ADA
:101A5C003B6202E0074B3B6200BF3B6A18462837EB
:101A6C00BD4690BC704700BFA02D0008B02D0008EB
:101A7C000010024000127A0000093D0080B400AF53
:101A8C00024B1B681846BD4680BC70470400002002
:101A9C0080B500AFFFF7F2FF0146054B5B681B0AF0
:101AAC0003F00703034AD35C21FA03F3184680BD05
:101ABC0000100240C42D000880B500AFFFF7DEFF18
:101ACC000146054B5B68DB0A03F00703034AD35C52
:101ADC0021FA03F3184680BD00100240C42D000803
:101AEC0080B485B000AF78600A4B1B680A4AA2FB31
:101AFC0003235B0A7A6802FB03F3FB6000BFFB68FD
:101B0C005A1EFA60002BF9D100BF1437BD4680BCB9
:101B1C00704700BF04000020D34D621080B582B026
:101B2C0000AF78607B68002B01D101233FE07B681C
:101B3C0093F83930DBB2002B06D17B68002283F896
:101B4C0038207868FEF78EFE7B68242283F83920D3
:101B5C007B681B68DA687B681B6822F40052DA60C9
:101B6C00786800F0A9FB7B681B681A697B681B68A6
:101B7C0022F490421A617B681B685A697B681B6867
:101B8C0022F02A025A617B681B68DA687B681B6842
:101B9C0042F40052DA607B680022DA637B68202210
:101BAC0083F839207B68202283F83A2000231846DA
:101BBC000837BD4680BD80B588B002AFF860B9600B
:101BCC003B601346FB8000237B61FB6893F8393044
:101BDC00DBB2202B40F08380BB68002B02D0FB884B
:101BEC00002B01D101237BE0FB6893F83830012BEB
:101BFC0001D1022374E0FB68012283F83820FB68D2
:101C0C000022DA63FB68212283F83920FFF718F8E9
:101C1C007861FB68FA889A84FB68FA88DA8442E077
:101C2C00FB68DB8C9BB2013B9AB2FB68DA84FB68E5
:101C3C009B68B3F5805F22D13B6800937B690022DF
:101C4C008021F86800F0CFF90346002B01D0032364
:101C5C0046E0BB683B613B691B881A46FB681B6806
:101C6C00C2F308025A60FB681B69002B03D1BB68E6
:101C7C000233BB6017E0BB680133BB6013E03B6809
:101C8C0000937B6900228021F86800F0ACF90346D0
:101C9C00002B01D0032323E0BB685A1CBA601A78CE
:101CAC00FB681B685A60FB68DB8C9BB2002BB7D1BE
:101CBC003B6800937B6900224021F86800F093F99F
:101CCC000346002B01D003230AE0FB68202283F893
:101CDC003920FB68002283F83820002300E002231F
:101CEC0018461837BD4680BD80B485B000AFF8608B
:101CFC00B9601346FB80FB6893F83A30DBB2202BBB
:101D0C0040D1BB68002B02D0FB88002B01D10123F2
:101D1C0039E0FB6893F83830012B01D1022332E013
:101D2C00FB68012283F83820FB68BA689A62FB686A
:101D3C00FA889A85FB68FA88DA85FB680022DA63F0
:101D4C00FB68222283F83A20FB68002283F83820B3
:101D5C00FB681B68DA68FB681B6842F48072DA6007
:101D6C00FB681B685A69FB681B6842F001025A61E8
:101D7C00FB681B68DA68FB681B6842F02002DA60BB
:101D8C00002300E0022318461437BD4680BC704780
:101D9C0080B588B000AF78607B681B681B68FB61FE
:101DAC007B681B68DB68BB617B681B685B697B615C
:101DBC0000233B610023FB60FB6903F00F033B61D5
:101DCC003B69002B0DD1FB6903F02003002B08D0DD
:101DDC00BB6903F02003002B03D0786800F0EBF90B
:101DEC00CCE03B69002B00F0AB807B6903F0010376
:101DFC00002B05D1BB6903F49073002B00F0A0807D
:101E0C00FB6903F00103002B0AD0BB6903F4807358
:101E1C00002B05D07B68DB6B43F001027B68DA6337
:101E2C00FB6903F00403002B0AD07B6903F0010368
:101E3C00002B05D07B68DB6B43F002027B68DA6316
:101E4C00FB6903F00203002B0AD07B6903F001034A
:101E5C00002B05D07B68DB6B43F004027B68DA63F4
:101E6C00FB6903F00803002B0AD07B6903F0010324
:101E7C00002B05D07B68DB6B43F008027B68DA63D0
:101E8C007B68DB6B002B78D0FB6903F02003002B05
:101E9C0007D0BB6903F02003002B02D0786800F058
:101EAC008AF97B681B685B6903F04003002B14BF45
:101EBC0001230023DBB2FB607B68DB6B03F00803C0
:101ECC00002B02D1FB68002B31D0786800F0D5F8DC
:101EDC007B681B685B6903F04003002B23D07B6895
:101EEC001B685A697B681B6822F040025A617B6848
:101EFC005B6B002B13D07B685B6B224A5A637B684D
:101F0C005B6B1846FEF7D6FF0346002B16D07B689A
:101F1C005B6B5B6B7A68526B104698470EE0786887
:101F2C0000F03BF80AE0786800F037F806E07868D3
:101F3C0000F033F87B680022DA631EE000BF1CE07F
:101F4C00FB6903F08003002B08D0BB6903F080030E
:101F5C00002B03D0786800F0C1F80FE0FB6903F0A8
:101F6C004003002B0AD0BB6903F04003002B05D0C3
:101F7C00786800F008F900BF00E000BF2037BD46CC
:101F8C0080BD00BFC120000880B483B000AF786072
:101F9C0000BF0C37BD4680BC704780B483B000AF27
:101FAC00786000BF0C37BD4680BC704780B485B0EC
:101FBC0000AF78600023FB600023BB607B6893F864
:101FCC003930DBB2FB607B6893F83A30DBB2BB6034
:101FDC00FB68DAB2BB68DBB21343DBB218461437CA
:101FEC00BD4680BC704780B584B000AFF860B96066
:101FFC003B601346FB712CE0BB69B3F1FF3F28D06B
:10200C00BB69002B07D0FEF71BFE02463B68D31AB8
:10201C00BA699A421DD2FB681B68DA68FB681B68B8
:10202C0022F4D072DA60FB681B685A69FB681B6883
:10203C0022F001025A61FB68202283F83920FB68E8
:10204C00202283F83A20FB68002283F838200323EF
:10205C000FE0FB681B681A68BB681340BA689A42A9
:10206C000CBF01230023DBB21A46FB799A42C3D082
:10207C00002318461037BD4680BD80B483B000AF36
:10208C0078607B681B68DA687B681B6822F4907246
:10209C00DA607B681B685A697B681B6822F0010256
:1020AC005A617B68202283F83A2000BF0C37BD466A
:1020BC0080BC704780B584B000AF78607B685B6A89
:1020CC00FB60FB680022DA85FB680022DA84F86882
:1020DC00FFF763FF00BF1037BD4680BD80B485B0ED
:1020EC0000AF78607B6893F83930DBB2212B44D198
:1020FC007B689B68B3F5805F1AD17B681B6AFB60B9
:10210C00FB681B881A467B681B68C2F308025A607E
:10211C007B681B69002B05D17B681B6A9A1C7B684A
:10212C001A620EE07B681B6A5A1C7B681A6208E014
:10213C007B681B6A591C7A6811621A787B681B6869
:10214C005A607B68DB8C9BB2013B9BB27A68194668
:10215C00D184002B0FD17B681B68DA687B681B6805
:10216C0022F08002DA607B681B68DA687B681B6887
:10217C0042F04002DA60002300E0022318461437D4
:10218C00BD4680BC704780B582B000AF78607B687C
:10219C001B68DA687B681B6822F04002DA607B6897
:1021AC00202283F839207868FFF7EEFE00231846CA
:1021BC000837BD4680BD80B584B000AF78607B68C1
:1021CC0093F83A30DBB2222B71D17B689B68B3F564
:1021DC00805F23D17B689B6AFB607B681B69002B4B
:1021EC000ED17B681B685B689BB2C3F308039AB281
:1021FC00FB681A807B689B6A9A1C7B689A6229E050
:10220C007B681B685B689BB2DBB29AB2FB681A8076
:10221C007B689B6A5A1C7B689A621BE07B681B6913
:10222C00002B0AD17B681B6858687B689B6A591C19
:10223C007A689162C2B21A700CE07B681B685B68AA
:10224C00DAB27B689B6A581C7968886202F07F025C
:10225C00D2B21A707B68DB8D9BB2013B9BB27A6861
:10226C001946D185002B20D17B681B68DA687B6806
:10227C001B6822F02002DA607B681B68DA687B68D6
:10228C001B6822F48072DA607B681B685A697B6871
:10229C001B6822F001025A617B68202283F83A20E5
:1022AC007868FEF7EBFB002302E0002300E002233A
:1022BC0018461037BD4680BD80B584B000AF78603D
:1022CC007B681B681B6923F440517B68DA687B6868
:1022DC001B680A431A617B689A687B681B691A43FE
:1022EC007B685B691343FB607B681B68DB6823F4CA
:1022FC00B05323F00C037A681268F9680B43D3606F
:10230C007B681B685B6923F440717B689A697B6806
:10231C001B680A435A617B681B68524A93424ED130
:10232C00FFF7CAFBB860BA6813469B0013449A00C7
:10233C001A447B685B689B00B2FBF3F34A4AA2FB2E
:10234C0003235B091901BA6813469B0013449A00D6
:10235C001A447B685B689B00B2FBF3F2424BA3FB15
:10236C0002035B09642000FB03F3D31A1B01323315
:10237C003D4AA2FB03235B0903F0F0031944BA683E
:10238C0013469B0013449A001A447B685B689B00BD
:10239C00B2FBF3F2344BA3FB02035B09642000FB9A
:1023AC0003F3D31A1B0132332F4AA2FB03235B091D
:1023BC0003F00F027B681B680A449A604DE0FFF73C
:1023CC0067FBB860BA6813469B0013449A001A4422
:1023DC007B685B689B00B2FBF3F3234AA2FB0323ED
:1023EC005B091901BA6813469B0013449A001A44FE
:1023FC007B685B689B00B2FBF3F21B4BA3FB0203F5
:10240C005B09642000FB03F3D31A1B013233164A19
:10241C00A2FB03235B0903F0F0031944BA681346CB
:10242C009B0013449A001A447B685B689B00B2FBC8
:10243C00F3F20D4BA3FB02035B09642000FB03F3D7
:10244C00D31A1B013233084AA2FB03235B0903F0A6
:10245C000F027B681B680A449A6000BF1037BD46A8
:10246C0080BD00BF003801401F85EB51024B0A466E
:10247C000146186800F034B810000020014B1868B1
:10248C00704700BF1000002070B500250C4E0D4C9D
:10249C00A41BA410A54209D100F042FC00250A4E51
:1024AC000A4CA41BA410A54205D170BD56F82530CA
:1024BC0098470135EEE756F8253098470135F2E795
:1024CC00002E0008002E0008002E0008042E000824
:1024DC0003460244934200D1704703F8011BF9E70D
:1024EC0038B502FB01F4214600F008F8054618B196
:1024FC0022460021FFF7ECFF284638BD70B5CD1CF5
:10250C0025F0030508350C2D38BF0C25002D06468B
:10251C0001DBA94203D90C233360002070BD00F00D
:10252C0077F8214A1468214691B9204C23681BB9CD
:10253C00304600F03DF820602946304600F038F86F
:10254C00431C24D10C233046336000F062F8E4E7DE
:10255C000B685B1B18D40B2B0FD90B60CC18CD5010
:10256C00304600F056F804F10B00231D20F0070054
:10257C00C31AD3D05A42E250D0E74B688C4216BFF4
:10258C00636013600C46EBE70C464968CCE7C41C4F
:10259C0024F00304A04205D0211A304600F008F8BC
:1025AC000130CFD02560DBE7980000209C00002094
:1025BC0038B50023054C054608462360FEF7F2F8B3
:1025CC00431C02D1236803B12B6038BD40010020AD
:1025DC0000B59BB0009104916FF000410591029100
:1025EC0005490391694600F06FF80022009B1A70B0
:1025FC001BB05DF804FB00BF0802FFFF13460A4640
:10260C00014602480068FFF7E3BF00BF100000203E
:10261C00704770472DE9F0478E6882469E420C4603
:10262C009046994637D88A8912F4906F31D002239C
:10263C00256809696F1A656905EB450595FBF3F586
:10264C0009F101033B449D4238BF1D46530530D56B
:10265C002946FFF753FF064650B90C234FF0FF30C5
:10266C00CAF80030A38943F04003A381BDE8F0878A
:10267C003A46216900F0B6FAA38923F4906343F03B
:10268C008003A38126613E4426604E466561ED1BA6
:10269C00A5604E4500D94E4632464146206800F0B2
:1026AC00ACFAA36800209B1BA36023681E44266021
:1026BC00DCE72A4600F006FB06460028E2D1216939
:1026CC00504600F0B3FAC8E72DE9F04F1D468B8950
:1026DC009DB01F0680460C4616460FD50B696BB98C
:1026EC004021FFF70BFF2060206128B90C23C8F8AC
:1026FC0000304FF0FF30C8E04023636100230993A2
:10270C0020238DF8293030234FF0010B8DF82A301F
:10271C00039537463D4615F8013B0BB1252B3ED1B1
:10272C00B7EB060A0BD05346324621464046FFF71C
:10273C0071FF013000F0A480099B534409933B784E
:10274C00002B00F09D8000234FF0FF32CDE90523D4
:10275C00049307938DF853301A932F46052217F8DC
:10276C00011B504800F030FA049BD0B9D90644BF85
:10277C0020228DF853201A0744BF2B228DF85320AA
:10278C002A782A2A15D02F4600200A25079A39467E
:10279C0011F8013B303B092B4DD9B8B10FE02F4656
:1027AC00B8E7404A3D46801A0BFA00F018430490F3
:1027BC00D3E7039A111D12680391002A01DB0792DB
:1027CC0004E0524243F00203079204933B782E2B11
:1027DC000CD17B782A2B33D1039B02371A1D1B6833
:1027EC000392002BB8BF4FF0FF3305932E4D0322FD
:1027FC003978284600F0E8F938B14023401B03FA39
:10280C0000F0049B013703430493397806222748D0
:10281C007E1C8DF8281000F0D7F9002838D0244BF6
:10282C0013BB039B073323F0070308330393099B64
:10283C004B4409936DE705FB023201200F46A6E7D6
:10284C0000230A25194601370593384610F8012B49
:10285C00303A092A03D9002BC8D00591C6E705FBED
:10286C00012101230746F0E703AB00932246114BED
:10287C0004A94046AFF30080B0F1FF3F8146D6D1AA
:10288C00A3895B063FF535AF09981DB0BDE8F08F05
:10289C0003AB00932246074B04A9404600F082F894
:1028AC00EAE700BFCC2D0008D22D0008D62D000879
:1028BC0000000000212600082DE9F04791461F4634
:1028CC008A680B6906469342B8BF1346C9F80030B4
:1028DC0091F843200C46DDF8208012B10133C9F881
:1028EC0000302368990642BFD9F800300233C9F88A
:1028FC000030256815F0060507D104F1190AE368C4
:10290C00D9F800209B1AAB4229DC94F8433022689A
:10291C00003318BF012392062ED404F1430239462A
:10292C003046C047013021D02368E56803F0060328
:10293C00042B18BF0025D9F800204FF0000908BF60
:10294C00AD1AA368226908BF25EAE5759342C4BF96
:10295C009B1AED181A344D451AD1002008E00123BA
:10296C00524639463046C047013003D14FF0FF3054
:10297C00BDE8F0870135C2E73020E11881F843004B
:10298C005A1C94F845102244023382F84310C4E7D1
:10299C000123224639463046C0470130E6D009F1C2
:1029AC000109D8E72DE9F04301F1430C0C46097EEF
:1029BC0085B06E291746064698460C9A00F0B380EF
:1029CC0022D8632936D00AD8002900F0B9805829BA
:1029DC0000F0838004F1420584F8421032E064294F
:1029EC0001D06929F6D120681368050603F10401AA
:1029FC002AD51B681160002B03DA2D225B4284F868
:102A0C0043206F480A2239E0732900F09D8008D8D2
:102A1C006F2920D07029DDD1236843F02003236077
:102A2C0003E0752917D07829D4D17823654884F828
:102A3C00453055E0136804F14205191D1B681160FF
:102A4C0084F8423001238CE01B6810F0400F1160B9
:102A5C0018BF1BB2CFE713682568181D1060280635
:102A6C0001D51B6802E06806FBD51B886F2914BFD3
:102A7C000A2208225248002184F843106568002D70
:102A8C00A560C0F29580216821F004012160002B23
:102A9C003DD1002D40F08E806546082A0BD123686D
:102AAC00DB0708D5236962689A42DEBF302305F83C
:102ABC00013C05F1FF35ACEB05032361CDF800803B
:102ACC003B4603AA21463046FFF7F6FE01304DD1B6
:102ADC004FF0FF3005B0BDE8F083394884F845105D
:102AEC00136821681D1D1B6815600A060BD5CA07E3
:102AFC0044BF41F0200121601BB9226822F0200262
:102B0C0022601022B7E74D0648BF9BB2EFE765463F
:102B1C00B3FBF2F102FB1133C35C05F8013D0B462C
:102B2C000029F5D1B9E713682568181D6169106093
:102B3C0028061B6801D5196002E06A06FBD51980CE
:102B4C00002365462361B9E71368191D11601D68E0
:102B5C0062680021284600F037F808B1401B60601D
:102B6C0063682361002384F84330A7E723692A466E
:102B7C0039463046C0470130AAD023689B0713D48E
:102B8C00E068039B9842B8BF1846A3E701234A4666
:102B9C0039463046C04701309AD00135E368039A74
:102BAC009B1AAB42F2DCEBE7002504F11909F5E7BF
:102BBC00002BACD1037804F1420584F842306CE769
:102BCC00DD2D0008EE2D000810B5C9B2024490426C
:102BDC00034601D1002303E01C7801308C42F6D16E
:102BEC00184610BD10B5431E0A44914200D110BDC9
:102BFC0011F8014B03F8014FF7E7884210B501EBD0
:102C0C00020307D8421E99420AD011F8014B02F870
:102C1C00014FF8E78342F5D98118D21AD34200D17B
:102C2C0010BD13F8014D01F8014DF7E738B5054615
:102C3C00002943D051F8043C0C1F002BB8BFE418FA
:102C4C00FFF7E6FC1E4A1368104633B96360146044
:102C5C002846BDE83840FFF7DCBCA3420BD92168FD
:102C6C006218934201BF1A685B6852182260636055
:102C7C000460EDE713465A680AB1A242FAD9196802
:102C8C005818A0420BD12068014458188242196090
:102C9C00DED110685268014419605A60D8E702D935
:102CAC000C232B60D4E7206821188A4201BF1168DD
:102CBC0052680918216062605C60C9E738BD00BFCA
:102CCC0098000020F8B5074614460E4621B9BDE819
:102CDC00F8401146FFF712BC22B9FFF7A7FF2546B3
:102CEC002846F8BD00F014F8A0420FD22146384611
:102CFC00FFF704FC05460028F2D031462246FFF7C8
:102D0C0071FF31463846FFF791FFE9E73546E7E7B3
:102D1C0051F8043C181F002BBCBF0B58C01870474F
:102D2C00F8B500BFF8BC08BC9E467047F8B500BFAC
:082D3C00F8BC08BC9E4670477C
:102D440074657373740A00000D0AE8AFBBE58F96CF
:102D54004448543131E68890E58A9F210D0A0D0AD2
:102D6400E6B9BFE5BAA6E4B8BA25642E256420EF17
:102D7400BC855248E6B8A9E5BAA6E4B8BA202564E9
:102D84002E2564E28483200D0A00000064687431F7
:102D940031206572726F7221000000000203040585
:102DA400060708090A0B0C0D0E0F10100102000093
:102DB40000000000000000000102030406070809E7
:102DC4000000000001020304232D302B2000686C56
:102DD4004C0065666745464700303132333435363A
:102DE4003738394142434445460030313233343573
:0C2DF400363738396162636465660000A0
:042E00003101000894
:042E04000D010008B4
:102E0800480000000024F400100000000100000049
:102E18001400002000000000000000000000000076
:102E2800000000000000000000000000000000009A
:102E3800000000000000000000000000000000008A
:102E4800000000000000000000000000000000007A
:102E5800000000000000000000000000000000006A
:102E6800000000000000000000000000000000005A
:042E78000000000056
:0400000508000B5193
:00000001FF
